:100000000C9474010C9491010C9491010C94910145
:100010000C9491010C9491010C9491010C94910118
:100020000C9491010C9491010C9491010C94910108
:100030000C9491010C9491010C9491010C949101F8
:100040000C9491010C9491010C9491010C949101E8
:100050000C9491010C94CB060C9491010C94910199
:100060000C9491010C949101808183848687898A04
:100070008C8E8F9192949597989A9B9D9EA0A2A307
:10008000A5A6A7A9AAACADAFB0B2B3B5B6B7B9BA79
:10009000BCBDBEC0C1C2C4C5C6C8C9CACBCDCECF07
:1000A000D0D2D3D4D5D6D7D9DADBDCDDDEDFE0E1C0
:1000B000E2E3E4E5E6E7E8E9EAEAEBECEDEEEEEFB1
:1000C000F0F1F1F2F3F3F4F5F5F6F6F7F8F8F9F9E3
:1000D000FAFAFAFBFBFCFCFCFDFDFDFDFEFEFEFE5C
:1000E000FEFFFFFFFFFFFFFF0000891112239B327D
:1000F0002446AD573665BF74488CC19D5AAFD3BEF8
:100100006CCAE5DB7EE9F7F88110080193331A2207
:10011000A5562C47B7753E64C99C408DDBBF52AED7
:10012000EDDA64CBFFF976E802218B3010029913E7
:100130002667AF763444BD554AADC3BC588ED19FB7
:100140006EEBE7FA7CC8F5D983310A2091121803C7
:10015000A7772E66B5543C45CBBD42ACD99E508F97
:10016000EFFB66EAFDD874C904428D5316619F7097
:100170002004A9153227BB364CCEC5DF5EEDD7FC77
:100180006888E1997AABF3BA85520C4397711E6087
:10019000A1142805B3373A26CDDE44CFDFFD56EC57
:1001A000E9986089FBBB72AA06638F7214409D5167
:1001B0002225AB343006B9174EEFC7FE5CCCD5DD37
:1001C0006AA9E3B8788AF19B87730E6295501C4147
:1001D000A3352A24B1163807CFFF46EEDDDC54CD17
:1001E000EBB962A8F99A708B088481951AA793B627
:1001F0002CC2A5D33EE1B7F04008C919522BDB3A17
:10020000644EED5F766DFF7C899400859BB712A6E6
:10021000ADD224C3BFF136E0C1184809D33B5A2AF6
:10022000E55E6C4FF77D7E6C0AA583B418869197C6
:100230002EE3A7F23CC0B5D14229CB38500AD91BD6
:10024000666FEF7E744CFD5D8BB502A499961087A6
:10025000AFF326E2BDD034C1C3394A28D11A580BB6
:10026000E77F6E6EF55C7C4D0CC685D71EE597F476
:100270002880A1913AA3B3B2444ACD5B5669DF7896
:10028000600CE91D722FFB3E8DD604C79FF516E466
:10029000A9902081BBB332A2C55A4C4BD7795E6876
:1002A000E11C680DF33F7A2E0EE787F61CC495D546
:1002B0002AA1A3B03882B193466BCF7A5448DD5956
:1002C000622DEB3C700EF91F8FF706E69DD414C526
:1002D000ABB122A0B9923083C77B4E6AD5585C4936
:1002E000E33D6A2CF11E780F11241FBECFEFD8E03A
:1002F000DEBFCDBF11E0A0E0B1E0E8E6F6E102C06C
:1003000005900D92A231B107D9F716E0A2E1B1E054
:1003100001C01D92A43EB107E1F70E94F1090C94BF
:10032000320B0C9400000C948408789480E893E0DD
:100330000E94070343E951E060E873E08CE594E034
:100340000E9465078EE494E00E94C5018EE494E06B
:100350009093E1068093E0069093DF068093DE069B
:10036000AC0160E873E08CE594E00C947708909120
:10037000C00095FFFCCF8093C60008958091C00017
:1003800087FFFCCF8091C6000895CF93DF93CDB750
:10039000DEB72E970FB6F894DEBF0FBECDBFDC01DF
:1003A0009EE0FD01892F11928A95E9F71092C50010
:1003B00087E68093C400E0ECF0E080818D7F80834D
:1003C00086E08093C20088E18093C1009E012F5F88
:1003D0003F4FF90111929A95E9F783E08C8387EBFF
:1003E00091E09A8789878EEB91E09C878B878EE0DE
:1003F000F90101900D928A95E1F72E960FB6F894C7
:10040000DEBF0FBECDBFDF91CF910895811106C031
:100410008091C000881F8827881F089580E0089574
:100420008091C00087FF03C08091C60008958FEFC0
:100430000895E091D406F091D5064FB7F894EB58A3
:10044000FF4F24813581868197814FBF2817390757
:10045000E1F0E091D406F091D5062FB7F894EB586F
:10046000FF4FA481B58182819381A817B90719F440
:100470008081918104C0A481B581CD0101969583CD
:1004800084838C912FBF90E008958FEF9FEF0895A4
:100490000F931F93CF93DF93182FC091D406D09161
:1004A000D506FE01E959FF4F8081811124C080E407
:1004B00090E09E8F8D8F1C8E1B8E1A8E01E0008324
:1004C000299A2091090130910A0140910B01509124
:1004D0000C01A0EBB4E00E94100A6056704F8F4FE1
:1004E0009F4F20E43FE140E050E00E941B0A3B8B1D
:1004F0002A8B009313010FB7F894209105013091D6
:1005000006014091070150910801A0EBB4E00E9460
:10051000100A6056704F8F4F9F4F20E43FE140E03C
:1005200050E00E941B0A3D8B2C8B0FBFE091D4063C
:10053000F091D5065FB7F89423A134A1878D90A1DF
:100540002817390739F425A136A181A192A12817CE
:10055000390761F025A136A183A194A1019741E05B
:100560002817390709F040E0842F01C081E05FBF00
:1005700080FDDCCFE091D406F091D5064FB7F8941A
:10058000A5A1B6A11C9325A136A181A192A12817EE
:10059000390719F4878D90A103C085A196A1019612
:1005A00096A385A34FBFDF91CF911F910F9108951F
:1005B00081E080931201089581E0809312011092EE
:1005C000800089E18093810081E896E09093870024
:1005D0008093860080911201882321F080E480932B
:1005E0007C0002C010927C003898409880917E0078
:1005F000816080937E0087E080937B008CEE809307
:100600007A008AB1886F8AB9219A229A08950F9345
:100610001F93CF93DF93CDB7DEB72E970FB6F89425
:10062000DEBF0FBECDBF8C018AECD8011D928A952A
:10063000E9F71093D5060093D40680E490E0F80122
:10064000968F858FC80180599F4FE859FF4F91833E
:1006500080839783868395838483C8018C589F4FBA
:1006600093838283C80183589F4FD801AB58BF4FF3
:1006700011969C938E9317969C938E93169715962E
:100680009C938E931497C80184549F4F13969C9308
:100690008E931297C8018796D80190969C938E935B
:1006A0005F9796969C938E93959794969C938E9332
:1006B0009397C8018A599F4F92969C938E939197D6
:1006C00084E090E0A681B7811C9246815781228107
:1006D00033814217530719F42081318104C02681E8
:1006E00037812F5F3F4F378326830197009751F75C
:1006F0000E94DC022EE0FE013196DF01822F1D9266
:100700008A95E9F783E08C8388E492E09A87898769
:1007100089E192E09C878B87D80101900D922A9500
:10072000E1F72E960FB6F894DEBF0FBECDBFDF9176
:10073000CF911F910F9108950F931F93CF93DF9344
:100740008B01E091D406F091D50625A136A134A302
:1007500023A3EC01080F191FC017D10721F08991BD
:100760000E944802F9CFDF91CF911F910F91089518
:10077000DC0156968C9156978111E9C058968C9160
:10078000589781119FC093962D913C91949795967F
:100790008D919C9196972817390739F454968D912D
:1007A0009C915597892B09F45CC059968C91599767
:1007B000811103C05A961C925A9781E059968C93E6
:1007C000599752968D919C915397009789F59396DE
:1007D0002D913C91949795968D919C919697281781
:1007E000390751F454968D919C91559701975596E0
:1007F0009C938E93549721C09396ED91FC9194977E
:1008000091968D919C919297E817F90729F45F963C
:100810008D919C91909706C09396ED91FC91949741
:10082000CF01019694969C938E939397808106C0F6
:10083000019753969C938E9352978EE757968C937D
:10084000579757968C9157978B3191F593962D9199
:100850003C91949795968D919C919697281739077E
:1008600041F410921301A959BF4F1C92299880E0BE
:1008700008959396ED91FC91949791968D919C910A
:100880009297E817F90729F45F968D919C919097BC
:1008900006C09396ED91FC919497CF0101969496A2
:1008A0009C938E939397808157968C93579706C00D
:1008B0008E57823018F459961C92599781E05896B9
:1008C0008C93589759962C9159975D968D919C9140
:1008D0005E972223A9F05A962C915A97253080F0E2
:1008E0005A961C925A978034910519F485E790E046
:1008F00002C080E490E05E969C938E935D9723C047
:1009000058963C91589757962C915797232341F02E
:100910005A968C915A978F5F5A968C935A970FC01C
:100920005A961C925A978034910519F485E790E005
:1009300002C080E490E05E969C938E935D97330FA7
:1009400058963C93589788E056968C9356975D96A8
:10095000ED91FC915E975B968D919C915C97E80F71
:10096000F91F9F0131705C963C932E935B975696CE
:100970008C915697815056968C93FF27E038F1055D
:1009800030F08FEF90E0AC014E1B5F0BFA01E8599D
:10099000FF4F84912F3F310511F008F080950895A5
:1009A000EF92FF920F931F93CF93DF93FC018C0183
:1009B00001541F4FD8014D915C91DC01A354BF4FEE
:1009C0004D935C93DC01A859BF4F14968D919C9177
:1009D000159712962D913C9113978217930721F446
:1009E0002D913C91119707C014968D919C9115976C
:1009F0009C012F5F3F4F15963C932E931497EC016B
:100A000088818602C00111249595879595958795D3
:100A1000E801998388837F01D3ECED0EF11CE70197
:100A2000288139818F010F531F4FE80139832883B3
:100A3000840F951F35952795820F931FE7019983A2
:100A40008883AF014B535F4F21E0181619060CF055
:100A500020E0EA018881880F822B888316968D9189
:100A60009C911797EC01688316962D913C911797EE
:100A700012968D919C9113972817390721F48D9127
:100A80009C91119705C016968D919C911797019690
:100A900017969C938E931697DA019C91892F8695D1
:100AA000869589278370DF01AA53BF4F833039F4BD
:100AB0008C91803214F48F5F01C081508C938C91A3
:100AC000885F8C9380340CF45FC18F738C93DF014B
:100AD000A953BF4F8C91880F97702BEF290F2330AC
:100AE00010F0933009F481608C939C91892F869546
:100AF0008927809581709685990F892B86878E37F7
:100B000009F04EC0DF01AB58BF4F14962D913C91B8
:100B100015978D919C9111972817390759F41696BE
:100B20002D913C91179712968D919C9113972817B0
:100B3000390781F016962D913C91179714968D9157
:100B40009C911597019741E02817390709F040E07B
:100B5000842F01C081E080FDDCC01696CD91DC9130
:100B600017978EE7888316962D913C9117971296CA
:100B70008D919C9113972817390721F48D919C91A1
:100B8000119705C016968D919C911797019617960F
:100B90009C938E93169781E0818B2A9A41E0BCC08A
:100BA000982F9F779F3719F4118A2A98EDC0918961
:100BB000992309F4E9C0982F9F739E3309F4E4C088
:100BC00080FF03C080898068808B87858F5F8787DF
:100BD0009089883008F4A5C0DF01AB58BF4F82E888
:100BE000890F823018F09B3109F04BC014962D917B
:100BF0003C9115978D919C9111972817390759F4BD
:100C000016962D913C91179712968D919C91139762
:100C10002817390781F016962D913C911797149655
:100C20008D919C911597019741E02817390709F09C
:100C300040E0842F01C081E080FD1FC01696CD9159
:100C4000DC9117978BE1888316962D913C9117972D
:100C500012968D919C9113972817390721F48D9145
:100C60009C91119705C016968D919C9117970196AE
:100C700017969C938E93169704C0118A2A9840E089
:100C800001C041E014962D913C9115978D919C9156
:100C900011972817390759F416962D913C911797FB
:100CA00012968D919C9113972817390781F016960B
:100CB0002D913C91179714968D919C9115970197C2
:100CC00051E02817390709F050E0852F01C081E075
:100CD00080FD1FC080891696CD91DC91179788837F
:100CE00016962D913C91179712968D919C91139782
:100CF0002817390721F48D919C91119705C01696FC
:100D00008D919C911797019617969C938E931697A9
:100D100003C0118A2A9840E0108A1786442321F0E4
:100D200033C09695908B30C0DF01A853BF4F8D9193
:100D30009C911197816011969C938E93EB58FF4F75
:100D400024813581808191812817390739F42681E2
:100D50003781828193812817390761F02681378195
:100D600084819581019741E02817390709F040E017
:100D7000842F01C081E080FF07C086819781958321
:100D8000848311961C921E92DF91CF911F910F9137
:100D9000FF90EF9008951F920F920FB60F921124BB
:100DA0002F933F934F935F936F937F938F939F9373
:100DB000AF93BF93EF93FF9380E286BB609178007F
:100DC00070917900769567957695679560588091D2
:100DD000D4069091D5060E94D004809113018823F7
:100DE00049F08091D4069091D5060E94B803807F87
:100DF000886001C080E88BB980914A0490914B04CF
:100E0000A0914C04B0914D040196A11DB11D809399
:100E10004A0490934B04A0934C04B0934D04FF916B
:100E2000EF91BF91AF919F918F917F916F915F9162
:100E30004F913F912F910F900FBE0F901F901895DB
:100E4000CF92DF92EF92FF920F931F93CF93DF9396
:100E50001F92CDB7DEB77C01462F82E8860F97013F
:100E600024593D4F6901823010F06B3149F4F6018D
:100E7000608171818BE190E049830E94D90A4981A8
:100E8000D701AE58BD4F2C9111965C911197842FCC
:100E900090E0FC01E227EE0FFF1FE851FF4F259184
:100EA0003491052F10E0202731272D933C93F60134
:100EB000608171810F90DF91CF911F910F91FF9011
:100EC000EF90DF90CF900C94D90A28E732E0DC0154
:100ED000F9011D923197E9F7FC01E459FD4F718347
:100EE0006083FC01EC58FD4F51834083FC01EE58B8
:100EF000FD4F2FEF3FEF31832083FC01E059FD4F81
:100F00003183208308953F924F925F926F927F9238
:100F10008F929F92AF92BF92CF92DF92EF92FF9209
:100F20000F931F93CF93DF932C013C0124E9621AA6
:100F30002DEF720A6C0149E8C41A4DEFD40AEC0196
:100F4000CA58DD4F8C0102591D4F7C0180E9E81A17
:100F50008DEFF80A33243394AA24AA94BA2C4201C0
:100F6000ACE88A1AADEF9A0AF301808191810E9460
:100F70009B0A8F3FFFEF9F0709F458C0D6012C91C1
:100F8000211128C08E379105D1F4F801808191811B
:100F9000429768F0D7018D919C91883B904F39F42E
:100FA000D401ED91FC91309711F0C201099538827E
:100FB000F701B182A082D8011D921C92D5CF8F3744
:100FC000910511F41882D0CF8B31910519F4F601F7
:100FD0003082CACF2881222331F1D8012D913C9152
:100FE0002C36B2E03B07F0F4A9014F5F5F4FF801E8
:100FF00051834083F201E20FF31F8083D7012D91CB
:101000003C911197F901E827FF27EE0FFF1FE851E8
:10101000FF4F85919491232F3327822793278D9318
:101020009C9301C01882F60110829ECFDF91CF9170
:101030001F910F91FF90EF90DF90CF90BF90AF90F6
:101040009F908F907F906F905F904F903F9008950A
:101050008F929F92AF92BF92CF92DF92EF92FF92C8
:101060000F931F93CF93DF938C014B016A017C0197
:101070008EE8E81A8DEFF80A8FEF9FEFF701918362
:1010800080835801F4E9AF1AFDEFBF0AF5016081D2
:1010900071818EE790E00E94D90AE401C80CD91C46
:1010A000CC15DD0529F06991C8010E942007F8CF11
:1010B000F7016081C1816095C8010E9420076C2FF3
:1010C0006095C8010E942007F501608171818EE75B
:1010D00090E0DF91CF911F910F91FF90EF90DF9003
:1010E000CF90BF90AF909F908F900C94D90A90931F
:1010F000D8068093D70650934F0440934E047093C4
:10110000DA066093D9060895EF92FF920F931F932A
:10111000CF93DF93EC0160914E0470914F0480EC0B
:1011200090E00E94D90A60914E0470914F0480E0D3
:1011300090E00E94D90A8E017E0182E9E81A8DEFC3
:10114000F80AF70180819181029760914E047091B5
:101150004F0498012C1B3D0B2817390708F5F8019F
:1011600081918F01803C59F48BED90E00E94D90A67
:1011700060914E0470914F048CED90E00EC08B3D59
:1011800059F48BED90E00E94D90A60914E04709161
:101190004F048DED90E001C090E00E94D90AD1CFBC
:1011A00080EC90E0DF91CF911F910F91FF90EF9035
:1011B0000C94D90A8F929F92AF92BF92CF92DF92F6
:1011C000EF92FF920F931F93CF93DF93EC017B017C
:1011D0006A01E091D906F091DA068189811144C053
:1011E0000E948B0A90910001891788F4A601B7012B
:1011F000CE01DF91CF911F910F91FF90EF90DF9083
:10120000CF90BF90AF909F908F900C9428088FB78D
:10121000F89480904A0490904B04A0904C04B090B5
:101220004D048FBF209101013091020140910301D3
:1012300050910401AAE0B0E00E94100A4FB7F89460
:1012400000914A0410914B0420914C0430914D04BC
:101250004FBF081919092A093B090617170728075C
:1012600039070CF0B6CFEACFE091D906F091DA0653
:101270008189882309F4ADCF8091D7069091D80653
:101280000E948307E091D906F091DA06E853FF4FF8
:1012900080819181892B41F311821082DF91CF915E
:1012A0001F910F91FF90EF90DF90CF90BF90AF9084
:1012B0009F908F900895282F8091DB068823A1F0BE
:1012C000203C01F580910D01811111C01092DB06C7
:1012D0004091DC065091DD0664E171E08091D70613
:1012E0009091D8060C94DA08203C09F079C081E08E
:1012F0008093DB068EEF80930D011092DD06109235
:10130000DC0608958091DC069091DD068C3632E093
:10131000930708F065C030910D01009731F43E3F0E
:1013200021F42F7020930D01089531111FC02B3D22
:1013300021F481E08093D60608953091D6063323B8
:1013400049F02C3D21F02D3D19F42BED01C020EC8E
:101350001092D606AC014F5F5F4F5093DD0640936D
:10136000DC06FC01EC5EFE4F20830895313071F401
:1013700030E0AAE0B0E00E94010A60930901709396
:101380000A0180930B0190930C010895343089F485
:101390003AE0239FC0011124AA2797FDA095BA2FF8
:1013A0008093050190930601A0930701B093080173
:1013B0000895333089F43AE0239FC0011124AA270D
:1013C00097FDA095BA2F8093010190930201A093FD
:1013D0000301B09304010895323011F42093000109
:1013E00008950E9495018CE594E00E94830780E0B7
:1013F0000E9406028823B9F30E9410020E945B0932
:10140000F2CFA29FB001B39FC001A39F700D811DB9
:101410001124911DB29F700D811D1124911D0895FD
:101420000E94010AA59F900DB49F900DA49F800D6E
:10143000911D11240895A1E21A2EAA1BBB1BFD01C8
:101440000DC0AA1FBB1FEE1FFF1FA217B307E407A3
:10145000F50720F0A21BB30BE40BF50B661F771FFB
:10146000881F991F1A9469F76095709580959095DB
:101470009B01AC01BD01CF0108958F929F92AF9265
:10148000BF92CF92DF92EF92FF92CF93DF93EC0166
:10149000688179818A819B8161157105810591053A
:1014A00021F464E279ED8BE597E02DE133EF41E043
:1014B00050E00E94130B49015A019B01AC01A7EABD
:1014C000B1E40E94100A6B017C01ACEEB4EFA501FF
:1014D00094010E940E0BC60ED71EE81EF91EF7FEE1
:1014E00006C081E0C81AD108E10880E8F80AC8827D
:1014F000D982EA82FB82C6019F77DF91CF91FF906C
:10150000EF90DF90CF90BF90AF909F908F90089515
:101510000E943D0A08958EE091E00E943D0A0895E0
:10152000A0E0B0E080930E0190930F01A093100112
:10153000B09311010895CF93DF93EC012B8120FF2D
:1015400033C026FF0AC02F7B2B838E819F8101969B
:101550009F838E838A8190E029C022FF0FC0E8819B
:10156000F9818081992787FD9095009719F4206271
:101570002B831AC03196F983E8830EC0EA85FB8578
:10158000099597FF09C02B81019611F480E101C0F4
:1015900080E2822B8B8308C02E813F812F5F3F4FDB
:1015A0003F832E83992702C08FEF9FEFDF91CF916A
:1015B00008950F931F93CF93DF93182F092FEB01FB
:1015C0008B8181FD03C08FEF9FEF20C082FF10C091
:1015D0004E815F812C813D81421753077CF4E88165
:1015E000F9819F012F5F3F4F39832883108306C005
:1015F000E885F985812F0995892B29F72E813F816F
:101600002F5F3F4F3F832E83812F902FDF91CF910C
:101610001F910F910895B7FF0C94100A0E94100AB1
:10162000821B930B0895052E97FB1EF400940E94D5
:101630002A0B57FD07D00E941B0A07FC03D04EF46B
:101640000C942A0B50954095309521953F4F4F4F64
:101650005F4F089590958095709561957F4F8F4F5E
:081660009F4F0895F894FFCF9D
:101668003FC80000003200000096000000FE0100A4
:02167800000070
:00000001FF
