:100000000C945E070C947B070C947B070C947B0785
:100010000C947B070C947B070C947B070C947B0758
:100020000C947B070C947B070C947B070C947B0748
:100030000C947B070C947B070C947B070C947B0738
:100040000C947B070C947B070C947B070C947B0728
:100050000C947B070C94B50C0C947B070C947B07D9
:100060000C947B070C947B07808183848687898A24
:100070008C8E8F9192949597989A9B9D9EA0A2A307
:10008000A5A6A7A9AAACADAFB0B2B3B5B6B7B9BA79
:10009000BCBDBEC0C1C2C4C5C6C8C9CACBCDCECF07
:1000A000D0D2D3D4D5D6D7D9DADBDCDDDEDFE0E1C0
:1000B000E2E3E4E5E6E7E8E9EAEAEBECEDEEEEEFB1
:1000C000F0F1F1F2F3F3F4F5F5F6F6F7F8F8F9F9E3
:1000D000FAFAFAFBFBFCFCFCFDFDFDFDFEFEFEFE5C
:1000E000FEFFFFFFFFFFFFFF0000891112239B327D
:1000F0002446AD573665BF74488CC19D5AAFD3BEF8
:100100006CCAE5DB7EE9F7F88110080193331A2207
:10011000A5562C47B7753E64C99C408DDBBF52AED7
:10012000EDDA64CBFFF976E802218B3010029913E7
:100130002667AF763444BD554AADC3BC588ED19FB7
:100140006EEBE7FA7CC8F5D983310A2091121803C7
:10015000A7772E66B5543C45CBBD42ACD99E508F97
:10016000EFFB66EAFDD874C904428D5316619F7097
:100170002004A9153227BB364CCEC5DF5EEDD7FC77
:100180006888E1997AABF3BA85520C4397711E6087
:10019000A1142805B3373A26CDDE44CFDFFD56EC57
:1001A000E9986089FBBB72AA06638F7214409D5167
:1001B0002225AB343006B9174EEFC7FE5CCCD5DD37
:1001C0006AA9E3B8788AF19B87730E6295501C4147
:1001D000A3352A24B1163807CFFF46EEDDDC54CD17
:1001E000EBB962A8F99A708B088481951AA793B627
:1001F0002CC2A5D33EE1B7F04008C919522BDB3A17
:10020000644EED5F766DFF7C899400859BB712A6E6
:10021000ADD224C3BFF136E0C1184809D33B5A2AF6
:10022000E55E6C4FF77D7E6C0AA583B418869197C6
:100230002EE3A7F23CC0B5D14229CB38500AD91BD6
:10024000666FEF7E744CFD5D8BB502A499961087A6
:10025000AFF326E2BDD034C1C3394A28D11A580BB6
:10026000E77F6E6EF55C7C4D0CC685D71EE597F476
:100270002880A1913AA3B3B2444ACD5B5669DF7896
:10028000600CE91D722FFB3E8DD604C79FF516E466
:10029000A9902081BBB332A2C55A4C4BD7795E6876
:1002A000E11C680DF33F7A2E0EE787F61CC495D546
:1002B0002AA1A3B03882B193466BCF7A5448DD5956
:1002C000622DEB3C700EF91F8FF706E69DD414C526
:1002D000ABB122A0B9923083C77B4E6AD5585C4936
:1002E000E33D6A2CF11E780F2D2D2D2D2D2D2D2D5A
:1002F0002D2D2D2D2D2D2D2D2D2D2D2D2D2D2D2D2E
:100300002D2D2D2D2D2D2D2D2D2D0A004820202079
:100310002020202020205072696E7420636F6E664A
:10032000696775726174696F6E0A0043202020202E
:100330002020202020436C65617220636F6E666907
:100340006775726174696F6E0A004C20202020204E
:10035000202020204C6F616420636F6E6669677592
:10036000726174696F6E0A005320202020202020C3
:1003700020205361766520636F6E666967757261D0
:1003800074696F6E0A00573C5858583E2020202050
:10039000536574207472616E736D697373696F6EE7
:1003A000207461696C2074696D6520696E206D73BD
:1003B0000A00773C5858583E20202020536574206E
:1003C000707265616D626C652074696D6520696E1F
:1003D000206D730A00563C312F303E2020202053E0
:1003E000696C656E74206D6F6465206F6E2F6F662B
:1003F000660A0A00763C312F303E202020205665C8
:1004000072626F7365206D6F6465206F6E2F6F660B
:10041000660A0070693C312F303E202020507269FE
:100420006E7420494E464F206F6E2F6F66660A0A23
:1004300000706D3C312F303E2020205072696E7468
:100440002044415441206F6E2F6F66660A00707021
:100450003C312F303E2020205072696E7420504174
:100460005448206F6E2F6F66660A0070643C312F0F
:10047000303E2020205072696E7420445354206F07
:100480006E2F6F66660A0070733C312F303E20205D
:10049000205072696E7420535243206F6E2F6F6626
:1004A000660A006D613C312F303E2020204175747A
:1004B0006F6D61746963206D657373616765204159
:1004C000434B206F6E2F6F66660A0A006D723C7395
:1004D0007369643E20205265747279206C61737474
:1004E000206D6573736167650A006D733C73736992
:1004F000643E2020536574206D65737361676520C9
:10050000726563697069656E7420535349440A00CB
:100510006D633C63616C6C3E2020536574206D6597
:10052000737361676520726563697069656E7420B5
:1005300063616C6C7369676E0A006C743C732F6145
:100540003E20202053656C6563742073796D626F63
:100550006C207461626C6520287374616E646172D2
:10056000642F616C7465726E617465290A0A006C8F
:10057000733C73796D3E20202053656C6563742055
:1005800073796D626F6C0A006C643C302D393E20CB
:10059000202053657420616E74656E6E61206469FD
:1005A00072656374697669747920696E666F0A0092
:1005B0006C673C302D393E20202053657420616EDD
:1005C00074656E6E61206761696E20696E666F0A80
:1005D000006C683C302D393E20202053657420612A
:1005E0006E74656E6E612068656967687420696EF7
:1005F000666F0A006C703C302D393E202020536518
:100600007420545820706F77657220696E666F0A87
:10061000006C6C6F3C4C4F4E3E2020536574206C38
:100620006174697475646520284E4D45412D666F6F
:10063000726D61742C2065672030373230312E376F
:100640003557290A006C6C613C4C41543E202053C4
:100650006574206C6174697475646520284E4D451D
:10066000412D666F726D61742C20656720343930BE
:10067000332E35304E290A0073323C737369643E61
:10068000202053657420504154483220535349442C
:100690000A0A0073313C737369643E202053657409
:1006A00020504154483120535349440A0073643C5C
:1006B000737369643E2020536574206465737469A4
:1006C0006E6174696F6E20535349440A0073633C32
:1006D000737369643E202053657420796F757220AE
:1006E000535349440A00323C63616C6C3E20202025
:1006F0005365742050415448322063616C6C7369B7
:10070000676E0A0A00313C63616C6C3E2020205306
:1007100065742050415448312063616C6C73696783
:100720006E0A00643C63616C6C3E2020205365744B
:100730002064657374696E6174696F6E2063616CA7
:100740006C7369676E0A00633C63616C6C3E2020C9
:100750002053657420796F75722063616C6C7369C6
:10076000676E0A00233C6D73673E2020202053658E
:100770006E642041505253206D6573736167650A42
:100780000A00403C636D743E2020202053656E6457
:10079000206C6F636174696F6E207570646174653D
:1007A0002028636D74203D206F7074696F6E616CDA
:1007B00020636F6D6D656E74290A00213C6461745D
:1007C000613E20202053656E642072617720706145
:1007D000636B65740A0053657269616C20636F6DA9
:1007E0006D616E64733A0A002D2D2D2D2D2D2D2D4A
:1007F0002D2D2D2D2D2D2D2D2D2D2D2D2D2D2D2D29
:100800002D2D2D2D2D2D2D2D2D2D0A0054582054FC
:1008100061696C3A20256C750A0054582050726545
:10082000616D626C653A20256C750A0053796D62C2
:100830006F6C3A2025630A0053796D626F6C2074E7
:1008400061626C653A207374616E646172640A005F
:1008500053796D626F6C207461626C653A20616CD3
:100860007465726E6174650A0044697265637469C7
:10087000766974793A2025640A004761696E3A20E6
:1008800025640A004865696768743A2025640A008F
:10089000506F7765723A2025640A004175746F2D98
:1008A00061636B206D657373616765733A204F6692
:1008B000660A004175746F2D61636B206D657373FB
:1008C000616765733A204F6E0A0050617468323A6E
:1008D00020252E36732D25640A0050617468313A44
:1008E00020252E36732D25640A0044657374696EC5
:1008F0006174696F6E3A20252E36732D25640A00C7
:1009000043616C6C7369676E3A20252E36732D2512
:10091000640A00436F6E66696775726174696F6E11
:100920003A0A00300A004572726F723A20496E76B8
:10093000616C696420636F6D6D616E640A0045725D
:10094000726F723A20496E76616C69642076616CD0
:10095000756520666F72205458207461696C0A00B6
:100960005458205461696C2073657420746F20257D
:100970006C756D730A004572726F723A20496E761B
:10098000616C69642076616C756520666F72207099
:100990007265616D626C650A00507265616D626CB2
:1009A000652073657420746F20256C756D730A0063
:1009B000310A004D657373616765206175746F2D31
:1009C00061636B2064697361626C65640A00310A5B
:1009D000004D657373616765206175746F2D616388
:1009E0006B20656E61626C65640A00310A005265B5
:1009F0007472696564206C617374206D65737361D2
:100A000067650A00310A000A002D25640A004D6559
:100A1000737361676520726563697069656E743AA6
:100A200020252E367300310A000A002D25640A00A5
:100A30004D65737361676520726563697069656E82
:100A4000743A20252E367300310A0053656C6563B5
:100A5000746564207374616E646172642073796D6F
:100A6000626F6C207461626C650A0053656C65632B
:100A700074656420616C7465726E6174652073794D
:100A80006D626F6C207461626C650A0053796D62EF
:100A90006F6C2073657420746F2025630A004469AD
:100AA0007265637469766974792073657420746FF4
:100AB0002025646465670A00446972656374697619
:100AC0006974792073657420746F206F6D6E690A84
:100AD00000310A00310A004761696E207365742095
:100AE000746F20256464420A00310A00416E746507
:100AF0006E6E612068656967687420736574207420
:100B00006F20256C646D204141540A00310A005069
:100B10006F7765722073657420746F202564770A7F
:100B200000310A004C6F6E677469747564652073D8
:100B3000657420746F20252E39730A00310A004C29
:100B4000617469747564652073657420746F202501
:100B50002E38730A0053696C656E74206D6F64657E
:100B60002064697361626C65640A0053696C656E28
:100B700074206D6F646520656E61626C65640A0047
:100B8000566572626F7365206D6F6465206469736A
:100B900061626C65640A00566572626F7365206DF0
:100BA0006F646520656E61626C65640A00310A00DD
:100BB0005072696E7420494E464F206469736162B9
:100BC0006C65640A00310A005072696E7420494EE7
:100BD000464F20656E61626C65640A00310A005000
:100BE00072696E7420444154412064697361626C7F
:100BF00065640A00310A005072696E7420444154E1
:100C00004120656E61626C65640A00310A005072B1
:100C1000696E7420504154482064697361626C6548
:100C2000640A00310A005072696E742050415448C1
:100C300020656E61626C65640A00310A0050726959
:100C40006E74204453542064697361626C65640A55
:100C500000310A005072696E742044535420656E4E
:100C600061626C65640A00310A005072696E74201A
:100C70005352432064697361626C65640A00310AEF
:100C8000005072696E742053524320656E61626C2D
:100C900065640A00310A0050617468323A20252EDA
:100CA00036732D25640A00310A0050617468313AA8
:100CB00020252E36732D25640A00310A0044657301
:100CC00074696E6174696F6E3A20252E36732D2516
:100CD000640A00310A0043616C6C7369676E3A20E4
:100CE000252E36732D25640A00310A005061746880
:100CF000323A20252E36732D25640A00310A005021
:100D0000617468313A20252E36732D25640A00312E
:100D10000A0044657374696E6174696F6E3A2025C8
:100D20002E36732D25640A00310A0043616C6C7302
:100D300069676E3A20252E36732D25640A00310A24
:100D4000004D6573736167652073656E740A0031C9
:100D50000A004C6F636174696F6E20757064617412
:100D6000652073656E740A00310A005061636B651B
:100D7000742073656E740A000D0A00444154413AB0
:100D800020005B252E36732D25645D2000504154D4
:100D9000483A20005B252E36732D25645D200044E3
:100DA00053543A20005B252E36732D25645D2000B8
:100DB0005352433A2000310A00436F6E66696775EB
:100DC000726174696F6E2073617665640A00300A1F
:100DD000004572726F723A204E6F2073746F7265A5
:100DE0006420636F6E66696775726174696F6E20E7
:100DF000746F206C6F6164210A00436F6E666967CF
:100E000075726174696F6E206C6F616465640A004D
:100E1000310A00436F6E66696775726174696F6E3F
:100E200020636C65617265642E2052657374617213
:100E30007420746F206C6F61642064656661756CEA
:100E400074732E0A002D2D2D2D2D2D2D2D2D2D2D94
:100E50002D2D2D2D0A004D6F64656D207265616426
:100E6000790A0044656661756C7420636F6E66690B
:100E70006775726174696F6E206C6F61646564215F
:100E80000A00756E7369676E65642E696F2F6D69F0
:100E900063726F617072730A004D6963726F4150C3
:100EA00052532076312E30620A002D2D2D2D2D2DFE
:100EB0002D2D2D2D2D2D2D2D2D0A000011241FBE81
:100EC000CFEFD8E0DEBFCDBF11E0A0E0B1E0EEEAA9
:100ED000FDE402C005900D92A234B107D9F726E0D7
:100EE000A2E4B1E001C01D92A23CB207E1F70E946A
:100EF000D5200C94D5260C9400002FB7F89460915F
:100F0000B2047091B3048091B4049091B5042FBFE2
:100F100008950C942214789488EE93E00E94FA08C5
:100F200049E857E068EE73E084EC94E00E94440DD9
:100F300086EB94E00E94B80786EB94E09093BF069E
:100F40008093BE069093BD068093BC0684EC94E02B
:100F50000C94BC129091C00095FFFCCF8093C6000A
:100F600008958091C00087FFFCCF8091C60008954E
:100F7000CF93DF93CDB7DEB72E970FB6F894DEBFD1
:100F80000FBECDBFDC019EE0FD01892F11928A9535
:100F9000E9F71092C50087E68093C400E0ECF0E02A
:100FA00080818D7F808386E08093C20088E180937A
:100FB000C1009E012F5F3F4FF90111929A95E9F709
:100FC00083E08C838AEA97E09A87898781EB97E0B0
:100FD0009C878B878EE0F90101900D928A95E1F74D
:100FE0002E960FB6F894DEBF0FBECDBFDF91CF9126
:100FF0000895811106C08091C000881F8827881F2E
:10100000089580E008958091C00087FF03C080911B
:10101000C60008958FEF08950F931F93CF93DF932A
:10102000182FC0911A06D0911B06FE01E959FF4FF7
:101030008081811124C080E490E09E8F8D8F1C8E72
:101040001B8E1A8E01E00083299A209109013091AC
:101050000A0140910B0150910C01A0EBB4E00E94F9
:101060009D216056704F8F4F9F4F20E43FE140E03D
:1010700050E00E9446213B8B2A8B009393020FB7CE
:10108000F89420910501309106014091070150919B
:101090000801A0EBB4E00E949D216056704F8F4F75
:1010A0009F4F20E43FE140E050E00E9446213D8B0D
:1010B0002C8B0FBFE0911A06F0911B065FB7F894D6
:1010C00023A134A1878D90A12817390739F425A1D0
:1010D00036A181A192A12817390761F025A136A177
:1010E00083A194A1019741E02817390709F040E056
:1010F000842F01C081E05FBF80FDDCCFE0911A0644
:10110000F0911B064FB7F894A5A1B6A11C9325A199
:1011100036A181A192A12817390719F4878D90A1D2
:1011200003C085A196A1019696A385A34FBFDF9129
:10113000CF911F910F910895E0911A06F0911B062F
:101140004FB7F894EB58FF4F248135818681978102
:101150004FBF28173907E1F0E0911A06F0911B06FE
:101160002FB7F894EB58FF4FA481B581828193810A
:10117000A817B90719F48081918104C0A481B581B1
:10118000CD010196958384838C912FBF90E00895C3
:101190008FEF9FEF089581E080939202089581E0A0
:1011A000809392021092800089E18093810081E80F
:1011B00096E0909387008093860080919202882326
:1011C00021F080E480937C0002C010927C0038986B
:1011D000409880917E00816080937E0087E08093BC
:1011E0007B008CEE80937A008AB1886F8AB9219A4D
:1011F000229A08950F931F93CF93DF93CDB7DEB755
:101200002E970FB6F894DEBF0FBECDBF8C018AECCF
:10121000D8011D928A95E9F710931B0600931A06D0
:1012200080E490E0F801968F858FC80180599F4F28
:10123000E859FF4F918380839783868395838483C6
:101240000496938382830996D801AB58BF4F1196B9
:101250009C938E9317969C938E93169715969C93BA
:101260008E931497CF9613969C938E9312978559CD
:101270009109D80190969C938E935F9796969C9334
:101280008E93959794969C938E939397CF969296E0
:101290009C938E93919784E090E0A681B7811C92F5
:1012A00046815781228133814217530719F42081E7
:1012B000318104C0268137812F5F3F4F37832683DA
:1012C0000197009751F70E94CF082EE0FE0131965A
:1012D000DF01822F1D928A95E9F783E08C838CE0F1
:1012E00098E09A8789878CE998E09C878B87D8015A
:1012F00001900D922A95E1F72E960FB6F894DEBF75
:101300000FBECDBFDF91CF911F910F9108950F9325
:101310001F93CF93DF938B01E0911A06F0911B0688
:1013200025A136A134A323A3EC01080F191FC01770
:10133000D10721F089910E940C08F9CFDF91CF915C
:101340001F910F910895DC0156968C91569781114B
:10135000E9C058968C91589781119FC093962D9112
:101360003C91949795968D919C9196972817390763
:1013700039F454968D919C915597892B09F45CC052
:1013800059968C915997811103C05A961C925A977D
:1013900081E059968C93599752968D919C915397D1
:1013A000009789F593962D913C91949795968D9100
:1013B0009C9196972817390751F454968D919C91DA
:1013C0005597019755969C938E93549721C0939669
:1013D000ED91FC91949791968D919C919297E8173D
:1013E000F90729F45F968D919C91909706C093968A
:1013F000ED91FC919497CF01019694969C938E93D6
:101400009397808106C0019753969C938E93529731
:101410008EE757968C93579757968C9157978B31A9
:1014200091F593962D913C91949795968D919C91E1
:1014300096972817390741F410929302A959BF4F84
:101440001C92299880E008959396ED91FC919497D1
:1014500091968D919C919297E817F90729F45F96E0
:101460008D919C91909706C09396ED91FC919497E5
:10147000CF01019694969C938E9393978081579673
:101480008C93579706C08E57823018F459961C9249
:10149000599781E058968C93589759962C91599763
:1014A0005D968D919C915E972223A9F05A962C917E
:1014B0005A97253080F05A961C925A97803491059D
:1014C00019F485E790E002C080E490E05E969C937A
:1014D0008E935D9723C058963C91589757962C91C0
:1014E0005797232341F05A968C915A978F5F5A96BB
:1014F0008C935A970FC05A961C925A978034910534
:1015000019F485E790E002C080E490E05E969C9339
:101510008E935D97330F58963C93589788E0569674
:101520008C9356975D96ED91FC915E975B968D91AD
:101530009C915C97E80FF91F9F0131705C963C937A
:101540002E935B9756968C915697815056968C9316
:10155000FF27E038F10530F08FEF90E0AC014E1B33
:101560005F0BFA01E859FF4F84912F3F310511F0CD
:1015700008F080950895EF92FF920F931F93CF93F9
:10158000DF93FC018C0101541F4FD8014D915C91F8
:101590001197129711965C934E93A555B109149625
:1015A0008D919C91159712962D913C9113978217CE
:1015B000930721F42D913C91119707C014968D91BA
:1015C0009C9115979C012F5F3F4F15963C932E934E
:1015D0001497EC0188818602C001112495958795A6
:1015E00095958795E801998388837F01D3ECED0E6B
:1015F000F11CE701288139818F010F531F4FE8014A
:1016000039832883840F951F35952795820F931F63
:10161000E70199838883AF014B535F4F21E0181690
:1016200019060CF420E0EA018881880F822B888358
:1016300016968D919C911797EC01688316962D91C3
:101640003C91179712968D919C9113972817390703
:1016500021F48D919C91119705C016968D919C91C6
:101660001797019617969C938E931697DA019C9183
:10167000892F8695869589278370DF01AA53BF4FEE
:10168000833039F48C91803214F48F5F01C0815023
:101690008C938C91885F8C9380340CF45FC18F7332
:1016A0008C93DF01A953BF4F8C91880F97702BEF5C
:1016B000290F233010F0933009F481608C939C91B2
:1016C000892F86958927809581709685990F892B1A
:1016D00086878E3709F04EC0DF01AB58BF4F149696
:1016E0002D913C9115978D919C9111972817390751
:1016F00059F416962D913C91179712968D919C91C5
:1017000013972817390781F016962D913C9117975A
:1017100014968D919C911597019741E028173907F0
:1017200009F040E0842F01C081E080FDDCC0169606
:10173000CD91DC9117978EE7888316962D913C9179
:10174000179712968D919C9113972817390721F4BA
:101750008D919C91119705C016968D919C9117972C
:10176000019617969C938E93169781E0818B2A9A07
:1017700041E0BCC0982F9F779F3719F4118A2A98AF
:10178000EDC09189992309F4E9C0982F9F739E3386
:1017900009F4E4C080FF03C080898068808B87855E
:1017A0008F5F87879089883008F4A5C0DF01AB5828
:1017B000BF4F82E8890F823018F09B3109F04BC08F
:1017C00014962D913C9115978D919C911197281706
:1017D000390759F416962D913C91179712968D91D1
:1017E0009C9113972817390781F016962D913C91FB
:1017F000179714968D919C911597019741E02817A2
:10180000390709F040E0842F01C081E080FD1FC04E
:101810001696CD91DC9117978BE1888316962D91C2
:101820003C91179712968D919C9113972817390721
:1018300021F48D919C91119705C016968D919C91E4
:101840001797019617969C938E93169704C0118A4A
:101850002A9840E001C041E014962D913C911597E3
:101860008D919C9111972817390759F416962D914F
:101870003C91179712968D919C91139728173907D1
:1018800081F016962D913C91179714968D919C910D
:101890001597019751E02817390709F050E0852F77
:1018A00001C081E080FD1FC080891696CD91DC913A
:1018B0001797888316962D913C91179712968D91C4
:1018C0009C9113972817390721F48D919C911197BA
:1018D00005C016968D919C911797019617969C932B
:1018E0008E93169703C0118A2A9840E0108A1786B3
:1018F000442321F033C09695908B30C0DF01A8536C
:10190000BF4F8D919C911197816011969C938E93FE
:10191000EB58FF4F24813581808191812817390749
:1019200039F426813781828193812817390761F044
:101930002681378184819581019741E028173907F5
:1019400009F040E0842F01C081E080FF07C086815C
:1019500097819583848311961C921E92DF91CF917B
:101960001F910F91FF90EF9008951F920F920FB665
:101970000F9211242F933F934F935F936F937F9315
:101980008F939F93AF93BF93EF93FF9380E286BBB8
:101990006091780070917900769567957695679556
:1019A000605880911A0690911B060E94BB0A809194
:1019B0009302882349F080911A0690911B060E9499
:1019C000A309807F886001C080E88BB98091B20450
:1019D0009091B304A091B404B091B5040196A11DF7
:1019E000B11D8093B2049093B304A093B404B09358
:1019F000B504FF91EF91BF91AF919F918F917F912E
:101A00006F915F914F913F912F910F900FBE0F906B
:101A10001F901895FF920F931F93CF93DF93EC01C4
:101A2000F62E82E8860F8E01065B1E4F823018F07C
:101A30008BE1681307C0F801608171818BE190E050
:101A40000E94B623FE01E05BFE4F20813181F90147
:101A5000EF25FF27EE0FFF1FE851FF4F45915491EF
:101A6000C05BDE4F232F3327242735273983288374
:101A7000F801608171818F2D90E0DF91CF911F91EE
:101A80000F91FF900C94B62326E531E0DC01F901BB
:101A90001D923197E9F7FC01E65BFE4F718360838D
:101AA00038965183408332972FEF3FEF3183208365
:101AB00032973183208308952F923F924F925F9205
:101AC0006F927F928F929F92AF92BF92CF92DF924E
:101AD000EF92FF920F931F93CF93DF93CDB7DEB7B3
:101AE000C555D1090FB6F894DEBF0FBECDBF8C012E
:101AF000865B9E4F64969FAF8EAF649728019BEAEA
:101B0000491A9EEF590A5801ACEAAA1AAEEFBA0A6E
:101B10007801B4EBEB1ABEEFFB0A6496EEADFFADB5
:101B20006497808191810E9478238F3FFFEF9F0708
:101B300009F426C1D2012C912111F1C08E379105F3
:101B400009F0E1C0F70140815181C801825B9E4FDD
:101B500062969FAF8EAF62974231510508F4C4C0C0
:101B6000DC018D919C91883B904F09F0BDC0D8015C
:101B7000FE013896CE010E962D912695203209F45D
:101B800020E02193E817F907B9F7F80186818695D7
:101B90008F708E87D8011796FE013196CF01069679
:101BA0002D912695203209F420E02193E817F907BA
:101BB000B9F7F8013D96D8011D968C9186958F70E6
:101BC0008F8329968FAC2997912C97E0792E61E02D
:101BD00070E0808180FF10C028969FAE28972996DC
:101BE0008FAE2997818190E02B969FAF8EAF2B9778
:101BF000039709F079C057C0B7E0B91568F32224FC
:101C00002394312C2C0E3D1E27E0929E200C311C7B
:101C10001124CF01019666969FAF8EAF669780E044
:101C200090E0292D30E06696AEADBFAD66976D9021
:101C30006696BFAFAEAF66976694B0E26B1201C016
:101C4000612C6101C80ED91ED6011E966C920196B8
:101C50008630910541F737969081729ED001739E30
:101C6000B00D1124CC24C394D12CCC0EDD1EAC0DB0
:101C7000BD1D892F86958F7054968C9397FF08C051
:101C8000CB0102C0880F991F2A95E2F7882A09C064
:101C9000DB0102C0AA0FBB1F2A95E2F79D01209528
:101CA0008222939496CF82812C968FAF2C97803F7F
:101CB000D9F4339642505109C8018E1B9F0B480F2F
:101CC000591F60965FAF4EAF60972E96FFAFEEAF95
:101CD0002E97F801EE5AFE4F0190F081E02D3097DB
:101CE00019F0CE010196099581E0D5018C938FEF13
:101CF0009FEF6296EEADFFAD629791838083D7012F
:101D00001D921C920ACF8F37910511F4F50136C050
:101D10008B31910521F481E0D2018C93FECEF50147
:101D20002081222351F1D7012D913C912A34B1E039
:101D30003B0710F5A9014F5F5F4FF70151834083C7
:101D4000F801E20FF31F8083F801E25BFE4F208170
:101D50003181F901E827FF27EE0FFF1FE851FF4F00
:101D600045915491832F992784279527F801E25BA9
:101D7000FE4F9183808301C01082F2011082CDCE8C
:101D8000CB5ADF4F0FB6F894DEBF0FBECDBFDF9149
:101D9000CF911F910F91FF90EF90DF90CF90BF9068
:101DA000AF909F908F907F906F905F904F903F90FB
:101DB0002F9008958F929F92AF92BF92CF92DF9211
:101DC000EF92FF920F931F93CF93DF938C014B0100
:101DD0006A017C0180EBE81A8EEFF80A8FEF9FEF23
:101DE000F701918380835801F6EBAF1AFEEFBF0A2B
:101DF000F501608171818EE790E00E94B623E401D5
:101E0000C80CD91CCC15DD0529F06991C8010E94C8
:101E10000A0DF8CFF7016081C1816095C8010E9469
:101E20000A0D6C2F6095C8010E940A0DF5016081B2
:101E300071818EE790E0DF91CF911F910F91FF901C
:101E4000EF90DF90CF90BF90AF909F908F900C94C9
:101E5000B6232F923F924F925F926F927F928F9212
:101E60009F92AF92BF92CF92DF92EF92FF920F9329
:101E70001F93CF93DF93CDB7DEB729970FB6F894B2
:101E8000DEBF0FBECDBF998788876B014A012C83C7
:101E90003D835C0180EBA81A8EEFB80A8FEF9FEFAD
:101EA000F5019183808328843984F6EB2F1AFEEFA5
:101EB0003F0AF101608171818EE790E00E94B623B4
:101EC0007601C12CD12CC40101979B838A83C8144D
:101ED000D90409F458C091E09983EA81FB81CE16B8
:101EE000DF0609F01982F70101900020E9F7CF0120
:101EF00001973C016E187F0897E06916710418F08D
:101F000026E0622E712C93012E0D3F1D27014216F3
:101F1000530689F0F20181912F0190E02E833F83D7
:101F20000E945F23682F660F888599850E940A0D9D
:101F30003F812E81ECCFF6E06F16710499F0412CB1
:101F4000512C86E090E0861997093C01461457040D
:101F500048F460E4888599850E940A0D9FEF491A2C
:101F6000590AF4CF89818066F7016681660F682B74
:101F7000888599850E940A0DFFEFCF1ADF0A87E056
:101F8000E80EF11CA4CF63E0888599850E940A0DB4
:101F900060EF888599850E940A0DEC80FD800E0D0A
:101FA0001F1DE016F10641F0F70161917F01888560
:101FB00099850E940A0DF5CFF50160811181609528
:101FC000888599850E940A0D612F6095888599857D
:101FD0000E940A0DF101608171818EE790E02996DF
:101FE0000FB6F894DEBF0FBECDBFDF91CF911F912A
:101FF0000F91FF90EF90DF90CF90BF90AF909F90A8
:102000008F907F906F905F904F903F902F900C94A7
:10201000B62390931E0680931D065093B7044093F9
:10202000B6047093200660931F060895EF92FF9206
:102030000F931F93CF93DF93EC016091B6047091DF
:10204000B70480EC90E00E94B6236091B6047091D2
:10205000B70480E090E00E94B6238E017E0184EBFD
:10206000E81A8EEFF80AF70180819181029760915A
:10207000B6047091B70498012C1B3D0B2817390743
:1020800008F5F80181918F01803C59F48BED90E0C7
:102090000E94B6236091B6047091B7048CED90E075
:1020A0000EC08B3D59F48BED90E00E94B6236091F9
:1020B000B6047091B7048DED90E001C090E00E94ED
:1020C000B623D1CF80EC90E0DF91CF911F910F919B
:1020D000FF90EF900C94B6238F929F92AF92BF9295
:1020E000CF92DF92EF92FF920F931F93CF93DF93E4
:1020F000EC017B016A01E0911F06F09120068189C5
:10210000811143C00E94312390910001891788F406
:10211000A601B701CE01DF91CF911F910F91FF90E2
:10212000EF90DF90CF90BF90AF909F908F900C94E6
:10213000DA0E8FB7F8948090B2049090B304A09018
:10214000B404B090B5048FBF209101013091020119
:102150004091030150910401AAE0B0E00E949D214A
:102160004FB7F8940091B2041091B3042091B404D5
:102170003091B5044FBF081919092A093B09061700
:1021800017072807390764F3B6CFE0911F06F091CF
:1021900020068189882309F4AECF80911D06909195
:1021A0001E060E945C0DE0911F06F0912006E85388
:1021B000FF4F80819181892B41F311821082DF9141
:1021C000CF911F910F91FF90EF90DF90CF90BF9034
:1021D000AF909F908F900895282F8091210688239B
:1021E000A1F0203C01F580910D01811111C01092E8
:1021F0002106409122065091230664E972E0809105
:102200001D0690911E060C946C10203C09F079C0BC
:1022100081E0809321068EEF80930D0110922306BA
:1022200010922206089580912206909123068A3406
:1022300031E0930708F065C030910D01009731F44B
:102240003E3F21F42F7020930D01089531111FC0DE
:102250002B3D21F481E080931C06089530911C06EB
:10226000332349F02C3D21F02D3D19F42BED01C015
:1022700020EC10921C06AC014F5F5F4F5093230679
:1022800040932206FC01EC56FD4F20830895313027
:1022900071F430E0AAE0B0E00E9487216093090168
:1022A00070930A0180930B0190930C0108953430D0
:1022B00089F43AE0239FC0011124AA2797FDA09535
:1022C000BA2F8093050190930601A0930701B09364
:1022D00008010895333089F43AE0239FC0011124A6
:1022E000AA2797FDA095BA2F809301019093020130
:1022F000A0930301B09304010895323011F42093A8
:10230000000108956FEF8EE290E00E940A2680910E
:102310003201882341F083E19EE09F938F930E94D6
:10232000E8230F900F908091320181110CC08091B1
:10233000E703811108C080E19EE09F938F930E9484
:10234000E8230F900F900895CF938EE290E00E94C3
:10235000EC25893609F0E3C046E050E068E270E021
:102360008CE291E00E94DC2546E050E062E270E001
:1023700086E291E00E94DC2546E050E06CE170E0EE
:1023800080E291E00E94DC2546E050E066E170E0EA
:1023900088E191E00E94DC2585E190E00E94EC2537
:1023A00090E09093E4038093E30384E190E00E9443
:1023B000EC2590E09093E2038093E10383E190E0C9
:1023C0000E94EC2590E090931F0180931E0182E112
:1023D00090E00E94EC2590E0909317018093160105
:1023E00081E190E00E94EC2591E0811101C090E034
:1023F0009093370180E190E00E94EC2591E08111FB
:1024000001C090E0909336018FE090E00E94EC25AF
:1024100091E0811101C090E0909335018EE090E051
:102420000E94EC2591E0811101C090E0909334016D
:102430008DE090E00E94EC2591E0811101C090E0D8
:10244000909333018CE090E00E94EC25C1E0811173
:1024500001C0C0E0C09332018BE090E00E94EC2507
:1024600091E0811101C090E09093E7038AE090E051
:102470000E94EC258093130189E090E00E94EC25F6
:102480008093120188E090E00E94EC258093110176
:1024900087E090E00E94EC258093100186E090E0B8
:1024A0000E94EC258093150185E090E00E94EC25C8
:1024B0008093140184E090E00E94EC2591E081116A
:1024C00001C090E09093DE0382E090E00E94F4254A
:1024D000A0E0B0E08093090190930A01A0930B0162
:1024E000B0930C0180E090E00E94F425A0E0B0E001
:1024F0008093050190930601A0930701B093080112
:10250000CC23C1F18091E6038823A1F18AEF9DE0FD
:102510009F938F930E94E8230F900F902BC0809180
:10252000E603882381F08091E70381110CC080913C
:102530003201882341F081ED9DE09F938F930E94AB
:10254000E8230F900F908091E603882381F080911B
:10255000E70381110CC080913201811108C08EEC1B
:102560009DE09F938F930E94E8230F900F9081E04E
:102570008093E503CF91089590931E0680931D06E6
:102580000E94A41181E08093E603809132018823A8
:10259000A1F18AEA9EE09F938F930E94E82389E944
:1025A0009EE09F938F930E94E82382E89EE09F9392
:1025B0008F930E94E8230F900F900F900F900F9031
:1025C0000F908091E503882341F083E69EE09F937E
:1025D0008F930E94E8230F900F9086E59EE09F93D3
:1025E0008F930E94E82385E49EE09F938F930E943F
:1025F000E8230F900F900F900F90089546E050E061
:1026000068E270E08CE291E00E94FA2546E050E03A
:1026100062E270E086E291E00E94FA2546E050E036
:102620006CE170E080E291E00E94FA2546E050E023
:1026300066E170E088E191E00E94FA256091E30391
:1026400085E190E00E940A266091E10384E190E038
:102650000E940A2660911E0183E190E00E940A26F2
:102660006091160182E190E00E940A266091370194
:1026700081E190E00E940A266091360180E190E0BD
:102680000E940A26609135018FE090E00E940A26A0
:10269000609134018EE090E00E940A26609133013F
:1026A0008DE090E00E940A26609132018CE090E07B
:1026B0000E940A266091E7038BE090E00E940A26C0
:1026C000609113018AE090E00E940A266091120155
:1026D00089E090E00E940A266091110188E090E074
:1026E0000E940A266091100187E090E00E940A266D
:1026F0006091150186E090E00E940A266091140125
:1027000085E090E00E940A266091DE0384E090E07C
:102710000E940A266091090170910A0182E090E00E
:102720000E941C26609105017091060180E090E0F6
:102730000E941C2669E68EE290E00E940A268091A3
:102740003201882341F089EB9DE09F938F930E9493
:10275000E8230F900F908091320181110CC080917D
:10276000E703811108C086EB9DE09F938F930E9441
:10277000E8230F900F9008950F931F939C01CA01B7
:1027800046E0E6E2F1E0A2E4B6E001900D924A955F
:10279000E1F74091E1034093480646E0ECE2F1E0C6
:1027A000A1EAB6E001900D924A95E1F74091E3036A
:1027B0004093A70646E0E0E2F1E0A9E4B6E001902C
:1027C0000D924A95E1F740911E0140934F0646E075
:1027D000E8E1F1E0A1EBB6E001900D924A95E1F756
:1027E000409116014093B70647E0E2E4F6E0A4E228
:1027F000B6E001900D924A95E1F747E0E1EAF6E094
:10280000ABE2B6E001900D924A95E1F747E0E9E4CA
:10281000F6E0A2E3B6E001900D924A95E1F747E0B9
:10282000E1EBF6E0A9E3B6E001900D924A95E1F7FD
:102830008B0144E050E064E276E00E94290F1F9192
:102840000F9108958F929F92AF92BF92CF92DF9295
:10285000EF92FF920F931F93CF93DF9300D000D09E
:1028600000D0CDB7DEB76C01809137018823F9F035
:1028700080913301882341F080EB9DE09F938F93FB
:102880000E94E8230F900F90D60116968C911F920C
:102890008F93DF92CF9285EA9DE09F938F930E9462
:1028A000E8230F900F900F900F900F900F90809152
:1028B0003601882301F180913301882341F08FE9AB
:1028C0009DE09F938F930E94E8230F900F90F60155
:1028D00085851F928F93C60107969F938F9384E9F6
:1028E0009DE09F938F930E94E8230F900F900F908D
:1028F0000F900F900F9080913501811105C080914C
:102900003401811144C036C080913301882341F0E5
:102910008DE89DE09F938F930E94E8230F900F9086
:102920008601025F1F4FE12CF12C4601F6E48F0E69
:10293000911C82E8A82E8DE0B82EF401808190E0F1
:10294000E816F906E4F6D80116968C911F928F933B
:102950001F930F93BF92AF920E94E823BFEFEB1A31
:10296000FB0A095F1F4F0F900F900F900F900F9071
:102970000F90E3CF88E79DE09F938F930E94E82319
:102980000F900F908091DE03811136C02DC1809190
:1029900033019601235B3F4F7901882389F0D901E8
:1029A00011968C9111978F938C918F938BE79DE06B
:1029B0009F938F930E94E8230F900F900F900F909A
:1029C00000E010E05601BBE4AB0EB11CF7018081C2
:1029D00091810817190770F66091BE067091BF06C5
:1029E000D501ED91FC91E00FF11F808190E00E94F4
:1029F000B6230F5F1F4FEACFF601E35BFF4F019055
:102A0000F081E02DEC30F10508F4EEC0D601A55BB5
:102A1000BF4F2D913C917F01E20EF31E80E090E0CC
:102A2000A12CB12CAE014F5F5F4FD7016E917D019C
:102A30006B3769F4DA01B701FB011191BF011D93F6
:102A40008D01041B150B80179107B0F75C010196EF
:102A50008730910551F7A114B10409F4C5C081E094
:102A600090E0A1E0F901E80FF91F5081FC01E55D5C
:102A7000FE4F4081541719F087E090E0A0E00196E6
:102A8000873091057CF340E050E0F901E80FF91F31
:102A900060816D3209F4AC0101968A309105ACF386
:102AA00041155105A1F0F901E40FF51F82816091F4
:102AB000E3037091E403803221F4818190E0C097B8
:102AC00002C090E086978617970709F08DC0AA2369
:102AD00009F48AC07501FEE0EF0EF11CC7010E94E7
:102AE000BC218C0180E090E020E20196F801E80F23
:102AF000F91F208389309105C1F7B60181E090E08C
:102B0000E0E0F0E0DB014D91BD01442331F098019C
:102B1000280F391FD9014C933196019687309105C2
:102B200089F7D60116968C91882369F0E00FF11F82
:102B30009DE291838A3018F4805D828304C091E322
:102B400092838A5D83838AE3F8018083828781E6AA
:102B5000838783E684878BE68587DE0112963E961F
:102B600080E090E001962D9121938A159B05D4F386
:102B70002FB7F8948091B2049091B304A091B4045B
:102B8000B091B5042FBF2FB7F8944091B204509183
:102B9000B3046091B4047091B5042FBF481B590B66
:102BA0006A0B7B0B4C3554446105710560F3409111
:102BB0001D0650911E06B701C8010E94BC13C80132
:102BC00026960FB6F894DEBF0FBECDBFDF91CF9132
:102BD0001F910F91FF90EF90DF90CF90BF90AF903B
:102BE0009F908F900C94542226960FB6F894DEBFD7
:102BF0000FBECDBFDF91CF911F910F91FF90EF904E
:102C0000DF90CF90BF90AF909F908F9008956F927C
:102C10007F929F92AF92BF92CF92DF92EF92FF92FC
:102C20000F931F93CF93DF931F92CDB7DEB75C0155
:102C30008B016A017B0184E1E80EF11C20911301F4
:102C40002A3098F4809112018A3078F48091110131
:102C50008A3058F480911001893038F47B01EBE11F
:102C6000EE0EF11C9924939401C0912CC701298385
:102C70000E94BC213C018DE3F3018083809115010A
:102C8000818780911401838B88E0E9E9F6E0D30124
:102C9000119601900D928A95E1F789E0E8EAF6E055
:102CA000D3011A9601900D928A95E1F7298191102E
:102CB00003C0C301449617C080E5F301848B88E408
:102CC000858B87E4868B205D278B80911201805D48
:102CD000808F80911101805D818F80911001805DD6
:102CE000828FC3014B960115110521F0A801B50192
:102CF0000E946723A601B701C3010E94BC13C30150
:102D00000F90DF91CF911F910F91FF90EF90DF9087
:102D1000CF90BF90AF909F907F906F900C94542273
:102D20008F929F92AF92BF92CF92DF92EF92FF92DB
:102D30000F931F93CF93DF935C016A018B0164347F
:102D4000710510F003E410E078012FE0E20EF11CB1
:102D5000C7010E94BC21EC018AE3888387E090E0F0
:102D600020E030E00197009769F0F901E05BF94F4E
:102D700040814423B9F32F5F3F4FFE01E20FF31F61
:102D80004083F0CF80910E0190910F018F3F4FEF64
:102D9000940779F0FE01E20FF31F4DE241838A3080
:102DA00091054CF42E5F3F4FFE01E20FF31F805D53
:102DB000808380E209C091E392832D5F3F4FFE0143
:102DC000E20FF31F8A5DF4CF293031053CF42F5F09
:102DD0003F4FFE01E20FF31F8083F6CFFE01E20FAB
:102DE000F31F8AE381830115110581F0A801B50164
:102DF000CE010B960E946723A801B50186E596E0F7
:102E00000E94672310934106009340068091DF03E0
:102E10009091E0030196883E23E092072CF4909372
:102E2000E0038093DF0304C01092E0031092DF03FD
:102E3000FE01E00FF11F8BE783870091DF03109104
:102E4000E0039AE0892E912CC801B4010E9432213E
:102E50009C0144E6A42EB12CC801B5010E94322188
:102E6000821B930BB4010E943221AB01C801861B67
:102E7000970B821B930BB5010E943221605D648722
:102E8000405D4587205D2687A601B701CE010E94DF
:102E9000BC13CE01DF91CF911F910F91FF90EF9066
:102EA000DF90CF90BF90AF909F908F900C94542262
:102EB0002091DF033091E003215031093093E0038A
:102EC0002093DF036091400670914106AC0186E5D6
:102ED00096E00C94901683E199E09F938F930E9463
:102EE000E8238091E4038F938091E3038F938CE236
:102EF00091E09F938F9380E099E09F938F930E943E
:102F0000E8238091E2038F938091E1038F9386E21F
:102F100091E09F938F938AEE98E09F938F930E9406
:102F2000E82380911F018F9380911E018F9380E28F
:102F300091E09F938F938AED98E09F938F930E94E7
:102F4000E823809117018F93809116018F9388E178
:102F500091E09F938F938AEC98E09F938F930E94C8
:102F6000E8238DB79EB74A960FB6F8949EBF0FBE62
:102F70008DBF8091DE03882319F083EB98E002C0B7
:102F80008BE998E09F938F930E94E8230F900F9016
:102F9000809113018A3061F01F928F9380E998E04D
:102FA0009F938F930E94E8230F900F900F900F90A4
:102FB000809112018A3061F01F928F9384E898E02B
:102FC0009F938F930E94E8230F900F900F900F9084
:102FD000809111018A3061F01F928F938AE798E007
:102FE0009F938F930E94E8230F900F900F900F9064
:102FF000809110018A3061F01F928F9389E698E0EA
:103000009F938F930E94E8230F900F900F900F9043
:10301000809115018C3541F480E598E09F938F9362
:103020000E94E8230F900F90809115018F3241F498
:1030300088E398E09F938F930E94E8230F900F906E
:10304000809114011F928F938CE298E09F938F934D
:103050000E94E82380910C018F9380910B018F9344
:1030600080910A018F93809109018F938AE198E002
:103070009F938F930E94E823809108018F93809102
:1030800007018F93809106018F93809105018F93A3
:103090008CE098E09F938F930E94E8238DB79EB7B2
:1030A00040960FB6F8949EBF0FBE8DBF089588EE70
:1030B00097E09F938F930E94E82386ED97E09F937C
:1030C0008F930E94E8238BEB97E09F938F930E944E
:1030D000E82382E897E09F938F930E94E82384E699
:1030E00097E09F938F930E94E82387E497E09F9354
:1030F0008F930E94E82383E297E09F938F930E942F
:10310000E82385E097E09F938F930E94E82386EE63
:1031100096E09F938F930E94E8238DEC96E09F9317
:103120008F930E94E8238DEA96E09F938F930E94ED
:10313000E82383E996E09F938F930E94E82388E732
:1031400096E09F938F930E94E82385E496E09F93F7
:103150008F930E94E82381E196E09F938F930E94D2
:10316000E82384EF95E09F938F930E94E8238DB727
:103170009EB780960FB6F8949EBF0FBE8DBF81EDAF
:1031800095E09F938F930E94E82380EB95E09F93B7
:103190008F930E94E82388E895E09F938F930E9485
:1031A000E8238FE695E09F938F930E94E8238AE3BC
:1031B00095E09F938F930E94E82380E195E09F9391
:1031C0008F930E94E8238AEE94E09F938F930E944E
:1031D000E8238CEC94E09F938F930E94E82383EA8A
:1031E00094E09F938F930E94E82387E894E09F9355
:1031F0008F930E94E8238BE694E09F938F930E9425
:10320000E8238EE494E09F938F930E94E82381E368
:1032100094E09F938F930E94E82383E194E09F932F
:103220008F930E94E82384EF93E09F938F930E94F3
:10323000E82385ED93E09F938F930E94E8238DB759
:103240009EB780960FB6F8949EBF0FBE8DBF82EBDF
:1032500093E09F938F930E94E82386E893E09F93E7
:103260008F930E94E82388E693E09F938F930E94B8
:10327000E8238AE493E09F938F930E94E8238BE2F4
:1032800093E09F938F930E94E8238CE093E09F93B9
:103290008F930E94E82388EE92E09F938F930E9481
:1032A000E8238DB79EB70E960FB6F8949EBF0FBE5B
:1032B0008DBF0895EF92FF920F931F93CF93DF93EB
:1032C00000D000D0CDB7DEB78C016115710509F4CF
:1032D00061C7FC018081813209F56230710508F413
:1032E00014C761507109C80101960E94BC138091F6
:1032F0003201882341F08BE69DE09F938F930E94DB
:10330000E8230F900F9080913201811143C7809183
:10331000E70381113FC788E69DE00DC78034E9F4DB
:1033200061507109C80101960E940716809132010F
:10333000882341F082E59DE09F938F930E94E823CC
:103340000F900F9080913201811124C78091E70383
:10335000811120C78FE49DE0EEC68332E9F461500D
:103360007109C80101960E9490168091320188234C
:1033700041F081E49DE09F938F930E94E8230F909A
:103380000F9080913201811105C78091E70381116F
:1033900001C78EE39DE0CFC6883619F40E94571806
:1033A000F9C6883419F40E946B17F4C6833519F4F2
:1033B0000E94FE12EFC6833419F40E948211EAC6FD
:1033C0008C3419F40E94A411E5C6833609F052C06A
:1033D0006430710508F499C6ECE2F1E081E090E018
:1033E0009C012150310986179707A9F08730910574
:1033F00081F0D801A80FB91F2C91222331F02A3077
:1034000021F02D3011F0208301C0108201963196F9
:10341000E7CF26E030E02630310539F0F901E45DF0
:10342000FE4F10822F5F3F4FF6CF809132018823ED
:10343000B1F08091E4038F938091E3038F938CE24A
:1034400091E09F938F938BE29DE09F938F930E94D7
:10345000E8230F900F900F900F900F900F90809196
:103460003201811197C68091E703811193C688E2EA
:103470009DE061C6843609F052C06430710508F4DD
:1034800044C6E6E2F1E081E090E09C012150310980
:1034900086179707A9F08730910581F0D801A80F0A
:1034A000B91F2C91222331F02A3021F02D3011F058
:1034B000208301C0108201963196E7CF26E030E0EC
:1034C0002630310539F0F901EA5DFE4F10822F5F99
:1034D0003F4FF6CF809132018823B1F08091E20313
:1034E0008F938091E1038F9386E291E09F938F9376
:1034F00082E19DE09F938F930E94E8230F900F90AD
:103500000F900F900F900F9080913201811142C661
:103510008091E70381113EC68FE09DE00CC68133A8
:1035200009F052C06230710508F4EFC5E0E2F1E045
:1035300081E090E09C012150310986179707A9F09E
:103540008730910581F0D801A80FB91F2C91222353
:1035500031F02A3021F02D3011F0208301C010828B
:1035600001963196E7CF26E030E02630310539F07C
:10357000F901E05EFE4F10822F5F3F4FF6CF809142
:1035800032018823B1F080911F018F9380911E0139
:103590008F9380E291E09F938F938FEF9CE09F93B6
:1035A0008F930E94E8230F900F900F900F900F9031
:1035B0000F90809132018111EDC58091E703811157
:1035C000E9C58CEF9CE0B7C5823309F052C0623088
:1035D000710508F49AC5E8E1F1E081E090E09C0112
:1035E0002150310986179707A9F08730910581F09E
:1035F000D801A80FB91F2C91222331F02A3021F0D5
:103600002D3011F0208301C0108201963196E7CF52
:1036100026E030E02630310539F0F901E85EFE4F52
:1036200010822F5F3F4FF6CF809132018823B1F097
:10363000809117018F93809116018F9388E191E01B
:103640009F938F938CEE9CE09F938F930E94E8232F
:103650000F900F900F900F900F900F90809132016C
:10366000811198C58091E703811194C589EE9CE092
:1036700062C5833709F02BC16330710508F445C575
:103680007B01F1E0EF1AF108F8018181833609F03E
:1036900045C08281F2E0EF16F10461F0F8019381F8
:1036A0002FEC290F293030F4813320F0892F90E05E
:1036B000869706C09FEC980F993030F490E0C09741
:1036C0009093E4038093E303809132018823B1F067
:1036D0008091E4038F938091E3038F938CE291E0D8
:1036E0009F938F9386ED9CE09F938F930E94E82396
:1036F0000F900F900F900F900F900F9080913201CC
:1037000081110CC08091E703811108C083ED9CE01A
:103710009F938F930E94E8230F900F90F80181816F
:10372000843609F045C08281F2E0EF16F10461F0C1
:10373000F80193812FEC290F293030F4813320F0E8
:10374000892F90E0869706C09FEC980F993030F44F
:1037500090E0C0979093E2038093E103809132015F
:103760008823B1F08091E2038F938091E1038F93DE
:1037700086E291E09F938F938DEB9CE09F938F93D4
:103780000E94E8230F900F900F900F900F900F90D2
:103790008091320181110CC08091E703811108C032
:1037A0008AEB9CE09F938F930E94E8230F900F90E9
:1037B000F8018181813309F045C08281F2E0EF1682
:1037C000F10461F0F80193812FEC290F293030F4D6
:1037D000813320F0892F90E0869706C09FEC980FE8
:1037E000993030F490E0C09790931F0180931E01B0
:1037F000809132018823B1F080911F018F938091D5
:103800001E018F9380E291E09F938F938AEA9CE060
:103810009F938F930E94E8230F900F900F900F902B
:103820000F900F908091320181110CC08091E703BD
:10383000811108C087EA9CE09F938F930E94E82340
:103840000F900F90F8018181823309F0A3C4838126
:10385000F2E0EF16F10459F09FEC980F993038F42C
:10386000F8019281913318F090E0869707C0815358
:10387000893040F4F801828190E0C097909317015D
:1038800080931601809132018823B1F08091170155
:103890008F93809116018F9388E191E09F938F938E
:1038A00087E99CE09F938F930E94E8230F900F90ED
:1038B0000F900F900F900F908091320181116AC488
:1038C0008091E703811166C484E99CE034C48037A9
:1038D00009F031C16330710508F417C4F801818122
:1038E0008337C9F59281809132019133C1F491E01F
:1038F00090933701882341F081E89CE09F938F9358
:103900000E94E8230F900F9080913201811123C013
:103910008091E70381111FC08EE79CE016C01092D2
:103920003701882341F08AE69CE09F938F930E94A1
:10393000E8230F900F908091320181110CC080918B
:10394000E703811108C087E69CE09F938F930E9454
:10395000E8230F900F90F80181818436C9F5928198
:10396000809132019133C1F491E090933601882324
:1039700041F084E59CE09F938F930E94E8230F9091
:103980000F9080913201811123C08091E703811152
:103990001FC081E59CE016C010923601882341F0DB
:1039A0008DE39CE09F938F930E94E8230F900F90EC
:1039B0008091320181110CC08091E703811108C010
:1039C0008AE39CE09F938F930E94E8230F900F90CF
:1039D000F80181818037C9F592818091320191335C
:1039E000C1F491E090933501882341F086E29CE098
:1039F0009F938F930E94E8230F900F908091320144
:103A0000811123C08091E70381111FC083E29CE0F4
:103A100016C010923501882341F08EE09CE09F9300
:103A20008F930E94E8230F900F90809132018111B3
:103A30000CC08091E703811108C08BE09CE09F934C
:103A40008F930E94E8230F900F90F80181818D36AB
:103A5000C9F59281809132019133C1F491E0909344
:103A60003401882341F087EF9BE09F938F930E945E
:103A7000E8230F900F9080913201811123C0809133
:103A8000E70381111FC084EF9BE016C01092340140
:103A9000882341F08FED9BE09F938F930E94E82352
:103AA0000F900F908091320181110CC08091E7033B
:103AB000811108C08CED9BE09F938F930E94E823B7
:103AC0000F900F90F8018181893609F063C39281CC
:103AD000809132019133C1F491E0909333018823B6
:103AE00041F088EC9BE09F938F930E94E8230F9016
:103AF0000F908091320181114DC38091E7038111B4
:103B000049C385EC9BE017C310923301882341F031
:103B100080EB9BE09F938F930E94E8230F900F9080
:103B200080913201811136C38091E703811132C344
:103B30008DEA9BE000C3863779F4F80181818133F7
:103B400031F481E08093320187E99BE0F4C2109266
:103B5000320180E89BE0EFC2863589F4F80181816B
:103B6000813341F481E08093E703109232018BE6C8
:103B70009BE0E1C21092E70385E59BE0DCC28C3656
:103B800009F040C16330710508F4BFC2F8018181BA
:103B90008C3609F05BC0615071098281813649F52C
:103BA0006A30710508F4F6C288E03396A9E9B6E0F8
:103BB00001900D928A95E1F780913201882371F08E
:103BC00089E996E09F938F938FE39BE09F938F9378
:103BD0000E94E8230F900F900F900F908091320178
:103BE0008111D8C28091E7038111D4C28CE39BE09C
:103BF000A2C28F3609F0CEC26B30710508F4CAC27A
:103C000089E0F8013396A8EAB6E001900D928A9512
:103C1000E1F780913201882371F088EA96E09F9362
:103C20008F9384E29BE09F938F930E94E8230F90F1
:103C30000F900F900F90809132018111ABC2809153
:103C4000E7038111A7C281E29BE075C2803731F59D
:103C5000F801828180538A3008F09CC2809313015E
:103C600090913201992379F0889FC00111249F938C
:103C70008F938FE09BE09F938F930E94E8230F9098
:103C80000F900F900F9080913201811183C280912B
:103C9000E70381117FC28CE09BE04DC28836C1F5FD
:103CA000F801828180538A3008F074C28093120137
:103CB00090913201992309F1A1E0B0E002C0AA0F6E
:103CC000BB1F8A95E2F728EE33E00E94962128E494
:103CD00031E040E050E00E9468215F934F933F93B2
:103CE0002F938CEE9AE09F938F930E94E8230F907E
:103CF0000F900F900F900F900F90809132018111D3
:103D000049C28091E703811145C289EE9AE013C24E
:103D1000873619F5F801828180538A3008F03AC25B
:103D20008093110190913201992361F01F928F933A
:103D300087ED9AE09F938F930E94E8230F900F9056
:103D40000F900F9080913201811124C28091E7037E
:103D5000811120C284ED9AE0EEC18436D1F5F801DC
:103D6000828180538A3008F015C2893009F488E0D6
:103D7000809310018091320181110CC08091E70382
:103D8000811108C081ED9AE09F938F930E94E823F0
:103D90000F900F9080913201882309F4FBC180912C
:103DA0001001811108C088EB9AE09F938F930E94C5
:103DB000E8230F900F9080911001882309F4EAC145
:103DC000FDE28F9FC00111249F938F938EE99AE0AB
:103DD00010C0833709F0B6C1F801828180931401C5
:103DE00090913201992309F4D5C11F928F938CE8E9
:103DF0009AE09F938F930E94E8230F900F900F906B
:103E00000F90C8C18D3609F01BC16230710508F4EE
:103E10007CC1CB010197F8012181233609F061C0F3
:103E2000019709F4B7C1E0E5F6E0D80112966250B7
:103E3000710980E090E08617970781F08630910540
:103E400069F02D91222331F02A3021F02D3011F02C
:103E5000208301C0108201963196EDCF8630910506
:103E600031F0FC01E05BF94F10820196F7CF8091B1
:103E70003201882359F180E596E09F938F9380E388
:103E80009AE09F938F930E94E82380910E01909176
:103E90000F010F900F900F900F908F3FFFEF9F0734
:103EA00069F09F938F938BE29AE09F938F930E9488
:103EB000E8230F900F900F900F9008C089E29AE0CE
:103EC0009F938F930E94E8230F900F90809132016F
:103ED000811160C18091E70381115CC186E29AE0A3
:103EE0002AC1233709F058C08130910509F452C125
:103EF000F801049720F0838190E0869703C08281C7
:103F000090E0C09790930F0180930E0180910E0175
:103F100090910F01409730F08FEF9FEF90930F013A
:103F200080930E0180913201882359F180E596E05B
:103F30009F938F938EE09AE09F938F930E94E82344
:103F400080910E0190910F010F900F900F900F90A4
:103F50008F3FFFEF9F0769F09F938F9389E09AE06F
:103F60009F938F930E94E8230F900F900F900F90D4
:103F700008C087E09AE09F938F930E94E8230F90F8
:103F80000F9080913201811105C18091E703811169
:103F900001C184E09AE0CFC02237D1F4CA010E9467
:103FA000581780913201882341F08EEE99E09F935B
:103FB0008F930E94E8230F900F908091320181111E
:103FC000E9C08091E7038111E5C08BEE99E0B3C0B1
:103FD000213609F0DFC0F8019281809132019133DE
:103FE000C1F491E09093DE03882341F081ED99E0E4
:103FF0009F938F930E94E8230F900F90809132013E
:104000008111C8C08091E7038111C4C08EEC99E092
:1040100092C01092DE03882341F083EB99E09F93D6
:104020008F930E94E8230F900F90809132018111AD
:10403000B1C08091E7038111ADC080EB99E07BC0F6
:10404000873761F56230710508F45FC0AB014150FC
:104050005109B8016F5F7F4FCE0101960E9467231F
:10406000CE0101960E9441238031F7E29F0798F428
:10407000AA2797FDA095BA2F8093090190930A0172
:10408000A0930B01B0930C01BF93AF939F938F93B9
:1040900089E999E02CC086E799E04DC08735A9F5FC
:1040A0006230710590F1AB0141505109B8016F5F69
:1040B0007F4FCE0101960E946723CE0101960E9498
:1040C0004123803127E29207E8F4AA2797FDA095C3
:1040D000BA2F8093050190930601A0930701B09336
:1040E0000801BF93AF939F938F9380E699E09F93CE
:1040F0008F930E94E8230F900F900F900F900F90D6
:104100000F9048C08EE399E016C080913201882359
:1041100041F086E299E09F938F930E94E8230F90ED
:104120000F9080913201811135C08091E703811198
:1041300031C083E299E09F938F930E94E8230F9010
:104140000F9028C0843731F5F801928180913201B7
:10415000913641F49CE590931501882381F08BE61C
:104160009AE007C09FE290931501882341F08BE409
:104170009AE09F938F930E94E8230F900F90809175
:104180003201811107C08091E703811103C088E4E7
:104190009AE0D1CF0F900F900F900F90DF91CF91B9
:1041A0001F910F91FF90EF9008950E948B070E943E
:1041B0007D076B017C01C1E084EC94E00E945C0D02
:1041C00080914201811125C00E94F907882309F1DD
:1041D0000E940308282F30E03093460120934501C8
:1041E0002091430130914401F901E95BFE4FA9019F
:1041F0004F5F5F4F808350934401409343012934C4
:10420000314010F0C09342010E947D076B017C0198
:1042100013C08091430190914401892B69F00E9461
:104220007D076C197D098E099F096531710581052E
:10423000910514F0C093420180914201882309F452
:10424000BBCF609143017091440144EC54E087E49A
:1042500091E00E945A19109242011092440110926A
:104260004301AACF97FB072E16F4009407D077FDE1
:1042700009D00E94A82107FC05D03EF490958195B5
:104280009F4F0895709561957F4F0895A1E21A2E72
:10429000AA1BBB1BFD010DC0AA1FBB1FEE1FFF1FEA
:1042A000A217B307E407F50720F0A21BB30BE40B3A
:1042B000F50B661F771F881F991F1A9469F7609581
:1042C0007095809590959B01AC01BD01CF0108953B
:1042D000052E97FB1EF400940E947F2157FD07D006
:1042E0000E94462107FC03D04EF40C947F21509588
:1042F0004095309521953F4F4F4F5F4F08959095D2
:104300008095709561957F4F8F4F9F4F0895A29F25
:10431000B001B39FC001A39F700D811D1124911D99
:10432000B29F700D811D1124911D08950E94872157
:10433000B7FF0895821B930B08950E948721A59FC4
:10434000900DB49F900DA49F800D911D1124089590
:10435000AA1BBB1B51E107C0AA1FBB1FA617B707AB
:1043600010F0A61BB70B881F991F5A95A9F78095C7
:104370009095BC01CD010895CF93DF9382309105D4
:1043800010F482E090E0E091BA06F091BB0620E0E4
:1043900030E0A0E0B0E0309739F14081518148171A
:1043A0005907B8F04817590771F482819381109723
:1043B00029F013969C938E9312972CC09093BB0672
:1043C0008093BA0627C02115310531F042175307F3
:1043D00018F0A901DB0101C0EF019A01BD01DF0165
:1043E0000280F381E02DD7CF21153105F9F0281B8C
:1043F000390B2430310580F48A819B816115710568
:1044000021F0FB019383828304C09093BB068093C9
:10441000BA06FE01329644C0FE01E20FF31F8193FB
:10442000919322503109398328833AC02091B806EC
:104430003091B906232B41F420913A0130913B0190
:104440003093B9062093B806209138013091390194
:104450002115310541F42DB73EB740913C015091F3
:104460003D01241B350BE091B806F091B906E21727
:10447000F307A0F42E1B3F0B2817390778F0AC0187
:104480004E5F5F4F2417350748F04E0F5F1F509364
:10449000B9064093B8068193919302C0E0E0F0E042
:1044A000CF01DF91CF910895CF93DF93009709F467
:1044B00087C0FC01329713821282C091BA06D09154
:1044C000BB06209781F420813181280F391F80910C
:1044D000B8069091B9068217930779F5F093B9065B
:1044E000E093B8066DC0DE0120E030E0AE17BF07F4
:1044F00050F412964D915C9113979D014115510511
:1045000009F1DA01F3CFB383A28340815181840F93
:10451000951F8A179B0771F48D919C911197840FB9
:10452000951F02969183808312968D919C9113978B
:10453000938382832115310529F4F093BB06E09320
:10454000BA063EC0D9011396FC93EE9312974D9193
:104550005D91A40FB51FEA17FB0779F48081918163
:10456000840F951F0296D90111969C938E93828198
:10457000938113969C938E931297E0E0F0E08A81EA
:104580009B81009719F0FE01EC01F9CFCE01029654
:1045900028813981820F931F2091B8063091B90686
:1045A0002817390769F4309729F41092BB06109246
:1045B000BA0602C013821282D093B906C093B8061D
:1045C000DF91CF9108958F929F92AF92BF92CF9239
:1045D000DF92EF92FF92CF93DF93EC0168817981B4
:1045E0008A819B81611571058105910521F464E241
:1045F00079ED8BE597E02DE133EF41E050E00E944B
:10460000682149015A019B01AC01A7EAB1E40E946B
:104610009D216B017C01ACEEB4EFA50194010E94D9
:104620009926C60ED71EE81EF91EF7FE06C081E0C9
:10463000C81AD108E10880E8F80AC882D982EA825B
:10464000FB82C6019F77DF91CF91FF90EF90DF90C3
:10465000CF90BF90AF909F908F9008950E94E322DB
:1046600008958EE391E00E94E3220895A0E0B0E077
:1046700080933E0190933F01A0934001B09341018C
:104680000895FC0188279927E89421912032E9F3C5
:10469000293010F02E30C8F32B3241F02D3239F48E
:1046A000689404C00E947023820F911D21912053B1
:1046B0002A30C0F31EF4909581959F4F0895911173
:1046C000089581568A5108F4805285580895FB0157
:1046D000DC0102C001900D9241505040D8F708957E
:1046E0007AE0979F902D879F802D910D112408953A
:1046F000CF93DF93EC012B8120FF33C026FF0AC04C
:104700002F7B2B838E819F8101969F838E838A814D
:1047100090E029C022FF0FC0E881F98180819927AC
:1047200087FD9095009719F420622B831AC031966B
:10473000F983E8830EC0EA85FB85099597FF09C0D8
:104740002B81019611F480E101C080E2822B8B83E2
:1047500008C02E813F812F5F3F4F3F832E839927D3
:1047600002C08FEF9FEFDF91CF9108950F931F93BA
:10477000CF93DF93182F092FEB018B8181FD03C0AD
:104780008FEF9FEF20C082FF10C04E815F812C8190
:104790003D81421753077CF4E881F9819F012F5F27
:1047A0003F4F39832883108306C0E885F985812F20
:1047B0000995892B29F72E813F812F5F3F4F3F833A
:1047C0002E83812F902FDF91CF911F910F9108950C
:1047D000A0E0B0E0EEEEF3E20C94AC26FE013796DA
:1047E000619171910EEB16E0D8018D919C91DC01E5
:1047F00013962C911397286013962C93AF010E9467
:104800000A24D801ED91FC912381277F2383E4E0E2
:104810000C94C826ACE0B0E0E0E1F4E20C949E26F3
:104820007C016B018A01FC0117821682838181FF62
:10483000BDC1CE0101964C01F7019381F60193FDB4
:10484000859193FF81916F01882309F4ABC1853273
:1048500039F493FD859193FF81916F01853229F49D
:10486000B70190E00E94B623E7CF512C312C20E015
:104870002032A0F48B3269F030F4803259F0833268
:1048800069F420612CC08D3239F0803339F4216015
:1048900026C02260246023C0286021C027FD27C0D5
:1048A00030ED380F3A3078F426FF06C0FAE05F9E0C
:1048B000300D1124532E13C08AE0389E300D112480
:1048C000332E20620CC08E3221F426FD6BC1206491
:1048D00006C08C3611F4206802C0883641F4F60117
:1048E00093FD859193FF81916F018111C1CF982F25
:1048F0009F7D9554933028F40C5F1F4FFFE3F9839D
:104900000DC0833631F0833771F0833509F05BC019
:1049100022C0F801808189830E5F1F4F4424439495
:10492000512C540115C03801F2E06F0E711CF801D2
:10493000A080B18026FF03C0652D70E002C06FEF3C
:104940007FEFC5012C870E942D262C0183012C8529
:104950002F77222E17C03801F2E06F0E711CF8017C
:10496000A080B18026FF03C0652D70E002C06FEF0C
:104970007FEFC5012C870E9422262C012C85206800
:10498000222E830123FC1BC0832D90E0481659067C
:10499000B0F4B70180E290E00E94B6233A94F4CFDD
:1049A000F50127FC859127FE81915F01B70190E019
:1049B0000E94B62331103A94F1E04F1A5108411485
:1049C000510471F7E5C0843611F0893639F5F801E4
:1049D00027FF07C060817181828193810C5F1F4F27
:1049E00008C060817181882777FD8095982F0E5FC0
:1049F0001F4F2F76B22E97FF09C090958095709526
:104A000061957F4F8F4F9F4F2068B22E2AE030E094
:104A1000A4010E943826A82EA81844C0853729F47E
:104A20002F7EB22E2AE030E025C0F22FF97FBF2E74
:104A30008F36C1F018F4883579F0B4C0803719F09A
:104A4000883721F0AFC02F2F2061B22EB4FE0DC0E9
:104A50008B2D8460B82E09C024FF0AC09F2F96605A
:104A6000B92E06C028E030E005C020E130E002C0E9
:104A700020E132E0F801B7FE07C0608171818281D8
:104A800093810C5F1F4F06C06081718180E090E0D0
:104A90000E5F1F4FA4010E943826A82EA818FB2DD8
:104AA000FF77BF2EB6FE0BC02B2D2E7FA51450F422
:104AB000B4FE0AC0B2FC08C02B2D2E7E05C07A2C95
:104AC0002B2D03C07A2C01C0752C24FF0DC0FE01D4
:104AD000EA0DF11D8081803311F4297E09C022FF87
:104AE00006C07394739404C0822F867809F073947F
:104AF00023FD13C020FF06C05A2C731418F4530C66
:104B00005718732C731468F4B70180E290E02C8777
:104B10000E94B62373942C85F5CF731410F43718C4
:104B200001C0312C24FF12C0B70180E390E02C8734
:104B30000E94B6232C8522FF17C021FF03C088E501
:104B400090E002C088E790E0B7010CC0822F867821
:104B500059F021FD02C080E201C08BE227FD8DE209
:104B6000B70190E00E94B623A51438F4B70180E3A2
:104B700090E00E94B6235A94F7CFAA94F401EA0D6C
:104B8000F11D8081B70190E00E94B623A110F5CFFE
:104B9000332009F451CEB70180E290E00E94B623A1
:104BA0003A94F6CFF7018681978102C08FEF9FEF8D
:104BB0002C96E2E10C94BA26DC01CB01FC01F999B8
:104BC000FECF06C0F2BDE1BDF89A319600B40D9259
:104BD00041505040B8F70895F999FECF92BD81BD7C
:104BE000F89A992780B50895A8E1B0E042E050E036
:104BF0000C94DE25DC01A40FB51F4150504048F055
:104C0000CB01840F951F2E910E940B2641505040DE
:104C1000D0F70895262FF999FECF92BD81BDF89A5D
:104C2000019700B4021639F01FBA20BD0FB6F894F0
:104C3000FA9AF99A0FBE08950196272F0E940B2623
:104C40000C940A26FC010590615070400110D8F7C1
:104C5000809590958E0F9F1F0895FC0161507040C4
:104C600001900110D8F7809590958E0F9F1F0895A1
:104C7000FA01AA27283051F1203181F1E8946F938D
:104C80006E7F6E5F7F4F8F4F9F4FAF4FB1E03ED033
:104C9000B4E03CD0670F781F891F9A1FA11D680FD1
:104CA000791F8A1F911DA11D6A0F711D811D911D04
:104CB000A11D20D009F468943F912AE0269F112479
:104CC0003019305D3193DEF6CF010895462F4770DD
:104CD000405D4193B3E00FD0C9F7F6CF462F4F7038
:104CE000405D4A3318F0495D31FD4052419302D096
:104CF000A9F7EACFB4E0A69597958795779567953C
:104D0000BA95C9F700976105710508959B01AC013B
:104D10000A2E06945795479537952795BA95C9F762
:104D2000620F731F841F951FA01D0895B7FF0C9479
:104D30009D210E949D21821B930B08952F923F92EB
:104D40004F925F926F927F928F929F92AF92BF929B
:104D5000CF92DF92EF92FF920F931F93CF93DF9347
:104D6000CDB7DEB7CA1BDB0B0FB6F894DEBF0FBEA4
:104D7000CDBF09942A88398848885F846E847D84F1
:104D80008C849B84AA84B984C884DF80EE80FD80F3
:104D90000C811B81AA81B981CE0FD11D0FB6F89469
:0E4DA000DEBF0FBECDBFED010895F894FFCF2A
:104DAE003FC80000003200000096000000FEFFFF2A
:104DBE000A0A0A0A6E2F02005749444532000100C2
:104DCE0057494445310041505A4D444D4E4F434191
:104DDE004C4C0101010101010000C206200001003E
:024DEE000000C3
:00000001FF
