:100000000C945E070C947B070C947B070C947B0785
:100010000C947B070C947B070C947B070C947B0758
:100020000C947B070C947B070C947B070C947B0748
:100030000C947B070C947B070C947B070C947B0738
:100040000C947B070C947B070C947B070C947B0728
:100050000C947B070C94A00C0C947B070C947B07EE
:100060000C947B070C947B07808183848687898A24
:100070008C8E8F9192949597989A9B9D9EA0A2A307
:10008000A5A6A7A9AAACADAFB0B2B3B5B6B7B9BA79
:10009000BCBDBEC0C1C2C4C5C6C8C9CACBCDCECF07
:1000A000D0D2D3D4D5D6D7D9DADBDCDDDEDFE0E1C0
:1000B000E2E3E4E5E6E7E8E9EAEAEBECEDEEEEEFB1
:1000C000F0F1F1F2F3F3F4F5F5F6F6F7F8F8F9F9E3
:1000D000FAFAFAFBFBFCFCFCFDFDFDFDFEFEFEFE5C
:1000E000FEFFFFFFFFFFFFFF0000891112239B327D
:1000F0002446AD573665BF74488CC19D5AAFD3BEF8
:100100006CCAE5DB7EE9F7F88110080193331A2207
:10011000A5562C47B7753E64C99C408DDBBF52AED7
:10012000EDDA64CBFFF976E802218B3010029913E7
:100130002667AF763444BD554AADC3BC588ED19FB7
:100140006EEBE7FA7CC8F5D983310A2091121803C7
:10015000A7772E66B5543C45CBBD42ACD99E508F97
:10016000EFFB66EAFDD874C904428D5316619F7097
:100170002004A9153227BB364CCEC5DF5EEDD7FC77
:100180006888E1997AABF3BA85520C4397711E6087
:10019000A1142805B3373A26CDDE44CFDFFD56EC57
:1001A000E9986089FBBB72AA06638F7214409D5167
:1001B0002225AB343006B9174EEFC7FE5CCCD5DD37
:1001C0006AA9E3B8788AF19B87730E6295501C4147
:1001D000A3352A24B1163807CFFF46EEDDDC54CD17
:1001E000EBB962A8F99A708B088481951AA793B627
:1001F0002CC2A5D33EE1B7F04008C919522BDB3A17
:10020000644EED5F766DFF7C899400859BB712A6E6
:10021000ADD224C3BFF136E0C1184809D33B5A2AF6
:10022000E55E6C4FF77D7E6C0AA583B418869197C6
:100230002EE3A7F23CC0B5D14229CB38500AD91BD6
:10024000666FEF7E744CFD5D8BB502A499961087A6
:10025000AFF326E2BDD034C1C3394A28D11A580BB6
:10026000E77F6E6EF55C7C4D0CC685D71EE597F476
:100270002880A1913AA3B3B2444ACD5B5669DF7896
:10028000600CE91D722FFB3E8DD604C79FF516E466
:10029000A9902081BBB332A2C55A4C4BD7795E6876
:1002A000E11C680DF33F7A2E0EE787F61CC495D546
:1002B0002AA1A3B03882B193466BCF7A5448DD5956
:1002C000622DEB3C700EF91F8FF706E69DD414C526
:1002D000ABB122A0B9923083C77B4E6AD5585C4936
:1002E000E33D6A2CF11E780F2D2D2D2D2D2D2D2D5A
:1002F0002D2D2D2D2D2D2D2D2D2D2D2D2D2D2D2D2E
:100300002D2D2D2D2D2D2D2D2D2D0A004820202079
:100310002020202020205072696E7420636F6E664A
:10032000696775726174696F6E0A0043202020202E
:100330002020202020436C65617220636F6E666907
:100340006775726174696F6E0A004C20202020204E
:10035000202020204C6F616420636F6E6669677592
:10036000726174696F6E0A005320202020202020C3
:1003700020205361766520636F6E666967757261D0
:1003800074696F6E0A00573C5858583E2020202050
:10039000536574207472616E736D697373696F6EE7
:1003A000207461696C2074696D6520696E206D73BD
:1003B0000A00773C5858583E20202020536574206E
:1003C000707265616D626C652074696D6520696E1F
:1003D000206D730A00563C312F303E2020202053E0
:1003E000696C656E74206D6F6465206F6E2F6F662B
:1003F000660A0A00763C312F303E202020205665C8
:1004000072626F7365206D6F6465206F6E2F6F660B
:10041000660A0070693C312F303E202020507269FE
:100420006E7420494E464F206F6E2F6F66660A0A23
:1004300000706D3C312F303E2020205072696E7468
:100440002044415441206F6E2F6F66660A00707021
:100450003C312F303E2020205072696E7420504174
:100460005448206F6E2F6F66660A0070643C312F0F
:10047000303E2020205072696E7420445354206F07
:100480006E2F6F66660A0070733C312F303E20205D
:10049000205072696E7420535243206F6E2F6F6626
:1004A000660A006D613C312F303E2020204175747A
:1004B0006F6D61746963206D657373616765204159
:1004C000434B206F6E2F6F66660A0A006D723C7395
:1004D0007369643E20205265747279206C61737474
:1004E000206D6573736167650A006D733C73736992
:1004F000643E2020536574206D65737361676520C9
:10050000726563697069656E7420535349440A00CB
:100510006D633C63616C6C3E2020536574206D6597
:10052000737361676520726563697069656E7420B5
:1005300063616C6C7369676E0A006C743C732F6145
:100540003E20202053656C6563742073796D626F63
:100550006C207461626C6520287374616E646172D2
:10056000642F616C7465726E617465290A0A006C8F
:10057000733C73796D3E20202053656C6563742055
:1005800073796D626F6C0A006C643C302D393E20CB
:10059000202053657420616E74656E6E61206469FD
:1005A00072656374697669747920696E666F0A0092
:1005B0006C673C302D393E20202053657420616EDD
:1005C00074656E6E61206761696E20696E666F0A80
:1005D000006C683C302D393E20202053657420612A
:1005E0006E74656E6E612068656967687420696EF7
:1005F000666F0A006C703C302D393E202020536518
:100600007420545820706F77657220696E666F0A87
:10061000006C6C6F3C4C4F4E3E2020536574206C38
:100620006174697475646520284E4D45412D666F6F
:10063000726D61742C2065672030373230312E376F
:100640003557290A006C6C613C4C41543E202053C4
:100650006574206C6174697475646520284E4D451D
:10066000412D666F726D61742C20656720343930BE
:10067000332E35304E290A0073323C737369643E61
:10068000202053657420504154483220535349442C
:100690000A0A0073313C737369643E202053657409
:1006A00020504154483120535349440A0073643C5C
:1006B000737369643E2020536574206465737469A4
:1006C0006E6174696F6E20535349440A0073633C32
:1006D000737369643E202053657420796F757220AE
:1006E000535349440A00323C63616C6C3E20202025
:1006F0005365742050415448322063616C6C7369B7
:10070000676E0A0A00313C63616C6C3E2020205306
:1007100065742050415448312063616C6C73696783
:100720006E0A00643C63616C6C3E2020205365744B
:100730002064657374696E6174696F6E2063616CA7
:100740006C7369676E0A00633C63616C6C3E2020C9
:100750002053657420796F75722063616C6C7369C6
:10076000676E0A00233C6D73673E2020202053658E
:100770006E642041505253206D6573736167650A42
:100780000A00403C636D743E2020202053656E6457
:10079000206C6F636174696F6E207570646174653D
:1007A0002028636D74203D206F7074696F6E616CDA
:1007B00020636F6D6D656E74290A00213C6461745D
:1007C000613E20202053656E642072617720706145
:1007D000636B65740A0053657269616C20636F6DA9
:1007E0006D616E64733A0A002D2D2D2D2D2D2D2D4A
:1007F0002D2D2D2D2D2D2D2D2D2D2D2D2D2D2D2D29
:100800002D2D2D2D2D2D2D2D2D2D0A0054582054FC
:1008100061696C3A20256C750A0054582050726545
:10082000616D626C653A20256C750A0053796D62C2
:100830006F6C3A2025630A0053796D626F6C2074E7
:1008400061626C653A207374616E646172640A005F
:1008500053796D626F6C207461626C653A20616CD3
:100860007465726E6174650A0044697265637469C7
:10087000766974793A2025640A004761696E3A20E6
:1008800025640A004865696768743A2025640A008F
:10089000506F7765723A2025640A004175746F2D98
:1008A00061636B206D657373616765733A204F6692
:1008B000660A004175746F2D61636B206D657373FB
:1008C000616765733A204F6E0A0050617468323A6E
:1008D00020252E36732D25640A0050617468313A44
:1008E00020252E36732D25640A0044657374696EC5
:1008F0006174696F6E3A20252E36732D25640A00C7
:1009000043616C6C7369676E3A20252E36732D2512
:10091000640A00436F6E66696775726174696F6E11
:100920003A0A00300A004572726F723A20496E76B8
:10093000616C696420636F6D6D616E640A0045725D
:10094000726F723A20496E76616C69642076616CD0
:10095000756520666F72205458207461696C0A00B6
:100960005458205461696C2073657420746F20257D
:100970006C756D730A004572726F723A20496E761B
:10098000616C69642076616C756520666F72207099
:100990007265616D626C650A00507265616D626CB2
:1009A000652073657420746F20256C756D730A0063
:1009B000310A004D657373616765206175746F2D31
:1009C00061636B2064697361626C65640A00310A5B
:1009D000004D657373616765206175746F2D616388
:1009E0006B20656E61626C65640A00310A005265B5
:1009F0007472696564206C617374206D65737361D2
:100A000067650A00310A000A002D25640A004D6559
:100A1000737361676520726563697069656E743AA6
:100A200020252E367300310A000A002D25640A00A5
:100A30004D65737361676520726563697069656E82
:100A4000743A20252E367300310A0053656C6563B5
:100A5000746564207374616E646172642073796D6F
:100A6000626F6C207461626C650A0053656C65632B
:100A700074656420616C7465726E6174652073794D
:100A80006D626F6C207461626C650A0053796D62EF
:100A90006F6C2073657420746F2025630A004469AD
:100AA0007265637469766974792073657420746FF4
:100AB0002025646465670A00446972656374697619
:100AC0006974792073657420746F206F6D6E690A84
:100AD00000310A00310A004761696E207365742095
:100AE000746F20256464420A00310A00416E746507
:100AF0006E6E612068656967687420736574207420
:100B00006F20256C646D204141540A00310A005069
:100B10006F7765722073657420746F202564770A7F
:100B200000310A004C6F6E677469747564652073D8
:100B3000657420746F20252E39730A00310A004C29
:100B4000617469747564652073657420746F202501
:100B50002E38730A0053696C656E74206D6F64657E
:100B60002064697361626C65640A0053696C656E28
:100B700074206D6F646520656E61626C65640A0047
:100B8000566572626F7365206D6F6465206469736A
:100B900061626C65640A00566572626F7365206DF0
:100BA0006F646520656E61626C65640A00310A00DD
:100BB0005072696E7420494E464F206469736162B9
:100BC0006C65640A00310A005072696E7420494EE7
:100BD000464F20656E61626C65640A00310A005000
:100BE00072696E7420444154412064697361626C7F
:100BF00065640A00310A005072696E7420444154E1
:100C00004120656E61626C65640A00310A005072B1
:100C1000696E7420504154482064697361626C6548
:100C2000640A00310A005072696E742050415448C1
:100C300020656E61626C65640A00310A0050726959
:100C40006E74204453542064697361626C65640A55
:100C500000310A005072696E742044535420656E4E
:100C600061626C65640A00310A005072696E74201A
:100C70005352432064697361626C65640A00310AEF
:100C8000005072696E742053524320656E61626C2D
:100C900065640A00310A0050617468323A20252EDA
:100CA00036732D25640A00310A0050617468313AA8
:100CB00020252E36732D25640A00310A0044657301
:100CC00074696E6174696F6E3A20252E36732D2516
:100CD000640A00310A0043616C6C7369676E3A20E4
:100CE000252E36732D25640A00310A005061746880
:100CF000323A20252E36732D25640A00310A005021
:100D0000617468313A20252E36732D25640A00312E
:100D10000A0044657374696E6174696F6E3A2025C8
:100D20002E36732D25640A00310A0043616C6C7302
:100D300069676E3A20252E36732D25640A00310A24
:100D4000004D6573736167652073656E740A0031C9
:100D50000A004C6F636174696F6E20757064617412
:100D6000652073656E740A00310A005061636B651B
:100D7000742073656E740A000D0A00444154413AB0
:100D800020005B252E36732D25645D2000504154D4
:100D9000483A20005B252E36732D25645D200044E3
:100DA00053543A20005B252E36732D25645D2000B8
:100DB0005352433A2000310A00436F6E66696775EB
:100DC000726174696F6E2073617665640A00300A1F
:100DD000004572726F723A204E6F2073746F7265A5
:100DE0006420636F6E66696775726174696F6E20E7
:100DF000746F206C6F6164210A00436F6E666967CF
:100E000075726174696F6E206C6F616465640A004D
:100E1000310A00436F6E66696775726174696F6E3F
:100E200020636C65617265642E2052657374617213
:100E30007420746F206C6F61642064656661756CEA
:100E400074732E0A002D2D2D2D2D2D2D2D2D2D2D94
:100E50002D2D2D2D0A004D6F64656D207265616426
:100E6000790A0044656661756C7420636F6E66690B
:100E70006775726174696F6E206C6F61646564215F
:100E80000A00756E7369676E65642E696F2F6D69F0
:100E900063726F617072730A004D6963726F4150C3
:100EA00052532076312E30620A002D2D2D2D2D2DFE
:100EB0002D2D2D2D2D2D2D2D2D0A000011241FBE81
:100EC000CFEFD8E0DEBFCDBF11E0A0E0B1E0EAECAB
:100ED000FDE402C005900D92A234B107D9F716E0E7
:100EE000A2E4B1E001C01D92A23CB107E1F70E946B
:100EF000D5200C94E3260C9400002FB7F894609151
:100F0000B2047091B3048091B4049091B5042FBFE2
:100F100008950C941114789488EE93E00E94FB08D5
:100F200049E857E068EE73E084EC94E00E94390DE4
:100F300086EB94E00E94B607ECEBF6E086EB94E0DB
:100F4000938382839183808384EC94E00C94A61233
:100F50009091C00095FFFCCF8093C60008958091CA
:100F6000C00087FFFCCF8091C6000895CF93DF9328
:100F7000CDB7DEB72E970FB6F894DEBF0FBECDBF4C
:100F8000DC018EE0FD01982F11929A95E9F71092FD
:100F9000C50097E69093C400E0ECF0E090819D7F5F
:100FA000908396E09093C20098E19093C1009E01D7
:100FB0002F5F3F4FF90111928A95E9F783E08C8307
:100FC00088EA97E09A8789878FEA97E09C878B87E2
:100FD0009EE0F90101900D929A95E1F72E960FB6D9
:100FE000F894DEBF0FBECDBFDF91CF910895811180
:100FF00006C08091C000881F8827881F089580E060
:1010000008958091C00087FF03C08091C6000895B5
:101010008FEF08950F931F93CF93DF93182FC091F5
:101020001A06D0911B06FE01E959FF4F80818111FC
:1010300024C080E490E09E8F8D8F1C8E1B8E1A8EB4
:1010400001E00083299A2091090130910A01409121
:101050000B0150910C01A0EBB4E00E9449216056B5
:10106000704F8F4F9F4F20E43FE140E050E00E94DF
:1010700068213B8B2A8B009393020FB7F894209141
:101080000501309106014091070150910801A0EB44
:10109000B4E00E9449216056704F8F4F9F4F20E46B
:1010A0003FE140E050E00E9468213D8B2C8B0FBF58
:1010B000E0911A06F0911B064FB7F89423A134A1D2
:1010C000878D90A12817390739F425A136A181A170
:1010D00092A12817390779F065A176A123A134A13F
:1010E0002150310991E080E06217730709F090E028
:1010F000292F382F02C021E030E04FBF232BC1F64B
:10110000E0911A06F0911B062FB7F894A5A1B6A19D
:101110001C9345A156A181A192A14817590719F422
:10112000878D90A103C085A196A1019696A385A362
:101130002FBFDF91CF911F910F910895E0911A0673
:10114000F0911B064FB7F894EB58FF4F248135817F
:10115000868197814FBF28173907E9F0E0911A0679
:10116000F0911B069FB7F894EB58FF4FA481B5810F
:1011700022813381A217B30719F42081318105C080
:10118000A481B5819D012F5F3F4F358324838C91CE
:101190009FBF90E008958FEF9FEF08951092920205
:1011A0000895109292021092800089E1809381004C
:1011B00081E896E090938700809386008091920268
:1011C000882321F080E480937C0002C010927C0090
:1011D0003898409880917E00816080937E0087E0FF
:1011E00080937B008CEE80937A008AB1886F8AB9F5
:1011F000219A229A08950F931F93CF93DF93CDB72F
:10120000DEB72E970FB6F894DEBF0FBECDBF8C01B0
:101210008AECD8011D928A95E9F710931B0600937A
:101220001A0680E490E0F801968F858FC8018059F6
:101230009F4FE859FF4F91838083978386839583DF
:1012400084830496938382830996D801AB58BF4F59
:1012500011969C938E9317969C938E931697159642
:101260009C938E931497CF9613969C938E9312977C
:1012700085599109D80190969C938E935F97969685
:101280009C938E93959794969C938E939397CF96D9
:1012900092969C938E93919784E090E0A681B7817B
:1012A0001C9246815781228133814217530719F4DA
:1012B0002081318104C0268137812F5F3F4F3783E2
:1012C0002683019759F70E94D1088EE0FE013196DE
:1012D000DF01982F1D929A95E9F793E09C832AE00D
:1012E00038E03A8729872EE938E03C872B87D801F8
:1012F00001900D928A95E1F72E960FB6F894DEBF15
:101300000FBECDBFDF91CF911F910F9108950F9325
:101310001F93CF93DF93E0911A06F0911B0625A14E
:1013200036A134A323A3EC018C01060F171FC017AD
:10133000D10721F089910E940A08F9CFDF91CF915E
:101340001F910F910895DC0156968C91569781114B
:10135000ECC058968C9158978111A2C093964D91EC
:101360005C91949795962D913C91969742175307CF
:1013700039F454962D913C915597232B09F460C074
:1013800059969C915997911103C05A961C925A975D
:1013900091E059969C93599752962D913C91539771
:1013A0002115310599F593964D915C9194979596F9
:1013B0002D913C9196974217530759F454962D91CD
:1013C0003C9155972150310955963C932E93549753
:1013D00023C09396ED91FC91949791962D913C9119
:1013E0009297E217F30729F45F962D913C9190971D
:1013F00007C09396ED91FC9194979F012F5F3F4F0B
:1014000094963C932E939397908107C02150310975
:1014100053963C932E9352979EE757969C935797DB
:1014200057969C9157979B3189F593964D915C9176
:10143000949795962D913C9196974217530739F4BE
:1014400010929302A959BF4F1C9229980895939620
:10145000ED91FC91949791968D919C919297E817BC
:10146000F90729F45F968D919C91909706C0939609
:10147000ED91FC919497CF01019694969C938E9355
:101480009397808157968C93579706C09E579230BA
:1014900018F459961C92599781E058968C93589756
:1014A00059968C9159975D962D913C915E97882322
:1014B000A9F05A968C915A97853080F05A961C92D2
:1014C0005A972034310519F080E490E002C085E796
:1014D00090E05E969C938E935D9723C058968C9176
:1014E000589757969C915797982341F05A969C91FC
:1014F0005A979F5F5A969C935A970FC05A961C9280
:101500005A972034310519F020E430E002C025E775
:1015100030E05E963C932E935D97880F58968C939F
:10152000589788E056968C9356975D96ED91FC916E
:101530005E975B968D919C915C97E80FF91F9F01D8
:1015400031705C963C932E935B9756968C91569790
:10155000815056968C93FF27E038F10530F08FEFDD
:1015600090E0AC014E1B5F0BFA01E859FF4F8491EC
:101570002F3F310511F008F080950895EF92FF920A
:101580000F931F93CF93DF93FC018C0101541F4FE6
:10159000D8014D915C911197129711965C934E93DF
:1015A000A555B10914968D919C91159712962D9180
:1015B0003C9113978217930721F42D913C91119739
:1015C00007C014968D919C9115979C012F5F3F4FFA
:1015D00015963C932E931497EC01288126029001D6
:1015E0001124C9019595879595958795E80199836B
:1015F00088837F01D3ECED0EF11CE701288139814E
:101600008F010F531F4FE80139832883840F951FE3
:1016100035952795820F931FE70199838883AF0142
:101620004B535F4F21E0181619060CF420E0EA0135
:101630008881880F822B888316968D919C911797AD
:10164000EC01688316962D913C91179712968D9117
:101650009C9113972817390721F48D919C9111972C
:1016600005C016968D919C911797019617969C939D
:101670008E931697DA019C91892F869586958927F6
:101680008370DF01AA53BF4F833039F48C918032CD
:1016900014F48F5F01C081508C938C91885F8034EB
:1016A00014F48C9346C18F738C93DF01A953BF4F01
:1016B0008C91880F97702BEF290F233010F0933007
:1016C00009F481608C938C91982F96958927809549
:1016D00081709685990F892B86878E3709F048C0CF
:1016E000DF01AB58BF4F14962D913C9115978D910A
:1016F0009C9111972817390761F416962D913C910A
:10170000179712968D919C9113972817390709F412
:10171000DCC016962D913C91179714968D919C9153
:10172000159701972817390709F4CFC01696CD9160
:10173000DC9117978EE7888316962D913C91179729
:1017400012968D919C9113972817390721F48D914A
:101750009C91119705C016968D919C9117970196B3
:1017600017969C938E93169781E0818B2A9AB0C02E
:10177000982F9F779F3719F4118A2A98DAC0918998
:10178000992309F4D6C0982F9F739E3309F4D1C0D2
:1017900080FF03C080898068808B97859F5F9787D3
:1017A0008089983008F499C0DF01AB58BF4F92E8A8
:1017B000980F923018F08B3109F044C014962D9197
:1017C0003C9115978D919C9111972817390759F4E1
:1017D00016962D913C91179712968D919C91139787
:1017E0002817390759F116962D913C9117971496A1
:1017F0008D919C911597019728173907F9F0169646
:10180000CD91DC9117978BE1888316962D913C91B1
:10181000179712968D919C9113972817390721F4E9
:101820008D919C91119705C016968D919C9117975B
:10183000019617969C938E93169704C0118A2A9846
:1018400080E001C081E014964D915C9115972D9137
:101850003C9111974217530759F416964D915C919C
:10186000179712962D913C9113974217530769F1E0
:1018700016964D915C91179714962D913C91159762
:10188000215031094217530701F190891696CD91E5
:10189000DC911797988316964D915C911797129645
:1018A0002D913C9113974217530721F42D913C91B0
:1018B000119706C016962D913C9117972F5F3F4FB9
:1018C00017963C932E93169703C0118A2A9880E0AE
:1018D000108A1786882321F02CC08695808B29C01A
:1018E000DF01A853BF4F8D919C9111978160119694
:1018F0009C938E93EB58FF4F248135818081918199
:101900002817390739F42681378182819381281776
:10191000390741F026813781848195810197281705
:10192000390739F4868197819583848311961C92B7
:101930001E92DF91CF911F910F91FF90EF9008952C
:101940001F920F920FB60F9211242F933F934F9334
:101950005F936F937F938F939F93AF93BF93EF9317
:10196000FF9380E286BB6091780070917900769554
:10197000679576956795605880911A0690911B0639
:101980000E94BE0A80919302882349F080911A0632
:1019900090911B060E94A309807F886001C080E8A7
:1019A0008BB98091B2049091B304A091B404B0912A
:1019B000B5040196A11DB11D8093B2049093B304A8
:1019C000A093B404B093B504FF91EF91BF91AF9190
:1019D0009F918F917F916F915F914F913F912F9147
:1019E0000F900FBE0F901F901895CF92DF92EF923D
:1019F000FF920F931F93CF93DF931F92CDB7DEB764
:101A00007C01262F82E8860F8701065B1E4F8230FD
:101A100010F06B3149F4F801608171818BE190E045
:101A200029830E94BB232981D701A05BBE4F3C9133
:101A300011964C911197822F90E0FC01E327EE0F55
:101A4000FF1FE851FF4F25913491C42ED12C2C2536
:101A50003D252D933C93F801608171810F90DF91BA
:101A6000CF911F910F91FF90EF90DF90CF900C944A
:101A7000BB2326E531E0DC01F9011D923197E9F73E
:101A8000FC01E65BFE4F718360833896518340838F
:101A900032972FEF3FEF31832083329731832083BA
:101AA00008952F923F924F925F926F927F928F9202
:101AB0009F92AF92BF92CF92DF92EF92FF920F93DD
:101AC0001F93CF93DF93CDB7DEB7C555D1090FB6BE
:101AD000F894DEBF0FBECDBF8C01865B9E4F629631
:101AE0009FAF8EAF629738019BEA691A9EEF790A21
:101AF0005801ACEAAA1AAEEFBA0A7801B4EBEB1AB5
:101B0000BEEFFB0A6801E2EBCE1AEEEFDE0A629648
:101B1000AEADBFAD62978D919C910E947D238F3FAA
:101B2000BFEF9B0709F40FC1D3012C912111DEC037
:101B30008E37910509F0CEC0F70120813181223125
:101B4000310508F4BBC0D6018D919C91883B904F24
:101B500009F0B4C0F801DE011896C801069641915B
:101B60004695403209F440E04D93E817F907B9F77C
:101B7000F801868186958F708E87D8011796FE01B1
:101B80003196CE0107964D914695403209F440E0DA
:101B90004193E817F907B9F7F8013D96D8011D966A
:101BA0008C9186958F708F8329968FAC2997912C75
:101BB00061E070E0A7E02A2E808180FF10C02896A7
:101BC0009FAE289729968FAE2997818190E02B961A
:101BD0009FAF8EAF2B97039709F070C04EC0B8E04F
:101BE0009B1669F347E0949E2001112466965FAE30
:101BF0004EAE669781E090E0492D50E0DF01A80FDE
:101C0000B91F3C90A32DA695A03211F03A2E01C029
:101C1000312C66964EAC5FAC6697480E591EA1E01B
:101C2000B0E0AC0FBD1FA40DB51D1D963C920196F2
:101C30008730910519F737963080249EC001259E84
:101C4000900D112444244394512C4C0E5D1E840DA0
:101C5000951DB32DB695BF705B2EDC0154965C923A
:101C6000CB0101C0880F4A95EAF737FE02C0882AE7
:101C700002C08095882293949FCF82812C968FAF4B
:101C80002C97803FD9F4339622503109C8018E1B1E
:101C90009F0B280F391F60963FAF2EAF60972E968F
:101CA000FFAFEEAF2E97F801EE5AFE4F0190F08194
:101CB000E02D309719F0CE010196099581E0D5010C
:101CC0008C938FEF9FEFF60191838083D7011D9254
:101CD0001C921DCF8F37910511F4F50132C08B3165
:101CE000910521F481E0D3018C9311CFF50120817E
:101CF000222331F1D7012D913C912A34B1E03B07E9
:101D0000F0F4A9014F5F5F4FF70151834083F80161
:101D1000E20FF31F8083D6012D913C91F901E82752
:101D2000FF27EE0FFF1FE851FF4F85919491232F5E
:101D3000332728273927F6013183208301C01082F9
:101D4000F3011082E4CECB5ADF4F0FB6F894DEBF1A
:101D50000FBECDBFDF91CF911F910F91FF90EF90FC
:101D6000DF90CF90BF90AF909F908F907F906F90BB
:101D70005F904F903F902F9008958F929F92AF92D7
:101D8000BF92CF92DF92EF92FF920F931F93CF9368
:101D9000DF938C014B015A016C0180EBC81A8EEF66
:101DA000D80A8FEF9FEFF601918380837801F6EBDD
:101DB000EF1AFEEFFF0AF701608171818EE790E074
:101DC0000E94BB23E401A80CB91CCA15DB0529F04D
:101DD0006991C8010E94F50CF8CFF6016081C181BC
:101DE0006095C8010E94F50C6C2F6095C8010E9497
:101DF000F50CF701608171818EE790E0DF91CF9162
:101E00001F910F91FF90EF90DF90CF90BF90AF9018
:101E10009F908F900C94BB232F923F924F925F9292
:101E20006F927F928F929F92AF92BF92CF92DF92EA
:101E3000EF92FF920F931F93CF93DF93CDB7DEB74F
:101E400029970FB6F894DEBF0FBECDBF998788875C
:101E50006B014A012C833D835C0180EBA81A8EEF55
:101E6000B80A8FEF9FEFF50191838083288439842E
:101E7000F6EB2F1AFEEF3F0AF101608171818EE7C8
:101E800090E00E94BB237601C12CD12CC4010197A4
:101E90009B838A83C814D90409F457C091E09983BD
:101EA000EA81FB81CE16DF0609F01982F701019065
:101EB0000020E9F731973F016E187F08F7E06F16B1
:101EC000710418F086E0682E712C9701260D371DDD
:101ED00027014216530689F0F20181912F0190E00B
:101EE0002E833F830E946423682F660F888599851F
:101EF0000E94F50C3F812E81ECCFF6E06F16710445
:101F000089F489818066F7016681660F682B888570
:101F100099850E94F50CFFEFCF1ADF0A87E0E80EE3
:101F2000F11CB8CF412C512CE6E0F0E0E619F7099E
:101F30003F014614570428F760E4888599850E947C
:101F4000F50C9FEF491A590AF4CF63E0888599850B
:101F50000E94F50C60EF888599850E94F50CEC8055
:101F6000FD800E0D1F1DE016F10641F0F701619195
:101F70007F01888599850E94F50CF5CFF501608178
:101F800011816095888599850E94F50C612F609577
:101F9000888599850E94F50CF101608171818EE739
:101FA00090E029960FB6F894DEBF0FBECDBFDF914B
:101FB000CF911F910F91FF90EF90DF90CF90BF9046
:101FC000AF909F908F907F906F905F904F903F90D9
:101FD0002F900C94BB2390931E0680931D06509364
:101FE000B7044093B6047093200660931F060895CB
:101FF000EF92FF920F931F93CF93DF93EC016091C9
:10200000B6047091B70480EC90E00E94BB2360910D
:10201000B6047091B70480E090E00E94BB238E016B
:102020007E0184EBE81A8EEFF80AF70120813181F6
:10203000225031096091B6047091B704C8018C1B1D
:102040009D0B8217930708F5F80181918F01803C61
:1020500059F48BED90E00E94BB236091B60470911F
:10206000B7048CED90E00EC08B3D59F48BED90E001
:102070000E94BB236091B6047091B7048DED90E08F
:1020800001C090E00E94BB23D0CF80EC90E0DF91B4
:10209000CF911F910F91FF90EF900C94BB234F9223
:1020A0005F926F927F928F929F92AF92BF92EF92C8
:1020B000FF920F931F93CF93DF93EC018B017A0173
:1020C000E0911F06F09120068189811145C00E9490
:1020D000362390910001891798F4A701B801CE0129
:1020E000DF91CF911F910F91FF90EF90BF90AF9034
:1020F0009F908F907F906F905F904F900C94BD0E4B
:102100008FB7F8948090B2049090B304A090B40478
:10211000B090B5048FBF2091010130910201409130
:10212000030150910401AAE0B0E00E9449212FB7B9
:10213000F8944090B2045090B3046090B40470904E
:10214000B5042FBF481859086A087B084616570679
:102150006806790664F3B4CFE0911F06F09120067B
:102160008189882309F4ACCF80911D0690911E06C9
:102170000E94510DE0911F06F0912006E853FF4F99
:1021800080819181892B41F311821082DF91CF915F
:102190001F910F91FF90EF90BF90AF909F908F9005
:1021A0007F906F905F904F900895909121069923B2
:1021B000A1F0803C01F580910D01811111C01092B8
:1021C0002106409122065091230664E972E0809135
:1021D0001D0690911E060C944F10803C09F07BC0A8
:1021E00081E0809321068EEF80930D0110922306EB
:1021F00010922206089520912206309123062A3457
:1022000091E0390708F067C090910D012115310563
:1022100031F49E3F21F48F7080930D010895911148
:102220001FC08B3D21F481E080931C06089590919E
:102230001C06992349F08C3D21F08D3D19F48BED5E
:1022400001C080EC10921C06A9014F5F5F4F5093B4
:10225000230640932206F901EC56FD4F8083089532
:10226000913079F4282F30E0AAE0B0E00E943321C9
:102270006093090170930A0180930B0190930C0104
:102280000895943089F42AE0829FC0011124AA277E
:1022900097FDA095BA2F8093050190930601A09316
:1022A0000701B09308010895933089F42AE0829FD2
:1022B000C0011124AA2797FDA095BA2F8093010190
:1022C00090930201A0930301B0930401089592300A
:1022D00011F48093000108956FEF8EE290E00E9468
:1022E000192680913201882341F083E19EE09F937B
:1022F0008F930E94F3230F900F90809132018111F0
:102300000CC08091E703811108C080E19EE09F939B
:102310008F930E94F3230F900F900895CF938EE236
:1023200090E00E94FB25893609F0E3C046E050E0CA
:1023300068E270E08CE291E00E94EB2546E050E01C
:1023400062E270E086E291E00E94EB2546E050E018
:102350006CE170E080E291E00E94EB2546E050E005
:1023600066E170E088E191E00E94EB2585E190E074
:102370000E94FB2590E09093E4038093E30384E1C3
:1023800090E00E94FB2590E09093E2038093E103AC
:1023900083E190E00E94FB2590E090931F018093E1
:1023A0001E0182E190E00E94FB2590E090931701CE
:1023B0008093160181E190E00E94FB2591E081115C
:1023C00001C090E09093370180E190E00E94FB25EE
:1023D00091E0811101C090E0909336018FE090E090
:1023E0000E94FB2591E0811101C090E0909335019E
:1023F0008EE090E00E94FB2591E0811101C090E009
:10240000909334018DE090E00E94FB2591E08111D2
:1024100001C090E0909333018CE090E00E94FB2596
:10242000C1E0811101C0C0E0C09332018BE090E0B7
:102430000E94FB2591E0811101C090E09093E70399
:102440008AE090E00E94FB258093130189E090E0F0
:102450000E94FB258093120188E090E00E94FB25FA
:102460008093110187E090E00E94FB25809310018A
:1024700086E090E00E94FB258093150185E090E0C6
:102480000E94FB258093140184E090E00E94FB25CC
:1024900091E0811101C090E09093DE0382E090E032
:1024A0000E940326A0E0B0E08093090190930A0106
:1024B000A0930B01B0930C0180E090E00E940326F2
:1024C000A0E0B0E08093050190930601A09307017E
:1024D000B0930801CC23C1F18091E6038823A1F1D8
:1024E0008AEF9DE09F938F930E94F3230F900F90AC
:1024F0002BC08091E603882381F08091E70381114E
:102500000CC080913201882341F081ED9DE09F93C2
:102510008F930E94F3230F900F908091E6038823FE
:1025200081F08091E70381110CC08091320181110B
:1025300008C08EEC9DE09F938F930E94F3230F9031
:102540000F9081E08093E503CF91089590931E064C
:1025500080931D060E948E1181E08093E603809196
:1025600032018823A1F18AEA9EE09F938F930E9413
:10257000F32389E99EE09F938F930E94F32382E8DF
:102580009EE09F938F930E94F3230F900F900F90E4
:102590000F900F900F908091E503882341F083E620
:1025A0009EE09F938F930E94F3230F900F9086E5F8
:1025B0009EE09F938F930E94F32385E49EE09F9378
:1025C0008F930E94F3230F900F900F900F90089518
:1025D00046E050E068E270E08CE291E00E9409265B
:1025E00046E050E062E270E086E291E00E94092657
:1025F00046E050E06CE170E080E291E00E94092644
:1026000046E050E066E170E088E191E00E94092632
:102610006091E30385E190E00E9419266091E10357
:1026200084E190E00E94192660911E0183E190E010
:102630000E9419266091160182E190E00E941926FD
:102640006091370181E190E00E9419266091360186
:1026500080E190E00E941926609135018FE090E0C2
:102660000E941926609134018EE090E00E941926A4
:10267000609133018DE090E00E9419266091320153
:102680008CE090E00E9419266091E7038BE090E0D7
:102690000E941926609113018AE090E00E94192699
:1026A0006091120189E090E00E9419266091110169
:1026B00088E090E00E9419266091100187E090E088
:1026C0000E9419266091150186E090E00E9419266B
:1026D0006091140185E090E00E9419266091DE036C
:1026E00084E090E00E9419266091090170910A012E
:1026F00082E090E00E942A26609105017091060117
:1027000080E090E00E942A2669E68EE290E00E9436
:10271000192680913201882341F089EB9DE09F9337
:102720008F930E94F3230F900F90809132018111BB
:102730000CC08091E703811108C086EB9DE09F9358
:102740008F930E94F3230F900F9008950F931F9380
:10275000CF93DF939C01EA0186E0E6E2F1E0A2E498
:10276000B6E001900D928A95E1F78091E1038093A4
:10277000480696E0ECE2F1E0A1EAB6E001900D92A5
:102780009A95E1F78091E3038093A70696E0E0E253
:10279000F1E0A9E4B6E001900D929A95E1F78091FD
:1027A0001E0180934F0696E0E8E1F1E0A1EBB6E070
:1027B00001900D929A95E1F7809116018093B706EA
:1027C00097E0E2E4F6E0A4E2B6E001900D929A957B
:1027D000E1F797E0E1EAF6E0ABE2B6E001900D92B6
:1027E0009A95E1F797E0E9E4F6E0A2E3B6E001901C
:1027F0000D929A95E1F797E0E1EBF6E0A9E3B6E0F8
:1028000001900D929A95E1F78B0144E050E064E26B
:1028100076E0CE010E940C0FDF91CF911F910F91B6
:1028200008958F929F92AF92BF92CF92DF92EF92D4
:10283000FF920F931F93CF93DF9300D000D000D06F
:10284000CDB7DEB78C01809137018823F9F08091F4
:102850003301882341F080EB9DE09F938F930E948A
:10286000F3230F900F90D80116968C911F928F939F
:102870001F930F9385EA9DE09F938F930E94F3230C
:102880000F900F900F900F900F900F908091360146
:10289000882301F180913301882341F08FE99DE085
:1028A0009F938F930E94F3230F900F90F8018585DB
:1028B0001F928F93C80107969F938F9384E99DE0A1
:1028C0009F938F930E94F3230F900F900F900F9080
:1028D0000F900F9080913501811105C080913401D6
:1028E000811147C039C080913301882341F08DE8C0
:1028F0009DE09F938F930E94F3230F900F90780198
:10290000F4E1EF0EF11CC12CD12C580126E4A20EEB
:10291000B11C82E8882E8DE0982ED5018C9190E034
:10292000C816D906DCF6D7018C911F928F93C70188
:1029300006979F938F939F928F920E94F323BFEFEE
:10294000CB1ADB0AE7E0EE0EF11C0F900F900F9010
:102950000F900F900F90E1CF88E79DE09F938F93AA
:102960000E94F3230F900F908091DE03811134C0F9
:102970002FC180913301F801E35BFF4F6F01882382
:1029800071F081818F9380818F938BE79DE09F937E
:102990008F930E94F3230F900F900F900F90E12CD4
:1029A000F12C5801FBE4AF0EB11CF601808191813E
:1029B000E816F90688F66091BE067091BF06D5014B
:1029C000ED91FC91EE0DFF1D808190E00E94BB23F4
:1029D000BFEFEB1AFB0AE9CFF801E35BFF4FA081E1
:1029E000B181AC30B10508F4F3C032970190F081A9
:1029F000E02D5D01AE0EBF1E40E050E0C12CD12C99
:102A0000BE016F5F7F4FD5018E915D018B3731F035
:102A10004F5F5F4F47305105B1F710C0CB019D01AB
:102A2000D901FD909D01DC01FD92CD017D01E61AE9
:102A3000F70A4E155F05A0F76A01EACFC114D10469
:102A400009F4C6C081E090E041E0DF01A80FB91FA2
:102A50003C91DC01A55DBE4F2C91321719F087E047
:102A600090E040E00196873091057CF320E030E073
:102A7000DF01A80FB91F5C915D3209F49C0101963A
:102A80008A309105A9F72115310599F0E20FF31F5E
:102A900082812091E3033091E403803221F481812B
:102AA00090E0C09702C090E086978217930709F0E4
:102AB0008FC0442309F48CC05601BEE0AB0EB11C9C
:102AC000C5010E94BD217C01FC0131960A9620E2DD
:102AD0002193E817F907E1F7B801E0E0F0E080E0C2
:102AE00090E0DB012D91BD01222339F0A701480FB1
:102AF000591FDA0111962C93319601968630910573
:102B000081F7D80116969C91992369F0EE0DFF1D6F
:102B10008DE281839A3018F4905D928304C081E342
:102B200082839A5D93838AE3F7018083828781E6BB
:102B3000838783E684878BE685873E9680E090E0F6
:102B40000196A1E0B0E0AC0FBD1FA80FB91F2C91FA
:102B500021938C159D05A4F38FB7F8944091B2048E
:102B60005091B3046091B4047091B5048FBF2FB736
:102B7000F8948091B2049091B304A091B404B09100
:102B8000B5042FBF841B950BA60BB70B8C35944453
:102B9000A105B10560F340911D0650911E06B501D7
:102BA000C7010E94A613C70126960FB6F894DEBF90
:102BB0000FBECDBFDF91CF911F910F91FF90EF908E
:102BC000DF90CF90BF90AF909F908F900C94522247
:102BD00026960FB6F894DEBF0FBECDBFDF91CF9122
:102BE0001F910F91FF90EF90DF90CF90BF90AF902B
:102BF0009F908F9008958F929F92AF92BF92CF92A5
:102C0000DF92EF92FF920F931F93CF93DF934C01CC
:102C10007B015A016B0184E1C80ED11C00911301A4
:102C20000A3090F4809112018A3070F48091110181
:102C30008A3050F480911001893030F46B018BE1BF
:102C4000C80ED11C11E001C010E0C6010E94BD21D8
:102C5000EC018DE3888380911501898780911401AF
:102C60008B8B88E0E9E9F6E0DE01119601900D9288
:102C70008A95E1F789E0E8EAF6E0DE011A9601902C
:102C80000D928A95E1F7111103C0CE01449616C04A
:102C900080E58C8B88E48D8B87E48E8B005D0F8BB9
:102CA00080911201805D888F80911101805D898FF4
:102CB00080911001805D8A8FCE014B96E114F10462
:102CC00021F0A701B4010E946C23A501B601CE0139
:102CD0000E94A613CE01DF91CF911F910F91FF901B
:102CE000EF90DF90CF90BF90AF909F908F900C941B
:102CF00052228F929F92AF92BF92CF92DF92EF9229
:102D0000FF920F931F93CF93DF937C016A01EB0136
:102D10006434710510F0C3E4D0E08E01015F1F4FF1
:102D2000C8010E94BD215C018AE3F501808387E030
:102D300090E020E030E0019769F0F901E05BF94FA5
:102D400040814423C1F32F5F3F4FF501E20FF31F92
:102D50004083F1CF80910E0190910F018F3FFFEFE3
:102D60009F0779F0F501E20FF31F4DE241838A30AE
:102D700091054CF42E5F3F4FF501E20FF31F805D8C
:102D8000808380E209C091E392832D5F3F4FF5017C
:102D9000E20FF31F8A5DF4CF293031053CF42F5F39
:102DA0003F4FF501E20FF31F8083F6CFF501E20FED
:102DB000F31F8AE38183209781F0AE01B701C5013B
:102DC0000B960E946C23AE01B70186E596E00E9447
:102DD0006C23D0934106C09340068091DF0390910D
:102DE000E0030196883E23E092072CF49093E003E1
:102DF0008093DF0304C01092E0031092DF03CA0D3A
:102E0000DB1D8BE78B872091DF033091E0038AE0A5
:102E1000882E912CC901B4010E945421FC0194E632
:102E2000E92EF12CC901B7010E9454218E1B9F0B82
:102E3000B4010E945421AB01C901861B970B8E1B64
:102E40009F0BB7010E945421605D6C87405D4D87E8
:102E5000E05DEE87A601B801C5010E94A613C50179
:102E6000DF91CF911F910F91FF90EF90DF90CF9066
:102E7000BF90AF909F908F900C9452222091DF03CF
:102E80003091E003215031093093E0032093DF03B8
:102E90006091400670914106AC0186E596E00C9485
:102EA000791683E199E09F938F930E94F323809199
:102EB000E4038F938091E3038F938CE291E09F93DF
:102EC0008F9380E099E09F938F930E94F3238091EA
:102ED000E2038F938091E1038F9386E291E09F93C9
:102EE0008F938AEE98E09F938F930E94F3238091B3
:102EF0001F018F9380911E018F9380E291E09F9339
:102F00008F938AED98E09F938F930E94F323809193
:102F100017018F93809116018F9388E191E09F9321
:102F20008F938AEC98E09F938F930E94F3238DB741
:102F30009EB74A960FB6F8949EBF0FBE8DBF809184
:102F4000DE03882319F083EB98E002C08BE998E058
:102F50009F938F930E94F3230F900F908091130102
:102F60008A3061F01F928F9380E998E09F938F934E
:102F70000E94F3230F900F900F900F9080911201F9
:102F80008A3061F01F928F9384E898E09F938F932B
:102F90000E94F3230F900F900F900F9080911101DA
:102FA0008A3061F01F928F938AE798E09F938F9306
:102FB0000E94F3230F900F900F900F9080911001BB
:102FC0008A3061F01F928F9389E698E09F938F93E8
:102FD0000E94F3230F900F900F900F908091150196
:102FE0008C3541F480E598E09F938F930E94F32302
:102FF0000F900F90809115018F3241F488E398E093
:103000009F938F930E94F3230F900F908091140150
:103010001F928F938CE298E09F938F930E94F323EB
:1030200080910C018F9380910B018F9380910A0105
:103030008F93809109018F938AE198E09F938F93FA
:103040000E94F323809108018F93809107018F9351
:10305000809106018F93809105018F938CE098E019
:103060009F938F930E94F3238DB79EB740960FB620
:10307000F8949EBF0FBE8DBF089588EE97E09F9392
:103080008F930E94F32386ED97E09F938F930E9486
:10309000F3238BEB97E09F938F930E94F32382E8B7
:1030A00097E09F938F930E94F32384E697E09F938A
:1030B0008F930E94F32387E497E09F938F930E945E
:1030C000F32383E297E09F938F930E94F32385E09D
:1030D00097E09F938F930E94F32386EE96E09F9351
:1030E0008F930E94F3238DEC96E09F938F930E9421
:1030F000F3238DEA96E09F938F930E94F32383E955
:1031000096E09F938F930E94F32388E796E09F9326
:103110008F930E94F32385E496E09F938F930E9400
:10312000F32381E196E09F938F930E94F32384EF32
:1031300095E09F938F930E94F3238DB79EB780965F
:103140000FB6F8949EBF0FBE8DBF81ED95E09F93A3
:103150008F930E94F32380EB95E09F938F930E94BF
:10316000F32388E895E09F938F930E94F3238FE6E3
:1031700095E09F938F930E94F3238AE395E09F93BA
:103180008F930E94F32380E195E09F938F930E9499
:10319000F3238AEE94E09F938F930E94F3238CECA9
:1031A00094E09F938F930E94F32383EA94E09F938C
:1031B0008F930E94F32387E894E09F938F930E945C
:1031C000F3238BE694E09F938F930E94F3238EE486
:1031D00094E09F938F930E94F32381E394E09F9365
:1031E0008F930E94F32383E194E09F938F930E9437
:1031F000F32384EF93E09F938F930E94F32385ED55
:1032000093E09F938F930E94F3238DB79EB7809690
:103210000FB6F8949EBF0FBE8DBF82EB93E09F93D5
:103220008F930E94F32386E893E09F938F930E94ED
:10323000F32388E693E09F938F930E94F3238AE41D
:1032400093E09F938F930E94F3238BE293E09F93ED
:103250008F930E94F3238CE093E09F938F930E94BF
:10326000F32388EE92E09F938F930E94F3238DB710
:103270009EB70E960FB6F8949EBF0FBE8DBF0895F1
:10328000EF92FF920F931F93CF93DF9300D000D064
:10329000CDB7DEB76115710509F47CC79B018C01C0
:1032A000DC019C91913209F56230710508F450C639
:1032B00061507109C80101960E94A61380913201E4
:1032C000882341F08BE69DE09F938F930E94F32328
:1032D0000F900F908091320181115CC78091E703BC
:1032E000811158C788E69DE049C69034E9F46150E1
:1032F0007109C80101960E94FB1580913201882353
:1033000041F082E59DE09F938F930E94F3230F90FD
:103310000F908091320181113DC78091E7038111A7
:1033200039C78FE49DE02AC69332E9F461507109F0
:10333000C80101960E94791680913201882341F0DC
:1033400081E49DE09F938F930E94F3230F900F9051
:103350008091320181111EC78091E70381111AC744
:103360008EE39DE00BC6983619F40E943D1812C7F3
:10337000983419F40E9451170DC7933519F40E941F
:10338000E81208C7933419F40E946C1103C79C34E7
:1033900019F40E948E11FEC6933609F050C06430B5
:1033A000710508F4D5C54CE251E00F5F1F4F615025
:1033B0007109E0E0F0E0E630F105A1F0D8019D915F
:1033C0008D01992339F09A3029F09D3019F0DA01F6
:1033D0009C9302C0DA011C9231964F5F5F4FE61753
:1033E000F70749F7E45DFE4FB1E0E233FB0711F068
:1033F0001192FACF809132018823B1F08091E403D9
:103400008F938091E3038F938CE291E09F938F934E
:103410008BE29DE09F938F930E94F3230F900F9078
:103420000F900F900F900F90809132018111B2C6D2
:103430008091E7038111AEC688E29DE09FC5943676
:1034400009F051C06430710508F482C5E6E2F1E08C
:10345000D80111962150310940E050E04630510525
:10346000A1F09D91992331F09A3021F09D3011F017
:10347000908301C010824F5F5F4F31964217530710
:1034800069F7F901EA5DFE4F03C026E030E0F9CFAD
:1034900021E0EC32F20711F01192FACF8091320163
:1034A0008823B1F08091E2038F938091E1038F93A1
:1034B00086E291E09F938F9382E19DE09F938F93AB
:1034C0000E94F3230F900F900F900F900F900F908A
:1034D0008091320181115EC68091E70381115AC645
:1034E0008FE09DE04BC5913309F050C0623071050B
:1034F00008F42EC540E251E00F5F1F4F6150710983
:10350000E0E0F0E0E630F105A1F0D8019D918D01F9
:10351000992339F09A3029F09D3019F0DA019C9303
:1035200002C0DA011C9231964F5F5F4FE617F70732
:1035300049F7E05EFE4FB1E0E632FB0711F0119271
:10354000FACF809132018823B1F080911F018F93CF
:1035500080911E018F9380E291E09F938F938FEF74
:103560009CE09F938F930E94F3230F900F900F90F6
:103570000F900F900F908091320181110BC68091B6
:10358000E703811107C68CEF9CE0F8C4923309F081
:1035900051C06230710508F4DBC4E8E1F1E0D80104
:1035A00011962150310940E050E046305105A1F01C
:1035B0009D91992331F09A3021F09D3011F0908344
:1035C00001C010824F5F5F4F31964217530769F772
:1035D000F901E85EFE4F03C026E030E0F9CF21E0BC
:1035E000EE31F20711F01192FACF80913201882367
:1035F000B1F0809117018F93809116018F9388E12C
:1036000091E09F938F938CEE9CE09F938F930E9409
:10361000F3230F900F900F900F900F900F908091C9
:1036200032018111B7C58091E7038111B3C589EEDD
:103630009CE0A4C4933709F038C16330710508F4E5
:1036400087C47B0181E0E81AF108D80111968C91BA
:103650001197833609F046C012968C91B2E0EB16B2
:10366000F10461F0F80193812FEC290F293030F437
:10367000813320F0892F90E0869706C09FEC980F49
:10368000993030F490E0C0979093E4038093E30383
:10369000809132018823B1F08091E4038F9380916F
:1036A000E3038F938CE291E09F938F9386ED9CE0F0
:1036B0009F938F930E94F3230F900F900F900F9082
:1036C0000F900F908091320181110CC08091E7031F
:1036D000811108C083ED9CE09F938F930E94F32398
:1036E0000F900F90D80111968C911197843609F0A4
:1036F00046C012968C91B2E0EB16F10461F0F8012D
:1037000093812FEC290F293030F4813320F0892F59
:1037100090E0869706C09FEC980F993030F490E0C7
:10372000C0979093E2038093E10380913201882354
:10373000B1F08091E2038F938091E1038F9386E251
:1037400091E09F938F938DEB9CE09F938F930E94CA
:10375000F3230F900F900F900F900F900F90809188
:10376000320181110CC08091E703811108C08AEBFE
:103770009CE09F938F930E94F3230F900F90D801AA
:1037800011968C911197813309F046C012968C9155
:10379000B2E0EB16F10461F0F80193812FEC290FF0
:1037A000293030F4813320F0892F90E0869706C0CD
:1037B0009FEC980F993030F490E0C09790931F01E0
:1037C00080931E01809132018823B1F080911F0106
:1037D0008F9380911E018F9380E291E09F938F934E
:1037E0008AEA9CE09F938F930E94F3230F900F909F
:1037F0000F900F900F900F908091320181110CC0AB
:103800008091E703811108C087EA9CE09F938F9322
:103810000E94F3230F900F90D80111968C9111976D
:10382000823309F0B7C413968C91B2E0EB16F10421
:1038300059F09FEC980F993038F4F8019281913348
:1038400018F090E0869708C08153893048F4D80179
:1038500012968C9190E0C097909317018093160177
:10386000809132018823B1F0809117018F9380916C
:1038700016018F9388E191E09F938F9387E99CE0F5
:103880009F938F930E94F3230F900F900F900F90B0
:103890000F900F908091320181117CC48091E703D9
:1038A000811178C484E99CE069C3903709F037C17D
:1038B0006330710508F44CC3F80181818337C9F581
:1038C0009281809132019133C1F491E0909337015C
:1038D000882341F081E89CE09F938F930E94F3231B
:1038E0000F900F9080913201811123C08091E703E6
:1038F00081111FC08EE79CE016C01092370188230B
:1039000041F08AE69CE09F938F930E94F3230F90EF
:103910000F908091320181110CC08091E7038111D9
:1039200008C087E69CE09F938F930E94F3230F903B
:103930000F90D80111968C9111978436D1F512967B
:103940009C91809132019133C1F491E090933601C2
:10395000882341F084E59CE09F938F930E94F3239A
:103960000F900F9080913201811123C08091E70365
:1039700081111FC081E59CE016C01092360188239A
:1039800041F08DE39CE09F938F930E94F3230F906F
:103990000F908091320181110CC08091E703811159
:1039A00008C08AE39CE09F938F930E94F3230F90BB
:1039B0000F90F80181818037C9F5928180913201A1
:1039C0009133C1F491E090933501882341F086E270
:1039D0009CE09F938F930E94F3230F900F90809110
:1039E0003201811123C08091E70381111FC083E25E
:1039F0009CE016C010923501882341F08EE09CE0D7
:103A00009F938F930E94F3230F900F908091320128
:103A100081110CC08091E703811108C08BE09CE00C
:103A20009F938F930E94F3230F900F90D8011196CC
:103A30008C9111978D36D1F512969C91809132011F
:103A40009133C1F491E090933401882341F087EFE2
:103A50009BE09F938F930E94F3230F900F90809190
:103A60003201811123C08091E70381111FC084EFCF
:103A70009BE016C010923401882341F08FED9BE04B
:103A80009F938F930E94F3230F900F9080913201A8
:103A900081110CC08091E703811108C08CED9BE07F
:103AA0009F938F930E94F3230F900F90F8018181D1
:103AB000893609F06FC39281809132019133C1F44C
:103AC00091E090933301882341F088EC9BE09F9331
:103AD0008F930E94F3230F900F90809132018111F8
:103AE00059C38091E703811155C385EC9BE046C221
:103AF00010923301882341F080EB9BE09F938F93DA
:103B00000E94F3230F900F9080913201811142C3E4
:103B10008091E70381113EC38DEA9BE02FC2963767
:103B200081F4D80111968C91813331F481E0809336
:103B3000320187E99BE022C21092320180E89BE0CB
:103B40001DC2963589F4F8018181813341F481E009
:103B50008093E703109232018BE69BE00FC2109234
:103B6000E70385E59BE00AC29C3609F068C0633034
:103B7000710508F4EDC1D80111968C9111978C361E
:103B800009F003C26150710912968C91813651F58A
:103B90006A30710508F4FEC288E0F8013396A9E99D
:103BA000B6E001900D928A95E1F780913201882369
:103BB00071F089E996E09F938F938FE39BE09F9349
:103BC0008F930E94F3230F900F900F900F9080918E
:103BD00032018111DFC28091E7038111DBC28CE3E6
:103BE0009BE0CCC18F3609F0D5C26B30710508F46B
:103BF000D1C289E0F8013396A8EAB6E001900D92AF
:103C00008A95E1F780913201882371F088EA96E085
:103C10009F938F9384E29BE09F938F930E94F32363
:103C20000F900F900F900F90809132018111B2C2CE
:103C30008091E7038111AEC281E29BE09FC19D3676
:103C400009F021C16230710508F482C16150710927
:103C5000F8018181833609F067C06130710509F48C
:103C600099C240E556E00E5F1F4F61507109E0E0D8
:103C7000F0E0E617F70719F4E05BF94F15C0E630FE
:103C8000F105D1F3D8019D918D01992339F09A3036
:103C900029F09D3019F0DA019C9302C0DA011C92E0
:103CA00031964F5F5F4FE5CFB6E0E635FB0711F089
:103CB0001192FACF80913201882359F180E596E084
:103CC0009F938F9380E39AE09F938F930E94F323B7
:103CD00080910E0190910F010F900F900F900F9017
:103CE0008F3FEFEF9E0769F09F938F938BE29AE0EF
:103CF0009F938F930E94F3230F900F900F900F903C
:103D000008C089E29AE09F938F930E94F3230F905B
:103D10000F908091320181113DC28091E7038111A2
:103D200039C286E29AE02AC1833709F059C061306E
:103D3000710509F42FC26430710520F0838190E091
:103D4000869704C0F801828190E0C09790930F019C
:103D500080930E0180910E0190910F01409730F0F9
:103D60008FEF9FEF90930F0180930E0180913201AE
:103D7000882359F180E596E09F938F938EE09AE037
:103D80009F938F930E94F32380910E0190910F01D6
:103D90000F900F900F900F908F3FFFEF9F0769F0EC
:103DA0009F938F9389E09AE09F938F930E94F323D0
:103DB0000F900F900F900F9008C087E09AE09F93AC
:103DC0008F930E94F3230F900F9080913201811105
:103DD000E1C18091E7038111DDC184E09AE0CEC0AA
:103DE0008237D1F4CA010E943E17809132018823A4
:103DF00041F08EEE99E09F938F930E94F3230F90F2
:103E00000F90809132018111C5C18091E70381112A
:103E1000C1C18BEE99E0B2C0813609F0BBC192817D
:103E2000809132019133C1F491E09093DE038823B5
:103E300041F081ED99E09F938F930E94F3230F90BF
:103E40000F90809132018111A5C18091E70381110A
:103E5000A1C18EEC99E092C01092DE03882341F05C
:103E600083EB99E09F938F930E94F3230F900F9021
:103E70008091320181118EC18091E70381118AC145
:103E800080EB99E07BC0973761F56230710508F4EB
:103E90005FC0AB0141505109B8016F5F7F4FCE0148
:103EA00001960E946C23CE0101960E944623803128
:103EB000B7E29B0798F4AA2797FDA095BA2F8093A5
:103EC000090190930A01A0930B01B0930C01BF93D9
:103ED000AF939F938F9389E999E02CC086E799E08F
:103EE0004DC09735A9F56230710590F1AB01415095
:103EF0005109B8016F5F7F4FCE0101960E946C237C
:103F0000CE0101960E9446238031E7E29E07E8F445
:103F1000AA2797FDA095BA2F8093050190930601DB
:103F2000A0930701B0930801BF93AF939F938F9322
:103F300080E699E09F938F930E94F3230F900F9058
:103F40000F900F900F900F9025C18EE399E016C04F
:103F500080913201882341F086E299E09F938F930C
:103F60000E94F3230F900F9080913201811112C1B2
:103F70008091E70381110EC183E299E09F938F93B3
:103F80000E94F3230F900F9005C1803731F5F8019F
:103F9000828180538A3008F0FDC080931301909194
:103FA0003201992379F0889FC00111249F938F9348
:103FB0008FE09BE09F938F930E94F3230F900F90CD
:103FC0000F900F90809132018111E4C08091E7033E
:103FD0008111E0C08CE09BE0D1CF8836C9F5D801D3
:103FE00012968C9180538A3008F0D4C080931201CD
:103FF00090913201992309F1A1E0B0E002C0AA0F2B
:10400000BB1F8A95E2F728EE33E00E94422128E4A4
:1040100031E040E050E00E948A215F934F933F934C
:104020002F938CEE9AE09F938F930E94F3230F902F
:104030000F900F900F900F900F908091320181118F
:10404000A9C08091E7038111A5C089EE9AE096CFBF
:10405000873619F5F801828180538A3008F09AC0BA
:104060008093110190913201992361F01F928F93F7
:1040700087ED9AE09F938F930E94F3230F900F9008
:104080000F900F9080913201811184C08091E703DD
:10409000811180C084ED9AE071CF8436D9F5D801C2
:1040A00012968C9180538A3008F074C0893009F4DC
:1040B00088E0809310018091320181110CC08091C1
:1040C000E703811108C081ED9AE09F938F930E94CE
:1040D000F3230F900F9080913201882309F45AC086
:1040E00080911001811108C088EB9AE09F938F9313
:1040F0000E94F3230F900F9080911001882309F400
:1041000049C0BDE28B9FC00111249F938F938EE91C
:104110009AE00EC08337A9F4F801828180931401DC
:10412000909132019923B1F11F928F938CE89AE01C
:104130009F938F930E94F3230F900F900F900F90F7
:1041400029C0843739F5D80112969C9180913201AB
:10415000913641F49CE590931501882381F08BE61C
:104160009AE007C09FE290931501882341F08BE409
:104170009AE09F938F930E94F3230F900F9080916A
:104180003201811107C08091E703811103C088E4E7
:104190009AE0F4CE0F900F900F900F90DF91CF9197
:1041A0001F910F91FF90EF9008950E948B070E943E
:1041B0007D076B017C01C1E084EC94E00E94510D0D
:1041C00080914201811125C00E94F707882309F1DF
:1041D0000E940108282F30E03093460120934501CA
:1041E0002091430130914401F901E95BFE4FA9019F
:1041F0004F5F5F4F808350934401409343012934C4
:10420000314010F0C09342010E947D076B017C0198
:1042100014C08091430190914401892B71F00E9458
:104220007D07DC01CB018C199D09AE09BF094597BB
:10423000A105B10514F0C093420180914201882389
:1042400009F4BACF609143017091440144EC54E009
:1042500087E491E00E9440191092420110924401BB
:1042600010924301A9CFA29FB001B39FC001A39FA9
:10427000700D811D1124911DB29F700D811D11249F
:10428000911D08950E943321B7FF0895821B930B5F
:1042900008950E943321A59F900DB49F900DA49F77
:1042A000800D911D1124089597FB072E16F400949C
:1042B00007D077FD09D00E94A92107FC05D03EF464
:1042C000909581959F4F0895709561957F4F0895C2
:1042D000A1E21A2EAA1BBB1BFD010DC0AA1FBB1F0A
:1042E000EE1FFF1FA217B307E407F50720F0A21B7C
:1042F000B30BE40BF50B661F771F881F991F1A94E9
:1043000069F760957095809590959B01AC01BD0112
:10431000CF010895052E97FB1EF400940E94A12161
:1043200057FD07D00E94682107FC03D04EF40C947F
:10433000A12150954095309521953F4F4F4F5F4FAC
:10434000089590958095709561957F4F8F4F9F4F01
:104350000895AA1BBB1B51E107C0AA1FBB1FA617CC
:10436000B70710F0A61BB70B881F991F5A95A9F71E
:1043700080959095BC01CD010895CF93DF93823055
:10438000910510F482E090E0E091BA06F091BB064E
:1043900020E030E0C0E0D0E0309711F14081518161
:1043A00048175907C0F04817590761F48281938173
:1043B000209719F09B838A832BC09093BB06809330
:1043C000BA0626C02115310519F04217530718F413
:1043D0009A01BE01DF01EF010280F381E02DDCCF05
:1043E0002115310509F1281B390B2430310590F4D2
:1043F00012968D919C9113976115710521F0FB0127
:104400009383828304C09093BB068093BA06FD0118
:10441000329644C0FD01E20FF31F81939193225025
:1044200031092D933C933AC02091B8063091B906DA
:10443000232B41F420913A0130913B013093B9068E
:104440002093B806209138013091390121153105AA
:1044500041F42DB73EB740913C0150913D01241BE2
:10446000350BE091B806F091B906E217F307A0F416
:104470002E1B3F0B2817390778F0AC014E5F5F4FBA
:104480002417350748F04E0F5F1F5093B90640932D
:10449000B8068193919302C0E0E0F0E0CF01DF9194
:1044A000CF9108950F931F93CF93DF93009709F453
:1044B0008CC0FC013297138212820091BA061091CF
:1044C000BB060115110581F420813181820F931FF4
:1044D0002091B8063091B9062817390779F5F0937D
:1044E000B906E093B80671C0D80140E050E0AE17BD
:1044F000BF0750F412962D913C911397AD012115F1
:10450000310509F1D901F3CF9D01DA01338322830B
:1045100060817181860F971F8217930769F4EC0100
:1045200028813981260F371F2E5F3F4F318320832B
:104530008A819B8193838283452B29F4F093BB0668
:10454000E093BA0642C01396FC93EE931297ED01E6
:10455000499159919E01240F351FE217F30771F419
:1045600080819181840F951F029611969C938E9362
:104570008281938113969C938E931297E0E0F0E0F2
:10458000D80112968D919C911397009719F0F8011C
:104590008C01F6CF8D919C9198012E5F3F4F820F39
:1045A000931F2091B8063091B9062817390769F48E
:1045B000309729F41092BB061092BA0602C01382FB
:1045C00012821093B9060093B806DF91CF911F9124
:1045D0000F9108958F929F92AF92BF92CF92DF92E8
:1045E000EF92FF92CF93DF93EC01688179818A810A
:1045F0009B81611571058105910521F464E279EDD6
:104600008BE597E02DE133EF41E050E00E948A21F5
:1046100049015A019B01AC01A7EAB1E40E9449217A
:104620006B017C01ACEEB4EFA50194010E94A726BA
:10463000DC01CB018C0D9D1DAE1DBF1DB7FF03C05E
:104640000197A109B04888839983AA83BB839F7788
:10465000DF91CF91FF90EF90DF90CF90BF90AF9020
:104660009F908F9008950E94EA2208958EE391E032
:104670000E94EA220895A0E0B0E080933E0190936A
:104680003F01A0934001B09341010895FC018827A8
:104690009927E89421912032E9F3293010F02E3047
:1046A000C8F32B3241F02D3239F4689404C00E94D3
:1046B0007523820F911D219120532A30C0F31EF4DF
:1046C000909581959F4F08959111089581568A5133
:1046D00008F4805285580895FB01DC0102C0019066
:1046E0000D9241505040D8F708957AE0979F902D51
:1046F000879F802D910D11240895CF93DF93EC01B6
:104700002B8120FF33C026FF0AC02F7B2B838E8195
:104710009F8101969F838E838A8190E029C022FF2A
:104720000FC0E881F9818081992787FD90950097D6
:1047300019F420622B831AC03196F983E8830EC0E6
:10474000EA85FB85099597FF09C02B81019611F039
:1047500080E201C080E1822B8B8308C02E813F81E3
:104760002F5F3F4F3F832E83992702C08FEF9FEF2C
:10477000DF91CF9108950F931F93CF93DF93FB01A8
:10478000238121FD03C08FEF9FEF28C022FF16C0B9
:1047900046815781248135814217530744F4A08113
:1047A000B1819D012F5F3F4F318320838C93268100
:1047B00037812F5F3F4F3783268310C0EB01092FCE
:1047C000182F0084F185E02D0995892BE1F68E8163
:1047D0009F8101969F838E83812F902FDF91CF91B0
:1047E0001F910F910895A0E0B0E0E9EFF3E20C947F
:1047F000BA26AE01495F5F4FDA016D917D91AD013F
:104800000CEB16E0F80182819381DC0113962C9168
:104810001397286013962C930E941924D80112969E
:10482000ED91FC9113972381277F2383E4E00C947F
:10483000D626ACE0B0E0EFE1F4E20C94AC267C01CB
:104840006B018A01FC0117821682838181FFBDC141
:10485000CE0101964C01F7019381F60193FD8591FC
:1048600093FF81916F01882309F4ABC1853239F43C
:1048700093FD859193FF81916F01853229F4B701F2
:1048800090E00E94BB23E7CF512C312C20E0203256
:10489000A0F48B3269F030F4803259F0833269F43D
:1048A00020612CC08D3239F0803339F4216026C06C
:1048B0002260246023C0286021C027FD27C030ED7E
:1048C000380F3A3078F426FF06C0FAE05F9E300DCC
:1048D0001124532E13C08AE0389E300D1124332E3C
:1048E00020620CC08E3221F426FD6BC1206406C00C
:1048F0008C3611F4206802C0883641F4F60193FD2D
:10490000859193FF81916F018111C1CF982F9F7D78
:104910009554933028F40C5F1F4FFFE3F9830DC0CB
:10492000833631F0833771F0833509F05BC022C0E4
:10493000F801808189830E5F1F4F44244394512CDA
:10494000540115C03801F2E06F0E711CF801A0800F
:10495000B18026FF03C0652D70E002C06FEF7FEFCE
:10496000C5012C870E943B262C0183012C852F77C3
:10497000222E17C03801F2E06F0E711CF801A080E2
:10498000B18026FF03C0652D70E002C06FEF7FEF9E
:10499000C5012C870E9430262C012C852068222EF0
:1049A000830123FC1BC0832D90E048165906B0F408
:1049B000B70180E290E00E94BB233A94F4CFF50166
:1049C00027FC859127FE81915F01B70190E00E944D
:1049D000BB2331103A94F1E04F1A510841145104AD
:1049E00071F7E5C0843611F0893639F5F80127FFF3
:1049F00007C060817181828193810C5F1F4F08C065
:104A000060817181882777FD8095982F0E5F1F4FF9
:104A10002F76722E97FF09C09095809570956195BD
:104A20007F4F8F4F9F4F2068722E2AE030E0A40105
:104A30000E944626A82EA81844C0853729F42F7E48
:104A4000B22E2AE030E025C0F22FF97FBF2E8F363C
:104A5000C1F018F4883579F0B4C0803719F0883780
:104A600021F0AFC02F2F2061B22EB4FE0DC08B2DD0
:104A70008460B82E09C024FF0AC09F2F9660B92E0B
:104A800006C028E030E005C020E130E002C020E1AF
:104A900032E0F801B7FE07C06081718182819381A5
:104AA0000C5F1F4F06C06081718180E090E00E5F57
:104AB0001F4FA4010E944626A82EA818FB2DFF77A1
:104AC0007F2E76FE0BC0372D3E7FA51450F474FE6A
:104AD0000AC072FC08C0372D3E7E05C0BA2C372DA7
:104AE00003C0BA2C01C0B52C34FF0DC0FE01EA0D85
:104AF000F11D8081803311F4397E09C032FF06C078
:104B0000B394B39404C0832F867809F0B39433FD33
:104B100013C030FF06C05A2CB31418F4530C5B18A2
:104B2000B32CB31468F4B70180E290E03C870E9494
:104B3000BB23B3943C85F5CFB31410F43B1801C0EC
:104B4000312C34FF12C0B70180E390E03C870E9413
:104B5000BB233C8532FF17C031FD03C088E790E0DE
:104B600002C088E590E0B7010CC0832F867859F029
:104B700031FF02C08BE201C080E237FD8DE2B70158
:104B800090E00E94BB23A51438F4B70180E390E0C5
:104B90000E94BB235A94F7CFAA94F401EA0DF11DA9
:104BA0008081B70190E00E94BB23A110F5CF332094
:104BB00009F451CEB70180E290E00E94BB233A9401
:104BC000F6CFF7018681978102C08FEF9FEF2C9679
:104BD000E2E10C94C826DC01CB01FC01F999FECF7F
:104BE00006C0F2BDE1BDF89A319600B40D92415075
:104BF0005040B8F70895F999FECF92BD81BDF89A5B
:104C0000992780B50895A8E1B0E042E050E00C9407
:104C1000ED25DC01A40FB51F4150504048F0CB01F9
:104C2000840F951F2E910E941A2641505040D0F7B4
:104C30000895262FF999FECF92BD81BDF89A01976C
:104C400000B4021631F020BD0FB6F894FA9AF99A22
:104C50000FBE08950196272F0E941A260C9419263C
:104C6000FC010590615070400110D8F78095909537
:104C70008E0F9F1F0895FC0161507040019001103C
:104C8000D8F7809590958E0F9F1F0895FA01AA2757
:104C9000283051F1203181F1E8946F936E7F6E5F7F
:104CA0007F4F8F4F9F4FAF4FB1E03ED0B4E03CD02D
:104CB000670F781F891F9A1FA11D680F791F8A1F10
:104CC000911DA11D6A0F711D811D911DA11D20D077
:104CD00009F468943F912AE0269F11243019305D31
:104CE0003193DEF6CF010895462F4770405D419322
:104CF000B3E00FD0C9F7F6CF462F4F70405D4A336F
:104D000018F0495D31FD4052419302D0A9F7EACF36
:104D1000B4E0A6959795879577956795BA95C9F765
:104D200000976105710508959B01AC010A2E069458
:104D30005795479537952795BA95C9F7620F731F11
:104D4000841F951FA01D0895B7FF0C9449210E9450
:104D50004921821B930B08952F923F924F925F92AD
:104D60006F927F928F929F92AF92BF92CF92DF927B
:104D7000EF92FF920F931F93CF93DF93CDB7DEB7E0
:104D8000CA1BDB0B0FB6F894DEBF0FBECDBF099474
:104D90002A88398848885F846E847D848C849B84CB
:104DA000AA84B984C884DF80EE80FD800C811B81D9
:104DB000AA81B981CE0FD11D0FB6F894DEBF0FBE08
:0A4DC000CDBFED010895F894FFCF78
:104DCA003FC8000000320000005E010000FEFFFF45
:104DDA000A0A0A0A6E2F02005749444532000100A6
:104DEA0057494445310041505A4D444D4E4F434175
:104DFA004C4C0101010101010000C2062000010022
:024E0A000000A6
:00000001FF
