:100000000C944C080C9469080C9469080C946908C9
:100010000C9469080C9469080C9469080C9469089C
:100020000C9469080C9469080C9469080C9469088C
:100030000C9469080C9469080C94010D0C946908DF
:100040000C9469080C94A1090C9444090C940609B9
:100050000C9469080C94401A0C9469080C94690873
:100060000C9469080C946908756E6974203C2053DF
:1000700045525F434E5400626572746F732F637014
:10008000752F6176722F6472762F7365725F6D655E
:1000900067612E630073697A65203E2031006265D6
:1000A00072746F732F7374727563742F6669666FE1
:1000B0006275662E680066642D3E68772D3E727804
:1000C00062756666657200626572746F732F647222
:1000D000762F7365722E630066642D3E68772D3E21
:1000E000747862756666657200626572746F732FEC
:1000F0006472762F7365722E63002166642D3E69EB
:10010000735F6F70656E00626572746F732F6472D7
:10011000762F7365722E6300756E6974203C2063C0
:100120006F756E746F66287365725F68616E646C5C
:1001300065732900626572746F732F6472762F7312
:1001400065722E6300706F72742D3E69735F6F70FD
:10015000656E00626572746F732F6472762F7365BB
:10016000722E630066642D3E5F74797065203D3D9C
:10017000204B46545F53455249414C0062657274AE
:100180006F732F6472762F7365722E680021746905
:100190006D65725F696E697469616C697A65640026
:1001A000626572746F732F6472762F74696D6572F5
:1001B0002E63002674696D65722D3E6C696E6B004E
:1001C000626572746F732F6472762F74696D6572D5
:1001D0002E630066642D3E72656164006265727410
:1001E0006F732F696F2F6B66696C652E680066648C
:1001F0002D3E777269746500626572746F732F6942
:100200006F2F6B66696C652E68006275665F706F34
:10021000696E746572203E3D20627566006265728B
:10022000746F732F6D776172652F666F726D617475
:1002300077722E63006368616E6E656C0062657232
:10024000746F732F6E65742F617832352E6300637F
:10025000747800626572746F732F6E65742F6178A5
:1002600032352E63006973616C6E756D28632920C9
:100270007C7C2063203D3D2027202700626572742E
:100280006F732F6E65742F617832352E630063743F
:10029000782D3E6372635F6F7574203D3D20415839
:1002A00032355F4352435F434F52524543540062DD
:1002B0006572746F732F6E65742F617832352E639B
:1002C00000706174685F6C656E203E3D2032006294
:1002D0006572746F732F6E65742F617832352E637B
:1002E000007061746800626572746F732F6E65745C
:1002F0002F617832352E630066642D3E636C656134
:100300007265727200626572746F732F696F2F6B02
:1003100066696C652E680066642D3E6572726F7248
:1003200000626572746F732F696F2F6B66696C65FD
:100330002E680025733A204F6E6C79206672616DCD
:10034000657320776974686F7574206C6179657264
:10035000332070726F746F636F6C206172652068F8
:10036000616E646C65642C20676F74205B2530328D
:10037000585D0A0025733A204F6E6C79205549204C
:100380006672616D6573206172652068616E646C70
:1003900065642C20676F74205B253032585D0A003D
:1003A00025733A204368616E6E656C206572726FCA
:1003B00072205B253034785D0A0000008911122319
:1003C0009B322446AD573665BF74488CC19D5AAFE9
:1003D000D3BE6CCAE5DB7EE9F7F8811008019333E0
:1003E0001A22A5562C47B7753E64C99C408DDBBFC9
:1003F00052AEEDDA64CBFFF976E802218B301002C1
:1004000099132667AF763444BD554AADC3BC588EA8
:10041000D19F6EEBE7FA7CC8F5D983310A2091129F
:100420001803A7772E66B5543C45CBBD42ACD99E88
:10043000508FEFFB66EAFDD874C904428D531661F4
:100440009F702004A9153227BB364CCEC5DF5EED68
:10045000D7FC6888E1997AABF3BA85520C4397715F
:100460001E60A1142805B3373A26CDDE44CFDFFD48
:1004700056ECE9986089FBBB72AA06638F72144040
:100480009D512225AB343006B9174EEFC7FE5CCC28
:10049000D5DD6AA9E3B8788AF19B87730E6295501F
:1004A0001C41A3352A24B1163807CFFF46EEDDDC08
:1004B00054CDEBB962A8F99A708B088481951AA77C
:1004C00093B62CC2A5D33EE1B7F04008C919522B10
:1004D000DB3A644EED5F766DFF7C899400859BB7B7
:1004E00012A6ADD224C3BFF136E0C1184809D33BF0
:1004F0005A2AE55E6C4FF77D7E6C0AA583B4188698
:1005000091972EE3A7F23CC0B5D14229CB38500ACF
:10051000D91B666FEF7E744CFD5D8BB502A4999676
:100520001087AFF326E2BDD034C1C3394A28D11AAF
:10053000580BE77F6E6EF55C7C4D0CC685D71EE5CB
:1005400097F42880A1913AA3B3B2444ACD5B56698F
:10055000DF78600CE91D722FFB3E8DD604C79FF536
:1005600016E4A9902081BBB332A2C55A4C4BD7796F
:100570005E68E11C680DF33F7A2E0EE787F61CC417
:1005800095D52AA1A3B03882B193466BCF7A54484F
:10059000DD59622DEB3C700EF91F8FF706E69DD4F6
:1005A00014C5ABB122A0B9923083C77B4E6AD5582F
:1005B0005C49E33D6A2CF11E780F6368203C3D20C6
:1005C00035004D6F64656D2F686172647761726587
:1005D0002E630066642D3E5F74797065203D3D207A
:1005E0004B46545F4146534B004D6F64656D2F6120
:1005F00066736B2E6800808183848687898A8C8EDF
:100600008F9192949597989A9B9D9EA0A2A3A5A640
:10061000A7A9AAACADAFB0B2B3B5B6B7B9BABCBDB5
:10062000BEC0C1C2C4C5C6C8C9CACBCDCECFD0D248
:10063000D3D4D5D6D7D9DADBDCDDDEDFE0E1E2E307
:10064000E4E5E6E7E8E9EAEAEBECEDEEEEEFF0F1FF
:10065000F1F2F3F3F4F5F5F6F6F7F8F8F9F9FAFA3A
:10066000FAFBFBFCFCFCFDFDFDFDFEFEFEFEFEFFBD
:10067000FFFFFFFFFFFF2D2D2D2D2D2D2D2D2D2DBE
:100680002D2D2D2D2D2D2D2D2D2D2D2D2D2D2D2D9A
:100690002D2D2D2D2D2D2D2D0A0048202020202000
:1006A000202020205072696E7420636F6E66696727
:1006B00075726174696F6E0A00432020202020202B
:1006C000202020436C65617220636F6E66696775D8
:1006D000726174696F6E0A004C2020202020202057
:1006E00020204C6F616420636F6E6669677572616C
:1006F00074696F6E0A0053202020202020202020C3
:100700005361766520636F6E66696775726174699F
:100710006F6E0A00563C312F303E20202020536956
:100720006C656E74206D6F6465206F6E2F6F6666EA
:100730000A0A00763C312F303E2020202056657278
:10074000626F7365206D6F6465206F6E2F6F6666D4
:100750000A0070693C312F303E2020205072696EB3
:100760007420494E464F206F6E2F6F66660A0A004E
:10077000706D3C312F303E2020205072696E742005
:1007800044415441206F6E2F6F66660A0070703CC2
:10079000312F303E2020205072696E742050415419
:1007A00048206F6E2F6F66660A0070643C312F30F0
:1007B0003E2020205072696E7420445354206F6E86
:1007C0002F6F66660A0070733C312F303E20202068
:1007D0005072696E7420535243206F6E2F6F66669D
:1007E0000A006D723C737369643E20205265747216
:1007F00079206C617374206D6573736167650A009D
:100800006D733C737369643E2020536574206D657D
:10081000737361676520726563697069656E7420C2
:10082000535349440A006D633C63616C6C3E202065
:10083000536574206D6573736167652072656369C4
:100840007069656E742063616C6C7369676E0A0011
:100850006C743C732F613E20202053656C6563747B
:100860002073796D626F6C207461626C65202873EF
:1008700074616E646172642F616C7465726E617410
:1008800065290A0A006C733C73796D3E2020205361
:10089000656C6563742073796D626F6C0A006C64BB
:1008A0003C302D393E20202053657420616E7465E4
:1008B0006E6E61206469726563746976697479200B
:1008C000696E666F0A006C673C302D393E2020202F
:1008D00053657420616E74656E6E61206761696E28
:1008E00020696E666F0A006C683C302D393E20200E
:1008F0002053657420616E74656E6E612068656951
:1009000067687420696E666F0A006C703C302D3920
:100910003E20202053657420545820706F776572F4
:1009200020696E666F0A006C6C6F3C4C4F4E3E2027
:1009300020536574206C6174697475646520284E59
:100940004D45412D666F726D61742C2065672030B6
:10095000373230312E373557290A006C6C613C4CE8
:1009600041543E2020536574206C61746974756431
:100970006520284E4D45412D666F726D61742C20A7
:10098000656720343930332E35304E290A007332F2
:100990003C737369643E2020536574205041544871
:1009A0003220535349440A0A0073313C737369641B
:1009B0003E20205365742050415448312053534900
:1009C000440A0073643C737369643E202053657469
:1009D0002064657374696E6174696F6E2053534946
:1009E000440A0073633C737369643E20205365744A
:1009F00020796F757220535349440A00323C636179
:100A00006C6C3E20202053657420504154483220A5
:100A100063616C6C7369676E0A0A00313C63616CD8
:100A20006C3E20202053657420504154483120638F
:100A3000616C6C7369676E0A00643C63616C6C3E48
:100A40002020205365742064657374696E61746935
:100A50006F6E2063616C6C7369676E0A00633C6340
:100A6000616C6C3E20202053657420796F75722074
:100A700063616C6C7369676E0A00233C6D73673E3B
:100A80002020202053656E642041505253206D6514
:100A900073736167650A0A00403C636D743E2020F1
:100AA000202053656E64206C6F636174696F6E20E3
:100AB0007570646174652028636D74203D206F70CB
:100AC00074696F6E616C20636F6D6D656E74290A59
:100AD00000213C646174613E20202053656E6420D7
:100AE000726177207061636B65740A005365726987
:100AF000616C20636F6D6D616E64733A0A002D2D19
:100B00002D2D2D2D2D2D2D2D2D2D2D2D2D2D2D2D15
:100B10002D2D2D2D2D2D2D2D2D2D2D2D2D2D2D2D05
:100B20000A0053796D626F6C3A2025630A0053798D
:100B30006D626F6C207461626C653A207374616ED3
:100B4000646172640A0053796D626F6C2074616233
:100B50006C653A20616C7465726E6174650A00445C
:100B6000697265637469766974793A2025640A004C
:100B70004761696E3A2025640A00486569676874B0
:100B80003A2025640A00506F7765723A2025640A7E
:100B90000050617468323A20252E36732D25640A80
:100BA0000050617468313A20252E36732D25640A71
:100BB0000044657374696E6174696F6E3A20252E06
:100BC00036732D25640A0043616C6C7369676E3A55
:100BD00020252E36732D25640A00436F6E666967E3
:100BE00075726174696F6E3A0A00300A004572725C
:100BF0006F723A20496E76616C696420636F6D6D27
:100C0000616E640A00310A0052657472696564207D
:100C10006C617374206D6573736167650A00310AD6
:100C2000000A002D25640A004D6573736167652015
:100C3000726563697069656E743A20252E3673009B
:100C4000310A000A002D25640A004D65737361673F
:100C50006520726563697069656E743A20252E3669
:100C60007300310A0053656C6563746564207374A6
:100C7000616E646172642073796D626F6C2074615F
:100C8000626C650A0053656C656374656420616C11
:100C90007465726E6174652073796D626F6C207417
:100CA00061626C650A0053796D626F6C20736574C4
:100CB00020746F2025630A00446972656374697645
:100CC0006974792073657420746F20256464656786
:100CD0000A00446972656374697669747920736582
:100CE0007420746F206F6D6E690A00310A00310A3A
:100CF000004761696E2073657420746F20256464F9
:100D0000420A00310A00416E74656E6E61206865AA
:100D1000696768742073657420746F20256C646D36
:100D2000204141540A00310A00506F7765722073E8
:100D3000657420746F202564770A00310A004C6FB7
:100D40006E677469747564652073657420746F20B0
:100D5000252E39730A00310A004C61746974756478
:100D6000652073657420746F20252E38730A003156
:100D70000A005072696E7420494E464F20646973B0
:100D800061626C65640A00310A005072696E7420F9
:100D9000494E464F20656E61626C65640A00310AF7
:100DA000005072696E74204441544120646973613B
:100DB000626C65640A00310A005072696E742044E6
:100DC00041544120656E61626C65640A00310A001D
:100DD0005072696E74205041544820646973616296
:100DE0006C65640A00310A005072696E74205041CB
:100DF000544820656E61626C65640A00310A0050D7
:100E000072696E74204453542064697361626C6526
:100E1000640A00310A005072696E742044535420F1
:100E2000656E61626C65640A00310A005072696E19
:100E300074205352432064697361626C65640A00D4
:100E4000310A005072696E742053524320656E61FE
:100E5000626C65640A00310A0050617468323A209D
:100E6000252E36732D25640A00310A0050617468FE
:100E7000313A20252E36732D25640A00310A0044AC
:100E8000657374696E6174696F6E3A20252E3673CE
:100E90002D25640A00310A0043616C6C7369676E2A
:100EA0003A20252E36732D25640A00310A00506140
:100EB0007468323A20252E36732D25640A00310AD3
:100EC0000050617468313A20252E36732D25640A4E
:100ED00000310A0044657374696E6174696F6E3A1B
:100EE00020252E36732D25640A00310A0043616CDB
:100EF0006C7369676E3A20252E36732D25640A00BF
:100F0000310A004D6573736167652073656E740AFD
:100F100000310A004C6F636174696F6E20757064F4
:100F20006174652073656E740A00310A0050616354
:100F30006B65742073656E740A00310A00436F6E2E
:100F400066696775726174696F6E20736176656436
:100F50000A00300A004572726F723A204E6F207399
:100F6000746F72656420636F6E6669677572617411
:100F7000696F6E20746F206C6F6164210A00436F8B
:100F80006E66696775726174696F6E206C6F6164FB
:100F900065640A00310A00436F6E666967757261A5
:100FA00074696F6E20636C65617265642E20526592
:100FB000737461727420746F206C6F616420646557
:100FC0006661756C74732E0A002D2D2D2D2D2D2D1F
:100FD0002D2D2D2D2D2D2D2D0A004D6F64656D208D
:100FE00072656164790A0044656661756C7420639A
:100FF0006F6E66696775726174696F6E206C6F6180
:10100000646564210A00756E7369676E65642E6994
:101010006F2F6D6963726F617072730A004D69633F
:10102000726F415052532076302E32610A002D2DBE
:101030002D2D2D2D2D2D2D2D2D2D2D2D2D0A0062FB
:1010400075665F706F696E746572203E3D206275D3
:101050006600626572746F732F6D776172652F66BB
:101060006F726D617477722E6300203D2030782599
:10107000700A00496E76616C6964207074723A205F
:10108000003A2000417373657274696F6E20666167
:10109000696C65643A20000011241FBECFEFD8E0D0
:1010A000DEBFCDBF12E0A0E0B1E0E2EAF2E702C0AD
:1010B00005900D92A233B107D9F716E0A2E3B2E092
:1010C00001C01D92AA3DB107E1F70E946A190C9474
:1010D0004F390C9400001092C00088E98093C10041
:1010E00008951092C1000895FC012285211105C0C8
:1010F00021E0228788EB8093C10008959A01AB011B
:10110000CA01B9019695879577956795605C7D4B87
:10111000804F9F4F0E947937215031093093C5008D
:101120002093C4000895E2ECF0E08081A4E0660F13
:10113000771FAA95E1F78F7C862B808308959FB750
:10114000F89484B1886284B99FBF8FB7F894229ACB
:101150008FBF8FB7F89424988FBF80ED8CBD8CB56E
:1011600081608CBD8DB58E7F8DBD08951CBC9FB7F1
:10117000F89484B1837C84B99FBF0895089508953D
:10118000FC01828508956FB7F894DC011A962C91C2
:101190001A97211120C0E0913906F0913A06478D47
:1011A00050A121A132A142175307A9F021E01A96BC
:1011B0002C93A78DB0A185A196A1A817B90719F402
:1011C00083A194A104C0A78DB0A1CD01019690A3E5
:1011D000878F8C918EBD6FBF0895CF93DF93EC0105
:1011E0008230910544F049E953E067E770E088E612
:1011F00090E00E94F4342BE02C9FC0012D9F900DB5
:1012000011248A5F9E4FDF91CF9108951F920F9214
:101210000FB60F9211242F933F938F939F93AF9309
:10122000BF93EF93FF93E0913706F0913806278D37
:1012300030A181A192A12817390731F488E9809360
:10124000C1001092100113C0A78DB0A185A196A175
:10125000A817B90719F483A194A104C0A78DB0A160
:10126000CD01019690A3878F8C918093C600FF914A
:10127000EF91BF91AF919F918F913F912F910F90DF
:101280000FBE0F901F9018951F920F920FB60F92DE
:1012900011242F933F934F935F938F939F93AF931B
:1012A000BF93EF93FF93E0913706F091380697A52F
:1012B0008091C0008871892B87A75091C60027A113
:1012C00030A583A594A52817390739F421A532A59F
:1012D00085A596A52817390761F021A532A587A114
:1012E00090A5019741E02817390709F040E0842FC5
:1012F00001C081E080FF04C087A5816087A712C07C
:10130000A1A5B2A55C9321A532A585A596A5281710
:10131000390719F483A594A503C081A592A5019668
:1013200092A781A7FF91EF91BF91AF919F918F916C
:101330005F914F913F912F910F900FBE0F901F9093
:1013400018951F920F920FB60F9211242F933F936F
:101350004F938F939F93AF93BF93EF93FF93E0913E
:101360003906F0913A0627A130A583A594A5281740
:10137000390739F421A532A585A596A5281739077F
:1013800061F021A532A587A190A5019741E028171A
:10139000390709F040E0842F01C081E080FD13C0CF
:1013A0008EB5A1A5B2A58C9321A532A585A596A53C
:1013B0002817390719F483A594A503C081A592A520
:1013C000019692A781A7E0913906F0913A06278D00
:1013D00030A181A192A12817390799F0A78DB0A15A
:1013E00085A196A1A817B90719F483A194A104C0F7
:1013F000A78DB0A1CD01019690A3878F8C918EBD52
:1014000002C010921B01FF91EF91BF91AF919F918C
:101410008F914F913F912F910F900FBE0F901F9082
:1014200018959FB7F89483E085BB14BC15BC82E087
:1014300084BD85B5836085BD16BC89EF87BDEEE6AA
:10144000F0E080818E7F80838081826080839FBF77
:101450000895CF93DF93EC01FB015FB7F894278DDC
:1014600030A183A194A128173907E9F421A132A161
:1014700085A196A128173907B1F481E05FBF80FDEF
:1014800011C04FB7F894A1A1B2A1CC9321A132A170
:1014900085A196A12817390799F483A194A192A355
:1014A00081A314C0DACF81A192A1278D30A1215050
:1014B000310941E08217930709F040E0842FDECF25
:1014C00021A132A12F5F3F4F32A321A34FBF80A99B
:1014D00091A9DC01ED91FC910084F185E02D099545
:1014E000CE019927DF91CF910895FC014FB7F89471
:1014F00027A130A581A592A54FBF2817390739F03C
:1015000087A5897B79F024C087A5897BC9F74FB768
:10151000F89427A130A581A592A54FBF28173907B8
:1015200099F3EECF2FB7F894A7A1B0A585A596A5FE
:10153000A817B90719F483A594A504C0A7A1B0A55D
:10154000CD01019690A787A38C912FBF90E00895BD
:101550008FEF9FEF0895AF92BF92CF92DF92EF92FD
:10156000FF920F931F93CF93DF937C015B016A017E
:10157000FC0100891189228933890C3412452544E4
:10158000334541F04CEB50E06CE771E084E691E0CC
:101590000E94F434E50100E010E00C151D0559F03F
:1015A000C7010E94750A8F3F2FEF920721F00F5F4E
:1015B0001F4F8993F2CFC801DF91CF911F910F91F7
:1015C000FF90EF90DF90CF90BF90AF900895AF92D3
:1015D000BF92CF92DF92EF92FF920F931F93CF9320
:1015E000DF937C015B016A01FC010089118922897A
:1015F00033890C3412452544334541F04CEB50E01F
:101600006CE771E084E691E00E94F434E50100E0CB
:1016100010E00C151D0561F08991B701992787FD30
:1016200090950E94290A019619F00F5F1F4FF1CF84
:10163000C801DF91CF911F910F91FF90EF90DF9044
:10164000CF90BF90AF900895CF93DF93EC0148897E
:1016500059896A897B894C3452456544734541F008
:101660004CEB50E06CE771E084E691E00E94F434CA
:101670008FA590E0DF91CF910895CF93DF93EC0198
:10168000488959896A897B894C3452456544734538
:1016900041F04CEB50E06CE771E084E691E00E9491
:1016A000F4341FA6DF91CF910895CF93DF93EC011F
:1016B000488959896A897B894C3452456544734508
:1016C00049F04CEB50E06CE771E084E691E00E9459
:1016D000F43400C02F8D38A189A19AA128173907A9
:1016E000C9F788A999A9DC01ED91FC910284F385E1
:1016F000E02D09958111EECF80E090E0DF91CF9150
:101700000895FC014FB7F89427A130A581A592A5B3
:101710004FBF28173907B1F02FB7F894A7A1B0A58C
:1017200085A596A5A817B90719F483A594A504C0A3
:10173000A7A1B0A5CD01019690A787A38C912FBF3B
:1017400090E008958FEF9FEF08956FB7F894FC0134
:1017500047A150A521A532A56FBF81E042175307CD
:1017600009F480E00895DC01D0968D919C91D19789
:10177000DC01ED91FC910480F581E02D0994EF925C
:10178000FF920F931F93CF93DF93EC018B01623095
:10179000710540F042E651E064E371E088E191E0D8
:1017A0000E94F434F801EE0FFF1FE95CF94FD1837A
:1017B000C0838E8D882341F045E651E067E071E0FB
:1017C0008AEF90E00E94F43481E08E8F1D8F0C8FA1
:1017D000C8010E94ED0899AB88ABDC0112968D918F
:1017E0009C911397892B41F44DE651E069EE70E02E
:1017F00088ED90E00E94F434E8A9F9A984819581EC
:10180000892B41F44EE651E067EC70E086EB90E006
:101810000E94F434E8A9F9A9E680F78002811381D7
:10182000B2E0EB16F10440F441E251E06EE970E001
:1018300085E990E00E94F4341CA30BA31AA309A32A
:1018400018A30F8FC7010197800F911F9EA38DA32F
:10185000E8A9F9A9E084F18404811581E2E0EE169B
:10186000F10440F441E251E06EE970E085E990E076
:101870000E94F4341CA70BA71AA709A718A70FA347
:10188000C7010197800F911F9EA78DA788A999A9CD
:10189000DC01ED91FC910190F081E02DBE010995F4
:1018A00040E855E260E070E0CE010E94B30B1FA655
:1018B000CE01DF91CF911F910F91FF90EF9008958E
:1018C0004FB7F894FC0121A532A530A727A34FBF3D
:1018D00008954FB7F894FC0121A132A130A3278FBE
:1018E0004FBF0895CF93DF93EC010E94600CCE01AF
:1018F000DF91CF910C94690CCF93DF93EC01488971
:1019000059896A897B894C3452456544734541F055
:101910004CEB50E06CE771E084E691E00E94F43417
:101920008E8D811108C04BE851E063E571E085E4DC
:1019300091E00E94F4341E8ECE010E94550B88A9BE
:1019400099A9DC01ED91FC910280F381E02D0995CC
:1019500019AA18AACE010E94720C80E090E0DF91D3
:10196000CF910895CF93DF93EC01488959896A8913
:101970007B894C3452456544734541F04CEB50E053
:101980006CE771E084E691E00E94F434CE010E949D
:101990007C0C6C8D7D8DCE010E94BF0BCE01DF9142
:1019A000CF910895FC01CB0122E3DF011D922A951E
:1019B000E9F74CE452E565E473E5408B518B628BAB
:1019C000738B22EB3CE0358324832CE73CE03783A8
:1019D00026832BEA3AE03183208327EE3AE03383F3
:1019E000228325E53BE03387228724E23BE03587ED
:1019F00024872DE33BE037872687BC01CF010C9479
:101A0000BF0B1F920F920FB60F9211240F931F93CB
:101A10002F933F934F935F936F937F938F939F93F6
:101A2000AF93BF93CF93DF93EF93FF9380913B06E8
:101A300090913C06A0913D06B0913E060196A11DF5
:101A4000B11D80933B0690933C06A0933D06B09356
:101A50003E060BEA1AEBC0917202D09173028881A4
:101A60009981892BD1F18FB7F89440913B06509121
:101A70003C0660913D0670913E068FBF8885998532
:101A8000AA85BB85481B590B6A0B7B0B77FD25C0CC
:101A9000CF3FD10509F048F42BEC30E040EC51E0A9
:101AA00063EB71E0CE010E940A35EA81FB818881F7
:101AB000998191838083E881F9818A819B819383D5
:101AC00082831B821A82198218821B8B0A8BEC85F7
:101AD000FD85CE010C960995BECFFF91EF91DF9168
:101AE000CF91BF91AF919F918F917F916F915F91B6
:101AF0004F913F912F911F910F910F900FBE0F901B
:101B00001F90189586E792E090937302809372027B
:101B1000109275021092740210927702109276025F
:101B200082E792E0909379028093780210923B06CC
:101B300010923C0610923D0610923E060E94110A39
:101B400080913F06882341F041E951E060EA71E06D
:101B50008DE891E00E94F43481E080933F0608957F
:101B6000EF92FF920F931F93CF93DF931F92CDB706
:101B7000DEB77C018B018983DB0112968D919C91EC
:101B80001397892B41F44EE051E068EF71E08EEE3F
:101B900091E00E94F434D8011296ED91FC911397D4
:101BA00041E050E0BE016F5F7F4FC801099501978A
:101BB00019F4C701992702C08FEF9FEF0F90DF91B3
:101BC000CF911F910F91FF90EF9008950F931F9366
:101BD000CF93DF931F92CDB7DEB78C01DC018D91DF
:101BE0009C91892B41F442EF50E06CED71E083ED64
:101BF00091E00E94F434D801ED91FC9141E050E075
:101C0000BE016F5F7F4FC8010995019719F4898163
:101C100090E002C08FEF9FEF0F90DF91CF911F9167
:101C20000F910895CF93DF93CDB7DEB79E01275F65
:101C30003F4F4D815E8160EB7DE08F8198850E94F2
:101C40003F0EDF91CF9108950F931F93CF93DF93B2
:101C50008C01EB018991882359F0B801992787FD00
:101C600090950E94B00D8F3F2FEF920799F702C019
:101C700080E090E0DF91CF911F910F9108952F9216
:101C80003F924F925F926F927F928F929F92AF920C
:101C9000BF92CF92DF92EF92FF920F931F93CF9359
:101CA000DF93CDB7DEB7C45AD1090FB6F894DEBFC3
:101CB0000FBECDBFFC01C856DF4F79836883C8597A
:101CC000D040C656DF4F59834883CA59D040590186
:101CD000C257DF4F19821882CE58D0409E012F5F25
:101CE0003F4FC957DF4F39832883C758D040AE01D3
:101CF0004A575F4FC757DF4F59834883C958D04071
:101D00009F012F5F3F4FC456DF4F39832883CC5943
:101D1000D0408081853291F1882309F427C7C656C7
:101D2000DF4F68817981CA59D040C856DF4FE881BA
:101D3000F981C859D0400995C257DF4FC880D98072
:101D4000CE58D040FFEFCF1ADF0AC557DF4FB98218
:101D5000A882CB58D040C257DF4FD982C882CE5814
:101D6000D040C557DF4FA880B980CB58D040C4566B
:101D7000DF4FE881F981CC59D040C2CF81818532D3
:101D800051F4AF014E5F5F4FC456DF4F5983488314
:101D9000CC59D040C4CFC456DF4FA881B981CC59AB
:101DA000D040C256DF4F1882CE59D040C357DF4FC4
:101DB0001882CD58D040CF56DF4F1882C159D0403D
:101DC000CE56DF4F1882C259D040FD018D918B3223
:101DD00009F45EC060F48032E9F0833209F05FC03C
:101DE00031E0C357DF4F3883CD58D040EECF8D322E
:101DF00051F0803309F053C041E0C256DF4F4883B1
:101E0000CE59D040E2CF21E0CF56DF4F2883C159D1
:101E1000D040DBCF392D3C7F932ECE56DF4F48810B
:101E2000C259D040942ACD56DF4F5881C359D04073
:101E300050FB92F8CF56DF4F8881C159D04080FBCC
:101E400093F8C057DF4F9881C059D04090FB94F869
:101E5000CC56DF4FE881C459D040E0FB95F8C3571A
:101E6000DF4FF881CD58D040F0FB96F8CB56DF4FCE
:101E70002881C559D04020FB97F8892D837009F03F
:101E8000A4CF81E0CE56DF4F8883C259D0409DCF8A
:101E900051E0CE56DF4F5883C259D04096CFC3573A
:101EA000DF4F9881CD58D040C056DF4F9883C05A3D
:101EB000D0408A3229F0DF01212C312C2AE013C0D6
:101EC000C5010296D5012D903C9037FE09C0319492
:101ED00021943108B1E0CF56DF4FB883C159D040CB
:101EE00031965C0112C0FD018D9190ED980F9A30F2
:101EF00060F4F1012E9F10012F9F300C1124F0E3AC
:101F00002F1A3108280E311CEECFCF56DF4F288113
:101F1000C159D040222329F0C256DF4F1882CE5932
:101F2000D04080818E3221F581818A3231F0DF010B
:101F30001196612C712C2AE009C0D5016D907C901E
:101F4000329695012E5F3F4F590115C0FD018D91CD
:101F500090ED980F9A3078F4A301249F3001259FCB
:101F6000700C112450E3651A7108680E711CEECFD5
:101F700066246A94762CDF018D918836D9F018F4A6
:101F80008C3459F01FC08C3641F08A37D9F4C057D1
:101F9000DF4F1882C059D04006C081E0C057DF4FE4
:101FA0008883C059D040FD01CC56DF4F1882C459F8
:101FB000D04012C0FD0191E0CC56DF4F9883C45948
:101FC000D04005C0CC56DF4F1882C459D040C0570E
:101FD000DF4F1882C059D040DF011196C456DF4F41
:101FE000B983A883CC59D0408080B5E68B1609F41C
:101FF00008C2B815ECF023E5821609F453C0281581
:1020000064F035E4831609F4FCC147E4841609F44E
:10201000F0C1882009F465C42AC053E6851671F121
:1020200058150CF4CBC088E5881609F48DC01FC084
:1020300090E7891609F471C0981564F0A7E68A162E
:1020400009F4D7C18A160CF4DBC1B9E68B1609F482
:10205000B5C00DC0E5E78E1609F476C0F8E78F1617
:1020600009F46DC023E7821202C0D12C1DC0C557F0
:10207000DF4FB982A882CB58D0403FC4A5014E5F44
:102080005F4FC557DF4F59834883CB58D040D501A8
:102090008C918983D12C8E010E5F1F4FFE013196EA
:1020A0005F0139C4DD24D39495012E5F3F4FC5579E
:1020B000DF4F39832883CB58D040D501AD90BC90F9
:1020C000A114B10421F4A0E2AA2EA1E0BA2E77FE59
:1020D00004C0F0E16F2EF7E27F2E8501DD20C1F014
:1020E000F8018491882309F416C4C8018A199B0950
:1020F000861597050CF00FC40F5F1F4FF1CFC80175
:102100008A199B09861597050CF005C40F5F1F4FB0
:10211000D8018C918111F3CFFEC3F5013296C557DA
:10212000DF4FF983E883CB58D040D5016D917C9186
:1021300080E090E0E4E7EE2EE1E0FE2E2BC074E8B4
:10214000E72E71E0F72E04C064E7E62E61E0F62E7C
:10215000C057DF4FB881C059D040BB2371F0F501A3
:102160003496C557DF4FF983E883CB58D040D5016B
:102170006D917D918D919C910DC0C5010296F501E7
:1021800060817181C557DF4F99838883CB58D040D8
:1021900080E090E021E0CD56DF4F2883C359D04046
:1021A00035E7831205C0CD56DF4F1882C359D040A2
:1021B000CE56DF4F1882C259D04042C0C057DF4FC1
:1021C0004881C059D040442371F0C5010496C557D9
:1021D000DF4F99838883CB58D040D5016D917D9195
:1021E0008D919C910FC0F5013296C557DF4FF98351
:1021F000E883CB58D040D5016D917C91882777FD3D
:102200008095982F97FF13C0909580957095619554
:102210007F4F8F4F9F4FCD56DF4F1882C359D0400D
:10222000B2E0CE56DF4FB883C259D04005C0CD567C
:10223000DF4F1882C359D04054E7E52E51E0F52E08
:10224000E1E0CB56DF4FE883C559D04061157105F9
:102250008105910529F4CB56DF4F1882C559D0402E
:102260006114710441F4CB56DF4FF881C559D04059
:10227000FF2309F47CC0CD56DF4F2881C359D040DD
:102280008E010A571F4F2130A9F02AE030E040E0CC
:1022900050E00E947937F701E60FF71F8081D801DF
:1022A0008E938D01B901CA016115710581059105F2
:1022B00061F715C0FB01EF70FF27EE0DFF1D2081B8
:1022C000F80122938F0144E096958795779567955D
:1022D0004A95D1F7611571058105910559F777FE8A
:1022E00049C0C256DF4FF881CE59D040FF2309F4D0
:1022F00041C0292D2C7F922ECE56DF4F3881C259F6
:10230000D040932ACD56DF4F4881C359D04040FB7F
:1023100092F8CF56DF4F5881C159D04050FB93F807
:10232000C057DF4F8881C059D04080FB94F8CC560D
:10233000DF4F9881C459D04090FB95F8C357DF4FC9
:10234000A881CD58D040A0FB96F8CB56DF4FB8817E
:10235000C559D040B0FB97F8292D237081E090E05B
:1023600011F480E090E03101681A790A03C08E010F
:102370000A571F4FC757DF4F88819981C958D040EE
:10238000801B910BF80120E35F01861597051CF473
:1023900022930196F9CFC357DF4FE881CD58D04043
:1023A000EE23A1F0CB56DF4FF881C559D040FF2373
:1023B00069F0882D8F7D883549F4F5013197808249
:1023C00022E0A21AB10880E3D5018C93C957DF4FF0
:1023D000E881F981C758D040AE16BF0608F095C213
:1023E00047EB52E06DE172E08AE092E00E94F43443
:1023F0008CC28A948A9411E06114710449F002C07D
:10240000812C10E077FE07C026E0622E712C03C0FD
:1024100066246394712C95012C5F3F4FC557DF4FA5
:1024200039832883CB58D040D501CD90DD90ED90F5
:10243000FC9020E030E0A901C701B6010E9494356C
:1024400087FF0AC0F7FAF094F7F8F094B2E0CE569E
:10245000DF4FB883C259D040C156DF4F1883CF59E0
:10246000D040AA24A394B12CAC0EBD1EA20CB31C68
:1024700020E030E040E85FE3C701B6010E94E336A8
:1024800087FD32C0412C512C27EB33E44AEB51E558
:10249000C701B6010E94E33687FD0EC029EF32E086
:1024A00045E150E5C701B6010E9498356B017C01FA
:1024B000EAE04E0E511CE8CF20E030E040E251E46B
:1024C000C701B6010E94E33687FD49C020E030E035
:1024D00040E251E4C701B6010E9498356B017C01CE
:1024E000FFEF4F1A5F0AE8CF20E030E0A901C701F3
:1024F000B6010E949435412C512C882381F12FEF95
:1025000036EE4BED5EE2C701B6010E949435181617
:1025100074F029EF32E045E150E5C701B6010E94B1
:10252000E7366B017C012AE0421A5108E8CF20E02F
:1025300030E040E85FE3C701B6010E94943587FFB1
:102540000EC020E030E040E251E4C701B6010E9435
:10255000E7366B017C0131E0431A5108E8CF1123C3
:1025600001F14614570444F44CEF44164FEF54065F
:102570001CF064187508812C51E0651A710881E01F
:10258000C357DF4F9881CD58D0409827C156DF4FB1
:102590009883CF59D040A1E0C357DF4FA883CD58CF
:1025A000D04081104BC057FE3DC080E3E1E0F0E039
:1025B000EC0FFD1FE20DF31D8083F5016114710422
:1025C00059F4C357DF4FB881CD58D040B11104C082
:1025D000319680E090E006C032968EE2D5011196E9
:1025E0008C93C30192012F5F3F4F280F391F40E3A7
:1025F0008F018217930729F0009719F041930197F3
:10260000F7CF930120953095421653060CF4D1C0B4
:102610003C01E1E0F0E0CA56DF4FF983E883C65998
:10262000D0405CC02227332724193509CA56DF4F12
:1026300039832883C659D040850150C08501CA56C8
:10264000DF4F19821882C659D04048C0C701B60171
:102650000E940036CF55DF4F688379838A839B833E
:10266000C15AD040CF55DF4F48815981C15AD0401F
:10267000BA01882777FD8095982F0E9433369B01F9
:10268000AC01C701B6010E942F3520E030E040E2E6
:1026900051E40E94E7366B017C0198012F5F3F4FA8
:1026A000CF55DF4F8881C15AD040805DD8018C93CF
:1026B000CA56DF4F88819981C659D0400196CA56C3
:1026C000DF4FE881F981C659D040EF2B91F0CA560F
:1026D000DF4F99838883C659D0408901CA56DF4F9E
:1026E00028813981C659D040621673060CF0AECFEE
:1026F00014C06114710439F4C357DF4FF881CD5809
:10270000D040FF2339F098012E5F3F4FEEE2D80111
:102710001196EC9381E090E0DACF20E030E040EADF
:1027200050E4C701B6010E94E33687FD42C0F801BC
:1027300081E090E030E322912E3251F0820F8A3313
:1027400021F0808380E090E003C0308381E090E05E
:10275000AE16BF0680F3892B61F18820B9F0F8012D
:10276000AE16BF0678F4DF018E919D018E3239F4EA
:10277000CF010297DC018C918083F90101C0808335
:102780003197EECFBFEF4B1A5B0A0BC00F5F1F4FA5
:10279000F801AE16BF0628F4DF018E918083FD019B
:1027A000F8CF81E3E1E0F0E0EC0FFD1FE20DF31D57
:1027B0008083C156DF4FE881CF59D040EE2349F0E6
:1027C000F8018291803311F48F01FACF8E3209F42F
:1027D0008F018820B1F1D8018C92C801029657FE72
:1027E00007C02DE211962C9351944194510803C0D7
:1027F0002BE2F80121838C01065F1F4F20E030E0BF
:102800002F5F3F4FF8013196C2016AE070E00E94ED
:102810006537805DD8018C932B016115710511F02E
:102820008F01EECF22303105DCF3E21BF30B199759
:1028300081918E932150310912161306CCF3095061
:102840001109C256DF4FB881CE59D040BB2309F4DD
:1028500061C0E92DEC7F9E2ECE56DF4FF881C25924
:10286000D0409F2ACD56DF4F2881C359D04020FB4E
:1028700092F8CF56DF4F3881C159D04030FB93F8E2
:10288000C057DF4F4881C059D04040FB94F8CC5628
:10289000DF4F5881C459D04050FB95F8C056DF4FE8
:1028A0008881C05AD04080FB96F8CB56DF4F988184
:1028B000C559D04090FB97F8292D237081E090E016
:1028C00011F480E090E09101281B390BF50140E301
:1028D0005F01C8018E1B9F0B82179307DCF44293A4
:1028E000F7CFC557DF4FB982A882CB58D040C45626
:1028F000DF4FF983E883CC59D040D12C0FE111E0B0
:102900008CE1A82E81E0B82E06C0D12C8E010A578A
:102910001F4F01C0D12C0A191B09201631060CF4D7
:1029200040C0A92DAC7F9A2ECE56DF4FB881C25938
:10293000D0409B2ACD56DF4FE881C359D040E0FB01
:1029400092F8CF56DF4FF881C159D040F0FB93F891
:10295000C057DF4F2881C059D04020FB94F8CC5697
:10296000DF4F3881C459D04030FB95F8C056DF4F57
:102970004881C05AD04040FB96F8CB56DF4F588173
:10298000C559D04050FB97F87101E01AF10A292D82
:10299000237081E090E011F480E090E0E81AF90AF9
:1029A00002C0E12CF12CCF56DF4F8881C159D040B5
:1029B000811122C031E0E31AF108F7FC1DC0C656B0
:1029C000DF4F68817981CA59D04080E2C856DF4F15
:1029D000E881F981C859D0400995C257DF4F288155
:1029E0003981CE58D0402F5F3F4FC257DF4F3983D8
:1029F0002883CE58D040DECF492D4C7F942ECE5622
:102A0000DF4F5881C259D040952ACD56DF4F88817B
:102A1000C359D04080FB92F8CF56DF4F9881C159FF
:102A2000D04090FB93F8C057DF4FA881C059D040E9
:102A3000A0FB94F8CC56DF4FB881C459D040B0FB0E
:102A400095F8C056DF4FE881C05AD040E0FB96F8B9
:102A5000CB56DF4FF881C559D040F0FB97F8892D50
:102A6000837001F1813011F48BE201C08DE2C65612
:102A7000DF4F68817981CA59D040C856DF4FE8815D
:102A8000F981C859D0400995C257DF4F2881398153
:102A9000CE58D0402F5F3F4FC257DF4F3983288336
:102AA000CE58D040D1100AC03501C257DF4FA880A0
:102AB000B980CE58D040A618B70821C0C257DF4F02
:102AC000C880D980CE58D040AC18BD08015011093B
:102AD00017FD2DC0F501EC0DFD1D8491C656DF4F8D
:102AE00068817981CA59D040C856DF4FE881F981A1
:102AF000C859D0400995FFEFCF1ADF0AE7CF65012B
:102B0000C60CD71C0150110917FD11C0C656DF4F66
:102B100068817981CA59D040D3018D913D01C85651
:102B2000DF4FE881F981C859D0400995E8CFCF56E9
:102B3000DF4FF881C159D040FF2309F40CC921E0CF
:102B4000E21AF108F7FC07C9C656DF4F68817981A0
:102B5000CA59D04080E2C856DF4FE881F981C85990
:102B6000D0400995FFEFCF1ADF0AE9CFC257DF4FF8
:102B700088819981CE58D040CC55DF4F0FB6F8945C
:102B8000DEBF0FBECDBFDF91CF911F910F91FF90A0
:102B9000EF90DF90CF90BF90AF909F908F907F90FD
:102BA0006F905F904F903F902F900895CF92DF925B
:102BB000EF92FF920F931F93CF93DF931F92CDB7A6
:102BC000DEB77C01462F82E8860F9701265B3E4FD9
:102BD0006901823010F06B3149F4F6016081718136
:102BE0008BE190E049830E94B00D4981D701A05B41
:102BF000BE4F2C9111965C911197842F90E0FC01AF
:102C0000E227EE0FFF1FE654FC4F25913491052F6C
:102C100010E0202731272D933C93F60160817181CC
:102C20000F90DF91CF911F910F91FF90EF90DF9068
:102C3000CF900C94B00D2F923F924F925F926F9273
:102C40007F928F929F92AF92BF92CF92DF92EF923C
:102C5000FF920F931F93CF93DF93CDB7DEB7C45589
:102C6000D1090FB6F894DEBF0FBECDBF8C015C0159
:102C700026EBA21A2EEFB20A4C014BEA841A4EEF51
:102C8000940A7C0184EBE81A8EEFF80AD5018D9145
:102C90009C910E94E60D8F3FBFEF9B0709F441C155
:102CA000F401208121110CC18E37910509F0FAC081
:102CB000D7014D915C91F801E25BFE4F1F0142315B
:102CC000510508F4E1C080819181883B904F09F063
:102CD000DBC0D801FE013896CE010E962D912695C7
:102CE000203209F420E02193E817F907B9F7D80159
:102CF00016968C91169786958F708E871796FE0183
:102D00003196CF0106962D912695203209F420E0C8
:102D10002193E817F907B9F7F8013D96D8011D96F8
:102D20008C9186958F708F8329964FAC2997512C63
:102D300061E070E0808180FF19C028965FAE28971F
:102D400029964FAE29972181822F90E02B969FAF35
:102D50008EAF2B97039709F463C01F922F938DE9D1
:102D600091E09F938F9384E793E068C0B7E0B51537
:102D700020F366246394712C6C0E7D1E27E0529E16
:102D8000600C711C1124CF01019663969FAF8EAF2A
:102D9000639780E090E0252D30E06396AEADBFAD47
:102DA0006397DD906396BFAFAEAF6397D694B0E202
:102DB000DB1202C0C12C01C0CD2CD301A80FB91F5A
:102DC0001E96CC9201968630910539F73796908100
:102DD000B7E0CB2EC29ED001C39EB00D1124CC24EF
:102DE000C394D12CCC0EDD1EAC0DBD1D892F869554
:102DF0008F7054968C9397FF08C0CB0102C0880F48
:102E0000991F2A95E2F7482A09C0DB0102C0AA0FE0
:102E1000BB1F2A95E2F79D012095422253948ACF49
:102E200082812C968FAF2C97803F99F01F928F93C1
:102E30008DE991E09F938F9383E393E09F938F932A
:102E40000E9472340F900F900F900F900F900F9080
:102E50001BC0339642505109C8018E1B9F0B480F6F
:102E6000591F60965FAF4EAF60972E96FFAFEEAFE3
:102E70002E97F801EE5AFE4F0190F081E02D309729
:102E800019F0CE010196099581E0F801EC5AFE4F48
:102E900080838FEF9FEFD1018D939C93F701118277
:102EA0001082F4CE8F37910529F4F801EC5AFE4FC9
:102EB0001082ECCE8B31910519F481E08083E6CE4F
:102EC000F801EC5AFE4F2081222341F1D7012D91C8
:102ED0003C912A34B1E03B0700F5A9014F5F5F4FF9
:102EE000F70151834083F801E20FF31F8083D8017B
:102EF000A25BBE4F2D913C911197F901E827FF2766
:102F0000EE0FFF1FE654FC4F85919491232F33273A
:102F1000822793278D939C9301C01082D4011C9229
:102F2000B5CEF50100811181D8011C968D919C913F
:102F30001D97892B41F449E451E061E273E087E198
:102F400093E00E94F434D8011C96ED91FC911D97FA
:102F5000C8010995892B09F444C0F501008111814C
:102F6000D8011C968D919C911D97892B41F449E4C1
:102F700051E061E273E087E193E00E94F434D8010C
:102F80001C96ED91FC911D97C80109959F938F9315
:102F900082EA91E09F938F9380EA93E09F938F93CF
:102FA0000E947234F501008111810F900F900F90F3
:102FB0000F900F900F90D8011E968D919C911F97A6
:102FC000892B41F442E551E065E073E088EF92E03F
:102FD0000E94F434D8011E96ED91FC911F97C80110
:102FE0000995CC5ADF4F0FB6F894DEBF0FBECDBFA8
:102FF000DF91CF911F910F91FF90EF90DF90CF90D5
:10300000BF90AF909F908F907F906F905F904F9008
:103010003F902F9008952F923F924F925F926F9220
:103020007F928F929F92AF92BF92CF92DF92EF9258
:10303000FF920F931F93CF93DF93CDB7DEB72C97FB
:103040000FB6F894DEBF0FBECDBF9C878B877B0188
:103050005A01288739871D830C836115710541F456
:1030600048EF50E066EE72E081EE92E00E94F434A8
:1030700022E0A216B10440F449EF50E06FEC72E098
:1030800081EC92E00E94F4344B845C8480EB481A1B
:103090008EEF580A8FEF9FEFF201918380836B844C
:1030A0007C84F6EB6F1AFEEF7F0AF3016081718179
:1030B0008EE790E00E94B00DC12CD12CC501019784
:1030C0009F838E83CA14DB0409F468C021E029833E
:1030D0008E819F81C816D90609F01982F7010190E7
:1030E0000020E9F78F01015011090E191F0907305F
:1030F000110510F006E010E0C8018E0D9F1D9B83A6
:103100008A8317018A819B812816390601F1F10112
:1031100021911F01822E912CC4012A870E94F03830
:103120002A85892B51F4203241F04BED50E06CE7B9
:1031300072E085E692E00E94F434C4010E940439F2
:10314000682F660F8B859C850E94D615DBCF0630D5
:10315000110599F0812C912CE6E0F0E0E01BF10BD9
:103160008F018016910648F460E48B859C850E944F
:10317000D615FFEF8F1A9F0AF4CF89818066F70179
:103180006681660F682B8B859C850E94D615FFEFA4
:10319000CF1ADF0A27E0E20EF11C94CF63E08B85A3
:1031A0009C850E94D61560EF8B859C850E94D61564
:1031B00008851985EC80FD80E00EF11E0E151F05B7
:1031C00041F0F80161918F018B859C850E94D61595
:1031D000F5CFF2016081118160958B859C850E94FD
:1031E000D615612F60958B859C850E94D615F201BE
:1031F00080819181883B904F41F042E151E06FEA3C
:1032000072E08EE892E00E94F434F30160817181F3
:103210008EE790E02C960FB6F894DEBF0FBECDBFC0
:10322000DF91CF911F910F91FF90EF90DF90CF90A2
:10323000BF90AF909F908F907F906F905F904F90D6
:103240003F902F900C94B00DEF92FF920F931F932D
:10325000CF93DF93EC018B017A01009741F442E4B4
:1032600051E063E572E08FE492E00E94F4340115CE
:10327000110541F443E451E06DE372E085E392E02F
:103280000E94F43486E591E0FE019C0111922150E8
:103290003040E1F7FE01E65BFE4F11830083FE0143
:1032A000EE5AFE4FF182E082FE01E05BFE4F8FEFAF
:1032B0009FEF91838083C25BDE4F99838883DF9188
:1032C000CF911F910F91FF90EF9008956AEC73E0FA
:1032D0000C94752178940E94820D60E070E08AEC75
:1032E00093E00E94D20C40E855E260E070E08AEC86
:1032F00093E00E94B30B86E08093C20060E070E030
:1033000082E595E00E94EB1E46E659E162E575E034
:103310008CEF93E00E9424190E9486208FB7F894C6
:10332000C0903B06D0903C06E0903D06F0903E06F3
:103330008FBFC1E08CEF93E00E941B1680917A0250
:1033400081112EC08AEC93E00E94A50B882341F1E5
:103350008AEC93E00E94810B80937D0290937E0221
:1033600020917B0230917C02F901E158FD4FA901C7
:103370004F5F5F4F808350937C0240937B022934E0
:10338000314010F0C0937A028FB7F894C0903B069A
:10339000D0903C06E0903D06F0903E068FBF1BC0EB
:1033A00080917B0290917C02892BA9F02FB7F89431
:1033B00080913B0690913C06A0913D06B0913E065F
:1033C0002FBF8C199D09AE09BF090397A105B1054F
:1033D00014F0C0937A0280917A02882309F4AACF6C
:1033E00060917B0270917C022CEF33E04AEC53E059
:1033F0008FE792E00E94BB2510927A0210927C0225
:1034000010927B0297CFCF93DF93EC0170932D0640
:1034100060932C068630910544F041E250E062EC66
:1034200075E08AEB95E00E94F4341092800089E107
:103430008093810081E896E09093870080938600D6
:103440008C2F806480937C0087B121E030E001C044
:10345000220FCA95EAF7922F9095892387B988B1F0
:10346000892388B980917E00822B80937E0087E03B
:1034700080937B008CEE80937A00DF91CF9108954A
:103480001F920F920FB60F9211242F933F934F93D9
:103490005F936F937F938F939F93AF93BF93EF93BC
:1034A000FF9380E286BB60917800709179007695F9
:1034B000679576956795605880912C0690912D06BA
:1034C0000E94021C80914106882349F080912C06BD
:1034D00090912D060E94D21D807F886007C0809148
:1034E0004006882311F088E801C080E88BB9FF917D
:1034F000EF91BF91AF919F918F917F916F915F916C
:103500004F913F912F910F900FBE0F901F901895E4
:10351000AF92BF92CF92DF92EF92FF920F931F93E1
:10352000CF93DF936C01EB017A01DC0150960D9192
:103530001D912D913C9153970D341B4423453644E6
:1035400041F04EE650E069EE75E083ED95E00E94B3
:10355000F4345E01CE018E0D9F1DF601EB57FF4F37
:10356000A816B90671F4C5018C1B9D0BDF91CF9194
:103570001F910F91FF90EF90DF90CF90BF90AF9091
:1035800008956FB7F89440815181228133816FBFD4
:103590004217530741F32FB7F894C0903B06D090E1
:1035A0003C06E0903D06F0903E062FBF6FB7F894C2
:1035B00040815181228133816FBF42175307A9F4A3
:1035C0004FB7F89400913B0610913C0620913D06C0
:1035D00030913E064FBF0C191D092E093F091016E8
:1035E00011061206130614F7BECF6FB7F8942081A8
:1035F0003181468157812417350719F4448155815B
:1036000005C020813181A9014F5F5F4F5183408305
:10361000D9012C916FBFD5012D935D01A1CF6F9280
:103620007F928F929F92AF92BF92CF92DF92EF9252
:10363000FF920F931F93CF93DF93EC018B017A01DD
:1036400088899989AA89BB898D349B44A345B6444E
:1036500041F04EE650E069EE75E083ED95E00E94A2
:10366000F434F801A8014E0D5F1D99249394BB24F6
:10367000B3943E0187E7680E711C20E430E065E3F7
:1036800070E088E0E82EF12CE417F50709F44EC04D
:10369000AFB6F894CFA4D8A88BA99CA9C816D90610
:1036A00039F4C9A8DAA88DA99EA9C816D90669F067
:1036B000C9A8DAA88FA598A9019788248394C81669
:1036C000D90609F0812C882D01C081E0AFBE80FDB4
:1036D000DFCFD190AFB6F89489A99AA9DC01DC922A
:1036E000C9A8DAA88DA99EA9C816D90619F48BA96C
:1036F0009CA903C089A99AA901969AAB89ABAFBED0
:10370000D3018C9181110CC03EA72DA71CA61BA62E
:103710001AA69C92299A7BA36AA35B9AB09241064F
:103720008FB7F894FDA2ECA28FBFAECFCF01801B64
:10373000910BDF91CF911F910F91FF90EF90DF9050
:10374000CF90BF90AF909F908F907F906F90089593
:10375000CF93DF93EC01488959896A897B894D347D
:103760005B446345764441F04EE650E069EE75E017
:1037700083ED95E00E94F434C958DF4F88818111B0
:10378000FDCF80E090E0DF91CF910895CF93DF935C
:10379000EC01488959896A897B894D345B446345CA
:1037A000764441F04EE650E069EE75E083ED95E039
:1037B0000E94F4342FB7F894C852DF4F8881998162
:1037C0002FBFDF91CF910895CF93DF93EC0148890C
:1037D00059896A897B894D345B446345764441F05D
:1037E0004EE650E069EE75E083ED95E00E94F4341A
:1037F0008FB7F894C852DF4F198218828FBFDF91BC
:10380000CF910895EF92FF920F931F93CF93DF9381
:10381000FC018C0101531F4FD8014D915C91DC01DB
:10382000A353BF4F4D935C93DC01A858BF4F8D91BC
:103830009C91119716962D913C911797821793079B
:1038400029F414962D913C91159706C08D919C9169
:1038500011979C012F5F3F4F11963C932E93EC01E3
:1038600028812602900111243595279535952795B5
:10387000E801398328837F01D3EDED0EF11CE701C8
:10388000888199818F010F521F4FE80199838883A6
:1038900095958795840F951F820F931FE701998354
:1038A0008883AF014B525F4F21E0181619060CF0C8
:1038B00020E0EA018881880F822B888312968D91FF
:1038C0009C911397EC01688312962D913C9113976C
:1038D00016968D919C9117972817390729F41496FD
:1038E0008D919C91159705C012968D919C9113977F
:1038F000019613969C938E931297DA019C91892FCF
:103900008695869589278370DF01AA52BF4F833041
:1039100039F48C91803214F48F5F01C081508C9304
:103920008C91885F8C9380340CF435C18F738C93A9
:10393000DF01A952BF4F8C91880F97702BEF290F91
:10394000233010F0933009F481608C939C91892F7F
:103950008695892780958170968D990F892B868F02
:103960008E3709F04EC0DF01AB57BF4F2D913C9110
:10397000119714968D919C9115972817390759F432
:1039800012962D913C91139716968D919C911797B5
:103990002817390779F012962D913C9113978D9144
:1039A0009C911197019741E02817390709F040E0F1
:1039B000842F01C081E080FDDDC01296CD91DC91A5
:1039C00013978EE7888312962D913C911397169644
:1039D0008D919C9117972817390729F414968D918A
:1039E0009C91159705C012968D919C911397019605
:1039F00013969C938E93129781E081A32A9A41E0BB
:103A0000BCC0982F9F779F3719F411A22A98C3C082
:103A100091A1992309F4BFC0982F9F739E3309F495
:103A2000BAC080FF03C080A1806880A3878D8F5FAC
:103A3000878F90A1883008F4ACC0DF01AB57BF4F2F
:103A400082E8890F823018F09B3109F04BC02D912C
:103A50003C91119714968D919C91159728173907D1
:103A600059F412962D913C91139716968D919C9135
:103A700017972817390779F012962D913C911397D3
:103A80008D919C911197019741E02817390709F012
:103A900040E0842F01C081E080FD20C01296CD91CE
:103AA000DC9113978BE1888312962D913C911397AB
:103AB00016968D919C9117972817390729F414961B
:103AC0008D919C91159705C012968D919C9113979D
:103AD000019613969C938E93129704C011A22A9874
:103AE00040E001C041E02D913C91119714968D91D9
:103AF0009C9115972817390759F412962D913C91EE
:103B0000139716968D919C9117972817390779F07E
:103B100012962D913C9113978D919C91119701973D
:103B200051E02817390709F050E0852F01C081E0E6
:103B300080FD20C080A11296CD91DC9113978883DF
:103B400012962D913C91139716968D919C911797F3
:103B50002817390729F414968D919C91159705C063
:103B600012968D919C911397019613969C938E9328
:103B7000129703C011A22A9840E010A2178E41119B
:103B80000AC0E852FF4F80819181816091838083D8
:103B900002C0969590A3DF91CF911F910F91FF9056
:103BA000EF900895DC0196968C9196978111EAC06A
:103BB00098968C9198978111A0C09F962D913C91D9
:103BC000D097D1968D919C91D2972817390739F4C7
:103BD00094968D919C919597892B09F45CC0999648
:103BE0008C919997811103C09A961C929A9781E0C3
:103BF00099968C93999792968D919C919397009713
:103C000089F59F962D913C91D097D1968D919C915D
:103C1000D2972817390751F494968D919C919597D6
:103C2000019795969C938E93949721C09F96ED91C2
:103C3000FC91D097D5968D919C91D697E817F9076E
:103C400029F4D3968D919C91D49706C09F96ED91BF
:103C5000FC91D097CF010196D0969C938E939F971D
:103C6000808106C0019793969C938E9392978EE7DE
:103C700097968C93979797968C9197978B3199F508
:103C80009F962D913C91D097D1968D919C91D297F2
:103C90002817390749F45B9810924106A958BF4F7D
:103CA0001C92299880E008959F96ED91FC91D09701
:103CB000D5968D919C91D697E817F90729F4D3965C
:103CC0008D919C91D49706C09F96ED91FC91D097D1
:103CD000CF010196D0969C938E939F978081979663
:103CE0008C93979706C08E57823018F499961C9241
:103CF000999781E098968C93989799962C9199979B
:103D00009D968D919C919E972223A9F09A962C9135
:103D10009A97253080F09A961C929A978034910554
:103D200019F485E790E002C080E490E09E969C93B1
:103D30008E939D9723C098963C91989797962C9137
:103D40009797232341F09A968C919A978F5F9A9632
:103D50008C939A970FC09A961C929A9780349105EB
:103D600019F485E790E002C080E490E09E969C9371
:103D70008E939D97330F98963C93989788E09696EC
:103D80008C9396979D96ED91FC919E979B968D9125
:103D90009C919C97E80FF91F9F0131709C963C9372
:103DA0002E939B9796968C919697815096968C938E
:103DB000FF27E038F10530F08FEF90E0AC014E1BAB
:103DC0005F0BFA01EA50FA4F84912F3F310511F051
:103DD00008F080950895CF93DF93EC01CB012AED95
:103DE000FE0111922A95E9F77D8F6C8F20E430E077
:103DF0003EA72DA79E0120583F4FFE01E858FF4FD8
:103E00003583248333832283318320839E012C577F
:103E10003F4F378326839E0123573F4FDE01AB5729
:103E2000BF4F15963C932E93149713963C932E9365
:103E3000129711963C932E939E0124533F4F179651
:103E40003C932E9316979E01295C3F4F3CAB2BABC6
:103E50003AAB29AB38AB2FA79E012A583F4F3EAB58
:103E60002DAB24E030E0A281B3811C92628173818A
:103E7000468157816417750719F44481558104C040
:103E8000428153814F5F5F4F5383428321503109F9
:103E90002115310541F7BE010E94031A8AB1886FCE
:103EA0008AB9219A229A4DE45BE463E576E4488B73
:103EB000598B6A8B7B8B8FE09BE19B838A8388E89D
:103EC0009AE19983888388EA9BE19B878A8786ECBD
:103ED0009BE19D878C8784EE9BE19F878E87DF9196
:103EE000CF9108956FEF89E290E00E943D39809173
:103EF0004B01882341F087E99FE09F938F930E94B5
:103F000072340F900F9080914B0181110CC0809101
:103F10003606811108C084E99FE09F938F930E9429
:103F200072340F900F900895CF9389E290E00E9431
:103F30002539893609F0BDC046E050E063E270E003
:103F400085E491E00E94153946E050E06DE170E0B3
:103F50008FE391E00E94153946E050E067E170E0A0
:103F600089E391E00E94153946E050E061E170E09C
:103F700081E391E00E94153980E190E00E942539AB
:103F800090E090933306809332068FE090E00E9499
:103F9000253990E090933106809330068EE090E0D2
:103FA0000E94253990E090933801809337018DE08D
:103FB00090E00E94253990E09093300180932F018A
:103FC0008CE090E00E94253991E0811101C090E0E1
:103FD000909350018BE090E00E94253991E081118F
:103FE00001C090E090934F018AE090E00E94253953
:103FF00091E0811101C090E090934E0189E090E042
:104000000E94253991E0811101C090E090934D010B
:1040100088E090E00E94253991E0811101C090E094
:1040200090934C0187E090E00E942539C1E0811116
:1040300001C0C0E0C0934B0186E090E00E942539AA
:1040400091E0811101C090E09093360685E090E008
:104050000E94253980932C0184E090E00E9425394C
:1040600080932B0183E090E00E94253980932A0100
:1040700082E090E00E9425398093290181E090E060
:104080000E94253980932E0180E090E00E9425391E
:1040900080932D01CC23C1F1809135068823A1F1B5
:1040A0008EE79FE09F938F930E9472340F900F9042
:1040B0002BC080913506882381F0809136068111CE
:1040C0000CC080914B01882341F085E59FE09F93D0
:1040D0008F930E9472340F900F9080913506882341
:1040E00081F08091360681110CC080914B018111C5
:1040F00008C082E59FE09F938F930E9472340F90D7
:104100000F9081E080933406CF9108950E94941F10
:1041100081E08093350680914B018823E9F12FEFF0
:1041200085EA9EE0215080409040E1F700C0000009
:104130008EE290E19F938F930E9472348DE190E123
:104140009F938F930E94723486E090E19F938F93A8
:104150000E9472340F900F900F900F900F900F905D
:1041600080913406882341F087EE9FE09F938F93E0
:104170000E9472340F900F908AED9FE09F938F936F
:104180000E94723489EC9FE09F938F930E94723457
:104190000F900F900F900F90089546E050E063E26B
:1041A00070E085E491E00E942D3946E050E06DE139
:1041B00070E08FE391E00E942D3946E050E067E126
:1041C00070E089E391E00E942D3946E050E061E122
:1041D00070E081E391E00E942D396091320680E128
:1041E00090E00E943D39609130068FE090E00E949F
:1041F0003D39609137018EE090E00E943D39609139
:104200002F018DE090E00E943D39609150018CE0DB
:1042100090E00E943D3960914F018BE090E00E9458
:104220003D3960914E018AE090E00E943D396091F5
:104230004D0189E090E00E943D3960914C0188E099
:1042400090E00E943D3960914B0187E090E00E9430
:104250003D396091360686E090E00E943D396091DC
:104260002C0185E090E00E943D3960912B0184E0B3
:1042700090E00E943D3960912A0183E090E00E9425
:104280003D396091290182E090E00E943D396091C2
:104290002E0181E090E00E943D3960912D0180E087
:1042A00090E00E943D3969E689E290E00E943D3944
:1042B00080914B01882341F08DE39FE09F938F9382
:1042C0000E9472340F900F9080914B0181110CC0AD
:1042D00080913606811108C08AE39FE09F938F93F7
:1042E0000E9472340F900F9008958F929F92AF9218
:1042F000BF92CF92DF92EF92FF920F931F93CF93D3
:10430000DF93EC014B01809150018823F1F0809103
:104310004C01882329F06DEA71E0C4010E94240E4B
:104320008E811F928F93DF93CF9383EB91E09F93C6
:104330008F939F928F920E94120EEDB7FEB7389620
:104340000FB6F894FEBF0FBEEDBF80914F018823DA
:1043500039F180914C01882361F08EEB91E09F93BD
:104360008F939F928F920E94120E0F900F900F903A
:104370000F908D851F928F93CE0107969F938F93F9
:1043800083EB91E09F938F939F928F920E94120EE6
:104390008DB79EB708960FB6F8949EBF0FBE8DBF1F
:1043A00080914E01811105C080914D01811137C06E
:1043B0005CC080914C01882329F064EC71E0C40159
:1043C0000E94240E8E01025F1F4FE12CF12C5E0132
:1043D00096E4A90EB11C83EBC82E81E0D82EF5011E
:1043E000808190E0E816F906FCF6F80186811F92BC
:1043F0008F931F930F93DF92CF929F928F920E9481
:10440000120EFFEFEF1AFF0A095F1F4F8DB79EB71D
:1044100008960FB6F8949EBF0FBE8DBFE0CF809177
:104420004C01882329F06BEC71E0C4010E94240E3A
:10443000FE01E55BFF4F81818F9380818F93C35B8A
:10444000DF4F89818F9388818F9322ED31E03F93F5
:104450002F939F928F920E94120E8DB79EB708964F
:104460000FB6F8949EBF0FBE8DBF67ED71E0C4011B
:10447000DF91CF911F910F91FF90EF90DF90CF9040
:10448000BF90AF909F908F900C94240E0F931F932A
:104490009C01CA0146E0EFE3F1E0A0E6B6E001903E
:1044A0000D924A95E1F7409130064093660646E04A
:1044B000E5E4F1E0AFEBB6E001900D924A95E1F74B
:1044C000409132064093C50646E0E9E3F1E0A7E6F5
:1044D000B6E001900D924A95E1F740913701409383
:1044E0006D0646E0E1E3F1E0AFECB6E001900D923D
:1044F0004A95E1F740912F014093D50647E0E0E669
:10450000F6E0A2E4B6E001900D924A95E1F747E0AB
:10451000EFEBF6E0A9E4B6E001900D924A95E1F7E1
:1045200047E0E7E6F6E0A0E5B6E001900D924A9597
:10453000E1F747E0EFECF6E0A7E5B6E001900D9279
:104540004A95E1F78B0144E050E062E476E00E9496
:104550000B181F910F9108956F927F929F92AF92C7
:10456000BF92CF92DF92EF92FF920F931F93CF9360
:10457000DF931F92CDB7DEB75C018B016A017B012F
:1045800084E1E80EF11C20912C012A3098F48091EE
:104590002B018A3078F480912A018A3058F4809176
:1045A0002901893038F47B01EBE1EE0EF11C9924EE
:1045B000939401C0912CC70129830E94C9373C0103
:1045C0008DE3F301808380912E01818780912D01FD
:1045D000838B88E0E7EBF6E0D301119601900D9212
:1045E0008A95E1F789E0E6ECF6E0D3011A960190AE
:1045F0000D928A95E1F72981911003C0C301449679
:1046000017C080E5F301848B88E4858B87E4868B73
:10461000205D278B80912B01805D808F80912A0106
:10462000805D818F80912901805D828FC3014B96CF
:104630000115110521F0A801B5010E940C39A60150
:10464000B701C3010E944622C3010F90DF91CF91B1
:104650001F910F91FF90EF90DF90CF90BF90AF90A0
:104660009F907F906F900C9461388F929F92AF9241
:10467000BF92CF92DF92EF92FF920F931F93CF934F
:10468000DF935C016A018B016434710510F003E46F
:1046900010E078012FE0E20EF11CC7010E94C9373B
:1046A000EC018AE3888387E090E020E030E0019726
:1046B000009769F0F901E259F94F40814423B9F3B9
:1046C0002F5F3F4FFE01E20FF31F4083F0CF809139
:1046D0002701909128018F3F4FEF940779F0FE0159
:1046E000E20FF31F4DE241838A3091054CF42E5FB7
:1046F0003F4FFE01E20FF31F805D808380E209C01F
:1047000091E392832D5F3F4FFE01E20FF31F8A5D1D
:10471000F4CF293031053CF42F5F3F4FFE01E20F0B
:10472000F31F8083F6CFFE01E20FF31F8AE381833C
:104730000115110581F0A801B501CE010B960E946B
:104740000C39A801B50184E796E00E940C3910935A
:104750005F0600935E0680912E0690912F060196CB
:10476000883E23E092072CF490932F0680932E0628
:1047700004C010922F0610922E06FE01E00FF11FCA
:104780008BE7838700912E0610912F069AE0892EE1
:10479000912CC801B4010E9465379C0144E6A42E07
:1047A000B12CC801B5010E946537821B930BB4017F
:1047B0000E946537AB01C801861B970B821B930BC8
:1047C000B5010E946537605D6487405D4587205D67
:1047D0002687A601B701CE010E944622CE01DF91B5
:1047E000CF911F910F91FF90EF90DF90CF90BF90EE
:1047F000AF909F908F900C94613820912E0630914D
:104800002F062150310930932F0620932E066091F8
:104810005E0670915F06AC0184E796E00C94352348
:104820008AED9BE09F938F930E94723480913306B0
:104830008F93809132068F9385E491E09F938F93BD
:1048400087EC9BE09F938F930E9472348091310696
:104850008F93809130068F938FE391E09F938F9396
:1048600081EB9BE09F938F930E947234809138017B
:104870008F93809137018F9389E391E09F938F937A
:1048800081EA9BE09F938F930E9472348091300164
:104890008F9380912F018F9381E391E09F938F936A
:1048A00081E99BE09F938F930E94723480912C0149
:1048B0002DB73EB7265E3F4F0FB6F8943EBF0FBEF2
:1048C0002DBF8A3061F01F928F9386E89BE09F9303
:1048D0008F930E9472340F900F900F900F908091E1
:1048E0002B018A3061F01F928F938AE79BE09F93A0
:1048F0008F930E9472340F900F900F900F908091C1
:104900002A018A3061F01F928F9380E79BE09F938A
:104910008F930E9472340F900F900F900F908091A0
:1049200029018A3061F01F928F938FE59BE09F935E
:104930008F930E9472340F900F900F900F90809180
:104940002E018C3541F486E49BE09F938F930E9467
:1049500072340F900F9080912E018F3241F48EE2CD
:104960009BE09F938F930E9472340F900F90209141
:104970002D01822F992787FD90959F932F9382E297
:104980009BE09F938F930E9472340F900F900F9033
:104990000F9008958EEF9AE09F938F930E94723448
:1049A0008CEE9AE09F938F930E94723481ED9AE08F
:1049B0009F938F930E94723488E99AE09F938F931C
:1049C0000E9472348AE79AE09F938F930E94723418
:1049D0008DE59AE09F938F930E94723489E39AE069
:1049E0009F938F930E9472348BE19AE09F938F93F1
:1049F0000E9472348CEF99E09F938F930E947234DF
:104A000083EE99E09F938F930E94723483EC99E038
:104A10009F938F930E94723489EA99E09F938F93BA
:104A20000E9472348EE899E09F938F930E947234B3
:104A30008BE599E09F938F930E94723487E299E00F
:104A40009F938F930E9472348AE099E09F938F9393
:104A50000E9472348DB79EB780960FB6F8949EBFB1
:104A60000FBE8DBF87EE98E09F938F930E947234A4
:104A700086EC98E09F938F930E9472348EE998E0C1
:104A80009F938F930E94723485E898E09F938F9351
:104A90000E94723480E598E09F938F930E94723455
:104AA00086E298E09F938F930E94723480E098E0B2
:104AB0009F938F930E94723482EE97E09F938F931F
:104AC0000E94723486EC97E09F938F930E94723419
:104AD0008AEA97E09F938F930E9472348DE897E063
:104AE0009F938F930E94723480E797E09F938F93F8
:104AF0000E94723482E597E09F938F930E947234F4
:104B000083E397E09F938F930E94723484E197E050
:104B10009F938F930E94723486EF96E09F938F93BA
:104B20000E9472348DB79EB780960FB6F8949EBFE0
:104B30000FBE8DBF88ED96E09F938F930E947234D5
:104B400089EB96E09F938F930E9472348AE996E0F6
:104B50009F938F930E94723486E796E09F938F9382
:104B60000E9472348DB79EB708960FB6F8949EBF18
:104B70000FBE8DBF08950F931F93CF93DF93EC016A
:104B8000FA01A9016115710509F495C68881813280
:104B900009F56230710508F44AC661507109CE0109
:104BA00001960E94462280914B01882341F08DE2BC
:104BB0009FE09F938F930E9472340F900F9080918B
:104BC0004B01811178C680913606811174C68AE244
:104BD0009FE043C68034E9F461507109CE0101962B
:104BE0000E94AC2280914B01882341F084E19FE038
:104BF0009F938F930E9472340F900F9080914B017E
:104C0000811159C680913606811155C681E19FE018
:104C100024C68332E9F461507109CE0101960E94E5
:104C2000352380914B01882341F083E09FE09F93DF
:104C30008F930E9472340F900F9080914B018111DD
:104C40003AC680913606811136C680E09FE005C6DF
:104C5000883631F4DF91CF911F910F910C94CA24C3
:104C6000883431F4DF91CF911F910F910C9410246F
:104C7000833531F4DF91CF911F910F910C94CD20AA
:104C8000833431F4DF91CF911F910F910C94721FF7
:104C90008C3431F4DF91CF911F910F910C94941FBC
:104CA000833609F052C06430710508F4C0C5E5E4EC
:104CB000F1E081E090E09C012150310986179707CF
:104CC000A9F08730910581F0DE01A80FB91F2C9162
:104CD000222331F02A3021F02D3011F0208301C041
:104CE000108201963196E7CF26E030E0263031057C
:104CF00039F0F901EB5BFE4F10822F5F3F4FF6CF8B
:104D000080914B018823B1F0809133068F9380917D
:104D100032068F9385E491E09F938F938DEE9EE012
:104D20009F938F930E9472340F900F900F900F906B
:104D30000F900F9080914B018111BDC58091360677
:104D40008111B9C58AEE9EE088C5843609F052C04B
:104D50006430710508F46BC5EFE3F1E081E090E0A9
:104D60009C012150310986179707A9F087309105DA
:104D700081F0DE01A80FB91F2C91222331F02A30D7
:104D800021F02D3011F0208301C010820196319660
:104D9000E7CF26E030E02630310539F0F901E15C5B
:104DA000FE4F10822F5F3F4FF6CF80914B0188233B
:104DB000B1F0809131068F93809130068F938FE30D
:104DC00091E09F938F9384ED9EE09F938F930E9439
:104DD00072340F900F900F900F900F900F90809162
:104DE0004B01811168C580913606811164C581ED42
:104DF0009EE033C5813309F052C06230710508F47A
:104E000016C5E9E3F1E081E090E09C012150310911
:104E100086179707A9F08730910581F0DE01A80F6A
:104E2000B91F2C91222331F02A3021F02D3011F0BE
:104E3000208301C0108201963196E7CF26E030E052
:104E40002630310539F0F901E75CFE4F10822F5F03
:104E50003F4FF6CF80914B018823B1F0809138010C
:104E60008F93809137018F9389E391E09F938F9384
:104E700081EC9EE09F938F930E9472340F900F906D
:104E80000F900F900F900F9080914B01811113C5DF
:104E90008091360681110FC58EEB9EE0DEC4823311
:104EA00009F052C06230710508F4C1C4E1E3F1E0D9
:104EB00081E090E09C012150310986179707A9F005
:104EC0008730910581F0DE01A80FB91F2C912223B4
:104ED00031F02A3021F02D3011F0208301C01082F2
:104EE00001963196E7CF26E030E02630310539F0E3
:104EF000F901EF5CFE4F10822F5F3F4FF6CF80919C
:104F00004B018823B1F0809130018F9380912F0164
:104F10008F9381E391E09F938F938EEA9EE09F931E
:104F20008F930E9472340F900F900F900F900F90FC
:104F30000F9080914B018111BEC480913606811182
:104F4000BAC48BEA9EE089C4833709F0EFC06330AE
:104F5000710508F46CC48B010150110989818336F5
:104F6000C1F50230110521F08B8190E0869703C0D6
:104F70008A8190E0C09790933306809332068091A7
:104F80004B018823B1F0809133068F9380913206D4
:104F90008F9385E491E09F938F9388E99EE09F93A0
:104FA0008F930E9472340F900F900F900F900F907C
:104FB0000F9080914B0181110CC0809136068111B8
:104FC00008C085E99EE09F938F930E9472340F90F2
:104FD0000F9089818436C1F50230110521F08B8153
:104FE00090E0869703C08A8190E0C0979093310645
:104FF0008093300680914B018823B1F08091310677
:105000008F93809130068F938FE391E09F938F93DE
:105010008FE79EE09F938F930E9472340F900F90C2
:105020000F900F900F900F9080914B0181110CC049
:1050300080913606811108C08CE79EE09F938F9384
:105040000E9472340F900F9089818133C1F5023034
:10505000110521F08B8190E0869703C08A8190E052
:10506000C097909338018093370180914B0188233A
:10507000B1F0809138018F93809137018F9389E34C
:1050800091E09F938F938CE69EE09F938F930E9475
:1050900072340F900F900F900F900F900F9080919F
:1050A0004B0181110CC080913606811108C089E640
:1050B0009EE09F938F930E9472340F900F9089818E
:1050C000823309F0F8C30230110521F08B8190E0A2
:1050D000869703C08A8190E0C097909330018093B7
:1050E0002F0180914B018823B1F0809130018F9383
:1050F00080912F018F9381E391E09F938F9389E5B6
:105100009EE09F938F930E9472340F900F900F90A8
:105110000F900F900F9080914B018111CCC3809123
:1051200036068111C8C386E59EE097C3803709F033
:105130002CC16330710508F47AC389818337C9F5BE
:105140009A8180914B019133C1F491E09093500189
:10515000882341F083E49EE09F938F930E947234F2
:105160000F900F9080914B01811123C080913606E2
:1051700081111FC080E49EE016C010925001882368
:1051800041F08CE29EE09F938F930E9472340F90C7
:105190000F9080914B0181110CC0809136068111D6
:1051A00008C089E29EE09F938F930E9472340F9013
:1051B0000F9089818436C9F59A8180914B01913392
:1051C000C1F491E090934F01882341F086E19EE085
:1051D0009F938F930E9472340F900F9080914B0198
:1051E000811123C08091360681111FC083E19EE0AA
:1051F00016C010924F01882341F08FEF9DE09F93DE
:105200008F930E9472340F900F9080914B01811107
:105210000CC080913606811108C08CEF9DE09F93F1
:105220008F930E9472340F900F9089818037C9F557
:105230009A8180914B019133C1F491E090934E019A
:10524000882341F088EE9DE09F938F930E947234F3
:105250000F900F9080914B01811123C080913606F1
:1052600081111FC085EE9DE016C010924E0188236B
:1052700041F080ED9DE09F938F930E9472340F90D8
:105280000F9080914B0181110CC0809136068111E5
:1052900008C08DEC9DE09F938F930E9472340F9015
:1052A0000F9089818D36C9F59A8180914B01913398
:1052B000C1F491E090934D01882341F089EB9DE08A
:1052C0009F938F930E9472340F900F9080914B01A7
:1052D000811123C08091360681111FC086EB9DE0AD
:1052E00016C010924D01882341F081EA9DE09F9302
:1052F0008F930E9472340F900F9080914B01811117
:105300000CC080913606811108C08EE99DE09F9304
:105310008F930E9472340F900F908981893609F023
:10532000CAC29A8180914B019133C1F491E090936C
:105330004C01882341F08AE89DE09F938F930E945F
:1053400072340F900F9080914B018111B4C2809103
:1053500036068111B0C287E89DE07FC210924C01F1
:10536000882341F082E79DE09F938F930E947234DF
:105370000F900F9080914B0181119DC28091360654
:10538000811199C28FE69DE068C28637C1F4898198
:10539000813331F481E080934B018AED91E004C0C8
:1053A00010924B0180EF91E09F938F93FF93EF93C7
:1053B0000E94120E0F900F900F900F907CC28635B6
:1053C00081F48981813341F481E080933606109223
:1053D0004B0187E092E0E8CF109236068CE192E034
:1053E000E3CF8C3609F03FC16330710508F41FC26A
:1053F00089818C3609F05CC0615071098A818136DF
:1054000051F56A30710508F456C288E0FE01339602
:10541000A7EBB6E001900D928A95E1F780914B01E0
:10542000882371F087EB96E09F938F9389E59DE049
:105430009F938F930E9472340F900F900F900F9054
:1054400080914B01811137C280913606811133C2A0
:1054500086E59DE002C28F3609F02DC26B307105E2
:1054600008F429C289E0FE013396A6ECB6E001906B
:105470000D928A95E1F780914B01882371F086ECBB
:1054800096E09F938F938EE39DE09F938F930E946E
:1054900072340F900F900F900F9080914B018111FB
:1054A0000AC280913606811106C28BE39DE0D5C108
:1054B000803729F58A8180538A3008F0FCC18093B7
:1054C0002C0190914B01992379F08802C00111249D
:1054D0009F938F9389E29DE09F938F930E947234F4
:1054E0000F900F900F900F9080914B018111E3C1AD
:1054F000809136068111DFC186E29DE0AEC188361B
:10550000B9F58A8180538A3008F0D5C180932B0188
:1055100090914B01992309F1A1E0B0E002C0AA0FDC
:10552000BB1F8A95E2F728EE33E00E944A3728E451
:1055300031E040E050E00E949B375F934F933F93F0
:105540002F9386E09DE09F938F930E9472340F907B
:105550000F900F900F900F900F9080914B01811141
:10556000AAC1809136068111A6C183E09DE075C174
:10557000873631F52A8120532A3008F09CC12093C8
:105580002A0180914B01882381F0822F992787FD82
:1055900090959F932F9381EF9CE09F938F930E9410
:1055A00072340F900F900F900F9080914B018111EA
:1055B00082C18091360681117EC18EEE9CE04DC184
:1055C0008436C9F58A8180538A3008F074C18930E5
:1055D00009F488E08093290180914B0181110CC06E
:1055E00080913606811108C08BEE9CE09F938F93CB
:1055F0000E9472340F900F9080914B01882309F420
:105600005AC180912901811108C082ED9CE09F93CD
:105610008F930E9472340F900F90809129018823FC
:1056200009F449C12DE2829FC00111249F938F93F9
:1056300088EB9CE013C0833709F016C12A812093C0
:105640002D0180914B01882309F435C1822F9927C0
:1056500087FD90959F932F9386EA9CE09F938F936D
:105660000E947234A7CE8D3609F0E1C06230710518
:1056700008F4DDC0CB0101972981233609F060C011
:10568000019709F418C1EEE6F6E02296625071091E
:1056900080E090E08617970781F08630910569F0E9
:1056A0002991222331F02A3021F02D3011F020836E
:1056B00001C0108201963196EDCF8630910531F010
:1056C000FC01E259F94F10820196F7CF80914B010E
:1056D000882359F18EE696E09F938F938AE49CE0AD
:1056E0009F938F930E94723480912701909128019B
:1056F0000F900F900F900F908F3F2FEF920769F050
:105700009F938F9385E49CE09F938F930E947234C4
:105710000F900F900F900F9008C083E49CE09F9330
:105720008F930E9472340F900F9080914B018111E2
:10573000C2C0809136068111BEC080E49CE08DC05D
:10574000233709F057C08130910509F4B4C002979E
:1057500021F08B8190E0869703C08A8190E0C0970A
:10576000909328018093270180912701909128012F
:10577000409730F08FEF9FEF90932801809327019F
:1057800080914B01882359F18EE696E09F938F9389
:1057900088E29CE09F938F930E947234809127014E
:1057A000909128010F900F900F900F908F3F2FEF47
:1057B000920769F09F938F9383E29CE09F938F936E
:1057C0000E9472340F900F900F900F9008C081E2EA
:1057D0009CE09F938F930E9472340F900F90809162
:1057E0004B01811168C080913606811164C08EE141
:1057F0009CE033C0223709F05EC0CA010E94FD233D
:1058000080914B01882341F088E09CE09F938F9327
:105810000E9472340F900F9080914B0181114BC008
:1058200080913606811147C085E09CE016C08091CA
:105830004B01882341F08DEE9BE09F938F930E9454
:1058400072340F900F9080914B01811134C0809180
:105850003606811130C08AEE9BE09F938F930E94A1
:1058600072340F900F9027C0843729F59A81809168
:105870004B01913641F49CE590932E01882381F0F1
:1058800085E89CE007C09FE290932E01882341F0B9
:1058900085E69CE09F938F930E9472340F900F9047
:1058A00080914B01811107C080913606811103C0A0
:1058B00082E69CE0D2CFDF91CF911F910F910895A6
:1058C0002F923F924F925F926F927F928F929F9210
:1058D000AF92BF92CF92DF92EF92FF920F931F93FE
:1058E000CF93DF93CDB7DEB7C45AD1090FB6F89482
:1058F000DEBF0FBECDBFC856DF4F99838883C8591E
:10590000D040C656DF4F79836883CA59D040C45609
:10591000DF4F59834883CC59D0405901C257DF4FDC
:1059200019821882CE58D0409E012F5F3F4FC95731
:10593000DF4F39832883C758D040AE014A575F4FA5
:10594000C757DF4F59834883C958D040C856DF4FE7
:1059500008811981C859D0400F5F1F4FC856DF4FCB
:10596000E881F981C859D0408491853291F188232A
:1059700009F448C7C456DF4F68817981CC59D040BB
:10598000C656DF4FE881F981CA59D0400995C25700
:10599000DF4FE880F980CE58D040FFEFEF1AFF0AC2
:1059A000C557DF4FB982A882CB58D040C856DF4FC9
:1059B00019830883C859D040C257DF4FF982E88263
:1059C000CE58D040C557DF4FA880B980CB58D040C3
:1059D000BDCFF8018491853259F5C856DF4F288133
:1059E0003981C859D0402E5F3F4FC856DF4F3983A9
:1059F0002883C859D040C456DF4F68817981CC597B
:105A0000D040C656DF4FE881F981CA59D040099588
:105A1000C257DF4FE880F980CE58D040FFEFEF1A31
:105A2000FF0AC557DF4FB982A882CB58D040C4CFF8
:105A3000C256DF4F1882CE59D040C357DF4F18826D
:105A4000CD58D040C057DF4F1882C059D040CF56F4
:105A5000DF4F1882C159D040F8012491C801019646
:105A60002B3209F458C060F42032E9F0233209F0F7
:105A70005AC0F1E0C357DF4FF883CD58D04051C032
:105A80002D3251F0203309F04EC021E0C256DF4FD5
:105A90002883CE59D04045C0F1E0C057DF4FF8838E
:105AA000C059D0403EC0232D2C7F322ECF56DF4F21
:105AB0003881C159D040332ACE56DF4F4881C25970
:105AC000D04040FB32F8C057DF4F5881C059D0401A
:105AD00050FB33F820FA34F8CD56DF4FA881C35974
