:100000000C94E5010C9402020C9402020C9402027E
:100010000C9402020C9402020C9402020C94020250
:100020000C9402020C9402020C9402020C94020240
:100030000C9402020C9402020C94E7060C94020247
:100040000C9402020C948E030C9431030C94F30272
:100050000C9402020C94FA080C9402020C94020212
:100060000C9402020C9402023B1C3E1C4D1C861C8C
:10007000981CB51CC71CDF1C341DB320081F0D1FA6
:10008000BC1FEE1F1F203B205B209320B32042614A
:10009000756472617465206F666620627920256CD4
:1000A000646270730A00756E6974203C2053455277
:1000B0005F434E5400626572746F732F6370752FC7
:1000C0006176722F6472762F7365725F6D656761FA
:1000D0002E630073697A65203E2031006265727478
:1000E0006F732F7374727563742F6669666F6275B0
:1000F000662E680066642D3E68772D3E72786275C4
:100100006666657200626572746F732F6472762F13
:100110007365722E630066642D3E68772D3E747899
:1001200062756666657200626572746F732F6472C1
:10013000762F7365722E63002166642D3E69735FAE
:100140006F70656E00626572746F732F6472762FC4
:100150007365722E6300756E6974203C20636F7541
:100160006E746F66287365725F68616E646C657328
:100170002900626572746F732F6472762F736572D3
:100180002E6300706F72742D3E69735F6F70656EC1
:1001900000626572746F732F6472762F7365722EAE
:1001A000630066642D3E5F74797065203D3D204B91
:1001B00046545F53455249414C00626572746F73F7
:1001C0002F6472762F7365722E68002174696D65D5
:1001D000725F696E697469616C697A6564006265F1
:1001E00072746F732F6472762F74696D65722E63EB
:1001F000002674696D65722D3E6C696E6B006265D8
:1002000072746F732F6472762F74696D65722E63CA
:100210000066642D3E7265616400626572746F737E
:100220002F696F2F6B66696C652E680066642D3EC2
:10023000777269746500626572746F732F696F2FCE
:100240006B66696C652E68006368203C3D20350054
:100250004D6F64656D2F68617264776172652E639E
:100260000066642D3E5F74797065203D3D204B46ED
:10027000545F4146534B004D6F64656D2F6166734B
:100280006B2E6800808183848687898A8C8E8F910B
:1002900092949597989A9B9D9EA0A2A3A5A6A7A984
:1002A000AAACADAFB0B2B3B5B6B7B9BABCBDBEC0FB
:1002B000C1C2C4C5C6C8C9CACBCDCECFD0D2D3D493
:1002C000D5D6D7D9DADBDCDDDEDFE0E1E2E3E4E559
:1002D000E6E7E8E9EAEAEBECEDEEEEEFF0F1F1F259
:1002E000F3F3F4F5F5F6F6F7F8F8F9F9FAFAFAFB9C
:1002F000FBFCFCFCFDFDFDFDFEFEFEFEFEFFFFFF28
:10030000FFFFFFFF66642D3E636C6561726572726C
:1003100000626572746F732F696F2F6B66696C650D
:100320002E680066642D3E6572726F72006265729F
:10033000746F732F696F2F6B66696C652E6800632D
:100340006F756E74203C3D2038004D6F64656D2FD5
:10035000636F6D7072657373696F6E2F686561741A
:10036000736872696E6B5F656E636F6465722E632E
:10037000006275665F706F696E746572203E3D2025
:1003800062756600626572746F732F6D7761726556
:100390002F666F726D617477722E6300203D20307E
:1003A0007825700A00496E76616C696420707472F9
:1003B0003A20003A2000417373657274696F6E20B1
:1003C0006661696C65643A20000011241FBECFEF9E
:1003D000D8E0DEBFCDBF11E0A0E0B1E0E0E5FBE595
:1003E00002C005900D92A036B107D9F716E0A0E63D
:1003F000B1E001C01D92AB31B107E1F70E942208C4
:100400000C94A62D0C9400001092C00088E98093F3
:10041000C10008951092C1000895FC0122852111A8
:1004200005C021E0228788EB8093C1000895E2ECAB
:10043000F0E0808194E0660F771F9A95E1F78F7C5A
:10044000862B808308959FB7F89484B1886284B91D
:100450009FBF8FB7F894229A8FBF8FB7F8942498D4
:100460008FBF80ED8CBD8CB581608CBD8DB58E7FCE
:100470008DBD08951CBC9FB7F89484B1837C84B96A
:100480009FBF089508950895FC01828508956FB770
:10049000F894DC011A962C911A97211120C0E09152
:1004A0000E06F0910F06478D50A121A132A14217EF
:1004B0005307A9F021E01A962C93A78DB0A185A12E
:1004C00096A1A817B90719F483A194A104C0A78D18
:1004D000B0A1CD01019690A3878F8C918EBD6FBF87
:1004E00008954F925F926F927F928F929F92AF92F8
:1004F000BF92CF92DF92EF92FF92CF93DF934A01A8
:100500005B01CB01BA019695879577956795605CFD
:100510007D4B804F9F4FA50194010E941B2CE90148
:1005200021974427552760E472E48FE090E00E9411
:10053000E32B75016401C61AD70AE80AF90A2601F5
:100540003701F7FE07C04424552432014C185D08DA
:100550006E087F08C501B40121E230E040E050E0C0
:100560000E941B2C241535054605570580F4FF9283
:10057000EF92DF92CF928EE890E09F938F930E944C
:100580000B290F900F900F900F900F900F90D0931A
:10059000C500C093C400DF91CF91FF90EF90DF9032
:1005A000CF90BF90AF909F908F907F906F905F9013
:1005B0004F900895CF93DF93EC018230910544F082
:1005C0004AE953E065EB70E086EA90E00E948D29ED
:1005D0002BE02C9FC0012D9F900D11248A5F9E4F10
:1005E000DF91CF9108951F920F920FB60F921124B1
:1005F0002F933F938F939F93AF93BF93EF93FF936B
:10060000E0910C06F0910D06278D30A181A192A1F9
:100610002817390731F488E98093C100109210013E
:1006200013C0A78DB0A185A196A1A817B90719F489
:1006300083A194A104C0A78DB0A1CD01019690A380
:10064000878F8C918093C600FF91EF91BF91AF91FE
:100650009F918F913F912F910F900FBE0F901F9000
:1006600018951F920F920FB60F9211242F933F935C
:100670004F935F938F939F93AF93BF93EF93FF93AA
:10068000E0910C06F0910D0697A58091C00088714D
:10069000892B87A75091C60027A130A583A594A5D3
:1006A0002817390739F421A532A585A596A528175D
:1006B000390761F021A532A587A190A5019741E0F6
:1006C0002817390709F040E0842F01C081E080FF3E
:1006D00004C087A5816087A712C0A1A5B2A55C93BD
:1006E00021A532A585A596A52817390719F483A554
:1006F00094A503C081A592A5019692A781A7FF9119
:10070000EF91BF91AF919F918F915F914F913F91E9
:100710002F910F900FBE0F901F9018951F920F9260
:100720000FB60F9211242F933F934F938F939F9364
:10073000AF93BF93EF93FF93E0910E06F0910F06F6
:1007400027A130A583A594A52817390739F421A539
:1007500032A585A596A52817390761F021A532A5F0
:1007600087A190A5019741E02817390709F040E0DB
:10077000842F01C081E080FD13C08EB5A1A5B2A574
:100780008C9321A532A585A596A52817390719F4BC
:1007900083A594A503C081A592A5019692A781A7E0
:1007A000E0910E06F0910F06278D30A181A192A154
:1007B0002817390799F0A78DB0A185A196A1A81790
:1007C000B90719F483A194A104C0A78DB0A1CD01EC
:1007D000019690A3878F8C918EBD02C010921B0151
:1007E000FF91EF91BF91AF919F918F914F913F9169
:1007F0002F910F900FBE0F901F9018959FB7F894F0
:1008000083E085BB14BC15BC82E084BD85B58360E4
:1008100085BD16BC89EF87BDEEE6F0E080818E7F56
:1008200080838081826080839FBF0895CF93DF9310
:10083000EC01FB015FB7F894278D30A183A194A14F
:1008400028173907E9F421A132A185A196A128171B
:100850003907B1F481E05FBF80FD11C04FB7F89454
:10086000A1A1B2A1CC9321A132A185A196A1281763
:10087000390799F483A194A192A381A314C0DACF7C
:1008800081A192A1278D30A12150310941E0821729
:10089000930709F040E0842FDECF21A132A12F5F22
:1008A0003F4F32A321A34FBF80A991A9DC01ED9155
:1008B000FC910084F185E02D0995CE019927DF9107
:1008C000CF910895FC014FB7F89427A130A581A5D9
:1008D00092A54FBF2817390739F087A5897B79F092
:1008E00024C087A5897BC9F74FB7F89427A130A505
:1008F00081A592A54FBF2817390799F3EECF2FB7DF
:10090000F894A7A1B0A585A596A5A817B90719F4CD
:1009100083A594A504C0A7A1B0A5CD01019690A779
:1009200087A38C912FBF90E008958FEF9FEF0895DC
:10093000AF92BF92CF92DF92EF92FF920F931F93ED
:10094000CF93DF937C015B016A01FC01008911896F
:10095000228933890C3412452544334541F04CEB50
:1009600050E06AEB71E082EA91E00E948D29E50196
:1009700000E010E00C151D0559F0C7010E9462044B
:100980008F3F2FEF920721F00F5F1F4F8993F2CF18
:10099000C801DF91CF911F910F91FF90EF90DF90F1
:1009A000CF90BF90AF900895AF92BF92CF92DF9259
:1009B000EF92FF920F931F93CF93DF937C015B0124
:1009C0006A01FC0100891189228933890C3412459E
:1009D0002544334541F04CEB50E06AEB71E082EA8C
:1009E00091E00E948D29E50100E010E00C151D0545
:1009F00061F08991B701992787FD90950E941604AF
:100A0000019619F00F5F1F4FF1CFC801DF91CF9111
:100A10001F910F91FF90EF90DF90CF90BF90AF901C
:100A20000895CF93DF93EC01488959896A897B89BE
:100A30004C3452456544734541F04CEB50E06AEB51
:100A400071E082EA91E00E948D298FA590E0DF910C
:100A5000CF910895CF93DF93EC01488959896A8932
:100A60007B894C3452456544734541F04CEB50E072
:100A70006AEB71E082EA91E00E948D291FA6DF9166
:100A8000CF910895CF93DF93EC01488959896A8902
:100A90007B894C3452456544734549F04CEB50E03A
:100AA0006AEB71E082EA91E00E948D2900C02F8DEF
:100AB00038A189A19AA128173907C9F788A999A946
:100AC000DC01ED91FC910284F385E02D0995811103
:100AD000EECF80E090E0DF91CF910895EF92FF920A
:100AE0000F931F93CF93DF93EC018B01623071055D
:100AF00040F042E651E062E771E086E591E00E9455
:100B00008D29F801EE0FFF1FE45FF94FD183C083F9
:100B10008E8D882341F045E651E065E471E088E37D
:100B200091E00E948D2981E08E8F1D8F0C8FC8016E
:100B30000E94DA0299AB88ABDC0112968D919C91F0
:100B40001397892B41F44DE651E067E271E086E1AD
:100B500091E00E948D29E8A9F9A984819581892BCA
:100B600041F44EE651E065E071E084EF90E00E94D0
:100B70008D29E8A9F9A9E680F78002811381B2E006
:100B8000EB16F10440F441E251E06CED70E083EDCE
:100B900090E00E948D291CA30BA31AA309A318A3FC
:100BA0000F8FC7010197800F911F9EA38DA3E8A906
:100BB000F9A9E084F18404811581E2E0EE16F104E4
:100BC00040F441E251E06CED70E083ED90E00E9472
:100BD0008D291CA70BA71AA709A718A70FA3C70140
:100BE0000197800F911F9EA78DA788A999A9DC0165
:100BF000ED91FC910190F081E02DBE0109951FA6B9
:100C0000CE01DF91CF911F910F91FF90EF9008954A
:100C1000FC014FB7F89427A130A581A592A54FBF3D
:100C200028173907B1F02FB7F894A7A1B0A585A56B
:100C300096A5A817B90719F483A594A504C0A7A180
:100C4000B0A5CD01019690A787A38C912FBF90E00E
:100C500008958FEF9FEF08956FB7F894FC0147A1B7
:100C600050A521A532A56FBF81E04217530709F4B3
:100C700080E00895DC01D0968D919C91D197DC01A4
:100C8000ED91FC910480F581E02D09944FB7F89423
:100C9000FC0121A532A530A727A34FBF08954FB768
:100CA000F894FC0121A132A130A3278F4FBF0895F2
:100CB000CF93DF93EC010E944606CE01DF91CF91E6
:100CC0000C944F06CF93DF93EC01488959896A89C8
:100CD0007B894C3452456544734541F04CEB50E000
:100CE0006AEB71E082EA91E00E948D298E8D81117C
:100CF00008C04BE851E061E971E083E891E00E94AF
:100D00008D291E8ECE010E94420588A999A9DC0179
:100D1000ED91FC910280F381E02D099519AA18AAA2
:100D2000CE010E94580680E090E0DF91CF910895B7
:100D3000CF93DF93EC01488959896A897B894C34C8
:100D400052456544734541F04CEB50E06AEB71E06D
:100D500082EA91E00E948D29CE010E9462066C8D8C
:100D60007D8DCE010E946E05CE01DF91CF91089559
:100D7000FC01CB0122E3DF011D922A95E9F74CE447
:100D800052E565E473E5408B518B628B738B28E9E8
:100D900036E03583248322E636E03783268328E94C
:100DA00034E03183208324ED34E03383228322E452
:100DB00035E03387228721E135E0358724872AE231
:100DC00035E037872687BC01CF010C946E051F9252
:100DD0000F920FB60F9211240F931F932F933F93EF
:100DE0004F935F936F937F938F939F93AF93BF9333
:100DF000CF93DF93EF93FF938091100690911106AC
:100E0000A0911206B09113060196A11DB11D809309
:100E1000100690931106A0931206B09313060BEAE6
:100E20001AEBC091A001D091A10188819981892BF1
:100E3000D1F18FB7F894409110065091110660914E
:100E40001206709113068FBF88859985AA85BB8588
:100E5000481B590B6A0B7B0B77FD25C0CF3FD10593
:100E600009F048F42BEC30E04EEF51E061EF71E017
:100E7000CE010E94A329EA81FB8188819981918317
:100E80008083E881F9818A819B81938382831B829D
:100E90001A82198218821B8B0A8BEC85FD85CE0184
:100EA0000C960995BECFFF91EF91DF91CF91BF9145
:100EB000AF919F918F917F916F915F914F913F91F2
:100EC0002F911F910F910F900FBE0F901F901895AB
:100ED00084EA91E09093A1018093A0011092A30174
:100EE0001092A2011092A5011092A40180EA91E053
:100EF0009093A7018093A6011092100610921106FC
:100F000010921206109213060E94FE03809114069E
:100F1000882341F041E951E06EED71E08BEC91E006
:100F20000E948D2981E0809314060895EF92FF922C
:100F30000F931F93CF93DF931F92CDB7DEB77C0142
:100F40008B018983DB0112968D919C911397892BDC
:100F500041F44EE051E066E372E08CE292E00E94E0
:100F60008D29D8011296ED91FC91139741E050E044
:100F7000BE016F5F7F4FC8010995019719F4C70142
:100F8000992702C08FEF9FEF0F90DF91CF911F91B4
:100F90000F91FF90EF9008950F931F93CF93DF93DE
:100FA0001F92CDB7DEB78C01DC018D919C91892B0E
:100FB00041F442EF50E06AE172E081E192E00E9488
:100FC0008D29D801ED91FC9141E050E0BE016F5FA9
:100FD0007F4FC8010995019719F4898190E002C0FB
:100FE0008FEF9FEF0F90DF91CF911F910F91089599
:100FF000CF92DF92EF92FF92CF93DF93EC01C12C5F
:10100000D12C76014A815B8160E070E0C416D50680
:10101000E606F70680F4E881F981EC0DFD1D80817C
:1010200063EB72E090E00E9496078FEFC81AD80A2F
:10103000E80AF80AE7CFDF91CF91FF90EF90DF90B9
:10104000CF90089578940E94680760E070E083EB89
:1010500092E00E94B80640E855E260E070E083EB61
:1010600092E00E943A0686E08093C20060E070E061
:1010700088E294E00E94A50D48EF57E068E274E032
:1010800085EE92E00E942A0F8FB7F894C090100668
:10109000D0901106E0901206F09013068FBFC1E0C9
:1010A00085EE92E00E94CF188091A80181112EC098
:1010B00083EB92E00E942C06882341F183EB92E0BF
:1010C0000E9408068093AB019093AC012091A90186
:1010D0003091AA01F901E355FE4FA9014F5F5F4F1F
:1010E00080835093AA014093A9012530314010F02C
:1010F000C093A8018FB7F894C0901006D090110645
:10110000E0901206F09013068FBF1BC08091A901DA
:101110009091AA01892BA9F02FB7F894809110061D
:1011200090911106A0911206B09113062FBF8C1951
:101130009D09AE09BF090397A105B10514F0C0933D
:10114000A8018091A801882309F4AACF85EE92E036
:101150000E94280F8111A4CF4091A9015091AA01AA
:101160006DEA71E085EE92E00E946E141092A80183
:101170001092AA011092A90193CFCF93DF93EC01B3
:1011800070930305609302058630910544F041E2B7
:1011900050E060E572E088E492E00E948D291092B0
:1011A000800089E18093810082E896E09093870037
:1011B000809386008C2F806480937C0087B121E02F
:1011C00030E001C0220FCA95EAF7922F909589234B
:1011D00087B988B1892388B980917E00822B80935A
:1011E0007E0087E080937B008CEE80937A00DF9115
:1011F000CF9108951F920F920FB60F9211242F9343
:101200003F934F935F936F937F938F939F93AF938E
:10121000BF93EF93FF9380E286BB6091780070915B
:101220007900769567957695679560588091020567
:10123000909103050E94BC0A80911606882349F00C
:1012400080910205909103050E948C0C807F88603C
:1012500007C080911506882311F088E801C080E856
:101260008BB9FF91EF91BF91AF919F918F917F913A
:101270006F915F914F913F912F910F900FBE0F9003
:101280001F901895AF92BF92CF92DF92EF92FF928C
:101290000F931F93CF93DF936C01EB017A01DC0175
:1012A00050960D911D912D913C9153970D341B44F7
:1012B0002345364441F04EE650E067E772E081E6B0
:1012C00092E00E948D295E01CE018E0D9F1DF601D8
:1012D000EB57FF4FA816B90671F4C5018C1B9D0B87
:1012E000DF91CF911F910F91FF90EF90DF90CF9002
:1012F000BF90AF9008956FB7F894408151812281DB
:1013000033816FBF4217530741F32FB7F894C09052
:101310001006D0901106E0901206F09013062FBF31
:101320006FB7F89440815181228133816FBF42179A
:101330005307A9F44FB7F8940091100610911106C5
:1013400020911206309113064FBF0C191D092E096A
:101350003F09101611061206130614F7BECF6FB719
:10136000F89420813181468157812417350719F47B
:101370004481558105C020813181A9014F5F5F4FB4
:1013800051834083D9012C916FBFD5012D935D010D
:10139000A1CF6F927F928F929F92AF92BF92CF9286
:1013A000DF92EF92FF920F931F93CF93DF93EC01A5
:1013B0008B017A0188899989AA89BB898D349B44DC
:1013C000A345B64441F04EE650E067E772E081E69F
:1013D00092E00E948D29F801A8014E0D5F1D99240D
:1013E0009394BB24B3943E0187E7680E711C20E4FC
:1013F00030E065E370E088E0E82EF12CE417F507B3
:1014000009F44EC0AFB6F894CFA4D8A88BA99CA974
:10141000C816D90639F4C9A8DAA88DA99EA9C81694
:10142000D90669F0C9A8DAA88FA598A901978824D8
:101430008394C816D90609F0812C882D01C081E05B
:10144000AFBE80FDDFCFD190AFB6F89489A99AA93D
:10145000DC01DC92C9A8DAA88DA99EA9C816D90614
:1014600019F48BA99CA903C089A99AA901969AABE2
:1014700089ABAFBED3018C9181110CC03EA72DA7C3
:101480001CA61BA61AA69C92299A7BA36AA35B9A08
:10149000B09216068FB7F894FDA2ECA28FBFAECF24
:1014A000CF01801B910BDF91CF911F910F91FF9086
:1014B000EF90DF90CF90BF90AF909F908F907F90F4
:1014C0006F900895CF93DF93EC01488959896A8919
:1014D0007B894D345B446345764441F04EE650E0F1
:1014E00067E772E081E692E00E948D29C958DF4FDC
:1014F00088818111FDCF80E090E0DF91CF91089548
:10150000CF93DF93EC01488959896A897B894D34EF
:101510005B446345764441F04EE650E067E772E095
:1015200081E692E00E948D292FB7F894C852DF4FD0
:10153000888199812FBFDF91CF910895CF93DF9359
:10154000EC01488959896A897B894D345B4463453C
:10155000764441F04EE650E067E772E081E692E0C3
:101560000E948D298FB7F894C852DF4F19821882D4
:101570008FBFDF91CF910895EF92FF920F931F934A
:10158000CF93DF93FC018C0101531F4FD8014D9184
:101590005C91DC01A353BF4F4D935C93DC01A858D1
:1015A000BF4F8D919C91119716962D913C91179755
:1015B0008217930729F414962D913C91159706C034
:1015C0008D919C9111979C012F5F3F4F11963C93F9
:1015D0002E93EC0128812602900111243595279540
:1015E00035952795E801398328837F01D3EDED0EEA
:1015F000F11CE701888199818F010F521F4FE8018B
:101600009983888395958795840F951F820F931FE3
:10161000E70199838883AF014B525F4F21E0181691
:1016200019060CF020E0EA018881880F822B88835C
:1016300012968D919C911397EC01688312962D91CF
:101640003C91139716968D919C91179728173907FF
:1016500029F414968D919C91159705C012968D9141
:101660009C911397019613969C938E931297DA018F
:101670009C91892F8695869589278370DF01AA52D0
:10168000BF4F833039F48C91803214F48F5F01C0E6
:1016900081508C938C91885F8C9380340CF435C18D
:1016A0008F738C93DF01A952BF4F8C91880F977075
:1016B0002BEF290F233010F0933009F481608C93C5
:1016C0009C91892F8695892780958170968D990F99
:1016D000892B868F8E3709F04EC0DF01AB57BF4F85
:1016E0002D913C91119714968D919C9115972817E7
:1016F000390759F412962D913C91139716968D91B6
:101700009C9117972817390779F012962D913C91E3
:1017100013978D919C911197019741E028173907F4
:1017200009F040E0842F01C081E080FDDDC0129609
:10173000CD91DC9113978EE7888312962D913C9181
:10174000139716968D919C9117972817390729F4AE
:1017500014968D919C91159705C012968D919C9130
:101760001397019613969C938E93129781E081A311
:101770002A9A41E0BCC0982F9F779F3719F411A295
:101780002A98C3C091A1992309F4BFC0982F9F73D1
:101790009E3309F4BAC080FF03C080A1806880A393
:1017A000878D8F5F878F90A1883008F4ACC0DF01F0
:1017B000AB57BF4F82E8890F823018F09B3109F098
:1017C0004BC02D913C91119714968D919C9115973A
:1017D0002817390759F412962D913C9113971696B4
:1017E0008D919C9117972817390779F012962D91B2
:1017F0003C9113978D919C911197019741E0281787
:10180000390709F040E0842F01C081E080FD20C04D
:101810001296CD91DC9113978BE1888312962D91CE
:101820003C91139716968D919C911797281739071D
:1018300029F414968D919C91159705C012968D915F
:101840009C911397019613969C938E93129704C0C4
:1018500011A22A9840E001C041E02D913C911197DE
:1018600014968D919C9115972817390759F4129663
:101870002D913C91139716968D919C91179728174F
:10188000390779F012962D913C9113978D919C9187
:101890001197019751E02817390709F050E0852F7B
:1018A00001C081E080FD20C080A11296CD91DC9125
:1018B0001397888312962D913C91139716968D91CC
:1018C0009C9117972817390729F414968D919C91AC
:1018D000159705C012968D919C91139701961396BA
:1018E0009C938E93129703C011A22A9840E010A2F5
:1018F000178E41110AC0E852FF4F808191818160AB
:101900009183808302C0969590A3DF91CF911F9120
:101910000F91FF90EF900895DC0196968C91969729
:101920008111EAC098968C9198978111A0C09F96DA
:101930002D913C91D097D1968D919C91D29728175B
:10194000390739F494968D919C919597892B09F4D8
:101950005CC099968C919997811103C09A961C92BC
:101960009A9781E099968C93999792968D919C91F4
:101970009397009789F59F962D913C91D097D1969A
:101980008D919C91D2972817390751F494968D9197
:101990009C919597019795969C938E93949721C0CF
:1019A0009F96ED91FC91D097D5968D919C91D6976D
:1019B000E817F90729F4D3968D919C91D49706C026
:1019C0009F96ED91FC91D097CF010196D0969C9374
:1019D0008E939F97808106C0019793969C938E93D8
:1019E00092978EE797968C93979797968C91979767
:1019F0008B3199F59F962D913C91D097D1968D91F1
:101A00009C91D2972817390749F45B9810921606D3
:101A1000A958BF4F1C92299880E008959F96ED9198
:101A2000FC91D097D5968D919C91D697E817F907A0
:101A300029F4D3968D919C91D49706C09F96ED91F1
:101A4000FC91D097CF010196D0969C938E939F974F
:101A5000808197968C93979706C08E57823018F4A2
:101A600099961C92999781E098968C93989799965D
:101A70002C9199979D968D919C919E972223A9F0E8
:101A80009A962C919A97253080F09A961C929A9764
:101A90008034910519F485E790E002C080E490E07D
:101AA0009E969C938E939D9723C098963C91989771
:101AB00097962C919797232341F09A968C919A9719
:101AC0008F5F9A968C939A970FC09A961C929A97CA
:101AD0008034910519F485E790E002C080E490E03D
:101AE0009E969C938E939D97330F98963C939897D0
:101AF00088E096968C9396979D96ED91FC919E9793
:101B00009B968D919C919C97E80FF91F9F013170D6
:101B10009C963C932E939B9796968C91969781508A
:101B200096968C93FF27E038F10530F08FEF90E028
:101B3000AC014E1B5F0BFA01EC57FD4F84912F3F18
:101B4000310511F008F080950895CF93DF93EC01F3
:101B5000CB012AEDFE0111922A95E9F77D8F6C8F5A
:101B600020E430E03EA72DA79E0120583F4FFE0104
:101B7000E858FF4F358324833383228331832083C6
:101B80009E012C573F4F378326839E0123573F4F9B
:101B9000DE01AB57BF4F15963C932E9314971396C7
:101BA0003C932E93129711963C932E939E012453AF
:101BB0003F4F17963C932E9316979E01295C3F4FFB
:101BC0003CAB2BAB3AAB29AB38AB2FA79E012A58C5
:101BD0003F4F3EAB2DAB24E030E0A281B3811C929D
:101BE00062817381468157816417750719F44481B6
:101BF000558104C0428153814F5F5F4F53834283BD
:101C0000215031092115310541F7BE010E94BD085F
:101C10008AB1886F8AB9219A229A4DE45BE463E520
:101C200076E4488B598B6A8B7B8B89EC99E09B839C
:101C30008A8382E499E09983888382E69AE09B878D
:101C40008A8780E89AE09D878C878EE99AE09F8753
:101C50008E87DF91CF9108952F923F924F925F929E
:101C60006F927F928F929F92AF92BF92CF92DF92AC
:101C7000EF92FF920F931F93CF93DF93CDB7DEB711
:101C800028970FB6F894DEBF0FBECDBF282F217066
:101C90002B8383FB442440F8512C81FBAA27A0F915
:101CA000B0E0A425B52584FB332730F93F8318869F
:101CB00086FB772770F979831A8282FB662460F8A5
:101CC000712C85FB222420F8312C8078E82FF0E05D
:101CD000EE0FEF2FEE1FFF0BFE83ED83F62FF1705B
:101CE000FC8363FB882480F8912C61FB222720F978
:101CF00030E02825392564FB442740F950E066FB95
:101D0000002700F910E062FBCC24C0F8D12C65FB61
:101D1000EE24E0F8F12C607870E0660F672F661F04
:101D2000770B402751275A01AE24BF24A626B72699
:101D3000C9018C259D258627972736E0880F991F96
:101D40003A95E1F760E8A69E80191124EF81F885A5
:101D500069817A81E627F727F887EF839E2F9170B4
:101D60007B8197273A2F31709327890FA625B725B6
:101D7000ED81FE81AE27BF27F4E0AF9F800D1124D7
:101D8000EF81F885E225F3256D817E81E627F7272F
:101D900078E0E79F800D112441709C8149272170D4
:101DA0004227E0E14E9F800D112496012E253F250C
:101DB000922F9170FC819F2708251925017090278B
:101DC00020E2929F800D1124930122253325922F2A
:101DD00091703B81932729813A81242535252170F3
:101DE000922762E0969F800D112428960FB6F894F2
:101DF000DEBF0FBECDBFDF91CF911F910F91FF903E
:101E0000EF90DF90CF90BF90AF909F908F907F909A
:101E10006F905F904F903F902F9008951F93CF93B6
:101E2000DF93EC01162F82E8860F823010F06B31C1
:101E300031F4688179818BE190E00E949607688196
:101E40007981812F90E0DF91CF911F910C949607BB
:101E500080E0089523E431E0DC01F9011D9231971F
:101E6000E9F7FC01EC5EFE4F71836083FC01E55EE7
:101E7000FE4F518340832FB7F89440911006509144
:101E8000110660911206709113062FBFFC01EF5DE1
:101E9000FE4F4083518362837383FC01EE5BFE4FF0
:101EA00010820895CF92DF92EF92FF920F931F93CB
:101EB000CF93DF9300D000D0CDB7DEB76C017B01AC
:101EC00064E088E00E943B1E8C01009749F11C826F
:101ED0001B821A8219829E012F5F3F4FA701B60114
:101EE0000E946C1EC8010E94E42029813A812E15AF
:101EF0003F0520F4C8010E94181E12C0019751F43A
:101F00009E012D5F3F4F48E051E064E075E0C8015D
:101F10000E94BE1EC8010E94181E8B819C8102C0B7
:101F200080E090E00F900F900F900F90DF91CF9195
:101F30001F910F91FF90EF90DF90CF900895CF9277
:101F4000DF92EF92FF920F931F93CF93DF9300D016
:101F500000D0CDB7DEB76C017B0144E068E088E0DB
:101F600091E00E94871B8C01009749F11C821B8223
:101F70001A8219829E012F5F3F4FA701B6010E946E
:101F8000C61BC8010E945D1D29813A812E153F059F
:101F900020F4C8010E945E1B12C0019751F49E01FB
:101FA0002D5F3F4F48E051E064E075E0C8010E94BA
:101FB0000A1CC8010E945E1B8B819C8102C080E0CC
:101FC00090E00F900F900F900F90DF91CF911F91A5
:101FD0000F91FF90EF90DF90CF9008952F923F9256
:101FE0004F925F926F927F928F929F92AF92BF9229
:101FF000CF92DF92EF92FF920F931F93CF93DF93D5
:10200000CDB7DEB72A970FB6F894DEBF0FBECDBFAF
:102010004C01FC01E75DFE4F8081D401A80FB11D8A
:10202000A65DBE4F6C938F5F80838C3009F01DC41A
:1020300094012C5E3E4F3A8729879401265D3E4FDE
:102040003A832983D9014C91407881E090E040386F
:1020500011F080E090E09695982F882797958795C6
:102060005401B5EDAB1ABEEFBB0AF50140814078D3
:1020700051E0403809F050E0682FF0E45F9F600DB8
:10208000112464012CECC21A2EEFD20AD6019C91C5
:10209000907841E0903809F040E0640F7401B3EDAE
:1020A000EB1ABEEFFB0AF7019081907841E090387F
:1020B00009F040E0F0E24F9F600D11248401025DC1
:1020C0001E4FD8019C91907841E0903809F040E093
:1020D000B0E14B9F600D11243401E0ED6E1AEEEF7C
:1020E0007E0AD3019C91907841E0903809F040E05D
:1020F000B8E04B9F600D11242401EFEC4E1AEEEF77
:102100005E0AD2019C91907841E0903809F040E05D
:10211000B4E04B9F600D11241401EDEC2E1AEEEF8C
:102120003E0AD1014C91407881E090E0403811F0B6
:1021300080E090E0880F991F680F89859A850E943A
:102140000E0FE981FA81408181E090E046FD02C0F6
:1021500080E090E09695982F882797958795D501F0
:102160005C9141E056FF40E0682FB0E44B9F600D6A
:102170001124F601808191E086FF90E0690FD7017C
:102180008C9191E086FF90E0B0E29B9F600D11245E
:10219000F801808191E086FF90E0F0E19F9F600D63
:1021A0001124D3018C9191E086FF90E0B8E09B9FD1
:1021B000600D1124F201808191E086FF90E0F4E04F
:1021C0009F9F600D1124D1014C9181E090E046FD6C
:1021D00002C080E090E0880F991F680F89859A857A
:1021E0000E940E0FE981FA81408181E090E045FD77
:1021F00002C080E090E09695982F88279795879564
:10220000D5015C9141E055FF40E0682FB0E44B9F61
:10221000600D1124F601808191E085FF90E0690F47
:10222000D7018C9191E085FF90E0B0E29B9F600D1B
:102230001124F801808191E085FF90E0F0E19F9FFB
:10224000600D1124D3018C9191E085FF90E0B8E0FE
:102250009B9F600D1124F201808191E085FF90E049
:10226000F4E09F9F600D1124D1014C9181E090E03A
:1022700045FD02C080E090E0880F991F680F8985B6
:102280009A850E940E0FE981FA81408181E090E0F9
:1022900044FD02C080E090E09695982F882797959E
:1022A0008795D5015C9141E054FF40E0682FB0E490
:1022B0004B9F600D1124F601808191E084FF90E036
:1022C000690FD7018C9191E084FF90E0B0E29B9F71
:1022D000600D1124F801808191E084FF90E0F0E12D
:1022E0009F9F600D1124D3018C9191E084FF90E0B9
:1022F000B8E09B9F600D1124F201808191E084FF82
:1023000090E0F4E09F9F600D1124D1014C9181E099
:1023100090E044FD02C080E090E0880F991F680FB4
:1023200089859A850E940E0F9401265D3E4F3A835F
:102330002983D9014C9181E090E043FD02C080E007
:1023400090E09695982F8827979587955401B5ED3D
:10235000AB1ABEEFBB0AF501508141E053FF40E0EC
:10236000682FF0E44F9F600D112464012CECC21A19
:102370002EEFD20AD6018C9191E083FF90E0690F95
:102380007401B3EDEB1ABEEFFB0AF701808191E017
:1023900083FF90E0F0E29F9F600D11248401025DB5
:1023A0001E4FD8018C9191E083FF90E0B0E19B9F9C
:1023B000600D11243401E0ED6E1AEEEF7E0AD301B8
:1023C0008C9191E083FF90E0B8E09B9F600D112419
:1023D0002401EFEC4E1AEEEF5E0AD2018C9191E0EF
:1023E00083FF90E0B4E09B9F600D11241401EDEC9D
:1023F0002E1AEEEF3E0AD1014C9181E090E043FDB0
:1024000002C080E090E0880F991F680F89859A8547
:102410000E940E0FE981FA81408181E090E042FD47
:1024200002C080E090E09695982F88279795879531
:10243000D5015C9141E052FF40E0682FB0E44B9F32
:10244000600D1124F601808191E082FF90E0690F18
:10245000D7018C9191E082FF90E0B0E29B9F600DEC
:102460001124F801808191E082FF90E0F0E19F9FCC
:10247000600D1124D3018C9191E082FF90E0B8E0CF
:102480009B9F600D1124F201808191E082FF90E01A
:10249000F4E09F9F600D1124D1014C9181E090E008
:1024A00042FD02C080E090E0880F991F680F898587
:1024B0009A850E940E0FE981FA81408181E090E0C7
:1024C00041FD02C080E090E09695982F882797956F
:1024D0008795D5015C9141E051FF40E0682FB0E461
:1024E0004B9F600D1124F601808191E081FF90E007
:1024F000690FD7018C9191E081FF90E0B0E29B9F42
:10250000600D1124F801808191E081FF90E0F0E1FD
:102510009F9F600D1124D3018C9191E081FF90E089
:10252000B8E09B9F600D1124F201808191E081FF52
:1025300090E0F4E09F9F600D1124D1014C9181E067
:1025400090E041FD02C080E090E0880F991F680F85
:1025500089859A850E940E0FE981FA8180818170B8
:10256000D5019C9191709B831C822B813C8156E00C
:10257000220F331F5A95E1F73C832B83622F30E8FB
:10258000839F60191124D6018C918170680FF70127
:1025900080818170F0E28F9F600D1124D8018C91B1
:1025A0008170B0E18B9F600D1124F30180818170F7
:1025B000F8E08F9F600D1124D2018C918170B4E0FE
:1025C0008B9F600D1124F101808181708D831E82AB
:1025D0002D813E81220F331F3E832D83620F89851B
:1025E0009A850E940E0F540134EDA31A3EEFB30AF0
:1025F000D501EC916401B1EDCB1ABEEFDB0AD60137
:102600007C917401BEECEB1ABEEFFB0AD7015C9122
:1026100084010B5C1E4FD8014C916E2F607881E0D5
:1026200090E0603811F080E090E09695982F882730
:102630009795879561E0E3FF60E0E82FB0E46B9F3A
:10264000E00D11246E2F91E043FF90E0690F91E0BF
:10265000872F8078803809F090E0F0E29F9F600D2E
:10266000112491E073FF90E020E1929F600D11240E
:1026700091E0852F8078803809F090E038E0939FD2
:10268000600D112491E053FF90E084E0989F600D6D
:102690001124407881E090E0403811F080E090E033
:1026A000880F991F680F89859A850E940E0FD501A2
:1026B000EC91D6017C91D7015C91D8014C9181E0DD
:1026C00090E0E6FD02C080E090E09695982F882784
:1026D0009795879561E0E2FF60E0E82FB0E46B9F9B
:1026E000E00D11246E2F91E042FF90E0690F91E020
:1026F00076FF90E0F0E29F9F600D112491E072FF61
:1027000090E020E1929F600D112491E056FF90E04F
:1027100038E0939F600D112491E052FF90E084E037
:10272000989F600D112481E090E046FD02C080E09A
:1027300090E0880F991F680F89859A850E940E0F77
:10274000D501EC91D6017C91D7015C91D8014C91D7
:1027500081E090E0E5FD02C080E090E09695982F42
:1027600088279795879561E0E1FF60E0E82FB0E466
:102770006B9FE00D11246E2F91E041FF90E0690FF7
:1027800091E075FF90E0F0E29F9F600D112491E0D1
:1027900071FF90E020E1929F600D112491E055FFC0
:1027A00090E038E0939F600D112491E051FF90E09C
:1027B00084E0989F600D112481E090E045FD02C007
:1027C00080E090E0880F991F680F89859A850E94A4
:1027D0000E0FD5016C91F6017081D7015C91F80163
:1027E0004081862F8170F72FF170FF8318862F812B
:1027F0003885E4E0220F331FEA95E1F738872F830D
:1028000030E4839F200D1124822F942F9170890F23
:10281000952F9170A4E09A9F800D112491E064FFA0
:1028200090E0682FB0E89B9F6019112491E074FF3D
:1028300090E0E0E29E9F600D112491E054FF90E053
:10284000F8E09F9F600D112481E090E044FD02C0FC
:1028500080E090E0880F991F680F89859A850E9413
:102860000E0FF401E75DFE4F10822A960FB6F89422
:10287000DEBF0FBECDBFDF91CF911F910F91FF90B3
:10288000EF90DF90CF90BF90AF909F908F907F9010
:102890006F905F904F903F902F9008951F93CF932C
:1028A000DF93EC01162F0E94EE0F80910B06882318
:1028B00049F0612F80910A060E942C0E682FCE01EC
:1028C0000E94EE0F10930A0680910B0691E0892773
:1028D00080930B06DF91CF911F9108955F926F92C5
:1028E0007F928F929F92AF92BF92CF92DF92EF92A0
:1028F000FF920F931F93CF93DF93EC015B017A015B
:1029000010920B0681E0809315068FB7F8944091E2
:1029100010065091110660911206709113068FBF38
:102920008FB7F894009110061091110620911206AD
:10293000309113068FBF041B150B260B370B37FD89
:10294000EFCF8E01025E1E4F8AEAD8018C93FE0102
:10295000E75DFE4F1082B701C5010E94520F6C0166
:10296000009769F08E159F0550F4AC0164E075E0A6
:10297000C5010E94842D76019924939401C0912C65
:102980006E01BCEECB1ABEEFDB0AF60160817181ED
:102990008EE790E00E949607911002C060E001C0AF
:1029A00062E082E08E0D877031F198E0981B892EED
:1029B000912C6160C401F4E0880F991FFA95E1F74A
:1029C0006827D8018C9186278C93CE010E944E14E3
:1029D000612C712CA5E55A2EF80180818525808314
:1029E00065E5CE010E944E14FFEF6F1A7F0A68144E
:1029F000790494F307C0D8018C9186278C93CE017B
:102A00000E944E144501EA0CFB1C8E149F0469F0D1
:102A1000F401D4018D914D01D8019C9189278C93AB
:102A20006081CE010E944E14F0CFF8016081CE018A
:102A30000E944E14D6016D917C918EE790E00E9429
:102A4000960710921506DF91CF911F910F91FF907D
:102A5000EF90DF90CF90BF90AF909F908F907F903E
:102A60006F905F9008952F923F924F925F926F9276
:102A70007F928F929F92AF92BF92CF92DF92EF920E
:102A8000FF920F931F93CF93DF93CDB7DEB72897B5
:102A90000FB6F894DEBF0FBECDBF2C012AEC421A50
:102AA0002EEF520AF201F0801C01F9EC2F1AFEEF12
:102AB0003F0AF10100819C01285C3E4F3A83298343
:102AC000F901F081F8879C01275C3E4F3C832B8302
:102AD000F901F081FD83FC01E65CFE4FB081FC0151
:102AE000E55CFE4FA081FC01E45CFE4F7081FC01BF
:102AF000E35CFE4F1081FC01E25CFE4F6081FC0153
:102B0000E15CFE4F5081FC01E05CFE4FE080FC0187
:102B1000EF5BFE4F4081EF2DE07821E030E0E038C0
:102B200011F020E030E0F901F695FE2FEE27F79541
:102B3000E795FF83EE83E1E0F02FF078F03809F0BD
:102B4000E0E02E81F0E4EF9F200D1124E22F31E030
:102B5000212F2078203809F030E0E30F31E028857C
:102B60002078203809F030E0F0E23F9FE00D11249A
:102B700031E02D812078203809F030E020E1329FCB
:102B8000E00D112431E02B2F2078203809F030E0BF
:102B9000F8E03F9FE00D112431E02A2F2078203803
:102BA00009F030E024E0329FE00D112421E030E014
:102BB000F72FF078F03811F020E030E0220F331FCB
:102BC0002E0FF201208321E030E0F6FC02C020E06D
:102BD00030E03695322F222737952795E1E006FF22
:102BE000E0E0522EF0E4EF9F500C1124E52D31E08F
:102BF00016FF30E0E30F31E0288526FF30E0F0E2F9
:102C00003F9FE00D112431E05D8056FE30E020E171
:102C1000329FE00D112431E0B6FF30E0F8E03F9F35
:102C2000E00D112431E0A6FF30E024E0329FE00DFA
:102C3000112421E030E076FD02C020E030E0220FD8
:102C4000331F2E0FF101208321E030E0E62FE078E2
:102C5000E03811F020E030E03695322F222737950A
:102C60002795E1E0F52FF078F03809F0E0E0522EFA
:102C7000F0E4EF9F500C1124E52D31E046FF30E0E9
:102C8000E30F31E02E2D2078203809F030E020E2EB
:102C9000329FE00D112431E0242F2078203809F0F4
:102CA00030E0F0E13F9FE00D112431E066FF30E0BD
:102CB00028E0329FE00D112431E056FF30E0F4E0CF
:102CC0003F9FE00D112421E030E0E6FC02C020E04F
:102CD00030E0220F331F2E0FE981FA81208321E09B
:102CE00030E0F5FC02C020E030E03695322F22279C
:102CF00037952795E1E005FFE0E0522EF0E4EF9FE5
:102D0000500C1124E52D31E015FF30E0E30F31E0E8
:102D1000288525FF30E0F0E23F9FE00D112431E0EF
:102D20005D8055FE30E020E1329FE00D112431E05E
:102D3000B5FF30E0F8E03F9FE00D112431E0A5FF42
:102D400030E024E0329FE00D112421E030E075FDF9
:102D500002C020E030E0220F331F2E0FEB81FC81F8
:102D60002083FC01E65CFE4F21E030E0F4FC02C071
:102D700020E030E019013694322C22243794279435
:102D80005524539404FF512C322D20E4529E300DD3
:102D90001124532E31E014FF30E0530E31E028852A
:102DA00024FF30E020E2329F500C112431E02D81CD
:102DB00024FF30E020E1329F500C112431E0B4FFB9
:102DC00030E028E0329F500C112431E0A4FF30E0C5
:102DD00024E0329F500C112421E030E074FD02C049
:102DE00020E030E0220F331F250D2083FC01E55C3D
:102DF000FE4F21E030E065FD02C020E030E0190127
:102E00003694322C2224379427945524539455FF1A
:102E1000512C222D30E4539E200D1124522E31E0EE
:102E200044FF30E0530E31E0E5FE30E020E2329F17
:102E3000500C112431E045FF30E020E1329F500C6E
:102E4000112431E064FF30E028E0329F500C11245F
:102E500031E054FF30E024E0329F500C112421E097
:102E600030E0E4FC02C020E030E0220F331F250DEB
:102E70002083FC01E45CFE4F21E030E0F3FC02C063
:102E800020E030E019013694322C22243794279424
:102E90005524539403FF512C222D30E4539E200DD2
:102EA0001124522E31E013FF30E0530E31E028851B
:102EB00023FF30E020E2329F500C112431E02D81BD
:102EC00023FF30E020E1329F500C112431E0B3FFAA
:102ED00030E028E0329F500C112431E0A3FF30E0B5
:102EE00024E0329F500C112421E030E073FD02C039
:102EF00020E030E0220F331F250D2083FC01E35C2E
:102F0000FE4F21E030E0F2FC02C020E030E0190189
:102F10003694322C2224379427945524539402FF5C
:102F2000512C222D30E4539E200D1124522E31E0DD
:102F300012FF30E0530E31E0288522FF30E020E21E
:102F4000329F500C112431E02D8122FF30E020E12E
:102F5000329F500C112431E0B2FF30E028E0329F64
:102F6000500C112431E0A2FF30E024E0329F500CDD
:102F7000112421E030E072FD02C020E030E0220F99
:102F8000331F250D2083FC01E25CFE4F21E030E081
:102F900063FD02C020E030E019013694322C222477
:102FA000379427945524539453FF512C222D30E409
:102FB000539E200D1124522E31E042FF30E0530E7B
:102FC00031E0E3FE30E020E2329F500C112431E08A
:102FD00043FF30E020E1329F500C112431E062FFCA
:102FE00030E028E0329F500C112431E052FF30E0F5
:102FF00024E0329F500C112421E030E0E2FC02C0BA
:1030000020E030E0220F331F250D2083FC01E15C1E
:10301000FE4F21E030E0F1FC02C020E030E0190179
:103020003694322C2224379427945524539401FF4C
:10303000512C222D30E4539E200D1124522E31E0CC
:1030400011FF30E0530E31E0288521FF30E020E20F
:10305000329F500C112431E02D8121FF30E020E11E
:10306000329F500C112431E0B1FF30E028E0329F54
:10307000500C112431E0A1FF30E024E0329F500CCD
:10308000112421E030E071FD02C020E030E0220F89
:10309000331F250D2083FC01E05CFE4FF0FAFF2476
:1030A000F0F800FBCC24C0F8D12C26E0CC0CDD1CC1
:1030B0002A95E1F730E8F39EC01811241170C10E73
:1030C0003885317020E2329FC00C11243D8131706F
:1030D00020E1329FC00C1124B17038E0B39FC00CC6
:1030E0001124A17024E0A29FC00C112470FBAA241B
:1030F000A0F8B12CAA0CBB1CCA0CC082FC01EF5B6F
:10310000FE4F262F217050FB882480F8912C880CCC
:10311000991C880C991C38E0239F800C1124242FC3
:103120002170820EE0FA662460F8712C660C771C20
:10313000860C21E061FF20E080E8289F80181124A0
:1031400021E051FF20E030E4239F800C112421E096
:10315000E1FE20E080E2289F800C112421E041FF65
:1031600020E030E1239F800C1124808228960FB646
:10317000F894DEBF0FBECDBFDF91CF911F910F91AD
:10318000FF90EF90DF90CF90BF90AF909F908F9087
:103190007F906F905F904F903F902F9008952F9267
:1031A0003F924F925F926F927F928F929F92AF92D7
:1031B000BF92CF92DF92EF92FF920F931F93CF9324
:1031C000DF93CDB7DEB72F970FB6F894DEBF0FBEF3
:1031D000CDBF8C019C012C5E3E4F3E832D839C0114
:1031E0002F5D3E4F3A8729872C0131EE431A3EEF7F
:1031F000530A7C0140EEE41A4EEFF40A6C0188EEAB
:10320000C81A8EEFD80A18019BED291A9EEF390AC9
:10321000AD81BE818D919C910E94CC079C018F3F16
:10322000BFEF9B0709F49EC14FB7F8948091100639
:1032300090911106A0911206B09113064FBFE98537
:10324000FA8580839183A283B383D2014C91442376
:1032500009F4E6C02B31310529F4F7018081882378
:1032600009F4DEC0D6018D919C91119701968D9342
:103270009C936CE070E00E94F32B892B09F0D0C086
:103280002B31310529F0C9018E579109029710F4AD
:10329000F70110825801FAEEAF1AFEEFBF0AD5010E
:1032A0006D917C91C80141E050E0FC01E60FF71FF1
:1032B0003B97A081FC01EA5CFE4FA0834F5F5F4F0C
:1032C00001964C30510589F7F801EF5BFE4F2083E2
:1032D000C8010E943315F50180809180F3E08F1AB8
:1032E0009108D5018D929C925801612C712C980106
:1032F000265E3E4F3C872B879801235E3E4F3887E2
:103300002F83F501EA5CFE4F2081F501E95CFE4F59
:103310003081F501E85CFE4F9081632F822F2D876D
:103320003E879F870E942C0EAB85BC858C939F8522
:1033300089272D853E85882309F44EC0982F9F70DC
:10334000998382958F708A83FE01319680E090E0A8
:1033500041915FEF540F5230D0F14430C1F1483009
:10336000B1F14330E9F0453009F435C1463041F060
:10337000473071F0493071F050E04A3069F002C0D6
:1033800054E00FC04B3051F04C3059F450E809C0B4
:1033900058E007C050E105C050E203C050E401C04E
:1033A00051E08130910509F014C12527442379F0BB
:1033B000D1014D915D916D917C9113974F5F5F4F5E
:1033C0006F4F7F4F4D935D936D937C931397019651
:1033D0008230910509F0BCCF822F8327EF81F885D9
:1033E000908189278083C30163E070E00E94072CED
:1033F000660F771F680D791D600F711FFB013897ED
:103400002083FB0137973083F3E06F0E711C23E0BC
:10341000A20EB11C3CE06316710409F072CFF8CE25
:10342000D7018C91811184C02E37310509F073C00A
:10343000F6018081918198012A5E3E4F4901D801B1
:10344000A35EBE4F5D010C9708F452C02FB7F894ED
:103450008091100690911106A0911206B09113066A
:103460002FBFE985FA8580839183A283B383D50139
:103470008C9181113DC0D8018D91982F92959F70AC
:10348000282F217080FF02C0A90FB11DF4016081B7
:10349000718162507109929F6019710911247C83B6
:1034A0006B8381FD04C0F80120E030E00CC0CD0149
:1034B0000E949F0F9C838B83AC0164E075E0C80180
:1034C0000E94842D08C02617370729F08D9181931B
:1034D0002F5F3F4FF8CF1A830983F801E55EFE4F57
:1034E0000190F081E02D309719F0CE0101960995F9
:1034F00081E0D2018C93F40111821082D6011D92D9
:103500001C928AEAF5018083D1011D921D921D92C1
:103510001C9213977DCE2F37310519F4F2011082DA
:1035200077CE2B31310521F481E0D7018C9370CE19
:103530004423A9F0F801EA5EFE4F80819181843135
:10354000B1E09B0750F4AC014F5F5F4F5183408364
:10355000F801E80FF91F208302C0F2011082D701A1
:103560001C9256CEED81FE8100811181D8011C96FE
:103570008D919C911D97892B41F449E451E06DE2B6
:1035800073E083E293E00E948D29D8011C96ED91AF
:10359000FC911D97C8010995892BF9F0ED81FE81F9
:1035A00000811181D8011E968D919C911F97892BC6
:1035B00041F442E551E061E173E084E093E00E9470
:1035C0008D29D8011E96ED91FC911F97C801099590
:1035D00004C03527EBCE52E0E4CE2F960FB6F89418
:1035E000DEBF0FBECDBFDF91CF911F910F91FF9036
:1035F000EF90DF90CF90BF90AF909F908F907F9093
:103600006F905F904F903F902F900895CF93FC0163
:10361000603208F04EC08081918170E0892B79F48E
:10362000268530E0AB014150510981E090E002C0B5
:10363000880F991F4A95E2F728173907D4F120E03F
:1036400030E0C0E8261737076CF58685811118C071
:1036500080819181009769F1A281B381AD014F5FB3
:103660005F4F53834283AE0FBF1F5396AC91A58724
:103670004817590721F41382128211821082C687DB
:1036800082859385880F991F938782875685458504
:10369000452319F0816093878287569556872F5F5F
:1036A0003F4FD0CF628573851386128680E090E00D
:1036B00003C06FEF7FEFCB01CF9108950C94F52CF1
:1036C000CF93DF93EC0141E050E00F8402C0440F40
:1036D000551F0A94E2F789899A89480F591F60E0BB
:1036E00070E0CE0143960E949F2D1C86198218829D
:1036F0001B821A821E861D861D821C821F821E82CC
:10370000198618861B861A86DF91CF910895EF924D
:10371000FF920F931F93CF93DF9300D0CDB7DEB707
:103720008C018CEF860F8C3030F50115110519F1E5
:10373000423008F16417F8F081E090E0062E02C0F4
:10374000880F991F0A94E2F798012D5E3F4F820F70
:10375000931F4A8369830E945D2C7C014A816981A1
:10376000009749F0FC01128B018B6787408B0E9408
:10377000601BC70102C080E090E00F900F90DF91C6
:10378000CF911F910F91FF90EF900895EF92FF92CC
:103790000F931F93CF93DF93EC017901009789F189
:1037A0006115710571F12115310559F188819981F2
:1037B000E989FA89E81BF90B31F4F90111821082C9
:1037C00081E090E020C08A01E417F50708F48F013A
:1037D0004396A8018C0F9D1F0E94842D888199819A
:1037E000800F911F998388838C85811104C081E0AB
:1037F0008C871B821A82F7011183008380E090E09E
:1038000002C08FEF9FEFDF91CF911F910F91FF903B
:10381000EF9008952F923F925F927F928F929F92A6
:10382000AF92BF92CF92DF92EF92FF920F931F93CE
:10383000CF93DF93EC017B016A018901009709F4C2
:1038400027C16115710509F423C12115310509F45A
:103850001FC1D9011D921C92AA24A394B12C7C846F
:10386000872D90E08930910508F014C1FC01EC5CD3
:10387000FF4F0C943D2C80E090E00EC161E0CE0142
:103880000E94061B672B682B692B69F48F85893092
:1038900008F04CC01F821E8266C0F80180819181B1
:1038A0008C159D0510F082E0DDC068E0CE010E941D
:1038B000061B6F3FFFEF7F078F079F07A1F3E98983
:1038C000FA897396EC0FFD1FD5010F8402C0AA0F71
:1038D000BB1F0A94E2F7119728853985A9014F5F2C
:1038E0005F4F59874887A223B323EA0FFB1F6083EA
:1038F000D8014D915C9111979A012F5F3F4F2D9305
:103900003C93F701E40FF51F6083A9C06F856850F1
:10391000CE010E94061B6F3FBFEF7B078B079B0703
:1039200029F0762F66277F836E831DC083E09AC0BF
:103930006F85693008F068E0CE010E94061B6F3F7A
:10394000EFEF7E078E079E0771F02E813F81262BB9
:10395000372B2F5F3F4F3F832E8388891D821C8228
:10396000893058F112C084E07DC068896850CE016A
:103970000E94061B6F3FFFEF7F078F079F0729F00D
:10398000762F66277D836C8318C085E06BC06889BD
:10399000693008F068E0CE010E94061B6F3F2FEFF0
:1039A00072078207920749F02C813D81262B372B25
:1039B0002F5F3F4F3D832C8354C086E053C0D80116
:1039C0008D919C91B601681B790B09F44AC08C81DA
:1039D0009D818617970708F4BC0189899A894396C7
:1039E0008C0F9D1FA5010F8402C0440F551F0A9420
:1039F000E2F7415051098E809F8020E030E0261789
:103A0000370729F1E885F985E819F909E423F52351
:103A1000E80FF91F5080D801ED91FC911F01BFEF15
:103A20002B1A3B0AD8012D923C92EE0DFF1D5082BD
:103A3000E885F985E423F523E80FF91F5082E8852E
:103A4000F9853196F987E8872F5F3F4FD8CF8C8172
:103A50009D81821B930B9D838C83892B11F488E0BD
:103A600001C087E08C8707C021E088819981892B7C
:103A700009F420E02C878C858711F1CE81E090E05D
:103A8000F801208131812C153D0531F080E004C022
:103A90008FEF01C08EEF9FEFDF91CF911F910F91BC
:103AA000FF90EF90DF90CF90BF90AF909F908F905E
:103AB0007F905F903F902F900895FC01009789F0D0
:103AC0008485882321F08350843070F402C080E024
:103AD0000CC081E090E020813181232B39F480E01B
:103AE00008958FEF9FEF089581E090E008958F9201
:103AF0009F92BF92CF92DF92EF92FF920F931F930C
:103B0000CF93DF93EC01E62EF42E890188E086172F
:103B100048F443E452E06AE473E08FE393E00E94E8
:103B20008D2917C0A8E06A1314C08E85803889F4E7
:103B3000E901E881F981AC81BD818D919C9111975A
:103B40009C012F5F3F4F2D933C93E80FF91F40835B
:103B500042C080E090E06E2D70E0615071098824D1
:103B60008394912C4F2D50E030E8B32E9B01281BFD
:103B7000390B2F3FBFEF3B0771F1F40102C0EE0F8D
:103B8000FF1F2A95E2F79F0124233523EE85232B7F
:103B900019F02D852E2B2D872E2F269511F02E878F
:103BA00018C0BE86D801ED91FC9111971496ED9046
:103BB000FC901597D7012D913C916901BFEFCB1A6D
:103BC000DB0AD701CD92DC92FD84E20FF31FF08275
:103BD0001D860196CBCFDF91CF911F910F91FF9062
:103BE000EF90DF90CF90BF909F908F9008951F939C
:103BF000CF93DF93EC019B011A85193050F01850D8
:103C00004885598502C0569547951A95E2F718E000
:103C100003C04885112339F0612FCE010E94771D22
:103C20008A85811B8A87812FDF91CF911F9108950B
:103C30000C94F52CCF93DF93EC0142E050E00F841D
:103C400002C0440F551F0A94E2F760E070E041960D
:103C50000E949F2D198218821C861B821A821B8645
:103C600080E88E871D861D821C82198618861A861A
:103C7000DF91CF910895EF92FF921F93CF93DF933F
:103C80001F92CDB7DEB7182F8CEF810F8C30D8F490
:103C90006230C8F01617B8F082E090E0012E02C042
:103CA000880F991F0A94E2F7419669830E945D2C60
:103CB0007C016981009739F0FC011787608B0E94B5
:103CC0001A1EC70102C080E090E00F90DF91CF91F3
:103CD0001F91FF90EF900895CF92DF92EF92FF92A5
:103CE0000F931F93CF93DF93EC0169010097A9F124
:103CF0006115710591F12115310579F18B8580FDF3
:103D00002FC08C8581112CC081E090E00F8402C00F
:103D1000880F991F0A94E2F7288139817C01E21A01
:103D2000F30A87014E155F0508F48A01820F931F7D
:103D30004196A8018C0F9D1F0E94842DF6011183CE
:103D4000008388819981800F911F998388830E1544
:103D50001F0549F481E08C8706C08FEF9FEF05C0F7
:103D60008EEF9FEF02C080E090E0DF91CF911F9136
:103D70000F91FF90EF90DF90CF9008952F923F9298
:103D80004F925F926F927F928F929F92AF92BF926B
:103D9000CF92DF92EF92FF920F931F93CF93DF9317
:103DA000CDB7DEB762970FB6F894DEBF0FBECDBFBA
:103DB0008C013A014901009709F4E8C161157105C8
:103DC00009F4E4C12115310509F4E0C1411551059B
:103DD00009F4DFC1D9011D921C927A8369835C8347
:103DE0004B833E832D83EE24E394F12C1C01B1E13F
:103DF0002B0E311CF801F485F88B8F2F90E08A3060
:103E0000910508F0C6C1FC01E35CFF4F0C943D2C0A
:103E1000E2E0D8011C96EC93A9C1D8011F96EC9161
:103E20001F97570150960C90509702C0AA0CBB1CCC
:103E30000A94E2F712964D915C9113971B966C9140
:103E40001B978D919C9160FF03C020E030E001C082
:103E50009501DC01A21BB30B4A175B0708F08AC06F
:103E6000970102C0220F331FEA95E2F7F9012901F9
:103E7000440E551E64FF03C0FA0131960AC063FF69
:103E800008C09A012F5F3F4FF501A216B30608F450
:103E9000F901841B950B8A159B0508F45C01B1019F
:103EA000640D751D7D876C87B201615071098FEFBC
:103EB0008F83CC24CA941A8A198A6E177F0794F1CB
:103EC0009B018C859D859B878A87D101A60FB71F93
:103ED000B987A88780E090E08A159B0571F0A885D6
:103EE000B985DD90B987A887DE86AA85BB85DD9078
:103EF000BB87AA87AE85AD1549F0A989BA89A817ED
:103F0000B90730F02F813C2DCD0105C00196E4CFDB
:103F10008A159B0559F0615071092F83C32E9A8B26
:103F2000898BCBCF2F813C2D89899A89833091054C
:103F300040F0F201E21BF30B9F012F3FFFEF3F0721
:103F400099F44F5F5F4FD80113965C934E9312978D
:103F50001B968C911B9782601B968C931B971596D2
:103F60001C921E921497AFC0F80137832683958365
:103F70008483A9C087E0D3C0ED81FE812081318197
:103F80008B819C812817390728F5F8018481958158
:103F90009E012F5F3F4F892B39F441E061E0C8015A
:103FA0000E94771D84E017C040E061E0C8010E94D4
:103FB000771DD80116968D919C91179701971996A8
:103FC0009C938E9318971F968C911F971A968C939B
:103FD00085E001C083E0F8018487C8C0ED81FE81DF
:103FE000208131818B819C812817390730F5C701E9
:103FF000D8011F960C901F9702C0880F991F0A9432
:10400000E2F71296ED91FC911397E00FF11FE80F84
:10401000F91F9E012F5F3F4F408968E0C8010E9451
:10402000771DF8018385982F9D7F938782FD76C049
:1040300084819581892BE9F146C084E070C0ED81CF
:10404000FE81208131818B819C812817390710F0F6
:1040500085E065C0BE016F5F7F4FC8010E94F71DFC
:104060008111F6CFF801848195810197918780872E
:104070008089828709C0ED81FE81208131818B8119
:104080009C812817390710F086E049C0BE016F5F98
:104090007F4FC8010E94F71D8111F6CFF801828180
:1040A000938124813581820F931F938382831582AC
:1040B000148282E034C0F801838580FF06C081FF4E
:1040C0002DC08460838783E02AC0A701078402C0D3
:1040D000440F551F0A94E2F7A280B380440F551F86
:1040E0004A195B09B5016F5E7F4F600F711FC101F7
:1040F0000E948D2DF801838583FF03C08061838733
:1041000002C088608387F8011382128280819181C6
:104110008A199B099183808380E001C088E0D801DF
:104120001C968C9323C0F80186858038B9F0AD8148
:10413000BE818D919C9111972B813C8182179307B1
:1041400078F4E981FA819C012F5F3F4F2D933C93D6
:10415000D8011D962C91E80FF91F208389E001C03A
:1041600088E0F801848780E090E015C0D8011C96B3
:104170008C91D8888D113ECED4018D919C9186155D
:10418000970509F037CE81E090E005C08FEF9FEFF3
:1041900002C08EEF9FEF62960FB6F894DEBF0FBE9F
:1041A000CDBFDF91CF911F910F91FF90EF90DF90E6
:1041B000CF90BF90AF909F908F907F906F905F90C7
:1041C0004F903F902F900895FC01009779F08385E0
:1041D000816083878485811102C081E0848781E0CA
:1041E00090E02485293021F480E008958FEF9FEF3F
:1041F00008952F923F924F925F926F927F928F928B
:104200009F92AF92BF92CF92DF92EF92FF920F9365
:104210001F93CF93DF93CDB7DEB7C45AD1090FB642
:10422000F894DEBF0FBECDBFC856DF4F9983888399
:10423000C859D040C656DF4F79836883CA59D040E9
:10424000C456DF4F59834883CC59D0405901C257D7
:10425000DF4F19821882CE58D0409E012F5F3F4F0A
:10426000C957DF4F39832883C758D040AE014A571A
:104270005F4FC757DF4F59834883C958D040C8564E
:10428000DF4F08811981C859D0400F5F1F4FC856B2
:10429000DF4FE881F981C859D0408491853291F18E
:1042A000882309F448C7C456DF4F68817981CC5907
:1042B000D040C656DF4FE881F981CA59D0400995F0
:1042C000C257DF4FE880F980CE58D040FFEFEF1A99
:1042D000FF0AC557DF4FB982A882CB58D040C856D5
:1042E000DF4F19830883C859D040C257DF4FF98286
:1042F000E882CE58D040C557DF4FA880B980CB5850
:10430000D040BDCFF8018491853259F5C856DF4FB2
:1043100028813981C859D0402E5F3F4FC856DF4FA2
:1043200039832883C859D040C456DF4F68817981CA
:10433000CC59D040C656DF4FE881F981CA59D040E8
:104340000995C257DF4FE880F980CE58D040FFEF83
:10435000EF1AFF0AC557DF4FB982A882CB58D04069
:10436000C4CFC256DF4F1882CE59D040C357DF4F5B
:104370001882CD58D040C057DF4F1882C059D04066
:10438000CF56DF4F1882C159D040F8012491C8019F
:1043900001962B3209F458C060F42032E9F0233240
:1043A00009F05AC0F1E0C357DF4FF883CD58D04031
:1043B00051C02D3251F0203309F04EC021E0C256D9
:1043C000DF4F2883CE59D04045C0F1E0C057DF4FC2
:1043D000F883C059D0403EC0232D2C7F322ECF56BB
:1043E000DF4F3881C159D040332ACE56DF4F488144
:1043F000C259D04040FB32F8C057DF4F5881C059F6
:10440000D04050FB33F820FA34F8CD56DF4FA88166
:10441000C359D040A0FB35F8C357DF4FB881CD5802
:10442000D040B0FB36F8CC56DF4FE881C459D040BD
:10443000E0FB37F8232D237069F441E0CF56DF4FBE
:104440004883C159D04006C031E0CF56DF4F388392
:10445000C159D0408C0199CFC357DF4F5881CD58F7
:10446000D040C056DF4F5883C05AD040F801249145
:104470002A3221F0612C712C3AE025C095012E5F83
:104480003F4FD5016D907C9077FE09C07194619487
:104490007108B1E0C057DF4FB883C059D0408C01DC
:1044A000590116C02A33A0F40F5F1F4FFC018491FD
:1044B000A301349F3001359F700C112450E3651A1D
:1044C0007108680E711CC801F8012491203350F75F
:1044D000C057DF4FF881C059D040FF2329F0C256A2
:1044E000DF4F1882CE59D040F80184918E3249F5C1
:1044F000319684918A3229F08F01412C512C3AE077
:104500001AC0D5014D905C900E5F1F4FF501329699
:104510005F011AC02A33C0F40F5F1F4FFC01849162
:10452000A201349F2001359F500C112450E3451AFD
:104530005108480E511CC801F8012491203350F74E
:1045400003C044244A94542CF8012491C8010196D4
:10455000283699F018F42C3439F017C02C3621F095
:104560002A3799F4212C02C0222423948C01CD56A1
:10457000DF4F1882C359D0400EC08C01F1E0CD56F8
:10458000DF4FF883C359D04005C0CD56DF4F1882A6
:10459000C359D040212C98012F5F3F4FC856DF4FA1
:1045A00039832883C859D040F801D490C956DF4FC9
:1045B000D882C759D040F5E6DF1609F402C2FD15CE
:1045C000ECF023E5D21609F453C02D1564F035E460
:1045D000D31609F4F6C147E4D41609F4E1C1DD208D
:1045E00009F46FC42AC053E6D51671F15D150CF4B9
:1045F000C6C088E5D81609F48DC01FC090E7D9164B
:1046000009F471C09D1564F0A7E6DA1609F4C8C173
:10461000DA160CF4D1C1B9E6DB1609F4B0C00DC04E
:10462000E5E7DE1609F476C0F8E7DF1609F46DC099
:1046300023E7D21202C0F12C1DC0C557DF4FB9824B
:10464000A882CB58D04049C4A5014E5F5F4FC557E3
:10465000DF4F59834883CB58D040D5018C91898353
:10466000F12C8E010E5F1F4FFE0131964F0143C4A6
:10467000FF24F39495012E5F3F4FC557DF4F3983D9
:104680002883CB58D040D5018D909C908114910403
:1046900021F4A0E28A2EA1E09A2E57FE04C0F0E198
:1046A0004F2EF7E25F2E8401FF20C1F0F8018491C4
:1046B000882309F420C4C80188199909841595052F
:1046C0000CF019C40F5F1F4FF1CFC8018819990969
:1046D000841595050CF00FC40F5F1F4FD8018C9106
:1046E0008111F3CF08C4F5013296C557DF4FF98326
:1046F000E883CB58D040D5016D917C9180E090E06B
:10470000EFE3EE2EE1E0FE2E26C07FE4E72E71E01F
:10471000F72E04C06FE3E62E61E0F62E222071F042
:10472000F5013496C557DF4FF983E883CB58D04065
:10473000D5016D917D918D919C910DC0C501029621
:10474000F50160817181C557DF4F99838883CB580C
:10475000D04080E090E021E0CE56DF4F2883C25960
:10476000D04035E7D31205C0CE56DF4F1882C2596C
:10477000D040CF56DF4F1882C159D0403EC02220D2
:1047800079F0A5014C5F5F4FC557DF4F59834883D0
:10479000CB58D040D5016D917D918D919C910FC0EA
:1047A000F5013296C557DF4FF983E883CB58D040E7
:1047B000D5016D917C91882777FD8095982F97FF83
:1047C00013C090958095709561957F4F8F4F9F4F47
:1047D000CE56DF4F1882C259D040B2E0CF56DF4FDD
:1047E000B883C159D04005C0CE56DF4F1882C25998
:1047F000D0405FE3E52E51E0F52EE1E0CC56DF4FEF
:10480000E883C459D040611571058105910529F4EB
:10481000CC56DF4F1882C459D0404114510441F4A2
:10482000CC56DF4FF881C459D040FF2309F476C03D
:10483000CE56DF4F2881C259D0408E010A571F4FF4
:104840002130A9F02AE030E040E050E00E941B2C2B
:10485000F701E60FF71F8081D8018E938D01B90112
:10486000CA01611571058105910561F715C0FB014C
:10487000EF70FF27EE0DFF1D2081F80122938F01BD
:1048800044E096958795779567954A95D1F7611598
:1048900071058105910559F757FE43C0C256DF4F98
:1048A000F881CE59D040FF23E1F1232D2C7F322E09
:1048B000CF56DF4F3881C159D040332ACE56DF4F13
:1048C0004881C259D04040FB32F8C057DF4F588171
:1048D000C059D04050FB33F820FA34F8CD56DF4FA2
:1048E0008881C359D04080FB35F8C357DF4F98818A
:1048F000CD58D04090FB36F8CC56DF4FA881C45934
:10490000D040A0FB37F8232D237081E090E011F414
:1049100080E090E02301481A590A03C08E010A572B
:104920001F4FC757DF4F88819981C958D040801BDE
:10493000910BF80120E34F01841595051CF4229397
:104940000196F9CFC357DF4FB881CD58D040BB2374
:10495000A1F0CC56DF4FE881C459D040EE2369F076
:104960008D2D8F7D883549F4F4013197D082F2E0A6
:104970008F1A910880E3D4018C93C957DF4FE881E7
:10498000F981C758D0408E169F0608F0AEC247EB9B
:1049900052E064E873E081E793E00E948D29A5C2AC
:1049A000DA94DA94C956DF4FD882C759D04011E063
:1049B0004114510469F006C0C956DF4F1882C75927
:1049C000D04010E057FE07C026E0422E512C03C015
:1049D00044244394512C95012C5F3F4FC557DF4F22
:1049E00039832883CB58D040D501CD90DD90ED9010
:1049F000FC9020E030E0A901C701B6010E942D2AF9
:104A000087FF0AC0F7FAF094F7F8F094B2E0CF56B7
:104A1000DF4FB883C159D040C156DF4F1883CF59FB
:104A2000D04088248394912C8C0E9D1E860C971C5C
:104A300020E030E040E85FE3C701B6010E947C2B34
:104A400087FD32C0A12CB12C27EB33E44AEB51E5B2
:104A5000C701B6010E947C2B87FD0EC029EF32E012
:104A600045E150E5C701B6010E94312A6B017C0186
:104A7000EAE0AE0EB11CE8CF20E030E040E251E4C5
:104A8000C701B6010E947C2B87FD49C020E030E0C1
:104A900040E251E4C701B6010E94312A6B017C015A
:104AA000FFEFAF1ABF0AE8CF20E030E0A901C7014D
:104AB000B6010E942D2AA12CB12C882381F12FEF61
:104AC00036EE4BED5EE2C701B6010E942D2A1816A4
:104AD00074F029EF32E045E150E5C701B6010E94CC
:104AE000802B6B017C012AE0A21AB108E8CF20E0FC
:104AF00030E040E85FE3C701B6010E942D2A87FF3E
:104B00000EC020E030E040E251E4C701B6010E944F
:104B1000802B6B017C0131E0A31AB108E8CF11238F
:104B200021F1A414B50464F44CEFA4164FEFB406BD
:104B30003CF04A185B08C956DF4F1882C759D0406D
:104B400051E0451A510881E0C357DF4F9881CD5895
:104B5000D0409827C156DF4F9883CF59D040A1E06D
:104B6000C357DF4FA883CD58D040C956DF4FB88117
:104B7000C759D040B1114CC0B7FE3EC080E3E1E060
:104B8000F0E0EC0FFD1FE60DF71D8083411451048A
:104B900061F4C357DF4FE881CD58D040E11105C023
:104BA000F401319680E090E007C0F40132968EE285
:104BB000D40111968C93C20195012F5F3F4F280FAE
:104BC000391F40E38F018217930729F0009719F0EE
:104BD00041930197F7CF920120953095A216B30625
:104BE0000CF4D6C02C01E1E0F0E0CB56DF4FF983A6
:104BF000E883C559D0405CC0222733272A193B09D6
:104C0000CB56DF4F39832883C559D040840150C02B
:104C10008401CB56DF4F19821882C559D04048C055
:104C2000C701B6010E94992ACF55DF4F6883798367
:104C30008A839B83C15AD040CF55DF4F4881598129
:104C4000C15AD040BA01882777FD8095982F0E94DD
:104C5000CC2A9B01AC01C701B6010E94C82920E003
:104C600030E040E251E40E94802B6B017C0198010E
:104C70002F5F3F4FCF55DF4F8881C15AD040805DB5
:104C8000D8018C93CB56DF4F88819981C559D0408C
:104C90000196CB56DF4FE881F981C559D040EF2B03
:104CA00091F0CB56DF4F99838883C559D040890155
:104CB000CB56DF4F28813981C559D0404216530663
:104CC0000CF0AECF14C04114510439F4C357DF4F78
:104CD000F881CD58D040FF2339F098012E5F3F4F27
:104CE000EEE2D8011196EC9381E090E0DACF20E07B
:104CF00030E040EA50E4C701B6010E947C2B87FDFA
:104D000047C0F80181E090E030E322912E3251F06B
:104D1000820F8A3321F0808380E090E003C03083EB
:104D200081E090E08E169F0680F3892B89F1C956A9
:104D3000DF4F3881C759D0403323B9F0F8018E16C0
:104D40009F0678F4DF018E919D018E3239F4CF01F8
:104D50000297DC018C918083F90101C08083319737
:104D6000EECFBFEFAB1ABB0A0BC00F5F1F4FF801AE
:104D70008E169F0628F4DF018E918083FD01F8CF07
:104D800081E3E1E0F0E0EC0FFD1FE60DF71D80830D
:104D9000C156DF4FE881CF59D040EE2349F0F801EA
:104DA0008291803311F48F01FACF8E3209F48F0192
:104DB000C956DF4FF881C759D040FF23B9F1D80158
:104DC000FC93C8010296B7FE07C02DE211962C9302
:104DD000B194A194B10804C02BE2D80111962C9390
:104DE0008C01065F1F4F20E030E02F5F3F4FF8013E
:104DF0003196C5016AE070E00E94072C805DD80101
:104E00008C935B016115710511F08F01EECF22309B
:104E10003105DCF3E21BF30B199781918E9321503E
:104E2000310912161306CCF309501109C256DF4F8F
:104E3000B881CE59D040BB2309F45CC0E32DEC7F90
:104E40003E2ECF56DF4FF881C159D0403F2ACE5673
:104E5000DF4F2881C259D04020FB32F8C057DF4FC6
:104E60003881C059D04030FB33F820FA34F8CD56A1
:104E7000DF4F4881C359D04040FB35F8C056DF4F63
:104E80005881C05AD04050FB36F8CC56DF4F88814D
:104E9000C459D04080FB37F8232D237081E090E087
:104EA00011F480E090E09301281B390BF40140E3FA
:104EB0004F01C8018E1B9F0B82179307DCF44293AE
:104EC000F7CFC557DF4FB982A882CB58D040C8561C
:104ED000DF4F19830883C859D040F12C0FE111E04E
:104EE0008CE1882E81E0982E06C0F12C8E010A57A5
:104EF0001F4F01C0F12C0819190960167106DCF169
:104F0000932D9C7F392ECF56DF4FA881C159D040B9
:104F10003A2ACE56DF4FB881C259D040B0FB32F8A2
:104F2000C057DF4FE881C059D040E0FB33F820FA8A
:104F300034F8CD56DF4FF881C359D040F0FB35F837
:104F4000C056DF4F2881C05AD04020FB36F8CC56DF
:104F5000DF4F3881C459D04030FB37F86301C01AA5
:104F6000D10A232D237081E090E011F480E090E0DD
:104F7000C81AD90A02C0C12CD12CC057DF4F4881B2
:104F8000C059D040411122C031E0C31AD108D7FC2A
:104F90001DC0C456DF4F68817981CC59D04080E272
:104FA000C656DF4FE881F981CA59D0400995C257EA
:104FB000DF4F28813981CE58D0402F5F3F4FC257F5
:104FC000DF4F39832883CE58D040DECF432D4C7F2E
:104FD000342ECF56DF4F5881C159D040352ACE5696
:104FE000DF4F8881C259D04080FB32F8C057DF4F75
:104FF0009881C059D04090FB33F820FA34F8CD5650
:10500000DF4FA881C359D040A0FB35F8C056DF4F11
:10501000B881C05AD040B0FB36F8CC56DF4FE8819B
:10502000C459D040E0FB37F8832D837001F1813003
:1050300011F48BE201C08DE2C456DF4F68817981A3
:10504000CC59D040C656DF4FE881F981CA59D040CB
:105050000995C257DF4F28813981CE58D0402F5F44
:105060003F4FC257DF4F39832883CE58D040F110CD
:1050700009C0C257DF4FA880B980CE58D040A818C9
:10508000B90822C0C257DF4FE880F980CE58D0401F
:105090005401AE18BF080150110917FD2DC0F501CC
:1050A000EE0DFF1D8491C456DF4F68817981CC5984
:1050B000D040C656DF4FE881F981CA59D0400995E2
:1050C000FFEFEF1AFF0AE7CF7501E80CF91C01505A
:1050D000110917FD11C0C456DF4F68817981CC5981
:1050E000D040D4018D914D01C656DF4FE881F98142
:1050F000CA59D0400995E8CFC057DF4FF881C05951
:10510000D040FF2309F4F1C821E0C21AD108D7FC2E
:10511000ECC8C456DF4F68817981CC59D04080E219
:10512000C656DF4FE881F981CA59D0400995FFEF93
:10513000EF1AFF0AE9CFC257DF4F88819981CE5815
:10514000D040CC55DF4F0FB6F894DEBF0FBECDBFB9
:10515000DF91CF911F910F91FF90EF90DF90CF9053
:10516000BF90AF909F908F907F906F905F904F9087
:105170003F902F9008959091C00095FFFCCF8A300A
:1051800041F09091C00090649093C0008093C6005D
:1051900008959091C00090649093C0009DE090931A
:1051A000C6009091C00095FFFCCFEBCFCF939B0141
:1051B000C091C1004091C10048604093C10040913E
:1051C000C1004F794093C10040E050E06BEB78E2C2
:1051D0000E94F9208091C00086FFFCCFC093C100DF
:1051E000CF910895CF93C091C1009091C100986074
:1051F0009093C1009091C1009F799093C10060E0AD
:1052000070E00E94BB288091C00086FFFCCFC09355
:10521000C100CF910895CF93DF93CDB7DEB7FE01E4
:10522000359681919191BF010E94D628DF91CF914F
:1052300008951F93CF93DF931091C1002091C10077
:1052400028602093C1002091C1002F792093C100D4
:10525000FC018491EF012196882331F060E070E039
:105260000E94BB28FE01F5CF8091C00086FFFCCFD5
:105270001093C100DF91CF911F910895AF92BF921B
:10528000CF92DF92EF92FF920F931F93CF93DF9312
:105290006C0185E0E82EF12C00E117E2C0E0D0E0DF
:1052A0009AE0A92EB12CC601B8010E94072C6C010E
:1052B0006115710529F4209719F40130110529F4BD
:1052C00080E3860F0E94F2282196C801B5010E9452
:1052D000072C8B0181E0E81AF108E114F10419F7B9
:1052E000CE01DF91CF911F910F91FF90EF90DF9052
:1052F000CF90BF90AF900895CF93DF93EB010E94C2
:1053000019298AE30E94F228CE010E943E2983EBEC
:1053100093E0DF91CF910C941929CF93DF93EC01A7
:10532000CB01BA010E947C2986EB93E00E941929E7
:10533000CE010E9419298AE00E94F22881E090E0C3
:10534000DF91CF9108950F931F93CF93DF93182F81
:10535000092FEB01B901CA010E947C2985EA93E07B
:105360000E941929CE010E9419290F931F938CE9DD
:1053700093E09F938F930E940B290F900F900F90B3
:105380000F9081E090E0DF91CF911F910F910895F0
:105390005058BB27AA270ED075C166D130F06BD10B
:1053A00020F031F49F3F11F41EF45BC10EF4E09540
:1053B000E7FB51C1E92F77D180F3BA176207730772
:1053C0008407950718F071F49EF58FC10EF4E095EF
:1053D0000B2EBA2FA02D0B01B90190010C01CA01AF
:1053E000A0011124FF27591B99F0593F50F4503E5A
:1053F00068F11A16F040A22F232F342F4427585F4C
:10540000F3CF469537952795A795F0405395C9F763
:105410007EF41F16BA0B620B730B840BBAF091501B
:10542000A1F0FF0FBB1F661F771F881FC2F70EC0BA
:10543000BA0F621F731F841F48F48795779567958D
:10544000B795F7959E3F08F0B3CF9395880F08F076
:105450009927EE0F979587950895D9D008F481E0A4
:1054600008950CD00FC107D140F0FED030F021F4E8
:105470005F3F19F0F0C0511139C1F3C014D198F356
:105480009923C9F35523B1F3951B550BBB27AA27C5
:1054900062177307840738F09F5F5F4F220F331F37
:1054A000441FAA1FA9F333D00E2E3AF0E0E830D003
:1054B00091505040E695001CCAF729D0FE2F27D006
:1054C000660F771F881FBB1F261737074807AB07D4
:1054D000B0E809F0BB0B802DBF01FF2793585F4F49
:1054E0002AF09E3F510568F0B6C000C15F3FECF363
:1054F000983EDCF3869577956795B795F7959F5F0E
:10550000C9F7880F911D9695879597F90895E1E061
:10551000660F771F881FBB1F621773078407BA07C0
:1055200020F0621B730B840BBA0BEE1F88F7E0951B
:10553000089504D06894B111D9C00895BCD088F002
:105540009F5790F0B92F9927B751A0F0D1F0660F6F
:10555000771F881F991F1AF0BA95C9F712C0B1308A
:1055600081F0C3D0B1E00895C0C0672F782F88279D
:10557000B85F39F0B93FCCF3869577956795B395C9
:10558000D9F73EF490958095709561957F4F8F4F38
:105590009F4F0895E89409C097FB3EF4909580953D
:1055A000709561957F4F8F4F9F4F9923A9F0F92FE9
:1055B00096E9BB279395F695879577956795B79567
:1055C000F111F8CFFAF4BB0F11F460FF1BC06F5F4D
:1055D0007F4F8F4F9F4F16C0882311F096E911C05F
:1055E000772321F09EE8872F762F05C0662371F080
:1055F00096E8862F70E060E02AF09A95660F771F94
:10560000881FDAF7880F9695879597F90895990F6F
:105610000008550FAA0BE0E8FEEF16161706E8077C
:10562000F907C0F012161306E407F50798F0621B9D
:10563000730B840B950B39F40A2661F0232B242B72
:10564000252B21F408950A2609F4A140A6958FEF91
:10565000811D811D089597F99F6780E870E060E0E3
:1056600008959FEF80EC089500240A9416161706FB
:1056700018060906089500240A9412161306140643
:1056800005060895092E0394000C11F4882352F0A6
:10569000BB0F40F4BF2B11F460FF04C06F5F7F4F5E
:1056A0008F4F9F4F089557FD9058440F551F59F045
:1056B0005F3F71F04795880F97FB991F61F09F3FFF
:1056C00079F087950895121613061406551FF2CF28
:1056D0004695F1DF08C0161617061806991FF1CF78
:1056E00086957105610508940895E894BB2766279F
:1056F0007727CB0197F908958ADF08F48FEF089593
:105700000BD0C0CFB1DF28F0B6DF18F0952309F039
:10571000A2CFA7CF1124EACFC6DFA0F3959FD1F384
:10572000950F50E0551F629FF001729FBB27F00D4F
:10573000B11D639FAA27F00DB11DAA1F649F6627A4
:10574000B00DA11D661F829F2227B00DA11D621FF3
:10575000739FB00DA11D621F839FA00D611D221FAD
:10576000749F3327A00D611D231F849F600D211D91
:10577000822F762F6A2F11249F5750408AF0E1F034
:1057800088234AF0EE0FFF1FBB1F661F771F881F7D
:1057900091505040A9F79E3F510570F05CCFA6CFC5
:1057A0005F3FECF3983EDCF3869577956795B79568
:1057B000F795E7959F5FC1F7FE2B880F911D969592
:1057C000879597F90895DB018F939F930E94432C4F
:1057D000BF91AF91A29F800D911DA39F900DB29F8D
:1057E000900D11240895AA1BBB1B51E107C0AA1FED
:1057F000BB1FA617B70710F0A61BB70B881F991F72
:105800005A95A9F780959095BC01CD01089597FB15
:10581000072E16F4009407D077FD09D00E94F32BD1
:1058200007FC05D03EF4909581959F4F08957095A3
:1058300061957F4F0895A1E21A2EAA1BBB1BFD01A3
:105840000DC0AA1FBB1FEE1FFF1FA217B307E4075F
:10585000F50720F0A21BB30BE40BF50B661F771FB7
:10586000881F991F1A9469F7609570958095909597
:105870009B01AC01BD01CF010895EE0FFF1F059004
:10588000F491E02D09940E944E2CA59F900DB49F99
:10589000900DA49F800D911D11240895A29FB00129
:1058A000B39FC001A39F700D811D1124911DB29F54
:1058B000700D811D1124911D0895CF93DF938230C7
:1058C000910510F482E090E0E0911906F0911A063B
:1058D00020E030E0A0E0B0E0309739F14081518124
:1058E00048175907B8F04817590771F48281938116
:1058F000109729F013969C938E9312972CC0909337
:105900001A068093190627C02115310531F0421778
:10591000530718F0A901DB0101C0EF019A01BD0195
:10592000DF010280F381E02DD7CF21153105F9F099
:10593000281B390B2430310580F48A819B81611545
:10594000710521F0FB019383828304C090931A06B2
:1059500080931906FE01329644C0FE01E20FF31F48
:105960008193919322503109398328833AC0209141
:10597000170630911806232B41F420910201309133
:1059800003013093180620931706209100013091EF
:1059900001012115310541F42DB73EB740910401B5
:1059A00050910501241B350BE0911706F091180664
:1059B000E217F307A0F42E1B3F0B2817390778F0E6
:1059C000AC014E5F5F4F2417350748F04E0F5F1F45
:1059D00050931806409317068193919302C0E0E01C
:1059E000F0E0CF01DF91CF910895CF93DF9300973F
:1059F00009F487C0FC01329713821282C091190604
:105A0000D0911A06209781F420813181280F391F07
:105A100080911706909118068217930779F5F093F5
:105A20001806E09317066DC0DE0120E030E0AE17E7
:105A3000BF0750F412964D915C9113979D0141154B
:105A4000510509F1DA01F3CFB383A283408151817B
:105A5000840F951F8A179B0771F48D919C91119764
:105A6000840F951F02969183808312968D919C914D
:105A70001397938382832115310529F4F0931A0635
:105A8000E09319063EC0D9011396FC93EE9312974A
:105A90004D915D91A40FB51FEA17FB0779F4808142
:105AA0009181840F951F0296D90111969C938E9334
:105AB0008281938113969C938E931297E0E0F0E09D
:105AC0008A819B81009719F0FE01EC01F9CFCE018C
:105AD000029628813981820F931F209117063091F9
