:100000000C942B060C9448060C9448060C94480655
:100010000C9448060C9448060C9448060C94480628
:100020000C9448060C9448060C9448060C94480618
:100030000C9448060C9448060C94E00A0C9448066C
:100040000C9448060C9480070C9423070C94E50646
:100050000C9448060C9421180C9448060C944806FD
:100060000C9448060C944806756E6974203C205325
:1000700045525F434E5400626572746F732F637014
:10008000752F6176722F6472762F7365725F6D655E
:1000900067612E630073697A65203E2031006265D6
:1000A00072746F732F7374727563742F6669666FE1
:1000B0006275662E680066642D3E68772D3E727804
:1000C00062756666657200626572746F732F647222
:1000D000762F7365722E630066642D3E68772D3E21
:1000E000747862756666657200626572746F732FEC
:1000F0006472762F7365722E63002166642D3E69EB
:10010000735F6F70656E00626572746F732F6472D7
:10011000762F7365722E6300756E6974203C2063C0
:100120006F756E746F66287365725F68616E646C5C
:1001300065732900626572746F732F6472762F7312
:1001400065722E6300706F72742D3E69735F6F70FD
:10015000656E00626572746F732F6472762F7365BB
:10016000722E630066642D3E5F74797065203D3D9C
:10017000204B46545F53455249414C0062657274AE
:100180006F732F6472762F7365722E680021746905
:100190006D65725F696E697469616C697A65640026
:1001A000626572746F732F6472762F74696D6572F5
:1001B0002E63002674696D65722D3E6C696E6B004E
:1001C000626572746F732F6472762F74696D6572D5
:1001D0002E630066642D3E72656164006265727410
:1001E0006F732F696F2F6B66696C652E680066648C
:1001F0002D3E777269746500626572746F732F6942
:100200006F2F6B66696C652E68006275665F706F34
:10021000696E746572203E3D20627566006265728B
:10022000746F732F6D776172652F666F726D617475
:1002300077722E63006368616E6E656C0062657232
:10024000746F732F6E65742F617832352E6300637F
:10025000747800626572746F732F6E65742F6178A5
:1002600032352E63006973616C6E756D28632920C9
:100270007C7C2063203D3D2027202700626572742E
:100280006F732F6E65742F617832352E630063743F
:10029000782D3E6372635F6F7574203D3D20415839
:1002A00032355F4352435F434F52524543540062DD
:1002B0006572746F732F6E65742F617832352E639B
:1002C00000706174685F6C656E203E3D2032006294
:1002D0006572746F732F6E65742F617832352E637B
:1002E000007061746800626572746F732F6E65745C
:1002F0002F617832352E630066642D3E636C656134
:100300007265727200626572746F732F696F2F6B02
:1003100066696C652E680066642D3E6572726F7248
:1003200000626572746F732F696F2F6B66696C65FD
:100330002E680025733A204F6E6C79206672616DCD
:10034000657320776974686F7574206C6179657264
:10035000332070726F746F636F6C206172652068F8
:10036000616E646C65642C20676F74205B2530328D
:10037000585D0A0025733A204F6E6C79205549204C
:100380006672616D6573206172652068616E646C70
:1003900065642C20676F74205B253032585D0A003D
:1003A00025733A204368616E6E656C206572726FCA
:1003B00072205B253034785D0A0000008911122319
:1003C0009B322446AD573665BF74488CC19D5AAFE9
:1003D000D3BE6CCAE5DB7EE9F7F8811008019333E0
:1003E0001A22A5562C47B7753E64C99C408DDBBFC9
:1003F00052AEEDDA64CBFFF976E802218B301002C1
:1004000099132667AF763444BD554AADC3BC588EA8
:10041000D19F6EEBE7FA7CC8F5D983310A2091129F
:100420001803A7772E66B5543C45CBBD42ACD99E88
:10043000508FEFFB66EAFDD874C904428D531661F4
:100440009F702004A9153227BB364CCEC5DF5EED68
:10045000D7FC6888E1997AABF3BA85520C4397715F
:100460001E60A1142805B3373A26CDDE44CFDFFD48
:1004700056ECE9986089FBBB72AA06638F72144040
:100480009D512225AB343006B9174EEFC7FE5CCC28
:10049000D5DD6AA9E3B8788AF19B87730E6295501F
:1004A0001C41A3352A24B1163807CFFF46EEDDDC08
:1004B00054CDEBB962A8F99A708B088481951AA77C
:1004C00093B62CC2A5D33EE1B7F04008C919522B10
:1004D000DB3A644EED5F766DFF7C899400859BB7B7
:1004E00012A6ADD224C3BFF136E0C1184809D33BF0
:1004F0005A2AE55E6C4FF77D7E6C0AA583B4188698
:1005000091972EE3A7F23CC0B5D14229CB38500ACF
:10051000D91B666FEF7E744CFD5D8BB502A4999676
:100520001087AFF326E2BDD034C1C3394A28D11AAF
:10053000580BE77F6E6EF55C7C4D0CC685D71EE5CB
:1005400097F42880A1913AA3B3B2444ACD5B56698F
:10055000DF78600CE91D722FFB3E8DD604C79FF536
:1005600016E4A9902081BBB332A2C55A4C4BD7796F
:100570005E68E11C680DF33F7A2E0EE787F61CC417
:1005800095D52AA1A3B03882B193466BCF7A54484F
:10059000DD59622DEB3C700EF91F8FF706E69DD4F6
:1005A00014C5ABB122A0B9923083C77B4E6AD5582F
:1005B0005C49E33D6A2CF11E780F6368203C3D20C6
:1005C00035004D6F64656D2F686172647761726587
:1005D0002E630066642D3E5F74797065203D3D207A
:1005E0004B46545F4146534B004D6F64656D2F6120
:1005F00066736B2E6800808183848687898A8C8EDF
:100600008F9192949597989A9B9D9EA0A2A3A5A640
:10061000A7A9AAACADAFB0B2B3B5B6B7B9BABCBDB5
:10062000BEC0C1C2C4C5C6C8C9CACBCDCECFD0D248
:10063000D3D4D5D6D7D9DADBDCDDDEDFE0E1E2E307
:10064000E4E5E6E7E8E9EAEAEBECEDEEEEEFF0F1FF
:10065000F1F2F3F3F4F5F5F6F6F7F8F8F9F9FAFA3A
:10066000FAFBFBFCFCFCFDFDFDFDFEFEFEFEFEFFBD
:10067000FFFFFFFFFFFF53796D626F6C3A20256328
:100680000A0053796D626F6C207461626C653A2068
:100690007374616E646172640A0053796D626F6C89
:1006A000207461626C653A20616C7465726E61746D
:1006B000650A0044697265637469766974793A20E1
:1006C00025640A004761696E3A2025640A0048657E
:1006D000696768743A2025640A00506F7765723A3A
:1006E0002025640A004175746F2D61636B206D6570
:1006F0007373616765733A204F66660A00417574CB
:100700006F2D61636B206D657373616765733A204C
:100710004F6E0A0050617468323A20252E36732DD0
:1007200025640A0050617468313A20252E36732DF5
:1007300025640A0044657374696E6174696F6E3A6A
:1007400020252E36732D25640A0043616C6C736975
:10075000676E3A20252E36732D25640A00436F6E8E
:1007600066696775726174696F6E3A0A00300A00D3
:100770004572726F723A20496E76616C69642063CB
:100780006F6D6D616E640A00310A004D65737361AF
:100790006765206175746F2D61636B206469736197
:1007A000626C65640A00310A004D657373616765A8
:1007B000206175746F2D61636B20656E61626C657D
:1007C000640A00310A0052657472696564206C61C4
:1007D0007374206D6573736167650A00310A000ADE
:1007E000002D25640A004D6573736167652072658D
:1007F00063697069656E743A20252E367300310A7C
:10080000000A002D25640A004D6573736167652039
:10081000726563697069656E743A20252E367300BF
:10082000310A0053656C6563746564207374616E8E
:10083000646172642073796D626F6C207461626CA4
:10084000650A0053656C656374656420616C74654A
:10085000726E6174652073796D626F6C2074616271
:100860006C650A0053796D626F6C20736574207437
:100870006F2025630A004469726563746976697440
:10088000792073657420746F2025646465670A009D
:10089000446972656374697669747920736574203C
:1008A000746F206F6D6E690A00310A00310A0047CB
:1008B00061696E2073657420746F20256464420A38
:1008C00000310A00416E74656E6E6120686569676B
:1008D00068742073657420746F20256C646D2041EA
:1008E00041540A00310A00506F77657220736574B5
:1008F00020746F202564770A00310A004C6F6E6700
:100900007469747564652073657420746F20252E76
:1009100039730A00310A004C61746974756465208A
:1009200073657420746F20252E38730A00310A0015
:100930005072696E7420494E464F2064697361623B
:100940006C65640A00310A005072696E7420494E69
:10095000464F20656E61626C65640A00310A005082
:1009600072696E7420444154412064697361626C01
:1009700065640A00310A005072696E742044415463
:100980004120656E61626C65640A00310A00507234
:10099000696E7420504154482064697361626C65CB
:1009A000640A00310A005072696E74205041544844
:1009B00020656E61626C65640A00310A00507269DC
:1009C0006E74204453542064697361626C65640AD8
:1009D00000310A005072696E742044535420656ED1
:1009E00061626C65640A00310A005072696E74209D
:1009F0005352432064697361626C65640A00310A72
:100A0000005072696E742053524320656E61626CAF
:100A100065640A00310A0050617468323A20252E5C
:100A200036732D25640A00310A0050617468313A2A
:100A300020252E36732D25640A00310A0044657383
:100A400074696E6174696F6E3A20252E36732D2598
:100A5000640A00310A0043616C6C7369676E3A2066
:100A6000252E36732D25640A00310A005061746802
:100A7000323A20252E36732D25640A00310A0050A3
:100A8000617468313A20252E36732D25640A0031B1
:100A90000A0044657374696E6174696F6E3A20254B
:100AA0002E36732D25640A00310A0043616C6C7385
:100AB00069676E3A20252E36732D25640A00310AA7
:100AC000004D6573736167652073656E740A00314C
:100AD0000A004C6F636174696F6E20757064617495
:100AE000652073656E740A00310A005061636B659E
:100AF000742073656E740A00310A00436F6E666974
:100B00006775726174696F6E2073617665640A003F
:100B1000300A004572726F723A204E6F2073746F04
:100B200072656420636F6E66696775726174696F60
:100B30006E20746F206C6F6164210A00436F6E66D3
:100B4000696775726174696F6E206C6F616465644A
:100B50000A00310A00436F6E6669677572617469D5
:100B60006F6E20636C65617265642E2052657374CC
:100B700061727420746F206C6F61642064656661BB
:100B8000756C74732E0A002D2D2D2D2D2D2D2D2DD0
:100B90002D2D2D2D2D2D0A004D6F64656D20726554
:100BA0006164790A0044656661756C7420636F6ED8
:100BB00066696775726174696F6E206C6F616465D8
:100BC00064210A00756E7369676E65642E696F2F04
:100BD0006D6963726F617072730A004D6963726F41
:100BE000415052532076302E32610A002D2D2D2D8A
:100BF0002D2D2D2D2D2D2D2D2D2D2D0A00627566BF
:100C00005F706F696E746572203E3D20627566008C
:100C1000626572746F732F6D776172652F666F7284
:100C20006D617477722E6300203D20307825700A44
:100C300000496E76616C6964207074723A20003AE3
:100C40002000417373657274696F6E206661696C10
:100C500065643A20000011241FBECFEFD8E0DEBF4C
:100C6000CDBF12E0A0E0B1E0E4E1FFE602C00590F4
:100C70000D92A233B107D9F716E0A2E3B2E001C0AA
:100C80001D92AD3DB107E1F70E9449170C948837DA
:100C90000C9400001092C00088E98093C100089570
:100CA0001092C1000895FC012285211105C021E0A8
:100CB000228788EB8093C10008959A01AB01CA0195
:100CC000B9019695879577956795605C7D4B804FC8
:100CD0009F4F0E949E35215031093093C5002093CB
:100CE000C4000895E2ECF0E08081A4E0660F771F75
:100CF000AA95E1F78F7C862B808308959FB7F8949F
:100D000084B1886284B99FBF8FB7F894229A8FBF4D
:100D10008FB7F89424988FBF80ED8CBD8CB581601F
:100D20008CBD8DB58E7F8DBD08951CBC9FB7F8948A
:100D300084B1837C84B99FBF089508950895FC0110
:100D4000828508956FB7F894DC011A962C911A9752
:100D5000211120C0E0913A06F0913B06478D50A149
:100D600021A132A142175307A9F021E01A962C9332
:100D7000A78DB0A185A196A1A817B90719F483A1E1
:100D800094A104C0A78DB0A1CD01019690A3878F37
:100D90008C918EBD6FBF0895CF93DF93EC018230AD
:100DA000910544F049E953E067E770E088E690E098
:100DB0000E942D332BE02C9FC0012D9F900D1124FC
:100DC0008A5F9E4FDF91CF9108951F920F920FB6C9
:100DD0000F9211242F933F938F939F93AF93BF93C1
:100DE000EF93FF93E0913806F0913906278D30A1FB
:100DF00081A192A12817390731F488E98093C100B5
:100E00001092100113C0A78DB0A185A196A1A817BB
:100E1000B90719F483A194A104C0A78DB0A1CD0195
:100E2000019690A3878F8C918093C600FF91EF91DC
:100E3000BF91AF919F918F913F912F910F900FBED6
:100E40000F901F9018951F920F920FB60F921124BA
:100E50002F933F934F935F938F939F93AF93BF9342
:100E6000EF93FF93E0913806F091390697A58091B2
:100E7000C0008871892B87A75091C60027A130A593
:100E800083A594A52817390739F421A532A585A58E
:100E900096A52817390761F021A532A587A190A54D
:100EA000019741E02817390709F040E0842F01C07D
:100EB00081E080FF04C087A5816087A712C0A1A53B
:100EC000B2A55C9321A532A585A596A5281739075B
:100ED00019F483A594A503C081A592A5019692A7B4
:100EE00081A7FF91EF91BF91AF919F918F915F91FA
:100EF0004F913F912F910F900FBE0F901F9018951B
:100F00001F920F920FB60F9211242F933F934F937E
:100F10008F939F93AF93BF93EF93FF93E0913A0624
:100F2000F0913B0627A130A583A594A52817390782
:100F300039F421A532A585A596A52817390761F0B2
:100F400021A532A587A190A5019741E0281739076F
:100F500009F040E0842F01C081E080FD13C08EB510
:100F6000A1A5B2A58C9321A532A585A596A5281784
:100F7000390719F483A594A503C081A592A501960C
:100F800092A781A7E0913A06F0913B06278D30A108
:100F900081A192A12817390799F0A78DB0A185A149
:100FA00096A1A817B90719F483A194A104C0A78D2D
:100FB000B0A1CD01019690A3878F8C918EBD02C008
:100FC00010921B01FF91EF91BF91AF919F918F9173
:100FD0004F913F912F910F900FBE0F901F9018953A
:100FE0009FB7F89483E085BB14BC15BC82E084BD38
:100FF00085B5836085BD16BC89EF87BDEEE6F0E060
:1010000080818E7F80838081826080839FBF0895EE
:10101000CF93DF93EC01FB015FB7F894278D30A1EC
:1010200083A194A128173907E9F421A132A185A150
:1010300096A128173907B1F481E05FBF80FD11C088
:101040004FB7F894A1A1B2A1CC9321A132A185A15F
:1010500096A12817390799F483A194A192A381A39B
:1010600014C0DACF81A192A1278D30A1215031097E
:1010700041E08217930709F040E0842FDECF21A1E1
:1010800032A12F5F3F4F32A321A34FBF80A991A967
:10109000DC01ED91FC910084F185E02D0995CE01F4
:1010A0009927DF91CF910895FC014FB7F89427A1BC
:1010B00030A581A592A54FBF2817390739F087A51C
:1010C000897B79F024C087A5897BC9F74FB7F8944D
:1010D00027A130A581A592A54FBF2817390799F3FD
:1010E000EECF2FB7F894A7A1B0A585A596A5A81710
:1010F000B90719F483A594A504C0A7A1B0A5CD0193
:10110000019690A787A38C912FBF90E008958FEF51
:101110009FEF0895AF92BF92CF92DF92EF92FF922E
:101120000F931F93CF93DF937C015B016A01FC0156
:1011300000891189228933890C34124525443345AD
:1011400041F04CEB50E06CE771E084E691E00E94E6
:101150002D33E50100E010E00C151D0559F0C70125
:101160000E9454088F3F2FEF920721F00F5F1F4F0F
:101170008993F2CFC801DF91CF911F910F91FF901A
:10118000EF90DF90CF90BF90AF900895AF92BF9255
:10119000CF92DF92EF92FF920F931F93CF93DF9343
:1011A0007C015B016A01FC01008911892289338974
:1011B0000C3412452544334541F04CEB50E06CE7CC
:1011C00071E084E691E00E942D33E50100E010E03B
:1011D0000C151D0561F08991B701992787FD909540
:1011E0000E940808019619F00F5F1F4FF1CFC80148
:1011F000DF91CF911F910F91FF90EF90DF90CF90F3
:10120000BF90AF900895CF93DF93EC01488959893F
:101210006A897B894C3452456544734541F04CEBF7
:1012200050E06CE771E084E691E00E942D338FA5D9
:1012300090E0DF91CF910895CF93DF93EC0148893F
:1012400059896A897B894C3452456544734541F01C
:101250004CEB50E06CE771E084E691E00E942D33A6
:101260001FA6DF91CF910895CF93DF93EC014889BA
:1012700059896A897B894C3452456544734549F0E4
:101280004CEB50E06CE771E084E691E00E942D3376
:1012900000C02F8D38A189A19AA128173907C9F755
:1012A00088A999A9DC01ED91FC910284F385E02DD8
:1012B00009958111EECF80E090E0DF91CF91089504
:1012C000FC014FB7F89427A130A581A592A54FBF87
:1012D00028173907B1F02FB7F894A7A1B0A585A5B5
:1012E00096A5A817B90719F483A594A504C0A7A1CA
:1012F000B0A5CD01019690A787A38C912FBF90E058
:1013000008958FEF9FEF08956FB7F894FC0147A100
:1013100050A521A532A56FBF81E04217530709F4FC
:1013200080E00895DC01D0968D919C91D197DC01ED
:10133000ED91FC910480F581E02D0994EF92FF92EC
:101340000F931F93CF93DF93EC018B0162307105F4
:1013500040F042E651E064E371E088E191E00E94F0
:101360002D33F801EE0FFF1FE85CF94FD183C083E6
:101370008E8D882341F045E651E067E071E08AEF09
:1013800090E00E942D3381E08E8F1D8F0C8FC8015D
:101390000E94CC0699AB88ABDC0112968D919C9192
:1013A0001397892B41F44DE651E069EE70E088ED2A
:1013B00090E00E942D33E8A9F9A984819581892BB9
:1013C00041F44EE651E067EC70E086EB90E00E945D
:1013D0002D33E8A9F9A9E680F78002811381B2E0F4
:1013E000EB16F10440F441E251E06EE970E085E96A
:1013F00090E00E942D331CA30BA31AA309A318A3EA
:101400000F8FC7010197800F911F9EA38DA3E8A99D
:10141000F9A9E084F18404811581E2E0EE16F1047B
:1014200040F441E251E06EE970E085E990E00E940D
:101430002D331CA70BA71AA709A718A70FA3C7012D
:101440000197800F911F9EA78DA788A999A9DC01FC
:10145000ED91FC910190F081E02DBE01099540E8ED
:1014600055E260E070E0CE010E9492091FA6CE0115
:10147000DF91CF911F910F91FF90EF9008954FB79B
:10148000F894FC0121A532A530A727A34FBF0895EA
:101490004FB7F894FC0121A132A130A3278F4FBF91
:1014A0000895CF93DF93EC010E943F0ACE01DF91B4
:1014B000CF910C94480ACF93DF93EC014889598966
:1014C0006A897B894C3452456544734541F04CEB45
:1014D00050E06CE771E084E691E00E942D338E8D40
:1014E000811108C04BE851E063E571E085E491E0CB
:1014F0000E942D331E8ECE010E94340988A999A91D
:10150000DC01ED91FC910280F381E02D099519AA8F
:1015100018AACE010E94510A80E090E0DF91CF919D
:101520000895CF93DF93EC01488959896A897B89B3
:101530004C3452456544734541F04CEB50E06CE748
:1015400071E084E691E00E942D33CE010E945B0A97
:101550006C8D7D8DCE010E949E09CE01DF91CF91D1
:101560000895FC01CB0122E3DF011D922A95E9F7E2
:101570004CE452E565E473E5408B518B628B738BD1
:1015800021E93AE0358324832BE53AE0378326834B
:101590002AE838E03183208326EC38E03383228345
:1015A00024E339E03387228723E039E03587248735
:1015B0002CE139E037872687BC01CF010C949E09C6
:1015C0001F920F920FB60F9211240F931F932F9318
:1015D0003F934F935F936F937F938F939F93AF93BB
:1015E000BF93CF93DF93EF93FF9380913C0690914D
:1015F0003D06A0913E06B0913F060196A11DB11D8A
:1016000080933C0690933D06A0933E06B0933F0620
:101610000BEA1AEBC0917202D09173028881998112
:10162000892BD1F18FB7F89440913C0650913D063B
:1016300060913E0670913F068FBF88859985AA8587
:10164000BB85481B590B6A0B7B0B77FD25C0CF3F31
:10165000D10509F048F42BEC30E040EC51E063EBAD
:1016600071E0CE010E944333EA81FB818881998138
:1016700091838083E881F9818A819B81938382832E
:101680001B821A82198218821B8B0A8BEC85FD85BE
:10169000CE010C960995BECFFF91EF91DF91CF91CE
:1016A000BF91AF919F918F917F916F915F914F917A
:1016B0003F912F911F910F910F900FBE0F901F9090
:1016C000189586E792E090937302809372021092CD
:1016D000750210927402109277021092760282E7DD
:1016E00092E0909379028093780210923C061092D7
:1016F0003D0610923E0610923F060E94F007809130
:101700004006882341F041E951E060EA71E08DE84C
:1017100091E00E942D3381E0809340060895EF927E
:10172000FF920F931F93CF93DF931F92CDB7DEB736
:101730007C018B018983DB0112968D919C9113971B
:10174000892B41F44EE051E068EF71E08EEE91E0BC
:101750000E942D33D8011296ED91FC91139741E030
:1017600050E0BE016F5F7F4FC8010995019719F4E2
:10177000C701992702C08FEF9FEF0F90DF91CF91A4
:101780001F910F91FF90EF9008950F931F93CF93A8
:10179000DF931F92CDB7DEB78C01DC018D919C9158
:1017A000892B41F442EF50E06CED71E083ED91E064
:1017B0000E942D33D801ED91FC9141E050E0BE0133
:1017C0006F5F7F4FC8010995019719F4898190E0F7
:1017D00002C08FEF9FEF0F90DF91CF911F910F917C
:1017E0000895CF93DF93CDB7DEB79E01275F3F4FBC
:1017F0004D815E816FE87BE08F8198850E941E0C91
:10180000DF91CF9108950F931F93CF93DF938C01B6
:10181000EB018991882359F0B801992787FD9095AC
:101820000E948F0B8F3F2FEF920799F702C080E045
:1018300090E0DF91CF911F910F9108952F923F92E9
:101840004F925F926F927F928F929F92AF92BF92D0
:10185000CF92DF92EF92FF920F931F93CF93DF937C
:10186000CDB7DEB7C45AD1090FB6F894DEBF0FBEAC
:10187000CDBFFC01C856DF4F79836883C859D0407B
:10188000C656DF4F59834883CA59D0405901C257C1
:10189000DF4F19821882CE58D0409E012F5F3F4FF4
:1018A000C957DF4F39832883C758D040AE014A5704
:1018B0005F4FC757DF4F59834883C958D0409F01B6
:1018C0002F5F3F4FC456DF4F39832883CC59D04018
:1018D0008081853291F1882309F427C7C656DF4FEE
:1018E00068817981CA59D040C856DF4FE881F981B3
:1018F000C859D0400995C257DF4FC880D980CE580B
:10190000D040FFEFCF1ADF0AC557DF4FB982A88258
:10191000CB58D040C257DF4FD982C882CE58D04072
:10192000C557DF4FA880B980CB58D040C456DF4F91
:10193000E881F981CC59D040C2CF8181853251F400
:10194000AF014E5F5F4FC456DF4F59834883CC5978
:10195000D040C4CFC456DF4FA881B981CC59D04004
:10196000C256DF4F1882CE59D040C357DF4F18827E
:10197000CD58D040CF56DF4F1882C159D040CE56F7
:10198000DF4F1882C259D040FD018D918B3209F48E
:101990005EC060F48032E9F0833209F05FC031E06C
:1019A000C357DF4F3883CD58D040EECF8D3251F042
:1019B000803309F053C041E0C256DF4F4883CE590F
:1019C000D040E2CF21E0CF56DF4F2883C159D0402D
:1019D000DBCF392D3C7F932ECE56DF4F4881C25945
:1019E000D040942ACD56DF4F5881C359D04050FB88
:1019F00092F8CF56DF4F8881C159D04080FB93F8D1
:101A0000C057DF4F9881C059D04090FB94F8CC5616
:101A1000DF4FE881C459D040E0FB95F8C357DF4F52
:101A2000F881CD58D040F0FB96F8CB56DF4F288197
:101A3000C559D04020FB97F8892D837009F0A4CFB9
:101A400081E0CE56DF4F8883C259D0409DCF51E010
:101A5000CE56DF4F5883C259D04096CFC357DF4F81
:101A60009881CD58D040C056DF4F9883C05AD0409F
:101A70008A3229F0DF01212C312C2AE013C0C50164
:101A80000296D5012D903C9037FE09C031942194E7
:101A90003108B1E0CF56DF4FB883C159D0403196FD
:101AA0005C0112C0FD018D9190ED980F9A3060F4A9
:101AB000F1012E9F10012F9F300C1124F0E32F1AFB
:101AC0003108280E311CEECFCF56DF4F2881C15987
:101AD000D040222329F0C256DF4F1882CE59D04081
:101AE00080818E3221F581818A3231F0DF011196B9
:101AF000612C712C2AE009C0D5016D907C90329642
:101B000095012E5F3F4F590115C0FD018D9190ED5C
:101B1000980F9A3078F4A301249F3001259F700C10
:101B2000112450E3651A7108680E711CEECF66240B
:101B30006A94762CDF018D918836D9F018F48C34B4
:101B400059F01FC08C3641F08A37D9F4C057DF4FA7
:101B50001882C059D04006C081E0C057DF4F88834B
:101B6000C059D040FD01CC56DF4F1882C459D04037
:101B700012C0FD0191E0CC56DF4F9883C459D0408C
:101B800005C0CC56DF4F1882C459D040C057DF4F34
:101B90001882C059D040DF011196C456DF4FB98377
:101BA000A883CC59D0408080B5E68B1609F408C2D2
:101BB000B815ECF023E5821609F453C0281564F03B
:101BC00035E4831609F4FCC147E4841609F4F0C136
:101BD000882009F465C42AC053E6851671F15815AA
:101BE0000CF4CBC088E5881609F48DC01FC090E7BF
:101BF000891609F471C0981564F0A7E68A1609F4ED
:101C0000D7C18A160CF4DBC1B9E68B1609F4B5C04E
:101C10000DC0E5E78E1609F476C0F8E78F1609F4D3
:101C20006DC023E7821202C0D12C1DC0C557DF4F03
:101C3000B982A882CB58D0403FC4A5014E5F5F4F08
:101C4000C557DF4F59834883CB58D040D5018C917D
:101C50008983D12C8E010E5F1F4FFE0131965F01EB
:101C600039C4DD24D39495012E5F3F4FC557DF4F14
:101C700039832883CB58D040D501AD90BC90A114B6
:101C8000B10421F4A0E2AA2EA1E0BA2E77FE04C08E
:101C9000F0E16F2EF7E27F2E8501DD20C1F0F80123
:101CA0008491882309F416C4C8018A199B098615F2
:101CB00097050CF00FC40F5F1F4FF1CFC8018A19B1
:101CC0009B09861597050CF005C40F5F1F4FD801BF
:101CD0008C918111F3CFFEC3F5013296C557DF4FCA
:101CE000F983E883CB58D040D5016D917C9180E099
:101CF00090E0E4E7EE2EE1E0FE2E2BC074E8E72E44
:101D000071E0F72E04C064E7E62E61E0F62EC057BE
:101D1000DF4FB881C059D040BB2371F0F501349634
:101D2000C557DF4FF983E883CB58D040D5016D917B
:101D30007D918D919C910DC0C5010296F501608148
:101D40007181C557DF4F99838883CB58D04080E09D
:101D500090E021E0CD56DF4F2883C359D04035E7CE
:101D6000831205C0CD56DF4F1882C359D040CE56DE
:101D7000DF4F1882C259D04042C0C057DF4F488160
:101D8000C059D040442371F0C5010496C557DF4FB8
:101D900099838883CB58D040D5016D917D918D91E9
:101DA0009C910FC0F5013296C557DF4FF983E88348
:101DB000CB58D040D5016D917C91882777FD8095D7
:101DC000982F97FF13C090958095709561957F4FE0
:101DD0008F4F9F4FCD56DF4F1882C359D040B2E08E
:101DE000CE56DF4FB883C259D04005C0CD56DF4F25
:101DF0001882C359D04054E7E52E51E0F52EE1E0BA
:101E0000CB56DF4FE883C559D04061157105810578
:101E1000910529F4CB56DF4F1882C559D040611483
:101E2000710441F4CB56DF4FF881C559D040FF23F0
:101E300009F47CC0CD56DF4F2881C359D0408E01B4
:101E40000A571F4F2130A9F02AE030E040E050E06F
:101E50000E949E35F701E60FF71F8081D8018E930F
:101E60008D01B901CA01611571058105910561F7FF
:101E700015C0FB01EF70FF27EE0DFF1D2081F8015B
:101E800022938F0144E096958795779567954A95BB
:101E9000D1F7611571058105910559F777FE49C0A4
:101EA000C256DF4FF881CE59D040FF2309F441C01C
:101EB000292D2C7F922ECE56DF4F3881C259D0402B
:101EC000932ACD56DF4F4881C359D04040FB92F84A
:101ED000CF56DF4F5881C159D04050FB93F8C057BF
:101EE000DF4F8881C059D04080FB94F8CC56DF4F3B
:101EF0009881C459D04090FB95F8C357DF4FA88113
:101F0000CD58D040A0FB96F8CB56DF4FB881C559CD
:101F1000D040B0FB97F8292D237081E090E011F4B8
:101F200080E090E03101681A790A03C08E010A57F7
:101F30001F4FC757DF4F88819981C958D040801BF8
:101F4000910BF80120E35F01861597051CF422939D
:101F50000196F9CFC357DF4FE881CD58D040EE232B
:101F6000A1F0CB56DF4FF881C559D040FF2369F06F
:101F7000882D8F7D883549F4F5013197808222E0E4
:101F8000A21AB10880E3D5018C93C957DF4FE881CD
:101F9000F981C758D040AE16BF0608F095C247EB8E
:101FA00052E06DE172E08AE092E00E942D338CC233
:101FB0008A948A9411E06114710449F002C0812C62
:101FC00010E077FE07C026E0622E712C03C0662465
:101FD0006394712C95012C5F3F4FC557DF4F3983B8
:101FE0002883CB58D040D501CD90DD90ED90FC906A
:101FF00020E030E0A901C701B6010E94CD3387FF80
:102000000AC0F7FAF094F7F8F094B2E0CE56DF4F3A
:10201000B883C259D040C156DF4F1883CF59D04042
:10202000AA24A394B12CAC0EBD1EA20CB31C20E0BC
:1020300030E040E85FE3C701B6010E941C3587FD30
:1020400032C0412C512C27EB33E44AEB51E5C70158
:10205000B6010E941C3587FD0EC029EF32E045E134
:1020600050E5C701B6010E94D1336B017C01EAE063
:102070004E0E511CE8CF20E030E040E251E4C701B1
:10208000B6010E941C3587FD49C020E030E040E2E7
:1020900051E4C701B6010E94D1336B017C01FFEF0F
:1020A0004F1A5F0AE8CF20E030E0A901C701B6016E
:1020B0000E94CD33412C512C882381F12FEF36EE35
:1020C0004BED5EE2C701B6010E94CD33181674F0E5
:1020D00029EF32E045E150E5C701B6010E94203505
:1020E0006B017C012AE0421A5108E8CF20E030E081
:1020F00040E85FE3C701B6010E94CD3387FF0EC001
:1021000020E030E040E251E4C701B6010E942035F2
:102110006B017C0131E0431A5108E8CF112301F132
:102120004614570444F44CEF44164FEF54061CF089
:1021300064187508812C51E0651A710881E0C35755
:10214000DF4F9881CD58D0409827C156DF4F9883F4
:10215000CF59D040A1E0C357DF4FA883CD58D0401E
:1021600081104BC057FE3DC080E3E1E0F0E0EC0F92
:10217000FD1FE20DF31D8083F5016114710459F414
:10218000C357DF4FB881CD58D040B11104C031964C
:1021900080E090E006C032968EE2D50111968C93D5
:1021A000C30192012F5F3F4F280F391F40E38F017A
:1021B0008217930729F0009719F041930197F7CF01
:1021C000930120953095421653060CF4D1C03C0182
:1021D000E1E0F0E0CA56DF4FF983E883C659D0400A
:1021E0005CC02227332724193509CA56DF4F3983AB
:1021F0002883C659D040850150C08501CA56DF4F9B
:1022000019821882C659D04048C0C701B6010E9441
:102210003934CF55DF4F688379838A839B83C15AD2
:10222000D040CF55DF4F48815981C15AD040BA01C3
:10223000882777FD8095982F0E946C349B01AC0114
:10224000C701B6010E94683320E030E040E251E46B
:102250000E9420356B017C0198012F5F3F4FCF55C5
:10226000DF4F8881C15AD040805DD8018C93CA5617
:10227000DF4F88819981C659D0400196CA56DF4FF9
:10228000E881F981C659D040EF2B91F0CA56DF4F53
:1022900099838883C659D0408901CA56DF4F288167
:1022A0003981C659D040621673060CF0AECF14C007
:1022B0006114710439F4C357DF4FF881CD58D04011
:1022C000FF2339F098012E5F3F4FEEE2D8011196BF
:1022D000EC9381E090E0DACF20E030E040EA50E497
:1022E000C701B6010E941C3587FD42C0F80181E09C
:1022F00090E030E322912E3251F0820F8A3321F0A8
:10230000808380E090E003C0308381E090E0AE16EF
:10231000BF0680F3892B61F18820B9F0F801AE1671
:10232000BF0678F4DF018E919D018E3239F4CF0122
:102330000297DC018C918083F90101C08083319781
:10234000EECFBFEF4B1A5B0A0BC00F5F1F4FF801B8
:10235000AE16BF0628F4DF018E918083FD01F8CF11
:1023600081E3E1E0F0E0EC0FFD1FE20DF31D80835F
:10237000C156DF4FE881CF59D040EE2349F0F80134
:102380008291803311F48F01FACF8E3209F48F01DC
:102390008820B1F1D8018C92C801029657FE07C07F
:1023A0002DE211962C9351944194510803C02BE2D5
:1023B000F80121838C01065F1F4F20E030E02F5F82
:1023C0003F4FF8013196C2016AE070E00E948A3501
:1023D000805DD8018C932B016115710511F08F017F
:1023E000EECF22303105DCF3E21BF30B199781911C
:1023F0008E932150310912161306CCF3095011099E
:10240000C256DF4FB881CE59D040BB2309F461C01A
:10241000E92DEC7F9E2ECE56DF4FF881C259D04079
:102420009F2ACD56DF4F2881C359D04020FB92F818
:10243000CF56DF4F3881C159D04030FB93F8C05799
:10244000DF4F4881C059D04040FB94F8CC56DF4F55
:102450005881C459D04050FB95F8C056DF4F888151
:10246000C05AD04080FB96F8CB56DF4F9881C559B3
:10247000D04090FB97F8292D237081E090E011F473
:1024800080E090E09101281B390BF50140E35F01EA
:10249000C8018E1B9F0B82179307DCF44293F7CF82
:1024A000C557DF4FB982A882CB58D040C456DF4F02
:1024B000F983E883CC59D040D12C0FE111E08CE1B5
:1024C000A82E81E0B82E06C0D12C8E010A571F4FCE
:1024D00001C0D12C0A191B09201631060CF440C08A
:1024E000A92DAC7F9A2ECE56DF4FB881C259D0406D
:1024F0009B2ACD56DF4FE881C359D040E0FB92F8CC
:10250000CF56DF4FF881C159D040F0FB93F8C05748
:10251000DF4F2881C059D04020FB94F8CC56DF4FC4
:102520003881C459D04030FB95F8C056DF4F488100
:10253000C05AD04040FB96F8CB56DF4F5881C55962
:10254000D04050FB97F87101E01AF10A292D237051
:1025500081E090E011F480E090E0E81AF90A02C00E
:10256000E12CF12CCF56DF4F8881C159D040811129
:1025700022C031E0E31AF108F7FC1DC0C656DF4F58
:1025800068817981CA59D04080E2C856DF4FE8811E
:10259000F981C859D0400995C257DF4F2881398148
:1025A000CE58D0402F5F3F4FC257DF4F398328832B
:1025B000CE58D040DECF492D4C7F942ECE56DF4FE3
:1025C0005881C259D040952ACD56DF4F8881C359D2
:1025D000D04080FB92F8CF56DF4F9881C159D04050
:1025E00090FB93F8C057DF4FA881C059D040A0FBA3
:1025F00094F8CC56DF4FB881C459D040B0FB95F861
:10260000C056DF4FE881C05AD040E0FB96F8CB5669
:10261000DF4FF881C559D040F0FB97F8892D8370C2
:1026200001F1813011F48BE201C08DE2C656DF4F1B
:1026300068817981CA59D040C856DF4FE881F98155
:10264000C859D0400995C257DF4F28813981CE58EB
:10265000D0402F5F3F4FC257DF4F39832883CE587A
:10266000D040D1100AC03501C257DF4FA880B980D1
:10267000CE58D040A618B70821C0C257DF4FC88037
:10268000D980CE58D040AC18BD080150110917FDB3
:102690002DC0F501EC0DFD1D8491C656DF4F6881FC
:1026A0007981CA59D040C856DF4FE881F981C859AD
:1026B000D0400995FFEFCF1ADF0AE7CF6501C60CBE
:1026C000D71C0150110917FD11C0C656DF4F688194
:1026D0007981CA59D040D3018D913D01C856DF4F51
:1026E000E881F981C859D0400995E8CFCF56DF4F2E
:1026F000F881C159D040FF2309F40CC921E0E21A46
:10270000F108F7FC07C9C656DF4F68817981CA59BD
:10271000D04080E2C856DF4FE881F981C859D040E7
:102720000995FFEFCF1ADF0AE9CFC257DF4F888143
:102730009981CE58D040CC55DF4F0FB6F894DEBF0C
:102740000FBECDBFDF91CF911F910F91FF90EF9002
:10275000DF90CF90BF90AF909F908F907F906F90C1
:102760005F904F903F902F900895CF92DF92EF921D
:10277000FF920F931F93CF93DF931F92CDB7DEB7D6
:102780007C01462F82E8860F9701265B3E4F690148
:10279000823010F06B3149F4F601608171818BE178
:1027A00090E049830E948F0B4981D701A05BBE4F07
:1027B0002C9111965C911197842F90E0FC01E227F7
:1027C000EE0FFF1FE654FC4F25913491052F10E0CA
:1027D000202731272D933C93F601608171810F9062
:1027E000DF91CF911F910F91FF90EF90DF90CF90ED
:1027F0000C948F0B2F923F924F925F926F927F9229
:102800008F929F92AF92BF92CF92DF92EF92FF9200
:102810000F931F93CF93DF93CDB7DEB7C455D10984
:102820000FB6F894DEBF0FBECDBF8C015C0126EB66
:10283000A21A2EEFB20A4C014BEA841A4EEF940A08
:102840007C0184EBE81A8EEFF80AD5018D919C91FA
:102850000E94C50B8F3FBFEF9B0709F441C1F401F4
:10286000208121110CC18E37910509F0FAC0D701E2
:102870004D915C91F801E25BFE4F1F014231510521
:1028800008F4E1C080819181883B904F09F0DBC062
:10289000D801FE013896CE010E962D912695203254
:1028A00009F420E02193E817F907B9F7D801169643
:1028B0008C91169786958F708E871796FE013196AC
:1028C000CF0106962D912695203209F420E0219320
:1028D000E817F907B9F7F8013D96D8011D968C91D4
:1028E00086958F708F8329964FAC2997512C61E084
:1028F00070E0808180FF19C028965FAE28972996E6
:102900004FAE29972181822F90E02B969FAF8EAFFB
:102910002B97039709F463C01F922F938DE991E0E1
:102920009F938F9384E793E068C0B7E0B51520F3D9
:1029300066246394712C6C0E7D1E27E0529E600C01
:10294000711C1124CF01019663969FAF8EAF6397E0
:1029500080E090E0252D30E06396AEADBFAD63978B
:10296000DD906396BFAFAEAF6397D694B0E2DB1253
:1029700002C0C12C01C0CD2CD301A80FB91F1E96D7
:10298000CC9201968630910539F737969081B7E061
:10299000CB2EC29ED001C39EB00D1124CC24C39473
:1029A000D12CCC0EDD1EAC0DBD1D892F86958F70F0
:1029B00054968C9397FF08C0CB0102C0880F991FD3
:1029C0002A95E2F7482A09C0DB0102C0AA0FBB1F03
:1029D0002A95E2F79D012095422253948ACF828165
:1029E0002C968FAF2C97803F99F01F928F938DE993
:1029F00091E09F938F9383E393E09F938F930E9443
:102A0000AB320F900F900F900F900F900F901BC054
:102A1000339642505109C8018E1B9F0B480F591F16
:102A200060965FAF4EAF60972E96FFAFEEAF2E97DA
:102A3000F801EE5AFE4F0190F081E02D309719F029
:102A4000CE010196099581E0F801EC5AFE4F808392
:102A50008FEF9FEFD1018D939C93F701118210822C
:102A6000F4CE8F37910529F4F801EC5AFE4F10820D
:102A7000ECCE8B31910519F481E08083E6CEF8012C
:102A8000EC5AFE4F2081222341F1D7012D913C9138
:102A90002A34B1E03B0700F5A9014F5F5F4FF70112
:102AA00051834083F801E20FF31F8083D801A25BBA
:102AB000BE4F2D913C911197F901E827FF27EE0FAA
:102AC000FF1FE654FC4F85919491232F33278227D3
:102AD00093278D939C9301C01082D4011C92B5CE94
:102AE000F50100811181D8011C968D919C911D9753
:102AF000892B41F449E451E061E273E087E193E01E
:102B00000E942D33D8011C96ED91FC911D97C801B0
:102B10000995892B09F444C0F50100811181D80180
:102B20001C968D919C911D97892B41F449E451E0AD
:102B300061E273E087E193E00E942D33D8011C9697
:102B4000ED91FC911D97C80109959F938F9382EA9F
:102B500091E09F938F9380EA93E09F938F930E94DD
:102B6000AB32F501008111810F900F900F900F9003
:102B70000F900F90D8011E968D919C911F97892BD5
:102B800041F442E551E065E073E088EF92E00E9495
:102B90002D33D8011E96ED91FC911F97C801099520
:102BA000CC5ADF4F0FB6F894DEBF0FBECDBFDF911A
:102BB000CF911F910F91FF90EF90DF90CF90BF903A
:102BC000AF909F908F907F906F905F904F903F90CD
:102BD0002F9008952F923F924F925F926F927F9223
:102BE0008F929F92AF92BF92CF92DF92EF92FF921D
:102BF0000F931F93CF93DF93CDB7DEB72C970FB60C
:102C0000F894DEBF0FBECDBF9C878B877B015A0136
:102C1000288739871D830C836115710541F448EFBE
:102C200050E066EE72E081EE92E00E942D3322E0E9
:102C3000A216B10440F449EF50E06FEC72E081EC71
:102C400092E00E942D334B845C8480EB481A8EEF17
:102C5000580A8FEF9FEFF201918380836B847C840D
:102C6000F6EB6F1AFEEF7F0AF301608171818EE748
:102C700090E00E948F0BC12CD12CC50101979F833E
:102C80008E83CA14DB0409F468C021E029838E8195
:102C90009F81C816D90609F01982F701019000201A
:102CA000E9F78F01015011090E191F0907301105AD
:102CB00010F006E010E0C8018E0D9F1D9B838A83F3
:102CC00017018A819B812816390601F1F1012191B2
:102CD0001F01822E912CC4012A870E9429372A8540
:102CE000892B51F4203241F04BED50E06CE772E05B
:102CF00085E692E00E942D33C4010E943D37682F83
:102D0000660F8B859C850E94B513DBCF06301105BD
:102D100099F0812C912CE6E0F0E0E01BF10B8F01A3
:102D20008016910648F460E48B859C850E94B5135B
:102D3000FFEF8F1A9F0AF4CF89818066F7016681C1
:102D4000660F682B8B859C850E94B513FFEFCF1A09
:102D5000DF0A27E0E20EF11C94CF63E08B859C85AF
:102D60000E94B51360EF8B859C850E94B513088582
:102D70001985EC80FD80E00EF11E0E151F0541F057
:102D8000F80161918F018B859C850E94B513F5CF69
:102D9000F2016081118160958B859C850E94B5133D
:102DA000612F60958B859C850E94B513F20180810F
:102DB0009181883B904F41F042E151E06FEA72E02F
:102DC0008EE892E00E942D33F301608171818EE7DD
:102DD00090E02C960FB6F894DEBF0FBECDBFDF910A
:102DE000CF911F910F91FF90EF90DF90CF90BF9008
:102DF000AF909F908F907F906F905F904F903F909B
:102E00002F900C948F0BEF92FF920F931F93CF9301
:102E1000DF93EC018B017A01009741F442E451E029
:102E200063E572E08FE492E00E942D3301151105F5
:102E300041F443E451E06DE372E085E392E00E94E7
:102E40002D3386E591E0FE019C0111922150304026
:102E5000E1F7FE01E65BFE4F11830083FE01EE5AAF
:102E6000FE4FF182E082FE01E05BFE4F8FEF9FEFAD
:102E700091838083C25BDE4F99838883DF91CF91FA
:102E80001F910F91FF90EF9008956AEC73E00C94FE
:102E9000D01F78940E94610B60E070E08AEC93E0B0
:102EA0000E94B10A40E855E260E070E08AEC93E0ED
:102EB0000E94920986E08093C20060E070E082E5A3
:102EC00095E00E94CC1C45E457E162E575E08CEF8B
:102ED00093E00E9403178CEF93E00E94711E8FB75E
:102EE000F894C0903C06D0903D06E0903E06F090ED
:102EF0003F068FBFC1E08CEF93E00E94FA138091F0
:102F00007A0281112EC08AEC93E00E948409882302
:102F100041F18AEC93E00E94600980937D029093D6
:102F20007E0220917B0230917C02F901E158FD4F35
:102F3000A9014F5F5F4F808350937C0240937B02D7
:102F40002934314010F0C0937A028FB7F894C090C2
:102F50003C06D0903D06E0903E06F0903F068FBFC5
:102F60001BC080917B0290917C02892BA9F02FB726
:102F7000F89480913C0690913D06A0913E06B09158
:102F80003F062FBF8C199D09AE09BF090397A10504
:102F9000B10514F0C0937A0280917A02882309F473
:102FA000AACF60917B0270917C022CEF33E04AEC57
:102FB00053E08FE792E00E94C32310927A021092AE
:102FC0007C0210927B0297CFCF93DF93EC0170933A
:102FD0002D0660932C068630910544F041E250E0C6
:102FE00062EC75E08AEB95E00E942D331092800030
:102FF00089E18093810081E896E090938700809337
:1030000086008C2F806480937C0087B121E030E0C3
:1030100001C0220FCA95EAF7922F9095892387B9AC
:1030200088B1892388B980917E00822B80937E00AD
:1030300087E080937B008CEE80937A00DF91CF91C4
:1030400008951F920F920FB60F9211242F933F9362
:103050004F935F936F937F938F939F93AF93BF93A0
:10306000EF93FF9380E286BB6091780070917900C6
:103070007695679576956795605880912C06909126
:103080002D060E94E31980914206882349F0809121
:103090002C0690912D060E94B31B807F886007C08C
:1030A00080914106882311F088E801C080E88BB93F
:1030B000FF91EF91BF91AF919F918F917F916F9110
:1030C0005F914F913F912F910F900FBE0F901F90E6
:1030D0001895AF92BF92CF92DF92EF92FF920F932B
:1030E0001F93CF93DF936C01EB017A01DC015096C3
:1030F0000D911D912D913C9153970D341B44234507
:10310000364441F04EE650E069EE75E083ED95E01F
:103110000E942D335E01CE018E0D9F1DF601EB57EF
:10312000FF4FA816B90671F4C5018C1B9D0BDF91EA
:10313000CF911F910F91FF90EF90DF90CF90BF90B4
:10314000AF9008956FB7F894408151812281338107
:103150006FBF4217530741F32FB7F894C0903C0656
:10316000D0903D06E0903E06F0903F062FBF6FB72F
:10317000F89440815181228133816FBF42175307F8
:10318000A9F44FB7F89400913C0610913D062091A8
:103190003E0630913F064FBF0C191D092E093F090D
:1031A000101611061206130614F7BECF6FB7F89467
:1031B00020813181468157812417350719F44481D4
:1031C000558105C020813181A9014F5F5F4F518337
:1031D0004083D9012C916FBFD5012D935D01A1CF03
:1031E0006F927F928F929F92AF92BF92CF92DF9217
:1031F000EF92FF920F931F93CF93DF93EC018B011C
:103200007A0188899989AA89BB898D349B44A34511
:10321000B64441F04EE650E069EE75E083ED95E08E
:103220000E942D33F801A8014E0D5F1D992493943F
:10323000BB24B3943E0187E7680E711C20E430E0A4
:1032400065E370E088E0E82EF12CE417F50709F457
:103250004EC0AFB6F894CFA4D8A88BA99CA9C81625
:10326000D90639F4C9A8DAA88DA99EA9C816D90625
:1032700069F0C9A8DAA88FA598A901978824839432
:10328000C816D90609F0812C882D01C081E0AFBE97
:1032900080FDDFCFD190AFB6F89489A99AA9DC015F
:1032A000DC92C9A8DAA88DA99EA9C816D90619F476
:1032B0008BA99CA903C089A99AA901969AAB89AB4D
:1032C000AFBED3018C9181110CC03EA72DA71CA6C7
:1032D0001BA61AA69C92299A7BA36AA35B9AB0921A
:1032E00042068FB7F894FDA2ECA28FBFAECFCF01FC
:1032F000801B910BDF91CF911F910F91FF90EF9069
:10330000DF90CF90BF90AF909F908F907F906F9005
:103310000895CF93DF93EC01488959896A897B89A5
:103320004D345B446345764441F04EE650E069EE2F
:1033300075E083ED95E00E942D33C958DF4F8881F9
:103340008111FDCF80E090E0DF91CF910895CF9380
:10335000DF93EC01488959896A897B894D345B4444
:103360006345764441F04EE650E069EE75E083ED4A
:1033700095E00E942D332FB7F894C852DF4F888113
:1033800099812FBFDF91CF910895CF93DF93EC0107
:10339000488959896A897B894D345B446345764401
:1033A00041F04EE650E069EE75E083ED95E00E9455
:1033B0002D338FB7F894C852DF4F198218828FBF10
:1033C000DF91CF910895EF92FF920F931F93CF93C8
:1033D000DF93FC018C0101531F4FD8014D915C918B
:1033E000DC01A353BF4F4D935C93DC01A858BF4F42
:1033F0008D919C91119716962D913C91179782175C
:10340000930729F414962D913C91159706C08D9140
:103410009C9111979C012F5F3F4F11963C932E93E7
:10342000EC012881260290011124359527953595C8
:103430002795E801398328837F01D3EDED0EF11C38
:10344000E701888199818F010F521F4FE80199830D
:10345000888395958795840F951F820F931FE701A9
:1034600099838883AF014B525F4F21E018161906EC
:103470000CF020E0EA018881880F822B8883129665
:103480008D919C911397EC01688312962D913C913C
:10349000139716968D919C9117972817390729F441
:1034A00014968D919C91159705C012968D919C91C3
:1034B0001397019613969C938E931297DA019C9121
:1034C000892F8695869589278370DF01AA52BF4F81
:1034D000833039F48C91803214F48F5F01C08150B5
:1034E0008C938C91885F8C9380340CF435C18F73EE
:1034F0008C93DF01A952BF4F8C91880F97702BEFEF
:10350000290F233010F0933009F481608C939C9143
:10351000892F8695892780958170968D990F892BA3
:10352000868F8E3709F04EC0DF01AB57BF4F2D910C
:103530003C91119714968D919C91159728173907F6
:1035400059F412962D913C91139716968D919C915A
:1035500017972817390779F012962D913C911397F8
:103560008D919C911197019741E02817390709F037
:1035700040E0842F01C081E080FDDDC01296CD9136
:10358000DC9113978EE7888312962D913C911397C7
:1035900016968D919C9117972817390729F4149640
:1035A0008D919C91159705C012968D919C911397C2
:1035B000019613969C938E93129781E081A32A9A89
:1035C00041E0BCC0982F9F779F3719F411A22A9829
:1035D000C3C091A1992309F4BFC0982F9F739E3354
:1035E00009F4BAC080FF03C080A1806880A3878DE2
:1035F0008F5F878F90A1883008F4ACC0DF01AB5794
:10360000BF4F82E8890F823018F09B3109F04BC020
:103610002D913C91119714968D919C911597281797
:10362000390759F412962D913C91139716968D9166
:103630009C9117972817390779F012962D913C9194
:1036400013978D919C911197019741E028173907A5
:1036500009F040E0842F01C081E080FD20C0129677
:10366000CD91DC9113978BE1888312962D913C913B
:10367000139716968D919C9117972817390729F45F
:1036800014968D919C91159705C012968D919C91E1
:103690001397019613969C938E93129704C011A2D0
:1036A0002A9840E001C041E02D913C911197149679
:1036B0008D919C9115972817390759F412962D91E1
:1036C0003C91139716968D919C911797281739075F
:1036D00079F012962D913C9113978D919C911197B1
:1036E000019751E02817390709F050E0852F01C0F4
:1036F00081E080FD20C080A11296CD91DC911397CE
:10370000888312962D913C91139716968D919C91DA
:1037100017972817390729F414968D919C911597BE
:1037200005C012968D919C911397019613969C93C8
:103730008E93129703C011A22A9840E010A2178E10
:1037400041110AC0E852FF4F8081918181609183CD
:10375000808302C0969590A3DF91CF911F910F9126
:10376000FF90EF900895DC0196968C9196978111C9
:10377000EAC098968C9198978111A0C09F962D9140
:103780003C91D097D1968D919C91D297281739076B
:1037900039F494968D919C919597892B09F45CC08E
:1037A00099968C919997811103C09A961C929A9739
:1037B00081E099968C93999792968D919C9193978D
:1037C000009789F59F962D913C91D097D1968D9138
:1037D0009C91D2972817390751F494968D919C911A
:1037E0009597019795969C938E93949721C09F9659
:1037F000ED91FC91D097D5968D919C91D697E81735
:10380000F90729F4D3968D919C91D49706C09F9681
:10381000ED91FC91D097CF010196D0969C938E9319
:103820009F97808106C0019793969C938E93929761
:103830008EE797968C93979797968C9197978B3165
:1038400099F59F962D913C91D097D1968D919C9111
:10385000D2972817390749F45B9810924206A95865
:10386000BF4F1C92299880E008959F96ED91FC919E
:10387000D097D5968D919C91D697E817F90729F4A2
:10388000D3968D919C91D49706C09F96ED91FC9113
:10389000D097CF010196D0969C938E939F9780816D
:1038A00097968C93979706C08E57823018F4999606
:1038B0001C92999781E098968C93989799962C9161
:1038C00099979D968D919C919E972223A9F09A9607
:1038D0002C919A97253080F09A961C929A97803472
:1038E000910519F485E790E002C080E490E09E968F
:1038F0009C938E939D9723C098963C91989797960A
:103900002C919797232341F09A968C919A978F5FE9
:103910009A968C939A970FC09A961C929A97803495
:10392000910519F485E790E002C080E490E09E964E
:103930009C938E939D97330F98963C93989788E02D
:1039400096968C9396979D96ED91FC919E979B965B
:103950008D919C919C97E80FF91F9F0131709C9667
:103960003C932E939B9796968C9196978150969622
:103970008C93FF27E038F10530F08FEF90E0AC0139
:103980004E1B5F0BFA01EA50FA4F84912F3F31052D
:1039900011F008F080950895CF93DF93EC01CB01EF
:1039A0002AEDFE0111922A95E9F77D8F6C8F20E4B4
:1039B00030E03EA72DA79E0120583F4FFE01E8585A
:1039C000FF4F3583248333832283318320839E01F9
:1039D0002C573F4F378326839E0123573F4FDE01ED
:1039E000AB57BF4F15963C932E93149713963C9369
:1039F0002E93129711963C932E939E0124533F4F82
:103A000017963C932E9316979E01295C3F4F3CAB33
:103A10002BAB3AAB29AB38AB2FA79E012A583F4FAF
:103A20003EAB2DAB24E030E0A281B3811C926281D9
:103A30007381468157816417750719F44481558154
:103A400004C0428153814F5F5F4F538342832150B3
:103A500031092115310541F7BE010E94E4178AB1F1
:103A6000886F8AB9219A229A4DE45BE463E576E493
:103A7000488B598B6A8B7B8B80EF98E19B838A8381
:103A800089E698E19983888389E899E19B878A8709
:103A900087EA99E19D878C8785EC99E19F878E87DE
:103AA000DF91CF9108956FEF8AE290E00E94763720
:103AB00080914B01882341F085E59BE09F938F9394
:103AC0000E94AB320F900F9080914B0181110CC07E
:103AD00080913706811108C082E59BE09F938F9308
:103AE0000E94AB320F900F900895CF938AE290E03E
:103AF0000E945E37893609F0C7C046E050E064E2B4
:103B000070E085E491E00E944E3746E050E06EE1BF
:103B100070E08FE391E00E944E3746E050E068E1AC
:103B200070E089E391E00E944E3746E050E062E1A8
:103B300070E081E391E00E944E3781E190E00E94C5
:103B40005E3790E0909334068093330680E190E0F6
:103B50000E945E3790E090933206809331068FE0AA
:103B600090E00E945E3790E0909338018093370197
:103B70008EE090E00E945E3790E090933001809359
:103B80002F018DE090E00E945E3791E0811101C02D
:103B900090E0909350018CE090E00E945E3791E0BD
:103BA000811101C090E090934F018BE090E00E9462
:103BB0005E3791E0811101C090E090934E018AE060
:103BC00090E00E945E3791E0811101C090E09093F7
:103BD0004D0189E090E00E945E3791E0811101C0C3
:103BE00090E090934C0188E090E00E945E37C1E045
:103BF000811101C0C0E0C0934B0187E090E00E94BA
:103C00005E3791E0811101C090E09093370686E025
:103C100090E00E945E3780932C0185E090E00E9446
:103C20005E3780932B0184E090E00E945E378093A2
:103C30002A0183E090E00E945E378093290182E0B0
:103C400090E00E945E3780932E0181E090E00E9418
:103C50005E3780932D0180E090E00E945E3791E016
:103C6000811101C090E090932E06CC23C1F1809188
:103C700036068823A1F18CE39BE09F938F930E94EB
:103C8000AB320F900F902BC080913606882381F0C5
:103C90008091370681110CC080914B01882341F03F
:103CA00083E19BE09F938F930E94AB320F900F9024
:103CB00080913606882381F08091370681110CC0EF
:103CC00080914B01811108C080E19BE09F938F930D
:103CD0000E94AB320F900F9081E080933506CF9118
:103CE000089590937606809375060E94751D81E075
:103CF0008093360680914B018823E9F12FEF85EA06
:103D00009EE0215080409040E1F700C000008CEE22
:103D10009BE09F938F930E94AB328BED9BE09F9330
:103D20008F930E94AB3284EC9BE09F938F930E9411
:103D3000AB320F900F900F900F900F900F908091DB
:103D40003506882341F085EA9BE09F938F930E947C
:103D5000AB320F900F9088E99BE09F938F930E9466
:103D6000AB3287E89BE09F938F930E94AB320F901A
:103D70000F900F900F90089546E050E064E270E0DD
:103D800085E491E00E94663746E050E06EE170E025
:103D90008FE391E00E94663746E050E068E170E012
:103DA00089E391E00E94663746E050E062E170E00E
:103DB00081E391E00E9466376091330681E190E0F3
:103DC0000E9476376091310680E190E00E9476375C
:103DD000609137018FE090E00E94763760912F016B
:103DE0008EE090E00E947637609150018DE090E087
:103DF0000E94763760914F018CE090E00E94763708
:103E000060914E018BE090E00E94763760914D0109
:103E10008AE090E00E94763760914C0189E090E062
:103E20000E94763760914B0188E090E00E947637DF
:103E30006091370687E090E00E94763760912C0110
:103E400086E090E00E94763760912B0185E090E05B
:103E50000E94763760912A0184E090E00E947637D4
:103E60006091290183E090E00E94763760912E01F5
:103E700082E090E00E94763760912D0181E090E031
:103E80000E94763760912E0680E090E00E9476379F
:103E900069E68AE290E00E94763780914B018823A0
:103EA00041F08BEF9AE09F938F930E94AB320F907B
:103EB0000F9080914B0181110CC0809137068111C8
:103EC00008C088EF9AE09F938F930E94AB320F90C7
:103ED0000F9008950F931F939C01CA0146E0EFE3F2
:103EE000F1E0A1E6B6E001900D924A95E1F740912C
:103EF00031064093670646E0E5E4F1E0A2ECB6E067
:103F000001900D924A95E1F7409133064093C8061F
:103F100046E0E9E3F1E0A8E6B6E001900D924A95AB
:103F2000E1F74091370140936E0646E0E1E3F1E0AE
:103F3000A2EDB6E001900D924A95E1F740912F0174
:103F40004093D80647E0E1E6F6E0A3E4B6E001904E
:103F50000D924A95E1F747E0E2ECF6E0AAE4B6E01C
:103F600001900D924A95E1F747E0E8E6F6E0A1E519
:103F7000B6E001900D924A95E1F747E0E2EDF6E0F8
:103F8000A8E5B6E001900D924A95E1F78B0144E077
:103F900050E063E476E00E94EA151F910F910895C6
:103FA0006F927F928F929F92AF92BF92CF92DF9249
:103FB000EF92FF920F931F93CF93DF9300D000D027
:103FC00000D0CDB7DEB78C013B0180915001882332
:103FD000E9F080914C01882329F06DEA71E0C3017A
:103FE0000E94030CD80116968C911F928F931F93F9
:103FF0000F9383EB91E09F938F937F926F920E9438
:10400000F10B0FB6F894DEBF0FBECDBF80914F010C
:10401000882331F180914C01882361F08EEB91E08F
:104020009F938F937F926F920E94F10B0F900F904E
:104030000F900F90D8011D968C911F928F93C801FD
:1040400007969F938F9383EB91E09F938F937F923B
:104050006F920E94F10B0FB6F894DEBF0FBECDBF7A
:1040600080914E01811105C080914D01811137C0B1
:104070005AC080914C01882329F064EC71E0C3019F
:104080000E94030C7801FEE0EF0EF11CC12CD12C34
:10409000480126E4820E911C83EBA82E81E0B82E05
:1040A000D4018C9190E0C816D906F4F6D701169683
:1040B0008C911F928F93FF92EF92BF92AF927F925B
:1040C0006F920E94F10BBFEFCB1ADB0AE7E0EE0E16
:1040D000F11C0FB6F894DEBF0FBECDBFE1CF8091CB
:1040E0004C01882329F06BEC71E0C3010E94030CA2
:1040F000F801E55BFF4F81818F9380818F93F801F9
:10410000E35BFF4F81818F9380818F9322ED31E0BC
:104110003F932F937F926F920E94F10B0FB6F8940A
:10412000DEBF0FBECDBF67ED71E0C3010E94030C7F
:1041300080912E06882309F4E5C0F801E35BFF4F68
:104140000190F081E02DEC30F10508F4DBC0D801DE
:10415000A55BBF4F2D913C915F01A20EB31E80E085
:1041600090E0C12CD12CD5014E915D014B3779F4F3
:10417000DE011196BD01680F791FA501A617B707CB
:1041800031F0FA01F190AF01FD926C01F7CF019689
:104190008730910541F7C114D10409F4B3C081E01F
:1041A00090E0A1E0F901E80FF91F608170E0FC01E7
:1041B000EC5BFE4F4081552747FD5095641775070E
:1041C00019F087E090E0A0E001968730910554F364
:1041D00040E050E0F901E80FF91F60816D3209F409
:1041E000AC0101968A309105ACF341155105A1F05F
:1041F000F901E40FF51F8281609133067091340656
:10420000803221F4818190E0C09702C090E08697CF
:104210008617970709F076C0AA2309F473C05601E0
:10422000FEE0AF0EB11CC5010E9402367C0120E009
:1042300030E080E22F5F3F4FF701E20FF31F8083F2
:1042400029303105B9F7B80121E030E0E0E0F0E0D5
:10425000DB014D91BD01442331F0C701820F931F53
:10426000DC014C9331962F5F3F4F2730310581F7AA
:10427000D80116968C91882369F0EE0DFF1D9DE202
:1042800091838A3018F4805D828304C091E3928325
:104290008A5D83838AE3F7018083828781E683874F
:1042A00083E684878BE68587DE0112963E9680E062
:1042B00090E021E0C21AD1088C159D0524F40196E6
:1042C0002D912193F9CF4091750650917606B50155
:1042D000C7010E946A1FC70126960FB6F894DEBF79
:1042E0000FBECDBFDF91CF911F910F91FF90EF9047
:1042F000DF90CF90BF90AF909F908F907F906F9006
:104300000C949A3626960FB6F894DEBF0FBECDBF3A
:10431000DF91CF911F910F91FF90EF90DF90CF90A1
:10432000BF90AF909F908F907F906F9008956F9205
:104330007F929F92AF92BF92CF92DF92EF92FF92C5
:104340000F931F93CF93DF931F92CDB7DEB75C011E
:104350008B016A017B0184E1E80EF11C20912C01A4
:104360002A3098F480912B018A3078F480912A01C8
:104370008A3058F480912901893038F47B01EBE1CF
:10438000EE0EF11C9924939401C0912CC70129834E
:104390000E9402363C018DE3F301808380912E015F
:1043A000818780912D01838B88E0EAEBF6E0D301D1
:1043B000119601900D928A95E1F789E0E9ECF6E01B
:1043C000D3011A9601900D928A95E1F729819110F7
:1043D00003C0C301449617C080E5F301848B88E4D1
:1043E000858B87E4868B205D278B80912B01805DF8
:1043F000808F80912A01805D818F80912901805D6D
:10440000828FC3014B960115110521F0A801B5015A
:104410000E944537A601B701C3010E946A1FC3016C
:104420000F90DF91CF911F910F91FF90EF90DF9050
:10443000CF90BF90AF909F907F906F900C949A36E2
:104440008F929F92AF92BF92CF92DF92EF92FF92A4
:104450000F931F93CF93DF935C016A018B01643448
:10446000710510F003E410E078012FE0E20EF11C7A
:10447000C7010E940236EC018AE3888387E090E05E
:1044800020E030E00197009769F0F901E159F94F18
:1044900040814423B9F32F5F3F4FFE01E20FF31F2A
:1044A0004083F0CF80912701909128018F3F4FEFFB
:1044B000940779F0FE01E20FF31F4DE241838A3049
:1044C00091054CF42E5F3F4FFE01E20FF31F805D1C
:1044D000808380E209C091E392832D5F3F4FFE010C
:1044E000E20FF31F8A5DF4CF293031053CF42F5FD2
:1044F0003F4FFE01E20FF31F8083F6CFFE01E20F74
:10450000F31F8AE381830115110581F0A801B5012C
:10451000CE010B960E944537A801B50187E796E0CA
:104520000E9445371093600600935F0680912F0626
:10453000909130060196883E23E092072CF49093E8
:10454000300680932F0604C01092300610922F067A
:10455000FE01E00FF11F8BE7838700912F0610917A
:1045600030069AE0892E912CC801B4010E948A3548
:104570009C0144E6A42EB12CC801B5010E948A35E5
:10458000821B930BB4010E948A35AB01C801861BC4
:10459000970B821B930BB5010E948A35605D64877F
:1045A000405D4587205D2687A601B701CE010E94A8
:1045B0006A1FCE01DF91CF911F910F91FF90EF9075
:1045C000DF90CF90BF90AF909F908F900C949A36D1
:1045D00020912F063091300621503109309330065A
:1045E00020932F0660915F0670916006AC0187E70B
:1045F00096E00C9420228DE597E09F938F930E9484
:10460000AB32809134068F93809133068F9385E48B
:1046100091E09F938F938AE497E09F938F930E94FA
:10462000AB32809132068F93809131068F938FE366
:1046300091E09F938F9384E397E09F938F930E94E1
:10464000AB32809138018F93809137018F9389E34A
:1046500091E09F938F9384E297E09F938F930E94C2
:10466000AB32809130018F9380912F018F9381E342
:1046700091E09F938F9384E197E09F938F930E94A3
:10468000AB328DB79EB74A960FB6F8949EBF0FBE59
:104690008DBF80912E06882319F08DEF96E002C021
:1046A00085EE96E09F938F930E94AB320F900F9010
:1046B00080912C018A3061F01F928F938AED96E0F1
:1046C0009F938F930E94AB320F900F900F900F909B
:1046D00080912B018A3061F01F928F938EEC96E0CF
:1046E0009F938F930E94AB320F900F900F900F907B
:1046F00080912A018A3061F01F928F9384EC96E0BA
:104700009F938F930E94AB320F900F900F900F905A
:10471000809129018A3061F01F928F9383EB96E09C
:104720009F938F930E94AB320F900F900F900F903A
:1047300080912E018C3541F48AE996E09F938F9306
:104740000E94AB320F900F9080912E018F3241F476
:1047500082E896E09F938F930E94AB320F900F9068
:1047600020912D01822F992787FD90959F932F935C
:1047700086E796E09F938F930E94AB320F900F9045
:104780000F900F9008950F931F93CF93DF93EC0139
:10479000FA01A9016115710509F4C6C68881813243
:1047A00009F56230710508F47BC661507109CE01CC
:1047B00001960E946A1F80914B01882341F08BEE85
:1047C0009AE09F938F930E94AB320F900F9080914D
:1047D0004B018111A9C6809137068111A5C688EECB
:1047E0009AE074C68034E9F461507109CE010196F3
:1047F0000E94972180914B01882341F082ED9AE03D
:104800009F938F930E94AB320F900F9080914B013A
:1048100081118AC680913706811186C68FEC9AE095
:1048200055C68332E9F461507109CE0101960E94A8
:10483000202280914B01882341F081EC9AE09F93E4
:104840008F930E94AB320F900F9080914B0181119A
:104850006BC680913706811167C68EEB9AE036C62B
:10486000883609F461C6883431F4DF91CF911F9105
:104870000F910C94FB22833531F4DF91CF911F917E
:104880000F910C94BC1E833431F4DF91CF911F91B2
:104890000F910C94531D8C3431F4DF91CF911F9103
:1048A0000F910C94751D833609F052C06430710568
:1048B00008F4F6C5E5E4F1E081E090E09C012150C8
:1048C000310986179707A9F08730910581F0DE013D
:1048D000A80FB91F2C91222331F02A3021F02D305E
:1048E00011F0208301C0108201963196E7CF26E0B7
:1048F00030E02630310539F0F901EB5BFE4F1082D4
:104900002F5F3F4FF6CF80914B018823B1F080910C
:1049100034068F93809133068F9385E491E09F93C3
:104920008F938BEA9AE09F938F930E94AB320F9004
:104930000F900F900F900F900F9080914B0181116D
:10494000F3C5809137068111EFC588EA9AE0BEC5AC
:10495000843609F052C06430710508F4A1C5EFE354
:10496000F1E081E090E09C01215031098617970722
:10497000A9F08730910581F0DE01A80FB91F2C91B5
:10498000222331F02A3021F02D3011F0208301C094
:10499000108201963196E7CF26E030E026303105CF
:1049A00039F0F901E15CFE4F10822F5F3F4FF6CFE7
:1049B00080914B018823B1F0809132068F938091D2
:1049C00031068F938FE391E09F938F9382E99AE072
:1049D0009F938F930E94AB320F900F900F900F9088
:1049E0000F900F9080914B0181119EC580913706E9
:1049F00081119AC58FE89AE069C5813309F052C0E8
:104A00006230710508F44CC5E9E3F1E081E090E023
:104A10009C012150310986179707A9F0873091052D
:104A200081F0DE01A80FB91F2C91222331F02A302A
:104A300021F02D3011F0208301C0108201963196B3
:104A4000E7CF26E030E02630310539F0F901E75CA8
:104A5000FE4F10822F5F3F4FF6CF80914B0188238E
:104A6000B1F0809138018F93809137018F9389E362
:104A700091E09F938F938FE79AE09F938F930E948B
:104A8000AB320F900F900F900F900F900F9080917E
:104A90004B01811149C580913706811145C58CE7CD
:104AA0009AE014C5823309F052C06230710508F4EF
:104AB000F7C4E1E3F1E081E090E09C01215031098D
:104AC00086179707A9F08730910581F0DE01A80FBE
:104AD000B91F2C91222331F02A3021F02D3011F012
:104AE000208301C0108201963196E7CF26E030E0A6
:104AF0002630310539F0F901EF5CFE4F10822F5F4F
:104B00003F4FF6CF80914B018823B1F08091300167
:104B10008F9380912F018F9381E391E09F938F93E7
:104B20008CE69AE09F938F930E94AB320F900F9088
:104B30000F900F900F900F9080914B018111F4C452
:104B4000809137068111F0C489E69AE0BFC48337AB
:104B500009F0EFC06330710508F4A2C48B01015065
:104B6000110989818336C1F50230110521F08B814D
:104B700090E0869703C08A8190E0C09790933406B6
:104B80008093330680914B018823B1F080913406E5
:104B90008F93809133068F9385E491E09F938F9359
:104BA00086E59AE09F938F930E94AB320F900F900F
:104BB0000F900F900F900F9080914B0181110CC0BE
:104BC00080913706811108C083E59AE09F938F9307
:104BD0000E94AB320F900F9089818436C1F502306C
:104BE000110521F08B8190E0869703C08A8190E0C7
:104BF000C097909332068093310680914B018823B1
:104C0000B1F0809132068F93809131068F938FE3BC
:104C100091E09F938F938DE39AE09F938F930E94EF
:104C2000AB320F900F900F900F900F900F908091DC
:104C30004B0181110CC080913706811108C08AE3B5
:104C40009AE09F938F930E94AB320F900F908981CF
:104C50008133C1F50230110521F08B8190E08697F8
:104C600003C08A8190E0C097909338018093370108
:104C700080914B018823B1F0809138018F9380910E
:104C800037018F9389E391E09F938F938AE29AE0B3
:104C90009F938F930E94AB320F900F900F900F90C5
:104CA0000F900F9080914B0181110CC080913706BD
:104CB000811108C087E29AE09F938F930E94AB32E4
:104CC0000F900F908981823309F02EC402301105B4
:104CD00021F08B8190E0869703C08A8190E0C09795
:104CE0009093300180932F0180914B018823B1F084
:104CF000809130018F9380912F018F9381E391E018
:104D00009F938F9387E19AE09F938F930E94AB329A
:104D10000F900F900F900F900F900F9080914B017C
:104D2000811102C4809137068111FEC384E19AE0AB
:104D3000CDC3803709F02CC16330710508F4B0C3CE
:104D400089818337C9F59A8180914B019133C1F4F0
:104D500091E090935001882341F081E09AE09F9385
:104D60008F930E94AB320F900F9080914B01811175
:104D700023C08091370681111FC08EEF99E016C0C5
:104D800010925001882341F08AEE99E09F938F930F
:104D90000E94AB320F900F9080914B0181110CC09B
:104DA00080913706811108C087EE99E09F938F9319
:104DB0000E94AB320F900F9089818436C9F59A8199
:104DC00080914B019133C1F491E090934F0188237E
:104DD00041F084ED99E09F938F930E94AB320F9046
:104DE0000F9080914B01811123C080913706811172
:104DF0001FC081ED99E016C010924F01882341F049
:104E00008DEB99E09F938F930E94AB320F900F90A0
:104E100080914B0181110CC080913706811108C02F
:104E20008AEB99E09F938F930E94AB320F900F9083
:104E300089818037C9F59A8180914B019133C1F402
:104E400091E090934E01882341F086EA99E09F9388
:104E50008F930E94AB320F900F9080914B01811184
:104E600023C08091370681111FC083EA99E016C0E4
:104E700010924E01882341F08EE899E09F938F9322
:104E80000E94AB320F900F9080914B0181110CC0AA
:104E900080913706811108C08BE899E09F938F932A
:104EA0000E94AB320F900F9089818D36C9F59A819F
:104EB00080914B019133C1F491E090934D0188238F
:104EC00041F087E799E09F938F930E94AB320F9058
:104ED0000F9080914B01811123C080913706811181
:104EE0001FC084E799E016C010924D01882341F05D
:104EF0008FE599E09F938F930E94AB320F900F90B4
:104F000080914B0181110CC080913706811108C03E
:104F10008CE599E09F938F930E94AB320F900F9096
:104F20008981893609F000C39A8180914B019133C0
:104F3000C1F491E090934C01882341F088E499E01A
:104F40009F938F930E94AB320F900F9080914B01F3
:104F50008111EAC2809137068111E6C285E499E0A9
:104F6000B5C210924C01882341F080E399E09F93F1
:104F70008F930E94AB320F900F9080914B01811163
:104F8000D3C2809137068111CFC28DE299E09EC2D3
:104F90008637C1F48981813331F481E080934B01FC
:104FA0008AED91E004C010924B0180EF91E09F9355
:104FB0008F93FF93EF930E94F10B0F900F900F9040
:104FC0000F90B2C2863581F48981813341F481E04A
:104FD0008093370610924B0187E092E0E8CF109261
:104FE00037068CE192E0E3CF8C3609F03FC16330A5
:104FF000710508F455C289818C3609F05CC0615096
:1050000071098A81813651F56A30710508F48CC2C4
:1050100088E0FE013396AAEBB6E001900D928A95E6
:10502000E1F780914B01882371F08AEB96E09F9322
:105030008F9387E199E09F938F930E94AB320F90FB
:105040000F900F900F9080914B0181116DC2809154
:105050003706811169C284E199E038C28F3609F0C0
:1050600063C26B30710508F45FC289E0FE013396BC
:10507000A9ECB6E001900D928A95E1F780914B0181
:10508000882371F089EC96E09F938F938CEF98E0E2
:105090009F938F930E94AB320F900F900F900F90C1
:1050A00080914B01811140C28091370681113CC231
:1050B00089EF98E00BC2803729F58A8180538A30C6
:1050C00008F032C280932C0190914B01992379F022
:1050D0008802C00111249F938F9387EE98E09F93DD
:1050E0008F930E94AB320F900F900F900F90809192
:1050F0004B01811119C280913706811115C284EECE
:1051000098E0E4C18836B9F58A8180538A3008F086
:105110000BC280932B0190914B01992309F1A1E0DF
:10512000B0E002C0AA0FBB1F8A95E2F728EE33E079
:105130000E94833528E431E040E050E00E94C03511
:105140005F934F933F932F9384EC98E09F938F93BB
:105150000E94AB320F900F900F900F900F900F9016
:1051600080914B018111E0C1809137068111DCC132
:1051700081EC98E0ABC1873631F52A8120532A3083
:1051800008F0D2C120932A0180914B01882381F03D
:10519000822F992787FD90959F932F938FEA98E010
:1051A0009F938F930E94AB320F900F900F900F90B0
:1051B00080914B018111B8C1809137068111B4C132
:1051C0008CEA98E083C18436C9F58A8180538A309D
:1051D00008F0AAC1893009F488E080932901809100
:1051E0004B0181110CC080913706811108C089EAFA
:1051F00098E09F938F930E94AB320F900F90809115
:105200004B01882309F490C180912901811108C0C4
:1052100080E998E09F938F930E94AB320F900F909C
:1052200080912901882309F47FC12DE2829FC0016A
:1052300011249F938F9386E798E013C0833709F07A
:105240004CC12A8120932D0180914B01882309F4C0
:105250006BC1822F992787FD90959F932F9384E6AA
:1052600098E09F938F930E94AB32A7CE8D3609F0C2
:1052700017C16230710508F413C1CB010197298170
:10528000233609F060C0019709F44EC1EFE6F6E05D
:1052900022966250710980E090E08617970781F0AE
:1052A0008630910569F02991222331F02A3021F0CE
:1052B0002D3011F0208301C0108201963196EDCF80
:1052C0008630910531F0FC01E159F94F10820196C9
:1052D000F7CF80914B01882359F18FE696E09F9399
:1052E0008F9388E098E09F938F930E94AB328091D8
:1052F0002701909128010F900F900F900F908F3FF2
:105300002FEF920769F09F938F9383E098E09F932C
:105310008F930E94AB320F900F900F900F9008C0A8
:1053200081E098E09F938F930E94AB320F900F9093
:1053300080914B018111F8C0809137068111F4C032
:105340008EEF97E0C3C0233709F057C08130910535
:1053500009F4EAC0029721F08B8190E0869703C0A0
:105360008A8190E0C09790932801809327018091D3
:10537000270190912801409730F08FEF9FEF909395
:1053800028018093270180914B01882359F18FE6F2
:1053900096E09F938F9386EE97E09F938F930E9462
:1053A000AB3280912701909128010F900F900F90C0
:1053B0000F908F3F2FEF920769F09F938F9381EEAD
:1053C00097E09F938F930E94AB320F900F900F90B6
:1053D0000F9008C08FED97E09F938F930E94AB32A0
:1053E0000F900F9080914B0181119EC080913706E4
:1053F00081119AC08CED97E069C02237D1F4CA01BF
:105400000E94E82280914B01882341F086EC97E0CE
:105410009F938F930E94AB320F900F9080914B011E
:10542000811182C08091370681117EC083EC97E0A4
:105430004DC0213609F078C09A8180914B0191339B
:10544000C1F491E090932E06882341F089EA97E019
:105450009F938F930E94AB320F900F9080914B01DE
:10546000811162C08091370681115EC086EA97E0A3
:105470002DC010922E06882341F08BE897E09F9371
:105480008F930E94AB320F900F9080914B0181114E
:105490004BC080913706811147C088E897E016C05D
:1054A00080914B01882341F080E797E09F938F9391
:1054B0000E94AB320F900F9080914B01811134C04C
:1054C00080913706811130C08DE697E09F938F93CE
:1054D0000E94AB320F900F9027C0843729F59A8134
:1054E00080914B01913641F49CE590932E018823E5
:1054F00081F083E498E007C09FE290932E01882317
:1055000041F083E298E09F938F930E94AB320F901B
:105510000F9080914B01811107C080913706811156
:1055200003C080E298E0D2CFDF91CF911F910F911D
:1055300008952F923F924F925F926F927F928F9237
:105540009F92AF92BF92CF92DF92EF92FF920F9312
:105550001F93CF93DF93CDB7DEB7C45AD1090FB6EF
:10556000F894DEBF0FBECDBFC856DF4F9983888346
:10557000C859D040C656DF4F79836883CA59D04096
:10558000C456DF4F59834883CC59D0405901C25784
:10559000DF4F19821882CE58D0409E012F5F3F4FB7
:1055A000C957DF4F39832883C758D040AE014A57C7
:1055B0005F4FC757DF4F59834883C958D040C856FB
:1055C000DF4F08811981C859D0400F5F1F4FC8565F
:1055D000DF4FE881F981C859D0408491853291F13B
:1055E000882309F448C7C456DF4F68817981CC59B4
:1055F000D040C656DF4FE881F981CA59D04009959D
:10560000C257DF4FE880F980CE58D040FFEFEF1A45
:10561000FF0AC557DF4FB982A882CB58D040C85681
:10562000DF4F19830883C859D040C257DF4FF98232
:10563000E882CE58D040C557DF4FA880B980CB58FC
:10564000D040BDCFF8018491853259F5C856DF4F5F
:1056500028813981C859D0402E5F3F4FC856DF4F4F
:1056600039832883C859D040C456DF4F6881798177
:10567000CC59D040C656DF4FE881F981CA59D04095
:105680000995C257DF4FE880F980CE58D040FFEF30
:10569000EF1AFF0AC557DF4FB982A882CB58D04016
:1056A000C4CFC256DF4F1882CE59D040C357DF4F08
:1056B0001882CD58D040C057DF4F1882C059D04013
:1056C000CF56DF4F1882C159D040F8012491C8014C
:1056D00001962B3209F458C060F42032E9F02332ED
:1056E00009F05AC0F1E0C357DF4FF883CD58D040DE
:1056F00051C02D3251F0203309F04EC021E0C25686
:10570000DF4F2883CE59D04045C0F1E0C057DF4F6E
:10571000F883C059D0403EC0232D2C7F322ECF5667
:10572000DF4F3881C159D040332ACE56DF4F4881F0
:10573000C259D04040FB32F8C057DF4F5881C059A2
:10574000D04050FB33F820FA34F8CD56DF4FA88113
:10575000C359D040A0FB35F8C357DF4FB881CD58AF
:10576000D040B0FB36F8CC56DF4FE881C459D0406A
:10577000E0FB37F8232D237069F441E0CF56DF4F6B
:105780004883C159D04006C031E0CF56DF4F38833F
:10579000C159D0408C0199CFC357DF4F5881CD58A4
:1057A000D040C056DF4F5883C05AD040F8012491F2
:1057B0002A3221F0612C712C3AE025C095012E5F30
:1057C0003F4FD5016D907C9077FE09C07194619434
:1057D0007108B1E0C057DF4FB883C059D0408C0189
:1057E000590116C02A33A0F40F5F1F4FFC018491AA
:1057F000A301349F3001359F700C112450E3651ACA
:105800007108680E711CC801F8012491203350F70B
:10581000C057DF4FF881C059D040FF2329F0C2564E
:10582000DF4F1882CE59D040F80184918E3249F56D
:10583000319684918A3229F08F01412C512C3AE023
:105840001AC0D5014D905C900E5F1F4FF501329646
:105850005F011AC02A33C0F40F5F1F4FFC0184910F
:10586000A201349F2001359F500C112450E3451AAA
:105870005108480E511CC801F8012491203350F7FB
:1058800003C044244A94542CF8012491C801019681
:10589000283699F018F42C3439F017C02C3621F042
:1058A0002A3799F4212C02C0222423948C01CD564E
:1058B000DF4F1882C359D0400EC08C01F1E0CD56A5
:1058C000DF4FF883C359D04005C0CD56DF4F188253
:1058D000C359D040212C98012F5F3F4FC856DF4F4E
:1058E00039832883C859D040F801D490C956DF4F76
:1058F000D882C759D040F5E6DF1609F402C2FD157B
:10590000ECF023E5D21609F453C02D1564F035E40C
:10591000D31609F4F6C147E4D41609F4E1C1DD2039
:1059200009F46FC42AC053E6D51671F15D150CF465
:10593000C6C088E5D81609F48DC01FC090E7D916F7
:1059400009F471C09D1564F0A7E6DA1609F4C8C120
:10595000DA160CF4D1C1B9E6DB1609F4B0C00DC0FB
:10596000E5E7DE1609F476C0F8E7DF1609F46DC046
:1059700023E7D21202C0F12C1DC0C557DF4FB982F8
:10598000A882CB58D04049C4A5014E5F5F4FC55790
:10599000DF4F59834883CB58D040D5018C91898300
:1059A000F12C8E010E5F1F4FFE0131964F0143C453
:1059B000FF24F39495012E5F3F4FC557DF4F398386
:1059C0002883CB58D040D5018D909C9081149104B0
:1059D00021F4A5E58A2EA1E09A2E57FE04C0F0E13D
:1059E0004F2EF7E25F2E8401FF20C1F0F801849171
:1059F000882309F420C4C8018819990984159505DC
:105A00000CF019C40F5F1F4FF1CFC8018819990915
:105A1000841595050CF00FC40F5F1F4FD8018C91B2
:105A20008111F3CF08C4F5013296C557DF4FF983D2
:105A3000E883CB58D040D5016D917C9180E090E017
:105A4000E4E7EE2EE1E0FE2E26C074E8E72E71E0DA
:105A5000F72E04C064E7E62E61E0F62E222071F0F6
:105A6000F5013496C557DF4FF983E883CB58D04012
:105A7000D5016D917D918D919C910DC0C5010296CE
:105A8000F50160817181C557DF4F99838883CB58B9
:105A9000D04080E090E021E0CE56DF4F2883C2590D
:105AA000D04035E7D31205C0CE56DF4F1882C25919
:105AB000D040CF56DF4F1882C159D0403EC022207F
:105AC00079F0A5014C5F5F4FC557DF4F598348837D
:105AD000CB58D040D5016D917D918D919C910FC097
