:100000000C9495080C94B2080C94B2080C94B208A5
:100010000C94B2080C94B2080C94B2080C94B20878
:100020000C94B2080C94B2080C94B2080C94B20868
:100030000C94B2080C94B2080C944A0D0C94B208BB
:100040000C94B2080C94EA090C948D090C944F0995
:100050000C94B2080C94891A0C94B2080C94B2084F
:100060000C94B2080C94B208756E6974203C20534D
:1000700045525F434E5400626572746F732F637014
:10008000752F6176722F6472762F7365725F6D655E
:1000900067612E630073697A65203E2031006265D6
:1000A00072746F732F7374727563742F6669666FE1
:1000B0006275662E680066642D3E68772D3E727804
:1000C00062756666657200626572746F732F647222
:1000D000762F7365722E630066642D3E68772D3E21
:1000E000747862756666657200626572746F732FEC
:1000F0006472762F7365722E63002166642D3E69EB
:10010000735F6F70656E00626572746F732F6472D7
:10011000762F7365722E6300756E6974203C2063C0
:100120006F756E746F66287365725F68616E646C5C
:1001300065732900626572746F732F6472762F7312
:1001400065722E6300706F72742D3E69735F6F70FD
:10015000656E00626572746F732F6472762F7365BB
:10016000722E630066642D3E5F74797065203D3D9C
:10017000204B46545F53455249414C0062657274AE
:100180006F732F6472762F7365722E680021746905
:100190006D65725F696E697469616C697A65640026
:1001A000626572746F732F6472762F74696D6572F5
:1001B0002E63002674696D65722D3E6C696E6B004E
:1001C000626572746F732F6472762F74696D6572D5
:1001D0002E630066642D3E72656164006265727410
:1001E0006F732F696F2F6B66696C652E680066648C
:1001F0002D3E777269746500626572746F732F6942
:100200006F2F6B66696C652E68006275665F706F34
:10021000696E746572203E3D20627566006265728B
:10022000746F732F6D776172652F666F726D617475
:1002300077722E63006368616E6E656C0062657232
:10024000746F732F6E65742F617832352E6300637F
:10025000747800626572746F732F6E65742F6178A5
:1002600032352E63006973616C6E756D28632920C9
:100270007C7C2063203D3D2027202700626572742E
:100280006F732F6E65742F617832352E630063743F
:10029000782D3E6372635F6F7574203D3D20415839
:1002A00032355F4352435F434F52524543540062DD
:1002B0006572746F732F6E65742F617832352E639B
:1002C00000706174685F6C656E203E3D2032006294
:1002D0006572746F732F6E65742F617832352E637B
:1002E000007061746800626572746F732F6E65745C
:1002F0002F617832352E630066642D3E636C656134
:100300007265727200626572746F732F696F2F6B02
:1003100066696C652E680066642D3E6572726F7248
:1003200000626572746F732F696F2F6B66696C65FD
:100330002E680025733A204F6E6C79206672616DCD
:10034000657320776974686F7574206C6179657264
:10035000332070726F746F636F6C206172652068F8
:10036000616E646C65642C20676F74205B2530328D
:10037000585D0A0025733A204F6E6C79205549204C
:100380006672616D6573206172652068616E646C70
:1003900065642C20676F74205B253032585D0A003D
:1003A00025733A204368616E6E656C206572726FCA
:1003B00072205B253034785D0A0000008911122319
:1003C0009B322446AD573665BF74488CC19D5AAFE9
:1003D000D3BE6CCAE5DB7EE9F7F8811008019333E0
:1003E0001A22A5562C47B7753E64C99C408DDBBFC9
:1003F00052AEEDDA64CBFFF976E802218B301002C1
:1004000099132667AF763444BD554AADC3BC588EA8
:10041000D19F6EEBE7FA7CC8F5D983310A2091129F
:100420001803A7772E66B5543C45CBBD42ACD99E88
:10043000508FEFFB66EAFDD874C904428D531661F4
:100440009F702004A9153227BB364CCEC5DF5EED68
:10045000D7FC6888E1997AABF3BA85520C4397715F
:100460001E60A1142805B3373A26CDDE44CFDFFD48
:1004700056ECE9986089FBBB72AA06638F72144040
:100480009D512225AB343006B9174EEFC7FE5CCC28
:10049000D5DD6AA9E3B8788AF19B87730E6295501F
:1004A0001C41A3352A24B1163807CFFF46EEDDDC08
:1004B00054CDEBB962A8F99A708B088481951AA77C
:1004C00093B62CC2A5D33EE1B7F04008C919522B10
:1004D000DB3A644EED5F766DFF7C899400859BB7B7
:1004E00012A6ADD224C3BFF136E0C1184809D33BF0
:1004F0005A2AE55E6C4FF77D7E6C0AA583B4188698
:1005000091972EE3A7F23CC0B5D14229CB38500ACF
:10051000D91B666FEF7E744CFD5D8BB502A4999676
:100520001087AFF326E2BDD034C1C3394A28D11AAF
:10053000580BE77F6E6EF55C7C4D0CC685D71EE5CB
:1005400097F42880A1913AA3B3B2444ACD5B56698F
:10055000DF78600CE91D722FFB3E8DD604C79FF536
:1005600016E4A9902081BBB332A2C55A4C4BD7796F
:100570005E68E11C680DF33F7A2E0EE787F61CC417
:1005800095D52AA1A3B03882B193466BCF7A54484F
:10059000DD59622DEB3C700EF91F8FF706E69DD4F6
:1005A00014C5ABB122A0B9923083C77B4E6AD5582F
:1005B0005C49E33D6A2CF11E780F6368203C3D20C6
:1005C00035004D6F64656D2F686172647761726587
:1005D0002E630066642D3E5F74797065203D3D207A
:1005E0004B46545F4146534B004D6F64656D2F6120
:1005F00066736B2E6800808183848687898A8C8EDF
:100600008F9192949597989A9B9D9EA0A2A3A5A640
:10061000A7A9AAACADAFB0B2B3B5B6B7B9BABCBDB5
:10062000BEC0C1C2C4C5C6C8C9CACBCDCECFD0D248
:10063000D3D4D5D6D7D9DADBDCDDDEDFE0E1E2E307
:10064000E4E5E6E7E8E9EAEAEBECEDEEEEEFF0F1FF
:10065000F1F2F3F3F4F5F5F6F6F7F8F8F9F9FAFA3A
:10066000FAFBFBFCFCFCFDFDFDFDFEFEFEFEFEFFBD
:10067000FFFFFFFFFFFF2D2D2D2D2D2D2D2D2D2DBE
:100680002D2D2D2D2D2D2D2D2D2D2D2D2D2D2D2D9A
:100690002D2D2D2D2D2D2D2D0A0048202020202000
:1006A000202020205072696E7420636F6E66696727
:1006B00075726174696F6E0A00432020202020202B
:1006C000202020436C65617220636F6E66696775D8
:1006D000726174696F6E0A004C2020202020202057
:1006E00020204C6F616420636F6E6669677572616C
:1006F00074696F6E0A0053202020202020202020C3
:100700005361766520636F6E66696775726174699F
:100710006F6E0A00563C312F303E20202020536956
:100720006C656E74206D6F6465206F6E2F6F6666EA
:100730000A0A00763C312F303E2020202056657278
:10074000626F7365206D6F6465206F6E2F6F6666D4
:100750000A0070693C312F303E2020205072696EB3
:100760007420494E464F206F6E2F6F66660A0A004E
:10077000706D3C312F303E2020205072696E742005
:1007800044415441206F6E2F6F66660A0070703CC2
:10079000312F303E2020205072696E742050415419
:1007A00048206F6E2F6F66660A0070643C312F30F0
:1007B0003E2020205072696E7420445354206F6E86
:1007C0002F6F66660A0070733C312F303E20202068
:1007D0005072696E7420535243206F6E2F6F66669D
:1007E0000A006D613C312F303E2020204175746F2E
:1007F0006D61746963206D65737361676520414342
:100800004B206F6E2F6F66660A0A006D723C737321
:1008100069643E20205265747279206C6173742083
:100820006D6573736167650A006D733C737369640A
:100830003E2020536574206D657373616765207277
:100840006563697069656E7420535349440A006D8D
:10085000633C63616C6C3E2020536574206D65734E
:100860007361676520726563697069656E74206382
:10087000616C6C7369676E0A006C743C732F613E27
:1008800020202053656C6563742073796D626F6CF2
:10089000207461626C6520287374616E6461726497
:1008A0002F616C7465726E617465290A0A006C733D
:1008B0003C73796D3E20202053656C656374207312
:1008C000796D626F6C0A006C643C302D393E2020DB
:1008D0002053657420616E74656E6E612064697268
:1008E000656374697669747920696E666F0A006C55
:1008F000673C302D393E20202053657420616E7492
:10090000656E6E61206761696E20696E666F0A00B0
:100910006C683C302D393E20202053657420616E78
:1009200074656E6E612068656967687420696E66BB
:100930006F0A006C703C302D393E202020536574C6
:1009400020545820706F77657220696E666F0A00B8
:100950006C6C6F3C4C4F4E3E2020536574206C6194
:1009600074697475646520284E4D45412D666F721B
:100970006D61742C2065672030373230312E373569
:1009800057290A006C6C613C4C41543E2020536551
:1009900074206C6174697475646520284E4D4541FE
:1009A0002D666F726D61742C206567203439303389
:1009B0002E35304E290A0073323C737369643E2031
:1009C0002053657420504154483220535349440AFF
:1009D0000A0073313C737369643E202053657420B0
:1009E000504154483120535349440A0073643C73C6
:1009F0007369643E20205365742064657374696E66
:100A00006174696F6E20535349440A0073633C73E9
:100A10007369643E202053657420796F757220538A
:100A20005349440A00323C63616C6C3E20202053E1
:100A300065742050415448322063616C6C7369675F
:100A40006E0A0A00313C63616C6C3E2020205365C5
:100A5000742050415448312063616C6C7369676E37
:100A60000A00643C63616C6C3E2020205365742056
:100A700064657374696E6174696F6E2063616C6C18
:100A80007369676E0A00633C63616C6C3E202020D2
:100A900053657420796F75722063616C6C7369673C
:100AA0006E0A00233C6D73673E2020202053656E44
:100AB000642041505253206D6573736167650A0A63
:100AC00000403C636D743E2020202053656E6420FE
:100AD0006C6F636174696F6E2075706461746520FA
:100AE00028636D74203D206F7074696F6E616C2097
:100AF000636F6D6D656E74290A00213C64617461D9
:100B00003E20202053656E642072617720706163FF
:100B10006B65740A0053657269616C20636F6D6D5B
:100B2000616E64733A0A002D2D2D2D2D2D2D2D2D46
:100B30002D2D2D2D2D2D2D2D2D2D2D2D2D2D2D2DE5
:100B40002D2D2D2D2D2D2D2D2D0A0053796D626FFC
:100B50006C3A2025630A0053796D626F6C207461D2
:100B6000626C653A207374616E646172640A00534A
:100B7000796D626F6C207461626C653A20616C748F
:100B800065726E6174650A004469726563746976A2
:100B90006974793A2025640A004761696E3A202514
:100BA000640A004865696768743A2025640A005041
:100BB0006F7765723A2025640A004175746F2D6164
:100BC000636B206D657373616765733A204F66666A
:100BD0000A004175746F2D61636B206D65737361DD
:100BE0006765733A204F6E0A0050617468323A208C
:100BF000252E36732D25640A0050617468313A2021
:100C0000252E36732D25640A0044657374696E6160
:100C100074696F6E3A20252E36732D25640A0043C1
:100C2000616C6C7369676E3A20252E36732D2564CE
:100C30000A00436F6E66696775726174696F6E3A18
:100C40000A00300A004572726F723A20496E76616E
:100C50006C696420636F6D6D616E640A00310A0017
:100C60004D657373616765206175746F2D61636B8A
:100C70002064697361626C65640A00310A004D6525
:100C80007373616765206175746F2D61636B206597
:100C90006E61626C65640A00310A005265747269A3
:100CA0006564206C617374206D6573736167650A98
:100CB00000310A000A002D25640A004D6573736136
:100CC000676520726563697069656E743A20252EC8
:100CD000367300310A000A002D25640A004D657341
:100CE0007361676520726563697069656E743A2027
:100CF000252E367300310A0053656C656374656494
:100D0000207374616E646172642073796D626F6CBC
:100D1000207461626C650A0053656C656374656478
:100D200020616C7465726E6174652073796D626F99
:100D30006C207461626C650A0053796D626F6C207F
:100D400073657420746F2025630A004469726563BB
:100D50007469766974792073657420746F202564D2
:100D60006465670A004469726563746976697479B9
:100D70002073657420746F206F6D6E690A00310AEC
:100D800000310A004761696E2073657420746F201A
:100D9000256464420A00310A00416E74656E6E611A
:100DA000206865696768742073657420746F2025F6
:100DB0006C646D204141540A00310A00506F776520
:100DC000722073657420746F202564770A00310ADD
:100DD000004C6F6E67746974756465207365742068
:100DE000746F20252E39730A00310A004C61746932
:100DF000747564652073657420746F20252E3873B4
:100E00000A00310A005072696E7420494E464F2024
:100E100064697361626C65640A00310A005072692A
:100E20006E7420494E464F20656E61626C65640A9F
:100E300000310A005072696E7420444154412064AC
:100E4000697361626C65640A00310A005072696EF0
:100E500074204441544120656E61626C65640A00EF
:100E6000310A005072696E74205041544820646900
:100E70007361626C65640A00310A005072696E74B5
:100E8000205041544820656E61626C65640A0031EF
:100E90000A005072696E742044535420646973616F
:100EA000626C65640A00310A005072696E742044F5
:100EB000535420656E61626C65640A00310A00500B
:100EC00072696E74205352432064697361626C6569
:100ED000640A00310A005072696E74205352432034
:100EE000656E61626C65640A00310A005061746865
:100EF000323A20252E36732D25640A00310A00501F
:100F0000617468313A20252E36732D25640A00312C
:100F10000A0044657374696E6174696F6E3A2025C6
:100F20002E36732D25640A00310A0043616C6C7300
:100F300069676E3A20252E36732D25640A00310A22
:100F40000050617468323A20252E36732D25640ACC
:100F500000310A0050617468313A20252E36732D15
:100F600025640A00310A0044657374696E6174690E
:100F70006F6E3A20252E36732D25640A00310A0043
:100F800043616C6C7369676E3A20252E36732D258C
:100F9000640A00310A004D657373616765207365EB
:100FA0006E740A00310A004C6F636174696F6E20C1
:100FB0007570646174652073656E740A00310A008F
:100FC0005061636B65742073656E740A00310A00AA
:100FD000436F6E66696775726174696F6E207361C5
:100FE0007665640A00300A004572726F723A204ECC
:100FF0006F2073746F72656420636F6E66696775C6
:10100000726174696F6E20746F206C6F6164210A65
:1010100000436F6E66696775726174696F6E206CEC
:101020006F616465640A00310A00436F6E66696728
:1010300075726174696F6E20636C65617265642E90
:10104000205265737461727420746F206C6F6164D8
:101050002064656661756C74732E0A002D2D2D2D2C
:101060002D2D2D2D2D2D2D2D2D2D2D0A004D6F6467
:10107000656D2072656164790A0044656661756C0E
:101080007420636F6E66696775726174696F6E2034
:101090006C6F61646564210A00756E7369676E65C3
:1010A000642E696F2F6D6963726F617072730A00CD
:1010B0004D6963726F415052532076302E32610A6F
:1010C000002D2D2D2D2D2D2D2D2D2D2D2D2D2D2D7D
:1010D0000A006275665F706F696E746572203E3DCE
:1010E0002062756600626572746F732F6D7761722E
:1010F000652F666F726D617477722E6300203D20DC
:10110000307825700A00496E76616C6964207074CD
:10111000723A20003A2000417373657274696F6EF1
:10112000206661696C65643A200011241FBECFEF10
:10113000D8E0DEBFCDBF12E0A0E0B1E0E8EEF3E71B
:1011400002C005900D92A233B107D9F716E0A2E3D1
:10115000B2E001C01D92AB3DB107E1F70E94B319A7
:101160000C94F2390C9400001092C00088E980932E
:10117000C10008951092C1000895FC01228521113B
:1011800005C021E0228788EB8093C10008959A0171
:10119000AB01CA01B9019695879577956795605C13
:1011A0007D4B804F9F4F0E9408382150310930936A
:1011B000C5002093C4000895E2ECF0E08081A4E033
:1011C000660F771FAA95E1F78F7C862B80830895A1
:1011D0009FB7F89484B1886284B99FBF8FB7F894A1
:1011E000229A8FBF8FB7F89424988FBF80ED8CBD63
:1011F0008CB581608CBD8DB58E7F8DBD08951CBC76
:101200009FB7F89484B1837C84B99FBF08950895F3
:101210000895FC01828508956FB7F894DC011A9651
:101220002C911A97211120C0E0913A06F0913B06CB
:10123000478D50A121A132A142175307A9F021E007
:101240001A962C93A78DB0A185A196A1A817B907CE
:1012500019F483A194A104C0A78DB0A1CD0101967A
:1012600090A3878F8C918EBD6FBF0895CF93DF932E
:10127000EC018230910544F049E953E067E770E002
:1012800088E690E00E9497352BE02C9FC0012D9FAF
:10129000900D11248A5F9E4FDF91CF9108951F9288
:1012A0000F920FB60F9211242F933F938F939F931A
:1012B000AF93BF93EF93FF93E0913806F091390617
:1012C000278D30A181A192A12817390731F488E92F
:1012D0008093C1001092100113C0A78DB0A185A109
:1012E00096A1A817B90719F483A194A104C0A78DEA
:1012F000B0A1CD01019690A3878F8C918093C600F9
:10130000FF91EF91BF91AF919F918F913F912F915D
:101310000F900FBE0F901F9018951F920F920FB64F
:101320000F9211242F933F934F935F938F939F932B
:10133000AF93BF93EF93FF93E0913806F091390696
:1013400097A58091C0008871892B87A75091C6000E
:1013500027A130A583A594A52817390739F421A51D
:1013600032A585A596A52817390761F021A532A5D4
:1013700087A190A5019741E02817390709F040E0BF
:10138000842F01C081E080FF04C087A5816087A70A
:1013900012C0A1A5B2A55C9321A532A585A596A5ED
:1013A0002817390719F483A594A503C081A592A530
:1013B000019692A781A7FF91EF91BF91AF919F9165
:1013C0008F915F914F913F912F910F900FBE0F9092
:1013D0001F9018951F920F920FB60F9211242F9302
:1013E0003F934F938F939F93AF93BF93EF93FF934D
:1013F000E0913A06F0913B0627A130A583A594A57C
:101400002817390739F421A532A585A596A52817EF
:10141000390761F021A532A587A190A5019741E088
:101420002817390709F040E0842F01C081E080FDD2
:1014300013C08EB5A1A5B2A58C9321A532A585A513
:1014400096A52817390719F483A594A503C081A58B
:1014500092A5019692A781A7E0913A06F0913B06EA
:10146000278D30A181A192A12817390799F0A78D66
:10147000B0A185A196A1A817B90719F483A194A1D9
:1014800004C0A78DB0A1CD01019690A3878F8C9148
:101490008EBD02C010921B01FF91EF91BF91AF91E1
:1014A0009F918F914F913F912F910F900FBE0F9071
:1014B0001F9018959FB7F89483E085BB14BC15BCAA
:1014C00082E084BD85B5836085BD16BC89EF87BD8C
:1014D000EEE6F0E080818E7F808380818260808371
:1014E0009FBF0895CF93DF93EC01FB015FB7F894A2
:1014F000278D30A183A194A128173907E9F421A1F0
:1015000032A185A196A128173907B1F481E05FBF08
:1015100080FD11C04FB7F894A1A1B2A1CC9321A135
:1015200032A185A196A12817390799F483A194A126
:1015300092A381A314C0DACF81A192A1278D30A1FB
:101540002150310941E08217930709F040E0842FD0
:10155000DECF21A132A12F5F3F4F32A321A34FBF86
:1015600080A991A9DC01ED91FC910084F185E02D29
:101570000995CE019927DF91CF910895FC014FB7CE
:10158000F89427A130A581A592A54FBF2817390748
:1015900039F087A5897B79F024C087A5897BC9F7B5
:1015A0004FB7F89427A130A581A592A54FBF281762
:1015B000390799F3EECF2FB7F894A7A1B0A585A569
:1015C00096A5A817B90719F483A594A504C0A7A1E7
:1015D000B0A5CD01019690A787A38C912FBF90E075
:1015E00008958FEF9FEF0895AF92BF92CF92DF9251
:1015F000EF92FF920F931F93CF93DF937C015B01D8
:101600006A01FC0100891189228933890C34124551
:101610002544334541F04CEB50E06CE771E084E643
:1016200091E00E949735E50100E010E00C151D05E2
:1016300059F0C7010E94BE0A8F3F2FEF920721F099
:101640000F5F1F4F8993F2CFC801DF91CF911F9198
:101650000F91FF90EF90DF90CF90BF90AF900895E3
:10166000AF92BF92CF92DF92EF92FF920F931F93B0
:10167000CF93DF937C015B016A01FC010089118932
:10168000228933890C3412452544334541F04CEB13
:1016900050E06CE771E084E691E00E949735E50147
:1016A00000E010E00C151D0561F08991B701992744
:1016B00087FD90950E94720A019619F00F5F1F4FE7
:1016C000F1CFC801DF91CF911F910F91FF90EF9063
:1016D000DF90CF90BF90AF900895CF93DF93EC0150
:1016E000488959896A897B894C34524565447345D8
:1016F00041F04CEB50E06CE771E084E691E00E9431
:1017000097358FA590E0DF91CF910895CF93DF9328
:10171000EC01488959896A897B894C345245654472
:10172000734541F04CEB50E06CE771E084E691E0EA
:101730000E9497351FA6DF91CF910895CF93DF9335
:10174000EC01488959896A897B894C345245654442
:10175000734549F04CEB50E06CE771E084E691E0B2
:101760000E94973500C02F8D38A189A19AA1281712
:101770003907C9F788A999A9DC01ED91FC91028488
:10178000F385E02D09958111EECF80E090E0DF91A7
:10179000CF910895FC014FB7F89427A130A581A5FA
:1017A00092A54FBF28173907B1F02FB7F894A7A11A
:1017B000B0A585A596A5A817B90719F483A594A582
:1017C00004C0A7A1B0A5CD01019690A787A38C91D5
:1017D0002FBF90E008958FEF9FEF08956FB7F894B3
:1017E000FC0147A150A521A532A56FBF81E042179A
:1017F000530709F480E00895DC01D0968D919C9107
:10180000D197DC01ED91FC910480F581E02D0994E4
:10181000EF92FF920F931F93CF93DF93EC018B0115
:101820006230710540F042E651E064E371E088E126
:1018300091E00E949735F801EE0FFF1FE85CF94F29
:10184000D183C0838E8D882341F045E651E067E067
:1018500071E08AEF90E00E94973581E08E8F1D8FB6
:101860000C8FC8010E94360999AB88ABDC01129637
:101870008D919C911397892B41F44DE651E069EECF
:1018800070E088ED90E00E949735E8A9F9A984817D
:101890009581892B41F44EE651E067EC70E086EBD0
:1018A00090E00E949735E8A9F9A9E680F7800281C7
:1018B0001381B2E0EB16F10440F441E251E06EE92D
:1018C00070E085E990E00E9497351CA30BA31AA352
:1018D00009A318A30F8FC7010197800F911F9EA323
:1018E0008DA3E8A9F9A9E084F18404811581E2E0DF
:1018F000EE16F10440F441E251E06EE970E085E952
:1019000090E00E9497351CA70BA71AA709A718A754
:101910000FA3C7010197800F911F9EA78DA788A9CC
:1019200099A9DC01ED91FC910190F081E02DBE01BF
:10193000099540E855E260E070E0CE010E94FC0BA2
:101940001FA6CE01DF91CF911F910F91FF90EF90D5
:1019500008954FB7F894FC0121A532A530A727A31D
:101960004FBF08954FB7F894FC0121A132A130A3D5
:10197000278F4FBF0895CF93DF93EC010E94A90CEE
:10198000CE01DF91CF910C94B20CCF93DF93EC0199
:10199000488959896A897B894C3452456544734525
:1019A00041F04CEB50E06CE771E084E691E00E947E
:1019B00097358E8D811108C04BE851E063E571E0E9
:1019C00085E491E00E9497351E8ECE010E949E0B09
:1019D00088A999A9DC01ED91FC910280F381E02DA9
:1019E000099519AA18AACE010E94BB0C80E090E0CC
:1019F000DF91CF910895CF93DF93EC014889598906
:101A00006A897B894C3452456544734541F04CEBFF
:101A100050E06CE771E084E691E00E949735CE01DA
:101A20000E94C50C6C8D7D8DCE010E94080CCE01EC
:101A3000DF91CF910895FC01CB0122E3DF011D92DC
:101A40002A95E9F74CE452E565E473E5408B518B48
:101A5000628B738B2BEF3CE03583248325EC3CE0D9
:101A60003783268324EF3AE03183208320E33BE071
:101A7000338322832EE93BE0338722872DE63BE048
:101A80003587248726E83BE037872687BC01CF01CE
:101A90000C94080C1F920F920FB60F9211240F9303
:101AA0001F932F933F934F935F936F937F938F93E6
:101AB0009F93AF93BF93CF93DF93EF93FF93809167
:101AC0003C0690913D06A0913E06B0913F060196DE
:101AD000A11DB11D80933C0690933D06A0933E0648
:101AE000B0933F060BEA1AEBC0917202D0917302D9
:101AF00088819981892BD1F18FB7F89440913C0668
:101B000050913D0660913E0670913F068FBF8885DB
:101B10009985AA85BB85481B590B6A0B7B0B77FD02
:101B200025C0CF3FD10509F048F42BEC30E040EC64
:101B300051E063EB71E0CE010E94AD35EA81FB819B
:101B40008881998191838083E881F9818A819B8151
:101B5000938382831B821A82198218821B8B0A8BC1
:101B6000EC85FD85CE010C960995BECFFF91EF91D6
:101B7000DF91CF91BF91AF919F918F917F916F91A5
:101B80005F914F913F912F911F910F910F900FBE39
:101B90000F901F90189586E792E0909373028093C0
:101BA00072021092750210927402109277021092D3
:101BB000760282E792E09093790280937802109205
:101BC0003C0610923D0610923E0610923F060E947F
:101BD0005A0A80914006882341F041E951E060EAC9
:101BE00071E08DE891E00E94973581E08093400696
:101BF0000895EF92FF920F931F93CF93DF931F925D
:101C0000CDB7DEB77C018B018983DB0112968D9104
:101C10009C911397892B41F44EE051E068EF71E0FD
:101C20008EEE91E00E949735D8011296ED91FC91CD
:101C3000139741E050E0BE016F5F7F4FC8010995E7
:101C4000019719F4C701992702C08FEF9FEF0F90FA
:101C5000DF91CF911F910F91FF90EF9008950F9317
:101C60001F93CF93DF931F92CDB7DEB78C01DC01BA
:101C70008D919C91892B41F442EF50E06CED71E025
:101C800083ED91E00E949735D801ED91FC9141E000
:101C900050E0BE016F5F7F4FC8010995019719F4AD
:101CA000898190E002C08FEF9FEF0F90DF91CF917D
:101CB0001F910F910895CF93DF93CDB7DEB79E01AB
:101CC000275F3F4F4D815E8169EF7DE08F81988571
:101CD0000E94880EDF91CF9108950F931F93CF93A9
:101CE000DF938C01EB018991882359F0B801992782
:101CF00087FD90950E94F90D8F3F2FEF920799F77E
:101D000002C080E090E0DF91CF911F910F91089584
:101D10002F923F924F925F926F927F928F929F92FB
:101D2000AF92BF92CF92DF92EF92FF920F931F93E9
:101D3000CF93DF93CDB7DEB7C45AD1090FB6F8946D
:101D4000DEBF0FBECDBFFC01C856DF4F798368836D
:101D5000C859D040C656DF4F59834883CA59D0402E
:101D60005901C257DF4F19821882CE58D0409E01C8
:101D70002F5F3F4FC957DF4F39832883C758D04063
:101D8000AE014A575F4FC757DF4F59834883C95841
:101D9000D0409F012F5F3F4FC456DF4F39832883C8
:101DA000CC59D0408081853291F1882309F427C72E
:101DB000C656DF4F68817981CA59D040C856DF4F77
:101DC000E881F981C859D0400995C257DF4FC880D2
:101DD000D980CE58D040FFEFCF1ADF0AC557DF4F6A
:101DE000B982A882CB58D040C257DF4FD982C8826F
:101DF000CE58D040C557DF4FA880B980CB58D040CF
:101E0000C456DF4FE881F981CC59D040C2CF8181DF
:101E1000853251F4AF014E5F5F4FC456DF4F598397
:101E20004883CC59D040C4CFC456DF4FA881B98174
:101E3000CC59D040C256DF4F1882CE59D040C3573C
:101E4000DF4F1882CD58D040CF56DF4F1882C1598E
:101E5000D040CE56DF4F1882C259D040FD018D913F
:101E60008B3209F45EC060F48032E9F0833209F00D
:101E70005FC031E0C357DF4F3883CD58D040EECF3D
:101E80008D3251F0803309F053C041E0C256DF4F2C
:101E90004883CE59D040E2CF21E0CF56DF4F288390
:101EA000C159D040DBCF392D3C7F932ECE56DF4F2A
:101EB0004881C259D040942ACD56DF4F5881C3592A
:101EC000D04050FB92F8CF56DF4F8881C159D040A7
:101ED00080FB93F8C057DF4F9881C059D04090FBEA
:101EE00094F8CC56DF4FE881C459D040E0FB95F818
:101EF000C357DF4FF881CD58D040F0FB96F8CB5652
:101F0000DF4F2881C559D04020FB97F8892D837079
:101F100009F0A4CF81E0CE56DF4F8883C259D0406C
:101F20009DCF51E0CE56DF4F5883C259D04096CF57
:101F3000C357DF4F9881CD58D040C056DF4F9883AC
:101F4000C05AD0408A3229F0DF01212C312C2AE0FE
:101F500013C0C5010296D5012D903C9037FE09C0F3
:101F6000319421943108B1E0CF56DF4FB883C15985
:101F7000D04031965C0112C0FD018D9190ED980F1B
:101F80009A3060F4F1012E9F10012F9F300C112424
:101F9000F0E32F1A3108280E311CEECFCF56DF4F59
:101FA0002881C159D040222329F0C256DF4F188220
:101FB000CE59D04080818E3221F581818A3231F034
:101FC000DF011196612C712C2AE009C0D5016D90BA
:101FD0007C90329695012E5F3F4F590115C0FD014F
:101FE0008D9190ED980F9A3078F4A301249F3001E1
:101FF000259F700C112450E3651A7108680E711C3E
:10200000EECF66246A94762CDF018D918836D9F064
:1020100018F48C3459F01FC08C3641F08A37D9F44B
:10202000C057DF4F1882C059D04006C081E0C0576A
:10203000DF4F8883C059D040FD01CC56DF4F188256
:10204000C459D04012C0FD0191E0CC56DF4F9883B7
:10205000C459D04005C0CC56DF4F1882C459D04077
:10206000C057DF4F1882C059D040DF011196C456C7
:10207000DF4FB983A883CC59D0408080B5E68B165A
:1020800009F408C2B815ECF023E5821609F453C030
:10209000281564F035E4831609F4FCC147E484167E
:1020A00009F4F0C1882009F465C42AC053E68516F6
:1020B00071F158150CF4CBC088E5881609F48DC071
:1020C0001FC090E7891609F471C0981564F0A7E65F
:1020D0008A1609F4D7C18A160CF4DBC1B9E68B164F
:1020E00009F4B5C00DC0E5E78E1609F476C0F8E72F
:1020F0008F1609F46DC023E7821202C0D12C1DC0D7
:10210000C557DF4FB982A882CB58D0403FC4A50144
:102110004E5F5F4FC557DF4F59834883CB58D04040
:10212000D5018C918983D12C8E010E5F1F4FFE014A
:1021300031965F0139C4DD24D39495012E5F3F4F62
:10214000C557DF4F39832883CB58D040D501AD9098
:10215000BC90A114B10421F4A0E2AA2EA1E0BA2EF1
:1021600077FE04C0F0E16F2EF7E27F2E8501DD20BF
:10217000C1F0F8018491882309F416C4C8018A19B2
:102180009B09861597050CF00FC40F5F1F4FF1CF09
:10219000C8018A199B09861597050CF005C40F5FC5
:1021A0001F4FD8018C918111F3CFFEC3F5013296F8
:1021B000C557DF4FF983E883CB58D040D5016D91E7
:1021C0007C9180E090E0E4E7EE2EE1E0FE2E2BC073
:1021D00074E8E72E71E0F72E04C064E7E62E61E0B4
:1021E000F62EC057DF4FB881C059D040BB2371F0E5
:1021F000F5013496C557DF4FF983E883CB58D040BB
:10220000D5016D917D918D919C910DC0C501029676
:10221000F50160817181C557DF4F99838883CB5861
:10222000D04080E090E021E0CD56DF4F2883C359B5
:10223000D04035E7831205C0CD56DF4F1882C35911
:10224000D040CE56DF4F1882C259D04042C0C0574E
:10225000DF4F4881C059D040442371F0C501049636
:10226000C557DF4F99838883CB58D040D5016D91F6
:102270007D918D919C910FC0F5013296C557DF4F2E
:10228000F983E883CB58D040D5016D917C918827A4
:1022900077FD8095982F97FF13C090958095709546
:1022A00061957F4F8F4F9F4FCD56DF4F1882C35997
:1022B000D040B2E0CE56DF4FB883C259D04005C0FF
:1022C000CD56DF4F1882C359D04054E7E52E51E078
:1022D000F52EE1E0CB56DF4FE883C559D0406115BC
:1022E00071058105910529F4CB56DF4F1882C55938
:1022F000D0406114710441F4CB56DF4FF881C559C9
:10230000D040FF2309F47CC0CD56DF4F2881C3594C
:10231000D0408E010A571F4F2130A9F02AE030E04B
:1023200040E050E00E940838F701E60FF71F808177
:10233000D8018E938D01B901CA016115710581051E
:10234000910561F715C0FB01EF70FF27EE0DFF1D32
:102350002081F80122938F0144E096958795779527
:1023600067954A95D1F7611571058105910559F772
:1023700077FE49C0C256DF4FF881CE59D040FF23C7
:1023800009F441C0292D2C7F922ECE56DF4F388183
:10239000C259D040932ACD56DF4F4881C359D0400F
:1023A00040FB92F8CF56DF4F5881C159D04050FBC7
:1023B00093F8C057DF4F8881C059D04080FB94F814
:1023C000CC56DF4F9881C459D04090FB95F8C35745
:1023D000DF4FA881CD58D040A0FB96F8CB56DF4FF9
:1023E000B881C559D040B0FB97F8292D237081E002
:1023F00090E011F480E090E03101681A790A03C09E
:102400008E010A571F4FC757DF4F88819981C958DE
:10241000D040801B910BF80120E35F0186159705E2
:102420001CF422930196F9CFC357DF4FE881CD58B2
:10243000D040EE23A1F0CB56DF4FF881C559D040F4
:10244000FF2369F0882D8F7D883549F4F501319798
:10245000808222E0A21AB10880E3D5018C93C9578B
:10246000DF4FE881F981C758D040AE16BF0608F0AB
:1024700095C247EB52E06DE172E08AE092E00E9483
:1024800097358CC28A948A9411E06114710449F0E2
:1024900002C0812C10E077FE07C026E0622E712C6E
:1024A00003C066246394712C95012C5F3F4FC55780
:1024B000DF4F39832883CB58D040D501CD90DD90B4
:1024C000ED90FC9020E030E0A901C701B6010E9428
:1024D000373687FF0AC0F7FAF094F7F8F094B2E0C5
:1024E000CE56DF4FB883C259D040C156DF4F188354
:1024F000CF59D040AA24A394B12CAC0EBD1EA20C7F
:10250000B31C20E030E040E85FE3C701B6010E9461
:10251000863787FD32C0412C512C27EB33E44AEB40
:1025200051E5C701B6010E94863787FD0EC029EF2D
:1025300032E045E150E5C701B6010E943B366B0130
:102540007C01EAE04E0E511CE8CF20E030E040E292
:1025500051E4C701B6010E94863787FD49C020E0DB
:1025600030E040E251E4C701B6010E943B366B0106
:102570007C01FFEF4F1A5F0AE8CF20E030E0A901AD
:10258000C701B6010E943736412C512C882381F1B6
:102590002FEF36EE4BED5EE2C701B6010E943736F3
:1025A000181674F029EF32E045E150E5C701B60195
:1025B0000E948A376B017C012AE0421A5108E8CF59
:1025C00020E030E040E85FE3C701B6010E94373603
:1025D00087FF0EC020E030E040E251E4C701B601C1
:1025E0000E948A376B017C0131E0431A5108E8CF21
:1025F000112301F14614570444F44CEF44164FEFF5
:1026000054061CF064187508812C51E0651A710895
:1026100081E0C357DF4F9881CD58D0409827C156ED
:10262000DF4F9883CF59D040A1E0C357DF4FA88335
:10263000CD58D04081104BC057FE3DC080E3E1E053
:10264000F0E0EC0FFD1FE20DF31D8083F501611436
:10265000710459F4C357DF4FB881CD58D040B11140
:1026600004C0319680E090E006C032968EE2D5013B
:1026700011968C93C30192012F5F3F4F280F391F92
:1026800040E38F018217930729F0009719F04193D7
:102690000197F7CF930120953095421653060CF41D
:1026A000D1C03C01E1E0F0E0CA56DF4FF983E88396
:1026B000C659D0405CC02227332724193509CA5691
:1026C000DF4F39832883C659D040850150C085012A
:1026D000CA56DF4F19821882C659D04048C0C70178
:1026E000B6010E94A336CF55DF4F688379838A8372
:1026F0009B83C15AD040CF55DF4F48815981C15A81
:10270000D040BA01882777FD8095982F0E94D63651
:102710009B01AC01C701B6010E94D23520E030E038
:1027200040E251E40E948A376B017C0198012F5FDF
:102730003F4FCF55DF4F8881C15AD040805DD801CF
:102740008C93CA56DF4F88819981C659D040019633
:10275000CA56DF4FE881F981C659D040EF2B91F07E
:10276000CA56DF4F99838883C659D0408901CA561B
:10277000DF4F28813981C659D040621673060CF0AC
:10278000AECF14C06114710439F4C357DF4FF88120
:10279000CD58D040FF2339F098012E5F3F4FEEE235
:1027A000D8011196EC9381E090E0DACF20E030E0A0
:1027B00040EA50E4C701B6010E94863787FD42C057
:1027C000F80181E090E030E322912E3251F0820F47
:1027D0008A3321F0808380E090E003C0308381E081
:1027E00090E0AE16BF0680F3892B61F18820B9F026
:1027F000F801AE16BF0678F4DF018E919D018E328E
:1028000039F4CF010297DC018C918083F90101C07A
:1028100080833197EECFBFEF4B1A5B0A0BC00F5F7F
:102820001F4FF801AE16BF0628F4DF018E9180839A
:10283000FD01F8CF81E3E1E0F0E0EC0FFD1FE20DD8
:10284000F31D8083C156DF4FE881CF59D040EE237E
:1028500049F0F8018291803311F48F01FACF8E3262
:1028600009F48F018820B1F1D8018C92C801029639
:1028700057FE07C02DE211962C93519441945108B4
:1028800003C02BE2F80121838C01065F1F4F20E07B
:1028900030E02F5F3F4FF8013196C2016AE070E0EF
:1028A0000E94F437805DD8018C932B01611571056E
:1028B00011F08F01EECF22303105DCF3E21BF30B78
:1028C000199781918E932150310912161306CCF37A
:1028D00009501109C256DF4FB881CE59D040BB23F1
:1028E00009F461C0E92DEC7F9E2ECE56DF4FF881B2
:1028F000C259D0409F2ACD56DF4F2881C359D040BE
:1029000020FB92F8CF56DF4F3881C159D04030FBC1
:1029100093F8C057DF4F4881C059D04040FB94F82E
:10292000CC56DF4F5881C459D04050FB95F8C05663
:10293000DF4F8881C05AD04080FB96F8CB56DF4FDE
:102940009881C559D04090FB97F8292D237081E0DC
:1029500090E011F480E090E09101281B390BF50123
:1029600040E35F01C8018E1B9F0B82179307DCF4C5
:102970004293F7CFC557DF4FB982A882CB58D040DA
:10298000C456DF4FF983E883CC59D040D12C0FE1F6
:1029900011E08CE1A82E81E0B82E06C0D12C8E016A
:1029A0000A571F4F01C0D12C0A191B0920163106E6
:1029B0000CF440C0A92DAC7F9A2ECE56DF4FB881C3
:1029C000C259D0409B2ACD56DF4FE881C359D04031
:1029D000E0FB92F8CF56DF4FF881C159D040F0FBB1
:1029E00093F8C057DF4F2881C059D04020FB94F89E
:1029F000CC56DF4F3881C459D04030FB95F8C056D3
:102A0000DF4F4881C05AD04040FB96F8CB56DF4F8D
:102A10005881C559D04050FB97F87101E01AF10A6E
:102A2000292D237081E090E011F480E090E0E81A15
:102A3000F90A02C0E12CF12CCF56DF4F8881C15931
:102A4000D040811122C031E0E31AF108F7FC1DC02B
:102A5000C656DF4F68817981CA59D04080E2C85696
:102A6000DF4FE881F981C859D0400995C257DF4F3F
:102A700028813981CE58D0402F5F3F4FC257DF4F5A
:102A800039832883CE58D040DECF492D4C7F942EF9
:102A9000CE56DF4F5881C259D040952ACD56DF4FD0
:102AA0008881C359D04080FB92F8CF56DF4F988180
:102AB000C159D04090FB93F8C057DF4FA881C0594F
:102AC000D040A0FB94F8CC56DF4FB881C459D04019
:102AD000B0FB95F8C056DF4FE881C05AD040E0FB0C
:102AE00096F8CB56DF4FF881C559D040F0FB97F8E8
:102AF000892D837001F1813011F48BE201C08DE2E8
:102B0000C656DF4F68817981CA59D040C856DF4F19
:102B1000E881F981C859D0400995C257DF4F288113
:102B20003981CE58D0402F5F3F4FC257DF4F398396
:102B30002883CE58D040D1100AC03501C257DF4F8C
:102B4000A880B980CE58D040A618B70821C0C25777
:102B5000DF4FC880D980CE58D040AC18BD08015096
:102B6000110917FD2DC0F501EC0DFD1D8491C65610
:102B7000DF4F68817981CA59D040C856DF4FE8815C
:102B8000F981C859D0400995FFEFCF1ADF0AE7CF86
:102B90006501C60CD71C0150110917FD11C0C6569E
:102BA000DF4F68817981CA59D040D3018D913D01B1
:102BB000C856DF4FE881F981C859D0400995E8CF60
:102BC000CF56DF4FF881C159D040FF2309F40CC91B
:102BD00021E0E21AF108F7FC07C9C656DF4F688109
:102BE0007981CA59D04080E2C856DF4FE881F98127
:102BF000C859D0400995FFEFCF1ADF0AE9CFC25775
:102C0000DF4F88819981CE58D040CC55DF4F0FB629
:102C1000F894DEBF0FBECDBFDF91CF911F910F9112
:102C2000FF90EF90DF90CF90BF90AF909F908F90EC
:102C30007F906F905F904F903F902F900895CF922C
:102C4000DF92EF92FF920F931F93CF93DF931F9228
:102C5000CDB7DEB77C01462F82E8860F9701265B51
:102C60003E4F6901823010F06B3149F4F60160810A
:102C700071818BE190E049830E94F90D4981D70170
:102C8000A05BBE4F2C9111965C911197842F90E020
:102C9000FC01E227EE0FFF1FE654FC4F2591349113
:102CA000052F10E0202731272D933C93F6016081FA
:102CB00071810F90DF91CF911F910F91FF90EF9055
:102CC000DF90CF900C94F90D2F923F924F925F922C
:102CD0006F927F928F929F92AF92BF92CF92DF922C
:102CE000EF92FF920F931F93CF93DF93CDB7DEB791
:102CF000C455D1090FB6F894DEBF0FBECDBF8C010D
:102D00005C0126EBA21A2EEFB20A4C014BEA841AA0
:102D10004EEF940A7C0184EBE81A8EEFF80AD50195
:102D20008D919C910E942F0E8F3FBFEF9B0709F45E
:102D300041C1F401208121110CC18E37910509F0A8
:102D4000FAC0D7014D915C91F801E25BFE4F1F0183
:102D50004231510508F4E1C080819181883B904F58
:102D600009F0DBC0D801FE013896CE010E962D91F8
:102D70002695203209F420E02193E817F907B9F7E6
:102D8000D80116968C91169786958F708E87179618
:102D9000FE013196CF0106962D912695203209F439
:102DA00020E02193E817F907B9F7F8013D96D8011B
:102DB0001D968C9186958F708F8329964FAC29979D
:102DC000512C61E070E0808180FF19C028965FAED1
:102DD000289729964FAE29972181822F90E02B9634
:102DE0009FAF8EAF2B97039709F463C01F922F9369
:102DF0008DE991E09F938F9384E793E068C0B7E0FB
:102E0000B51520F366246394712C6C0E7D1E27E0AB
:102E1000529E600C711C1124CF01019663969FAFE6
:102E20008EAF639780E090E0252D30E06396AEADE5
:102E3000BFAD6397DD906396BFAFAEAF6397D69497
:102E4000B0E2DB1202C0C12C01C0CD2CD301A80F0F
:102E5000B91F1E96CC9201968630910539F73796A8
:102E60009081B7E0CB2EC29ED001C39EB00D11243D
:102E7000CC24C394D12CCC0EDD1EAC0DBD1D892FEE
:102E800086958F7054968C9397FF08C0CB0102C033
:102E9000880F991F2A95E2F7482A09C0DB0102C072
:102EA000AA0FBB1F2A95E2F79D0120954222539459
:102EB0008ACF82812C968FAF2C97803F99F01F92FA
:102EC0008F938DE991E09F938F9383E393E09F939A
:102ED0008F930E9415350F900F900F900F900F90C9
:102EE0000F901BC0339642505109C8018E1B9F0B97
:102EF000480F591F60965FAF4EAF60972E96FFAF99
:102F0000EEAF2E97F801EE5AFE4F0190F081E02DC2
:102F1000309719F0CE010196099581E0F801EC5A3D
:102F2000FE4F80838FEF9FEFD1018D939C93F7012C
:102F300011821082F4CE8F37910529F4F801EC5AF2
:102F4000FE4F1082ECCE8B31910519F481E0808325
:102F5000E6CEF801EC5AFE4F2081222341F1D70141
:102F60002D913C912A34B1E03B0700F5A9014F5F58
:102F70005F4FF70151834083F801E20FF31F808315
:102F8000D801A25BBE4F2D913C911197F901E82722
:102F9000FF27EE0FFF1FE654FC4F85919491232FDE
:102FA0003327822793278D939C9301C01082D401ED
:102FB0001C92B5CEF50100811181D8011C968D912E
:102FC0009C911D97892B41F449E451E061E273E043
:102FD00087E193E00E949735D8011C96ED91FC9112
:102FE0001D97C8010995892B09F444C0F50100819A
:102FF0001181D8011C968D919C911D97892B41F4CC
:1030000049E451E061E273E087E193E00E94973583
:10301000D8011C96ED91FC911D97C80109959F93CD
:103020008F9382EA91E09F938F9380EA93E09F933E
:103030008F930E941535F501008111810F900F903B
:103040000F900F900F900F90D8011E968D919C912C
:103050001F97892B41F442E551E065E073E088EF6A
:1030600092E00E949735D8011E96ED91FC911F9732
:10307000C8010995CC5ADF4F0FB6F894DEBF0FBEDA
:10308000CDBFDF91CF911F910F91FF90EF90DF9017
:10309000CF90BF90AF909F908F907F906F905F90F8
:1030A0004F903F902F9008952F923F924F925F92B2
:1030B0006F927F928F929F92AF92BF92CF92DF9248
:1030C000EF92FF920F931F93CF93DF93CDB7DEB7AD
:1030D0002C970FB6F894DEBF0FBECDBF9C878B87B1
:1030E0007B015A01288739871D830C83611571057F
:1030F00041F448EF50E066EE72E081EE92E00E940B
:10310000973522E0A216B10440F449EF50E06FEC8D
:1031100072E081EC92E00E9497354B845C8480EBF6
:10312000481A8EEF580A8FEF9FEFF2019183808348
:103130006B847C84F6EB6F1AFEEF7F0AF3016081EB
:1031400071818EE790E00E94F90DC12CD12CC50150
:1031500001979F838E83CA14DB0409F468C021E0C1
:1031600029838E819F81C816D90609F01982F7013B
:1031700001900020E9F78F01015011090E191F0974
:103180000730110510F006E010E0C8018E0D9F1DFC
:103190009B838A8317018A819B812816390601F156
:1031A000F10121911F01822E912CC4012A870E94D6
:1031B00093392A85892B51F4203241F04BED50E0B0
:1031C0006CE772E085E692E00E949735C4010E94A8
:1031D000A739682F660F8B859C850E941F16DBCF51
:1031E0000630110599F0812C912CE6E0F0E0E01B0F
:1031F000F10B8F018016910648F460E48B859C8565
:103200000E941F16FFEF8F1A9F0AF4CF89818066F4
:10321000F7016681660F682B8B859C850E941F16BF
:10322000FFEFCF1ADF0A27E0E20EF11C94CF63E034
:103230008B859C850E941F1660EF8B859C850E9464
:103240001F1608851985EC80FD80E00EF11E0E1515
:103250001F0541F0F80161918F018B859C850E94CB
:103260001F16F5CFF2016081118160958B859C85D9
:103270000E941F16612F60958B859C850E941F16EA
:10328000F20180819181883B904F41F042E151E011
:103290006FEA72E08EE892E00E949735F301608158
:1032A00071818EE790E02C960FB6F894DEBF0FBECA
:1032B000CDBFDF91CF911F910F91FF90EF90DF90E5
:1032C000CF90BF90AF909F908F907F906F905F90C6
:1032D0004F903F902F900C94F90DEF92FF920F9327
:1032E0001F93CF93DF93EC018B017A01009741F498
:1032F00042E451E063E572E08FE492E00E9497358A
:103300000115110541F443E451E06DE372E085E3FA
:1033100092E00E94973586E591E0FE019C011192B2
:1033200021503040E1F7FE01E65BFE4F1183008340
:10333000FE01EE5AFE4FF182E082FE01E05BFE4F9D
:103340008FEF9FEF91838083C25BDE4F99838883E9
:10335000DF91CF911F910F91FF90EF9008956AEC4C
:1033600073E00C94CE2178940E94CB0D60E070E065
:103370008AEC93E00E941B0D40E855E260E070E0AB
:103380008AEC93E00E94FC0B86E08093C20060E030
:1033900070E082E595E00E94341F4FEA59E162E552
:1033A00075E08CEF93E00E946D190E94D9208FB7D1
:1033B000F894C0903C06D0903D06E0903E06F09018
:1033C0003F068FBFC1E08CEF93E00E9464168091AE
:1033D0007A0281112EC08AEC93E00E94EE0B8823C2
:1033E00041F18AEC93E00E94CA0B80937D02909396
:1033F0007E0220917B0230917C02F901E158FD4F61
:10340000A9014F5F5F4F808350937C0240937B0202
:103410002934314010F0C0937A028FB7F894C090ED
:103420003C06D0903D06E0903E06F0903F068FBFF0
:103430001BC080917B0290917C02892BA9F02FB751
:10344000F89480913C0690913D06A0913E06B09183
:103450003F062FBF8C199D09AE09BF090397A1052F
:10346000B10514F0C0937A0280917A02882309F49E
:10347000AACF60917B0270917C022CEF33E04AEC82
:1034800053E08FE792E00E94282610927A02109271
:103490007C0210927B0297CFCF93DF93EC01709365
:1034A0002D0660932C068630910544F041E250E0F1
:1034B00062EC75E08AEB95E00E94973510928000EF
:1034C00089E18093810081E896E090938700809362
:1034D00086008C2F806480937C0087B121E030E0EF
:1034E00001C0220FCA95EAF7922F9095892387B9D8
:1034F00088B1892388B980917E00822B80937E00D9
:1035000087E080937B008CEE80937A00DF91CF91EF
:1035100008951F920F920FB60F9211242F933F938D
:103520004F935F936F937F938F939F93AF93BF93CB
:10353000EF93FF9380E286BB6091780070917900F1
:103540007695679576956795605880912C06909151
:103550002D060E944B1C80914206882349F08091E1
:103560002C0690912D060E941B1E807F886007C04C
:1035700080914106882311F088E801C080E88BB96A
:10358000FF91EF91BF91AF919F918F917F916F913B
:103590005F914F913F912F910F900FBE0F901F9011
:1035A0001895AF92BF92CF92DF92EF92FF920F9356
:1035B0001F93CF93DF936C01EB017A01DC015096EE
:1035C0000D911D912D913C9153970D341B44234532
:1035D000364441F04EE650E069EE75E083ED95E04B
:1035E0000E9497355E01CE018E0D9F1DF601EB57AF
:1035F000FF4FA816B90671F4C5018C1B9D0BDF9116
:10360000CF911F910F91FF90EF90DF90CF90BF90DF
:10361000AF9008956FB7F894408151812281338132
:103620006FBF4217530741F32FB7F894C0903C0681
:10363000D0903D06E0903E06F0903F062FBF6FB75A
:10364000F89440815181228133816FBF4217530723
:10365000A9F44FB7F89400913C0610913D062091D3
:103660003E0630913F064FBF0C191D092E093F0938
:10367000101611061206130614F7BECF6FB7F89492
:1036800020813181468157812417350719F44481FF
:10369000558105C020813181A9014F5F5F4F518362
:1036A0004083D9012C916FBFD5012D935D01A1CF2E
:1036B0006F927F928F929F92AF92BF92CF92DF9242
:1036C000EF92FF920F931F93CF93DF93EC018B0147
:1036D0007A0188899989AA89BB898D349B44A3453D
:1036E000B64441F04EE650E069EE75E083ED95E0BA
:1036F0000E949735F801A8014E0D5F1D99249394FF
:10370000BB24B3943E0187E7680E711C20E430E0CF
:1037100065E370E088E0E82EF12CE417F50709F482
:103720004EC0AFB6F894CFA4D8A88BA99CA9C81650
:10373000D90639F4C9A8DAA88DA99EA9C816D90650
:1037400069F0C9A8DAA88FA598A90197882483945D
:10375000C816D90609F0812C882D01C081E0AFBEC2
:1037600080FDDFCFD190AFB6F89489A99AA9DC018A
:10377000DC92C9A8DAA88DA99EA9C816D90619F4A1
:103780008BA99CA903C089A99AA901969AAB89AB78
:10379000AFBED3018C9181110CC03EA72DA71CA6F2
:1037A0001BA61AA69C92299A7BA36AA35B9AB09245
:1037B00042068FB7F894FDA2ECA28FBFAECFCF0127
:1037C000801B910BDF91CF911F910F91FF90EF9094
:1037D000DF90CF90BF90AF909F908F907F906F9031
:1037E0000895CF93DF93EC01488959896A897B89D1
:1037F0004D345B446345764441F04EE650E069EE5B
:1038000075E083ED95E00E949735C958DF4F8881B8
:103810008111FDCF80E090E0DF91CF910895CF93AB
:10382000DF93EC01488959896A897B894D345B446F
:103830006345764441F04EE650E069EE75E083ED75
:1038400095E00E9497352FB7F894C852DF4F8881D2
:1038500099812FBFDF91CF910895CF93DF93EC0132
:10386000488959896A897B894D345B44634576442C
:1038700041F04EE650E069EE75E083ED95E00E9480
:1038800097358FB7F894C852DF4F198218828FBFCF
:10389000DF91CF910895EF92FF920F931F93CF93F3
:1038A000DF93FC018C0101531F4FD8014D915C91B6
:1038B000DC01A353BF4F4D935C93DC01A858BF4F6D
:1038C0008D919C91119716962D913C911797821787
:1038D000930729F414962D913C91159706C08D916C
:1038E0009C9111979C012F5F3F4F11963C932E9313
:1038F000EC012881260290011124359527953595F4
:103900002795E801398328837F01D3EDED0EF11C63
:10391000E701888199818F010F521F4FE801998338
:10392000888395958795840F951F820F931FE701D4
:1039300099838883AF014B525F4F21E01816190617
:103940000CF020E0EA018881880F822B8883129690
:103950008D919C911397EC01688312962D913C9167
:10396000139716968D919C9117972817390729F46C
:1039700014968D919C91159705C012968D919C91EE
:103980001397019613969C938E931297DA019C914C
:10399000892F8695869589278370DF01AA52BF4FAC
:1039A000833039F48C91803214F48F5F01C08150E0
:1039B0008C938C91885F8C9380340CF435C18F7319
:1039C0008C93DF01A952BF4F8C91880F97702BEF1A
:1039D000290F233010F0933009F481608C939C916F
:1039E000892F8695892780958170968D990F892BCF
:1039F000868F8E3709F04EC0DF01AB57BF4F2D9138
:103A00003C91119714968D919C9115972817390721
:103A100059F412962D913C91139716968D919C9185
:103A200017972817390779F012962D913C91139723
:103A30008D919C911197019741E02817390709F062
:103A400040E0842F01C081E080FDDDC01296CD9161
:103A5000DC9113978EE7888312962D913C911397F2
:103A600016968D919C9117972817390729F414966B
:103A70008D919C91159705C012968D919C911397ED
:103A8000019613969C938E93129781E081A32A9AB4
:103A900041E0BCC0982F9F779F3719F411A22A9854
:103AA000C3C091A1992309F4BFC0982F9F739E337F
:103AB00009F4BAC080FF03C080A1806880A3878D0D
:103AC0008F5F878F90A1883008F4ACC0DF01AB57BF
:103AD000BF4F82E8890F823018F09B3109F04BC04C
:103AE0002D913C91119714968D919C9115972817C3
:103AF000390759F412962D913C91139716968D9192
:103B00009C9117972817390779F012962D913C91BF
:103B100013978D919C911197019741E028173907D0
:103B200009F040E0842F01C081E080FD20C01296A2
:103B3000CD91DC9113978BE1888312962D913C9166
:103B4000139716968D919C9117972817390729F48A
:103B500014968D919C91159705C012968D919C910C
:103B60001397019613969C938E93129704C011A2FB
:103B70002A9840E001C041E02D913C9111971496A4
:103B80008D919C9115972817390759F412962D910C
:103B90003C91139716968D919C911797281739078A
:103BA00079F012962D913C9113978D919C911197DC
:103BB000019751E02817390709F050E0852F01C01F
:103BC00081E080FD20C080A11296CD91DC911397F9
:103BD000888312962D913C91139716968D919C9106
:103BE00017972817390729F414968D919C911597EA
:103BF00005C012968D919C911397019613969C93F4
:103C00008E93129703C011A22A9840E010A2178E3B
:103C100041110AC0E852FF4F8081918181609183F8
:103C2000808302C0969590A3DF91CF911F910F9151
:103C3000FF90EF900895DC0196968C9196978111F4
:103C4000EAC098968C9198978111A0C09F962D916B
:103C50003C91D097D1968D919C91D2972817390796
:103C600039F494968D919C919597892B09F45CC0B9
:103C700099968C919997811103C09A961C929A9764
:103C800081E099968C93999792968D919C919397B8
:103C9000009789F59F962D913C91D097D1968D9163
:103CA0009C91D2972817390751F494968D919C9145
:103CB0009597019795969C938E93949721C09F9684
:103CC000ED91FC91D097D5968D919C91D697E81760
:103CD000F90729F4D3968D919C91D49706C09F96AD
:103CE000ED91FC91D097CF010196D0969C938E9345
:103CF0009F97808106C0019793969C938E9392978D
:103D00008EE797968C93979797968C9197978B3190
:103D100099F59F962D913C91D097D1968D919C913C
:103D2000D2972817390749F45B9810924206A95890
:103D3000BF4F1C92299880E008959F96ED91FC91C9
:103D4000D097D5968D919C91D697E817F90729F4CD
:103D5000D3968D919C91D49706C09F96ED91FC913E
:103D6000D097CF010196D0969C938E939F97808198
:103D700097968C93979706C08E57823018F4999631
:103D80001C92999781E098968C93989799962C918C
:103D900099979D968D919C919E972223A9F09A9632
:103DA0002C919A97253080F09A961C929A9780349D
:103DB000910519F485E790E002C080E490E09E96BA
:103DC0009C938E939D9723C098963C919897979635
:103DD0002C919797232341F09A968C919A978F5F15
:103DE0009A968C939A970FC09A961C929A978034C1
:103DF000910519F485E790E002C080E490E09E967A
:103E00009C938E939D97330F98963C93989788E058
:103E100096968C9396979D96ED91FC919E979B9686
:103E20008D919C919C97E80FF91F9F0131709C9692
:103E30003C932E939B9796968C919697815096964D
:103E40008C93FF27E038F10530F08FEF90E0AC0164
:103E50004E1B5F0BFA01EA50FA4F84912F3F310558
:103E600011F008F080950895CF93DF93EC01CB011A
:103E70002AEDFE0111922A95E9F77D8F6C8F20E4DF
:103E800030E03EA72DA79E0120583F4FFE01E85885
:103E9000FF4F3583248333832283318320839E0124
:103EA0002C573F4F378326839E0123573F4FDE0118
:103EB000AB57BF4F15963C932E93149713963C9394
:103EC0002E93129711963C932E939E0124533F4FAD
:103ED00017963C932E9316979E01295C3F4F3CAB5F
:103EE0002BAB3AAB29AB38AB2FA79E012A583F4FDB
:103EF0003EAB2DAB24E030E0A281B3811C92628105
:103F00007381468157816417750719F4448155817F
:103F100004C0428153814F5F5F4F538342832150DE
:103F200031092115310541F7BE010E944C1A8AB1B1
:103F3000886F8AB9219A229A4DE45BE463E576E4BE
:103F4000488B598B6A8B7B8B88E59BE19B838A83AB
:103F500081ED9AE19983888381EF9BE19B878A8732
:103F60008FE09CE19D878C878DE29CE19F878E8707
:103F7000DF91CF9108956FEF8AE290E00E94E039DF
:103F800080914B01882341F08AE290E19F938F93C7
:103F90000E9415350F900F9080914B0181110CC03C
:103FA00080913706811108C087E290E19F938F933B
:103FB0000E9415350F900F900895CF938AE290E0FC
:103FC0000E94C839893609F0C7C046E050E064E273
:103FD00070E085E491E00E94B83946E050E06EE17F
:103FE00070E08FE391E00E94B83946E050E068E16C
:103FF00070E089E391E00E94B83946E050E062E168
:1040000070E081E391E00E94B83981E190E00E9484
:10401000C83990E0909334068093330680E190E0B5
:104020000E94C83990E090933206809331068FE069
:1040300090E00E94C83990E0909338018093370156
:104040008EE090E00E94C83990E090933001809318
:104050002F018DE090E00E94C83991E0811101C0EC
:1040600090E0909350018CE090E00E94C83991E07C
:10407000811101C090E090934F018BE090E00E948D
:10408000C83991E0811101C090E090934E018AE01F
:1040900090E00E94C83991E0811101C090E09093B6
:1040A0004D0189E090E00E94C83991E0811101C082
:1040B00090E090934C0188E090E00E94C839C1E004
:1040C000811101C0C0E0C0934B0187E090E00E94E5
:1040D000C83991E0811101C090E09093370686E0E5
:1040E00090E00E94C83980932C0185E090E00E9406
:1040F000C83980932B0184E090E00E94C8398093F6
:104100002A0183E090E00E94C8398093290182E06F
:1041100090E00E94C83980932E0181E090E00E94D7
:10412000C83980932D0180E090E00E94C83991E069
:10413000811101C090E090932E06CC23C1F18091B3
:1041400036068823A1F181E190E19F938F930E942D
:1041500015350F900F902BC080913606882381F083
:104160008091370681110CC080914B01882341F06A
:1041700088EE9FE09F938F930E9415350F900F90CC
:1041800080913606882381F08091370681110CC01A
:1041900080914B01811108C085EE9FE09F938F9322
:1041A0000E9415350F900F9081E080933506CF91D6
:1041B00008950E94DD1F81E08093360680914B01B7
:1041C0008823E9F12FEF85EA9EE02150804090405E
:1041D000E1F700C0000081EC90E19F938F930E9473
:1041E000153580EB90E19F938F930E94153589E9F7
:1041F00090E19F938F930E9415350F900F900F9031
:104200000F900F900F9080913506882341F08AE738
:1042100090E19F938F930E9415350F900F908DE63C
:1042200090E19F938F930E9415358CE590E19F93C9
:104230008F930E9415350F900F900F900F90089557
:1042400046E050E064E270E085E491E00E94D039FD
:1042500046E050E06EE170E08FE391E00E94D039DB
:1042600046E050E068E170E089E391E00E94D039D7
:1042700046E050E062E170E081E391E00E94D039D5
:104280006091330681E190E00E94E039609131064F
:1042900080E190E00E94E039609137018FE090E08A
:1042A0000E94E03960912F018EE090E00E94E03999
:1042B000609150018DE090E00E94E03960914F01E3
:1042C0008CE090E00E94E03960914E018BE090E03C
:1042D0000E94E03960914D018AE090E00E94E0394F
:1042E00060914C0189E090E00E94E03960914B01BF
:1042F00088E090E00E94E0396091370687E090E026
:104300000E94E03960912C0186E090E00E94E03943
:1043100060912B0185E090E00E94E03960912A01D4
:1043200084E090E00E94E0396091290183E090E010
:104330000E94E03960912E0182E090E00E94E03915
:1043400060912D0181E090E00E94E03960912E069D
:1043500080E090E00E94E03969E68AE290E00E9405
:10436000E03980914B01882341F080ED9FE09F93DD
:104370008F930E9415350F900F9080914B01811102
:104380000CC080913706811108C08DEC9FE09F938F
:104390008F930E9415350F900F9008958F929F92E2
:1043A000AF92BF92CF92DF92EF92FF920F931F9343
:1043B000CF93DF93EC014B01809150018823F1F002
:1043C00080914C01882329F06DEA71E0C4010E94BC
:1043D0006D0E8E811F928F93DF93CF9383EB91E0CD
:1043E0009F938F939F928F920E945B0EEDB7FEB7C3
:1043F00038960FB6F894FEBF0FBEEDBF80914F0107
:10440000882339F180914C01882361F08EEB91E093
:104410009F938F939F928F920E945B0E0F900F90AD
:104420000F900F908D851F928F93CE0107969F93CB
:104430008F9383EB91E09F938F939F928F920E9433
:104440005B0E8DB79EB708960FB6F8949EBF0FBE51
:104450008DBF80914E01811105C080914D01811168
:1044600037C05CC080914C01882329F064EC71E076
:10447000C4010E946D0E8E01025F1F4FE12CF12CD2
:104480005E0196E4A90EB11C83EBC82E81E0D82E04
:10449000F501808190E0E816F906FCF6F8018681C6
:1044A0001F928F931F930F93DF92CF929F928F92C1
:1044B0000E945B0EFFEFEF1AFF0A095F1F4F8DB7D7
:1044C0009EB708960FB6F8949EBF0FBE8DBFE0CF83
:1044D00080914C01882329F06BEC71E0C4010E94AB
:1044E0006D0EFE01E55BFF4F81818F9380818F937D
:1044F000C35BDF4F89818F9388818F9322ED31E0F9
:104500003F932F939F928F920E945B0E8DB79EB721
:1045100008960FB6F8949EBF0FBE8DBF67ED71E091
:10452000C401DF91CF911F910F91FF90EF90DF9029
:10453000CF90BF90AF909F908F900C946D0E0F9383
:104540001F939C01CA0146E0EFE3F1E0A1E6B6E06B
:1045500001900D924A95E1F740913106409367062C
:1045600046E0E5E4F1E0A0ECB6E001900D924A955A
:10457000E1F7409133064093C60646E0E9E3F1E0F7
:10458000A8E6B6E001900D924A95E1F74091370117
:1045900040936E0646E0E1E3F1E0A0EDB6E0019065
:1045A0000D924A95E1F740912F014093D60647E0DE
:1045B000E1E6F6E0A3E4B6E001900D924A95E1F75A
:1045C00047E0E0ECF6E0AAE4B6E001900D924A95EF
:1045D000E1F747E0E8E6F6E0A1E5B6E001900D92EC
:1045E0004A95E1F747E0E0EDF6E0A8E5B6E0019096
:1045F0000D924A95E1F78B0144E050E063E476E0E8
:104600000E9454181F910F9108956F927F929F926C
:10461000AF92BF92CF92DF92EF92FF920F931F93D0
:10462000CF93DF931F92CDB7DEB75C018B016A0198
:104630007B0184E1E80EF11C20912C012A3098F4D2
:1046400080912B018A3078F480912A018A3058F4C5
:1046500080912901893038F47B01EBE1EE0EF11CE9
:104660009924939401C0912CC70129830E946C382E
:104670003C018DE3F301808380912E01818780913D
:104680002D01838B88E0E8EBF6E0D30111960190D1
:104690000D928A95E1F789E0E7ECF6E0D3011A96EE
:1046A00001900D928A95E1F72981911003C0C30111
:1046B000449617C080E5F301848B88E4858B87E4FA
:1046C000868B205D278B80912B01805D808F809170
:1046D0002A01805D818F80912901805D828FC301D5
:1046E0004B960115110521F0A801B5010E94AF39C3
:1046F000A601B701C3010E949F22C3010F90DF9161
:10470000CF911F910F91FF90EF90DF90CF90BF90CE
:10471000AF909F907F906F900C9404398F929F92EE
:10472000AF92BF92CF92DF92EF92FF920F931F93BF
:10473000CF93DF935C016A018B016434710510F043
:1047400003E410E078012FE0E20EF11CC7010E94A3
:104750006C38EC018AE3888387E090E020E030E069
:104760000197009769F0F901E159F94F408144231D
:10477000B9F32F5F3F4FFE01E20FF31F4083F0CFED
:1047800080912701909128018F3F4FEF940779F096
:10479000FE01E20FF31F4DE241838A3091054CF494
:1047A0002E5F3F4FFE01E20FF31F805D808380E2AA
:1047B00009C091E392832D5F3F4FFE01E20FF31F8B
:1047C0008A5DF4CF293031053CF42F5F3F4FFE0165
:1047D000E20FF31F8083F6CFFE01E20FF31F8AE39F
:1047E00081830115110581F0A801B501CE010B9659
:1047F0000E94AF39A801B50185E796E00E94AF3964
:104800001093600600935F0680912F06909130060A
:104810000196883E23E092072CF490933006809313
:104820002F0604C01092300610922F06FE01E00FF2
:10483000F11F8BE7838700912F06109130069AE0D5
:10484000892E912CC801B4010E94F4379C0144E6E2
:10485000A42EB12CC801B5010E94F437821B930B22
:10486000B4010E94F437AB01C801861B970B821B71
:10487000930BB5010E94F437605D6487405D458706
:10488000205D2687A601B701CE010E949F22CE019E
:10489000DF91CF911F910F91FF90EF90DF90CF901C
:1048A000BF90AF909F908F900C94043920912F0669
:1048B00030913006215031093093300620932F0675
:1048C00060915F0670916006AC0185E796E00C94FC
:1048D0008E2382E39CE09F938F930E9415358091F5
:1048E00034068F93809133068F9385E491E09F93F4
:1048F0008F938FE19CE09F938F930E941535809159
:1049000032068F93809131068F938FE391E09F93CE
:104910008F9389E09CE09F938F930E94153580913F
:1049200038018F93809137018F9389E391E09F93B2
:104930008F9389EF9BE09F938F930E941535809111
:1049400030018F9380912F018F9381E391E09F93AA
:104950008F9389EE9BE09F938F930E9415358DB7BF
:104960009EB74A960FB6F8949EBF0FBE8DBF80913A
:104970002E06882319F082ED9BE002C08AEB9BE0B3
:104980009F938F930E9415350F900F9080912C016B
:104990008A3061F01F928F938FEA9BE09F938F93F1
:1049A0000E9415350F900F900F900F9080912B0162
:1049B0008A3061F01F928F9383EA9BE09F938F93DD
:1049C0000E9415350F900F900F900F9080912A0143
:1049D0008A3061F01F928F9389E99BE09F938F93B8
:1049E0000E9415350F900F900F900F908091290124
:1049F0008A3061F01F928F9388E89BE09F938F939A
:104A00000E9415350F900F900F900F9080912E01FE
:104A10008C3541F48FE69BE09F938F930E94153570
:104A20000F900F9080912E018F3241F487E59BE02B
:104A30009F938F930E9415350F900F9020912D0119
:104A4000822F992787FD90959F932F938BE49BE06E
:104A50009F938F930E9415350F900F900F900F909A
:104A6000089587E29BE09F938F930E94153585E11F
:104A70009BE09F938F930E9415358AEF9AE09F9356
:104A80008F930E94153581EC9AE09F938F930E943B
:104A9000153583EA9AE09F938F930E94153586E837
:104AA0009AE09F938F930E94153582E69AE09F9338
:104AB0008F930E94153584E49AE09F938F930E9410
:104AC000153585E29AE09F938F930E9415358CE00F
:104AD0009AE09F938F930E9415358CEE99E09F93F7
:104AE0008F930E94153582ED99E09F938F930E94DA
:104AF000153587EB99E09F938F930E94153584E8D5
:104B000099E09F938F930E94153580E599E09F93DC
:104B10008F930E94153583E399E09F938F930E94B2
:104B200015358DB79EB780960FB6F8949EBF0FBE11
:104B30008DBF80E199E09F938F930E9415358FEE92
:104B400098E09F938F930E94153587EC98E09F9390
:104B50008F930E9415358EEA98E09F938F930E9461
:104B6000153589E798E09F938F930E9415358FE460
:104B700098E09F938F930E94153589E298E09F9368
:104B80008F930E9415358BE098E09F938F930E943E
:104B9000153582EE97E09F938F930E94153586EC32
:104BA00097E09F938F930E9415358AEA97E09F9331
:104BB0008F930E9415358DE897E09F938F930E9405
:104BC000153580E797E09F938F930E94153582E516
:104BD00097E09F938F930E94153583E397E09F930F
:104BE0008F930E94153584E197E09F938F930E94E5
:104BF00015358DB79EB780960FB6F8949EBF0FBE41
:104C00008DBF86EF96E09F938F930E94153588EDB8
:104C100096E09F938F930E94153589EB96E09F93C2
:104C20008F930E9415358AE996E09F938F930E9497
:104C3000153586E796E09F938F930E9415358DB7C3
:104C40009EB70A960FB6F8949EBF0FBE8DBF08950B
:104C50000F931F93CF93DF93EC01FA01A901611524
:104C6000710509F4CBC68881813209F5623071057E
:104C700008F480C661507109CE0101960E949F22FE
:104C800080914B01882341F080EC9FE09F938F93AC
:104C90000E9415350F900F9080914B018111AEC687
:104CA000809137068111AAC68DEB9FE079C68034CA
:104CB000E9F461507109CE0101960E9405238091AB
:104CC0004B01882341F087EA9FE09F938F930E94D6
:104CD00015350F900F9080914B0181118FC68091F7
:104CE000370681118BC684EA9FE05AC68332E9F405
:104CF00061507109CE0101960E948E2380914B0173
:104D0000882341F086E99FE09F938F930E94153599
:104D10000F900F9080914B01811170C680913706E2
:104D200081116CC683E99FE03BC6883631F4DF9180
:104D3000CF911F910F910C943125883431F4DF917C
:104D4000CF911F910F910C946924833531F4DF9139
:104D5000CF911F910F910C942021833431F4DF9176
:104D6000CF911F910F910C94BB1F8C3431F4DF91C4
:104D7000CF911F910F910C94DD1F833609F052C023
:104D80006430710508F4F6C5E5E4F1E081E090E0F7
:104D90009C012150310986179707A9F087309105AA
:104DA00081F0DE01A80FB91F2C91222331F02A30A7
:104DB00021F02D3011F0208301C010820196319630
:104DC000E7CF26E030E02630310539F0F901EB5B22
:104DD000FE4F10822F5F3F4FF6CF80914B0188230B
:104DE000B1F0809134068F93809133068F9385E4E0
:104DF00091E09F938F9380E89FE09F938F930E9411
:104E000015350F900F900F900F900F900F9080918D
:104E10004B018111F3C5809137068111EFC58DE7F4
:104E20009FE0BEC5843609F052C06430710508F4B5
:104E3000A1C5EFE3F1E081E090E09C012150310950
:104E400086179707A9F08730910581F0DE01A80F3A
:104E5000B91F2C91222331F02A3021F02D3011F08E
:104E6000208301C0108201963196E7CF26E030E022
:104E70002630310539F0F901E15CFE4F10822F5FD9
:104E80003F4FF6CF80914B018823B1F080913206DD
:104E90008F93809131068F938FE391E09F938F934F
:104EA00087E69FE09F938F930E9415350F900F9098
:104EB0000F900F900F900F9080914B0181119EC524
:104EC0008091370681119AC584E69FE069C58133D8
:104ED00009F052C06230710508F44CC5E9E3F1E015
:104EE00081E090E09C012150310986179707A9F0D5
:104EF0008730910581F0DE01A80FB91F2C91222384
:104F000031F02A3021F02D3011F0208301C01082C1
:104F100001963196E7CF26E030E02630310539F0B2
:104F2000F901E75CFE4F10822F5F3F4FF6CF809173
:104F30004B018823B1F0809138018F938091370124
:104F40008F9389E391E09F938F9384E59FE09F93F4
:104F50008F930E9415350F900F900F900F900F9028
:104F60000F9080914B01811149C5809137068111C5
:104F700045C581E59FE014C5823309F052C0623017
:104F8000710508F4F7C4E1E3F1E081E090E09C01F1
:104F90002150310986179707A9F08730910581F0D4
:104FA000DE01A80FB91F2C91222331F02A3021F005
:104FB0002D3011F0208301C0108201963196E7CF89
:104FC00026E030E02630310539F0F901EF5CFE4F84
:104FD00010822F5F3F4FF6CF80914B018823B1F0B5
:104FE000809130018F9380912F018F9381E391E025
:104FF0009F938F9381E49FE09F938F930E94153539
:105000000F900F900F900F900F900F9080914B0189
:105010008111F4C4809137068111F0C48EE39FE0C2
:10502000BFC4833709F0EFC06330710508F4A2C430
:105030008B010150110989818336C1F502301105B8
:1050400021F08B8190E0869703C08A8190E0C09721
:10505000909334068093330680914B018823B1F0FE
:10506000809134068F93809133068F9385E491E08D
:105070009F938F938BE29FE09F938F930E941535B0
:105080000F900F900F900F900F900F9080914B0109
:1050900081110CC080913706811108C088E29FE021
:1050A0009F938F930E9415350F900F9089818436BE
:1050B000C1F50230110521F08B8190E0869703C085
:1050C0008A8190E0C0979093320680933106809158
:1050D0004B018823B1F0809132068F938091310685
:1050E0008F938FE391E09F938F9382E19FE09F9353
:1050F0008F930E9415350F900F900F900F900F9087
:105100000F9080914B0181110CC080913706811165
:1051100008C08FE09FE09F938F930E9415350F90FA
:105120000F9089818133C1F50230110521F08B8107
:1051300090E0869703C08A8190E0C09790933801F1
:105140008093370180914B018823B1F08091380121
:105150008F93809137018F9389E391E09F938F9391
:105160008FEF9EE09F938F930E9415350F900F90C5
:105170000F900F900F900F9080914B0181110CC0F8
:1051800080913706811108C08CEF9EE09F938F932A
:105190000E9415350F900F908981823309F02EC43B
:1051A0000230110521F08B8190E0869703C08A813F
:1051B00090E0C0979093300180932F0180914B0134
:1051C0008823B1F0809130018F9380912F018F93CC
:1051D00081E391E09F938F938CEE9EE09F938F935A
:1051E0000E9415350F900F900F900F900F900F9019
:1051F00080914B01811102C4809137068111FEC359
:1052000089EE9EE0CDC3803709F02CC16330710573
:1052100008F4B0C389818337C9F59A8180914B0125
:105220009133C1F491E090935001882341F086EDD1
:105230009EE09F938F930E9415350F900F90809161
:105240004B01811123C08091370681111FC083ED6E
:105250009EE016C010925001882341F08FEB9EE033
:105260009F938F930E9415350F900F9080914B0163
:1052700081110CC080913706811108C08CEB9EE033
:105280009F938F930E9415350F900F9089818436DC
:10529000C9F59A8180914B019133C1F491E09093CB
:1052A0004F01882341F089EA9EE09F938F930E94EB
:1052B00015350F900F9080914B01811123C0809183
:1052C000370681111FC086EA9EE016C010924F017A
:1052D000882341F082E99EE09F938F930E941535C9
:1052E0000F900F9080914B0181110CC08091370677
:1052F000811108C08FE89EE09F938F930E9415351F
:105300000F900F9089818037C9F59A8180914B0168
:105310009133C1F491E090934E01882341F08BE7E3
:105320009EE09F938F930E9415350F900F90809170
:105330004B01811123C08091370681111FC088E77E
:105340009EE016C010924E01882341F083E69EE055
:105350009F938F930E9415350F900F9080914B0172
:1053600081110CC080913706811108C080E69EE053
:105370009F938F930E9415350F900F9089818D36E2
:10538000C9F59A8180914B019133C1F491E09093DA
:105390004D01882341F08CE49EE09F938F930E94FF
:1053A00015350F900F9080914B01811123C0809192
:1053B000370681111FC089E49EE016C010924D018E
:1053C000882341F084E39EE09F938F930E941535DC
:1053D0000F900F9080914B0181110CC08091370686
:1053E000811108C081E39EE09F938F930E94153541
:1053F0000F900F908981893609F000C39A818091BE
:105400004B019133C1F491E090934C01882341F01A
:105410008DE19EE09F938F930E9415350F900F9022
:1054200080914B018111EAC2809137068111E6C259
:105430008AE19EE0B5C210924C01882341F085E0DC
:105440009EE09F938F930E9415350F900F9080914F
:105450004B018111D3C2809137068111CFC282E006
:105460009EE09EC28637C1F48981813331F481E0A8
:1054700080934B018AED91E004C010924B0180EFC4
:1054800091E09F938F93FF93EF930E945B0E0F9099
:105490000F900F900F90B2C2863581F489818133CD
:1054A00041F481E08093370610924B0187E092E04F
:1054B000E8CF109237068CE192E0E3CF8C3609F00A
:1054C0003FC16330710508F455C289818C3609F0FB
:1054D0005CC0615071098A81813651F56A3071056D
:1054E00008F48CC288E0FE013396A8EBB6E0019088
:1054F0000D928A95E1F780914B01882371F088EB3A
:1055000096E09F938F938CEE9DE09F938F930E94E4
:1055100015350F900F900F900F9080914B018111D6
:105520006DC280913706811169C289EE9DE038C253
:105530008F3609F063C26B30710508F45FC289E0F1
:10554000FE013396A7ECB6E001900D928A95E1F743
:1055500080914B01882371F087EC96E09F938F93A5
:1055600081ED9DE09F938F930E9415350F900F90D2
:105570000F900F9080914B01811140C280913706AE
:1055800081113CC28EEC9DE00BC2803729F58A81E7
:1055900080538A3008F032C280932C0190914B01E5
:1055A000992379F08802C00111249F938F938CEB8B
:1055B0009DE09F938F930E9415350F900F900F9051
:1055C0000F9080914B01811119C280913706811192
:1055D00015C289EB9DE0E4C18836B9F58A81805314
:1055E0008A3008F00BC280932B0190914B019923D4
:1055F00009F1A1E0B0E002C0AA0FBB1F8A95E2F753
:1056000028EE33E00E94ED3728E431E040E050E03E
:105610000E942A385F934F933F932F9389E99DE02F
:105620009F938F930E9415350F900F900F900F90BE
:105630000F900F9080914B018111E0C1809137064E
:105640008111DCC186E99DE0ABC1873631F52A8145
:1056500020532A3008F0D2C120932A0180914B01B7
:10566000882381F0822F992787FD90959F932F9310
:1056700084E89DE09F938F930E9415350F900F90C3
:105680000F900F9080914B018111B8C18091370626
:105690008111B4C181E89DE083C18436C9F58A8156
:1056A00080538A3008F0AAC1893009F488E08093D9
:1056B000290180914B0181110CC080913706811125
:1056C00008C08EE79DE09F938F930E9415350F9041
:1056D0000F9080914B01882309F490C1809129019A
:1056E000811108C085E69DE09F938F930E94153538
:1056F0000F900F9080912901882309F47FC12DE23A
:10570000829FC00111249F938F938BE49DE013C06F
:10571000833709F04CC12A8120932D0180914B01E0
:10572000882309F46BC1822F992787FD90959F9359
:105730002F9389E39DE09F938F930E941535A7CE09
:105740008D3609F017C16230710508F413C1CB0121
:1057500001972981233609F060C0019709F44EC1F1
:10576000EFE6F6E022966250710980E090E086173D
:10577000970781F08630910569F02991222331F055
:105780002A3021F02D3011F0208301C010820196C3
:105790003196EDCF8630910531F0FC01E159F94F9A
:1057A00010820196F7CF80914B01882359F18FE643
:1057B00096E09F938F938DED9CE09F938F930E9433
:1057C000153580912701909128010F900F900F902F
:1057D0000F908F3F2FEF920769F09F938F9388ED83
:1057E0009CE09F938F930E9415350F900F900F9020
:1057F0000F9008C086ED9CE09F938F930E94153513
:105800000F900F9080914B018111F8C08091370665
:105810008111F4C083ED9CE0C3C0233709F057C069
:105820008130910509F4EAC0029721F08B8190E064
:10583000869703C08A8190E0C09790932801809357
:1058400027018091270190912801409730F08FEF38
:105850009FEF909328018093270180914B0188232B
:1058600059F18FE696E09F938F938BEB9CE09F938B
:105870008F930E94153580912701909128010F90F8
:105880000F900F900F908F3F2FEF920769F09F932B
:105890008F9386EB9CE09F938F930E9415350F901A
:1058A0000F900F900F9008C084EB9CE09F938F9314
:1058B0000E9415350F900F9080914B0181119EC071
:1058C0008091370681119AC081EB9CE069C0223734
:1058D000D1F4CA010E94562480914B01882341F0E3
:1058E0008BE99CE09F938F930E9415350F900F904A
:1058F00080914B01811182C08091370681117EC059
:1059000088E99CE04DC0213609F078C09A818091E9
:105910004B019133C1F491E090932E06882341F01E
:105920008EE79CE09F938F930E9415350F900F9008
:1059300080914B01811162C08091370681115EC058
:105940008BE79CE02DC010922E06882341F080E664
:105950009CE09F938F930E9415350F900F9080913C
:105960004B0181114BC080913706811147C08DE5F5
:105970009CE016C080914B01882341F085E49CE0B7
:105980009F938F930E9415350F900F9080914B013C
:10599000811134C080913706811130C082E49CE0CF
:1059A0009F938F930E9415350F900F9027C08437D7
:1059B00029F59A8180914B01913641F49CE59093B1
:1059C0002E01882381F088E19DE007C09FE290933B
:1059D0002E01882341F088EF9CE09F938F930E94D3
:1059E00015350F900F9080914B01811107C0809168
:1059F0003706811103C085EF9CE0D2CFDF91CF91B4
:105A00001F910F9108952F923F924F925F926F9244
:105A10007F928F929F92AF92BF92CF92DF92EF923E
:105A2000FF920F931F93CF93DF93CDB7DEB7C45A86
:105A3000D1090FB6F894DEBF0FBECDBFC856DF4FF9
:105A400099838883C859D040C656DF4F79836883CD
:105A5000CA59D040C456DF4F59834883CC59D040EF
:105A60005901C257DF4F19821882CE58D0409E018B
:105A70002F5F3F4FC957DF4F39832883C758D04026
:105A8000AE014A575F4FC757DF4F59834883C95804
:105A9000D040C856DF4F08811981C859D0400F5FE8
:105AA0001F4FC856DF4FE881F981C859D040849113
:105AB000853291F1882309F448C7C456DF4F6881C5
:105AC0007981CC59D040C656DF4FE881F981CA5957
:105AD000D0400995C257DF4FE880F980CE58D040BA
