:100000000C9473030C9490030C9490030C94900341
:100010000C9490030C9490030C9490030C94900314
:100020000C9490030C9490030C9490030C94900304
:100030000C9490030C9490030C9443080C9490033C
:100040000C9490030C941C050C94BF040C94810434
:100050000C9490030C94AF150C9490030C949003A3
:100060000C9490030C949003426175647261746502
:10007000206F666620627920256C646270730A00C6
:10008000756E6974203C205345525F434E540062A4
:100090006572746F732F6370752F6176722F64723F
:1000A000762F7365725F6D6567612E630073697A81
:1000B00065203E203100626572746F732F73747215
:1000C0007563742F6669666F6275662E6800666474
:1000D0002D3E68772D3E72786275666665720062A5
:1000E0006572746F732F6472762F7365722E63005E
:1000F00066642D3E68772D3E74786275666665721B
:1001000000626572746F732F6472762F7365722E3E
:1001100063002166642D3E69735F6F70656E0062D7
:100120006572746F732F6472762F7365722E63001D
:10013000756E6974203C20636F756E746F662873EA
:1001400065725F68616E646C6573290062657274C4
:100150006F732F6472762F7365722E6300706F72E7
:10016000742D3E69735F6F70656E00626572746FA7
:10017000732F6472762F7365722E630066642D3E52
:100180005F74797065203D3D204B46545F53455266
:1001900049414C00626572746F732F6472762F73DD
:1001A00065722E68002174696D65725F696E69748D
:1001B00069616C697A656400626572746F732F643B
:1001C00072762F74696D65722E63002674696D6591
:1001D000722D3E6C696E6B00626572746F732F6472
:1001E00072762F74696D65722E630066642D3E729F
:1001F00065616400626572746F732F696F2F6B663F
:10020000696C652E680066642D3E777269746500BE
:10021000626572746F732F696F2F6B66696C652EE0
:1002200068006275665F706F696E746572203E3D2E
:100230002062756600626572746F732F6D776172EC
:10024000652F666F726D617477722E6300636861EB
:100250006E6E656C00626572746F732F6E65742FBD
:10026000617832352E630063747800626572746F52
:10027000732F6E65742F617832352E630069736158
:100280006C6E756D286329207C7C2063203D3D20A9
:1002900027202700626572746F732F6E65742F615B
:1002A0007832352E63006374782D3E6372635F6F1E
:1002B0007574203D3D20415832355F4352435F43C2
:1002C0004F525245435400626572746F732F6E65CE
:1002D000742F617832352E6300706174685F6C65CD
:1002E0006E203E3D203200626572746F732F6E6522
:1002F000742F617832352E63007061746800626516
:1003000072746F732F6E65742F617832352E6300AF
:1003100066642D3E636C656172657272006265721F
:10032000746F732F696F2F6B66696C652E6800663A
:10033000642D3E6572726F7200626572746F732F06
:10034000696F2F6B66696C652E680025733A204FC4
:100350006E6C79206672616D657320776974686F61
:100360007574206C61796572332070726F746F637D
:100370006F6C206172652068616E646C65642C200E
:10038000676F74205B253032585D0A0025733A2070
:100390004F6E6C79205549206672616D65732061DE
:1003A00072652068616E646C65642C20676F7420D0
:1003B0005B253032585D0A0025733A204368616E30
:1003C0006E656C206572726F72205B253034785DCB
:1003D0000A000000891112239B322446AD5736656E
:1003E000BF74488CC19D5AAFD3BE6CCAE5DB7EE9B1
:1003F000F7F88110080193331A22A5562C47B775D8
:100400003E64C99C408DDBBF52AEEDDA64CBFFF990
:1004100076E802218B30100299132667AF763444B8
:10042000BD554AADC3BC588ED19F6EEBE7FA7CC870
:10043000F5D983310A2091121803A7772E66B55497
:100440003C45CBBD42ACD99E508FEFFB66EAFDD850
:1004500074C904428D5316619F702004A915322778
:10046000BB364CCEC5DF5EEDD7FC6888E1997AAB30
:10047000F3BA85520C4397711E60A1142805B33757
:100480003A26CDDE44CFDFFD56ECE9986089FBBB10
:1004900072AA06638F7214409D512225AB34300638
:1004A000B9174EEFC7FE5CCCD5DD6AA9E3B8788AF0
:1004B000F19B87730E6295501C41A3352A24B11617
:1004C0003807CFFF46EEDDDC54CDEBB962A8F99AD0
:1004D000708B088481951AA793B62CC2A5D33EE1F0
:1004E000B7F04008C919522BDB3A644EED5F766DC8
:1004F000FF7C899400859BB712A6ADD224C3BFF1BF
:1005000036E0C1184809D33B5A2AE55E6C4FF77DA7
:100510007E6C0AA583B4188691972EE3A7F23CC09F
:10052000B5D14229CB38500AD91B666FEF7E744C87
:10053000FD5D8BB502A499961087AFF326E2BDD07E
:1005400034C1C3394A28D11A580BE77F6E6EF55C67
:100550007C4D0CC685D71EE597F42880A1913AA35F
:10056000B3B2444ACD5B5669DF78600CE91D722F47
:10057000FB3E8DD604C79FF516E4A9902081BBB33E
:1005800032A2C55A4C4BD7795E68E11C680DF33F27
:100590007A2E0EE787F61CC495D52AA1A3B038821F
:1005A000B193466BCF7A5448DD59622DEB3C700E07
:1005B000F91F8FF706E69DD414C5ABB122A0B992FE
:1005C0003083C77B4E6AD5585C49E33D6A2CF11EE7
:1005D000780F6368203C3D2035004D6F64656D2FBA
:1005E00068617264776172652E630066642D3E5F98
:1005F00074797065203D3D204B46545F4146534B16
:10060000004D6F64656D2F6166736B2E680080818D
:1006100083848687898A8C8E8F9192949597989AF5
:100620009B9D9EA0A2A3A5A6A7A9AAACADAFB0B260
:10063000B3B5B6B7B9BABCBDBEC0C1C2C4C5C6C8E1
:10064000C9CACBCDCECFD0D2D3D4D5D6D7D9DADB89
:10065000DCDDDEDFE0E1E2E3E4E5E6E7E8E9EAEA63
:10066000EBECEDEEEEEFF0F1F1F2F3F3F4F5F5F67D
:10067000F6F7F8F8F9F9FAFAFAFBFBFCFCFCFDFDD9
:10068000FDFDFEFEFEFEFEFFFFFFFFFFFFFF6275AA
:10069000665F706F696E746572203E3D206275669C
:1006A00000626572746F732F6D776172652F666F6C
:1006B000726D617477722E6300203D203078257052
:1006C0000A00496E76616C6964207074723A200089
:1006D0003A2000417373657274696F6E20666169B8
:1006E0006C65643A200011241FBECFEFD8E0DEBF56
:1006F000CDBF11E0A0E0B1E0EAEBFCE402C0059060
:100700000D92AE3EB107D9F714E0AEEEB1E001C0F4
:100710001D92A53AB107E1F70E9415150C945B26CE
:100720000C9400001092C00088E98093C1000895E5
:100730001092C1000895FC012285211105C021E01D
:10074000228788EB8093C1000895E2ECF0E080817D
:1007500094E0660F771F9A95E1F78F7C862B808354
:1007600008959FB7F89484B1886284B99FBF8FB70A
:10077000F894229A8FBF8FB7F89424988FBF80ED9A
:100780008CBD8CB581608CBD8DB58E7F8DBD08957F
:100790001CBC9FB7F89484B1837C84B99FBF089533
:1007A00008950895FC01828508956FB7F894DC01DF
:1007B0001A962C911A97211120C0E0919C04F09177
:1007C0009D04478D50A121A132A142175307A9F0E2
:1007D00021E01A962C93A78DB0A185A196A1A81708
:1007E000B90719F483A194A104C0A78DB0A1CD01CC
:1007F000019690A3878F8C918EBD6FBF08954F9205
:100800005F926F927F928F929F92AF92BF92CF92A0
:10081000DF92EF92FF92CF93DF934A015B01CB010E
:10082000BA019695879577956795605C7D4B804F6B
:100830009F4FA50194010E940326E90121974427B7
:10084000552760E472E48FE090E00E94CB257501AB
:100850006401C61AD70AE80AF90A26013701F7FE29
:1008600007C04424552432014C185D086E087F08E7
:10087000C501B40121E230E040E050E00E940326CF
:10088000241535054605570580F4FF92EF92DF9257
:10089000CF9288E690E09F938F930E94F3220F906F
:1008A0000F900F900F900F900F90D093C500C093B2
:1008B000C400DF91CF91FF90EF90DF90CF90BF9079
:1008C000AF909F908F907F906F905F904F90089522
:1008D000CF93DF93EC018230910544F04AE953E075
:1008E0006FE870E080E890E00E9475232BE02C9F79
:1008F000C0012D9F900D11248A5F9E4FDF91CF91F3
:1009000008951F920F920FB60F9211242F933F93C9
:100910008F939F93AF93BF93EF93FF93E0919A04CC
:10092000F0919B04278D30A181A192A1281739074E
:1009300031F488E98093C1001092100113C0A78D93
:10094000B0A185A196A1A817B90719F483A194A114
:1009500004C0A78DB0A1CD01019690A3878F8C9183
:100960008093C600FF91EF91BF91AF919F918F91BE
:100970003F912F910F900FBE0F901F9018951F92CF
:100980000F920FB60F9211242F933F934F935F93C3
:100990008F939F93AF93BF93EF93FF93E0919A044C
:1009A000F0919B0497A58091C0008871892B87A73F
:1009B0005091C60027A130A583A594A52817390713
:1009C00039F421A532A585A596A52817390761F028
:1009D00021A532A587A190A5019741E028173907E5
:1009E00009F040E0842F01C081E080FF04C087A5AA
:1009F000816087A712C0A1A5B2A55C9321A532A5ED
:100A000085A596A52817390719F483A594A503C0D1
:100A100081A592A5019692A781A7FF91EF91BF9121
:100A2000AF919F918F915F914F913F912F910F9037
:100A30000FBE0F901F9018951F920F920FB60F9236
:100A400011242F933F934F938F939F93AF93BF9313
:100A5000EF93FF93E0919C04F0919D0427A130A5B2
:100A600083A594A52817390739F421A532A585A5B2
:100A700096A52817390761F021A532A587A190A571
:100A8000019741E02817390709F040E0842F01C0A1
:100A900081E080FD13C08EB5A1A5B2A58C9321A5E0
:100AA00032A585A596A52817390719F483A594A51D
:100AB00003C081A592A5019692A781A7E0919C040D
:100AC000F0919D04278D30A181A192A128173907AB
:100AD00099F0A78DB0A185A196A1A817B90719F41F
:100AE00083A194A104C0A78DB0A1CD01019690A3CC
:100AF000878F8C918EBD02C010921B01FF91EF91E8
:100B0000BF91AF919F918F914F913F912F910F90F6
:100B10000FBE0F901F9018959FB7F89483E085BB88
:100B200014BC15BC82E084BD85B5836085BD16BC50
:100B300089EF87BDEEE6F0E080818E7F8083808143
:100B4000826080839FBF0895CF93DF93EC01FB0108
:100B50005FB7F894278D30A183A194A12817390796
:100B6000E9F421A132A185A196A128173907B1F492
:100B700081E05FBF80FD11C04FB7F894A1A1B2A181
:100B8000CC9321A132A185A196A12817390799F408
:100B900083A194A192A381A314C0DACF81A192A1D1
:100BA000278D30A12150310941E08217930709F0C8
:100BB00040E0842FDECF21A132A12F5F3F4F32A32F
:100BC00021A34FBF80A991A9DC01ED91FC91008484
:100BD000F185E02D0995CE019927DF91CF910895F8
:100BE000FC014FB7F89427A130A581A592A54FBF6E
:100BF0002817390739F087A5897B79F024C087A5A4
:100C0000897BC9F74FB7F89427A130A581A592A594
:100C10004FBF2817390799F3EECF2FB7F894A7A144
:100C2000B0A585A596A5A817B90719F483A594A51D
:100C300004C0A7A1B0A5CD01019690A787A38C9170
:100C40002FBF90E008958FEF9FEF0895AF92BF926E
:100C5000CF92DF92EF92FF920F931F93CF93DF9388
:100C60007C015B016A01FC010089118922893389B9
:100C70000C3412452544334541F04CEB50E064E917
:100C800071E08CE791E00E947523E50100E010E03F
:100C90000C151D0559F0C7010E94F0058F3F2FEF7D
:100CA000920721F00F5F1F4F8993F2CFC801DF91A8
:100CB000CF911F910F91FF90EF90DF90CF90BF9059
:100CC000AF900895AF92BF92CF92DF92EF92FF92D2
:100CD0000F931F93CF93DF937C015B016A01FC01AB
:100CE00000891189228933890C3412452544334502
:100CF00041F04CEB50E064E971E08CE791E00E9438
:100D00007523E50100E010E00C151D0561F08991E7
:100D1000B701992787FD90950E94A405019619F0C7
:100D20000F5F1F4FF1CFC801DF91CF911F910F913E
:100D3000FF90EF90DF90CF90BF90AF900895CF934A
:100D4000DF93EC01488959896A897B894C34524583
:100D50006544734541F04CEB50E064E971E08CE789
:100D600091E00E9475238FA590E0DF91CF910895C7
:100D7000CF93DF93EC01488959896A897B894C3488
:100D800052456544734541F04CEB50E064E971E035
:100D90008CE791E00E9475231FA6DF91CF91089503
:100DA000CF93DF93EC01488959896A897B894C3458
:100DB00052456544734549F04CEB50E064E971E0FD
:100DC0008CE791E00E94752300C02F8D38A189A186
:100DD0009AA128173907C9F788A999A9DC01ED91CB
:100DE000FC910284F385E02D09958111EECF80E01E
:100DF00090E0DF91CF910895EF92FF920F931F93B0
:100E0000CF93DF93EC018B016230710540F042E635
:100E100051E06CE471E080E391E00E947523F801F9
:100E2000EE0FFF1FE656FB4FD183C0838E8D8823C4
:100E300041F045E651E06FE171E082E191E00E940E
:100E4000752381E08E8F1D8F0C8FC8010E9468046E
:100E500099AB88ABDC0112968D919C911397892BED
:100E600041F44DE651E061E071E080EF90E00E94D6
:100E70007523E8A9F9A984819581892B41F44EE66F
:100E800051E06FED70E08EEC90E00E947523E8A9D0
:100E9000F9A9E680F78002811381B2E0EB16F10434
:100EA00040F441E251E066EB70E08DEA90E00E9490
:100EB00075231CA30BA31AA309A318A30F8FC701A3
:100EC0000197800F911F9EA38DA3E8A9F9A9E08443
:100ED000F18404811581E2E0EE16F10440F441E270
:100EE00051E066EB70E08DEA90E00E9475231CA74C
:100EF0000BA71AA709A718A70FA3C7010197800F6F
:100F0000911F9EA78DA788A999A9DC01ED91FC915D
:100F10000190F081E02DBE0109951FA6CE01DF9161
:100F2000CF911F910F91FF90EF900895DC01D09623
:100F30008D919C91D197DC01ED91FC910480F5811C
:100F4000E02D09944FB7F894FC0121A532A530A7F4
:100F500027A34FBF08954FB7F894FC0121A132A1F8
:100F600030A3278F4FBF0895CF93DF93EC010E94EA
:100F7000A207CE01DF91CF910C94AB07CF93DF9303
:100F8000EC01488959896A897B894C34524565440A
:100F9000734541F04CEB50E064E971E08CE791E07F
:100FA0000E9475238E8D811108C04BE851E06BE6DD
:100FB00071E08DE591E00E9475231E8ECE010E94A6
:100FC000D00688A999A9DC01ED91FC910280F381FA
:100FD000E02D099519AA18AACE010E94B40780E055
:100FE00090E0DF91CF910895CF93DF93EC01488992
:100FF00059896A897B894C3452456544734541F06F
:101000004CEB50E064E971E08CE791E00E947523BD
:10101000CE010E94BE076C8D7D8DCE010E94FC0624
:10102000CE01DF91CF910895FC01CB0122E3DF01D6
:101030001D922A95E9F74CE452E565E473E5408B8F
:10104000518B628B738B24EF37E0358324832EEB37
:1010500037E03783268326E236E03183208322E699
:1010600036E03383228320ED36E0338722872FE971
:1010700036E03587248728EB36E037872687BC01A2
:10108000CF010C94FC061F920F920FB60F92112401
:101090000F931F932F933F934F935F936F937F9380
:1010A0008F939F93AF93BF93CF93DF93EF93FF9370
:1010B00080919E0490919F04A091A004B091A104FE
:1010C0000196A11DB11D80939E0490939F04A0934F
:1010D000A004B093A1040BEA1AEBC0912E02D091A8
:1010E0002F0288819981892BD1F18FB7F894409193
:1010F0009E0450919F046091A0047091A1048FBF41
:1011000088859985AA85BB85481B590B6A0B7B0B83
:1011100077FD25C0CF3FD10509F048F42BEC30E036
:1011200048ED51E06BEC71E0CE010E948B23EA8127
:10113000FB818881998191838083E881F9818A810B
:101140009B81938382831B821A82198218821B8B54
:101150000A8BEC85FD85CE010C960995BECFFF91DB
:10116000EF91DF91CF91BF91AF919F918F917F913F
:101170006F915F914F913F912F911F910F910F9020
:101180000FBE0F901F90189582E392E090932F026C
:1011900080932E021092310210923002109233028C
:1011A000109232028EE292E09093350280933402E4
:1011B00010929E0410929F041092A0041092A10419
:1011C0000E948C058091A204882341F041E951E0FE
:1011D00068EB71E085EA91E00E94752381E08093DD
:1011E000A2040895EF92FF920F931F93CF93DF9382
:1011F0001F92CDB7DEB77C018B018983DB0112968C
:101200008D919C911397892B41F44EE051E060E160
:1012100072E086E092E00E947523D8011296ED916B
:10122000FC91139741E050E0BE016F5F7F4FC80112
:101230000995019719F4C701992702C08FEF9FEF15
:101240000F90DF91CF911F910F91FF90EF90089534
:101250000F931F93CF93DF931F92CDB7DEB78C010F
:10126000DC018D919C91892B41F442EF50E064EFB9
:1012700071E08BEE91E00E947523D801ED91FC9115
:1012800041E050E0BE016F5F7F4FC80109950197B3
:1012900019F4898190E002C08FEF9FEF0F90DF91EA
:1012A000CF911F910F910895CF93DF93CDB7DEB704
:1012B0009E01275F3F4F4D815E8162EF78E08F8115
:1012C00098850E946609DF91CF9108952F923F92F1
:1012D0004F925F926F927F928F929F92AF92BF9246
:1012E000CF92DF92EF92FF920F931F93CF93DF93F2
:1012F000CDB7DEB7C45AD1090FB6F894DEBF0FBE22
:10130000CDBFFC01C856DF4F79836883C859D040F0
:10131000C656DF4F59834883CA59D0405901C25736
:10132000DF4F19821882CE58D0409E012F5F3F4F69
:10133000C957DF4F39832883C758D040AE014A5779
:101340005F4FC757DF4F59834883C958D0409F012B
:101350002F5F3F4FC456DF4F39832883CC59D0408D
:101360008081853291F1882309F427C7C656DF4F63
:1013700068817981CA59D040C856DF4FE881F98128
:10138000C859D0400995C257DF4FC880D980CE5880
:10139000D040FFEFCF1ADF0AC557DF4FB982A882CE
:1013A000CB58D040C257DF4FD982C882CE58D040E8
:1013B000C557DF4FA880B980CB58D040C456DF4F07
:1013C000E881F981CC59D040C2CF8181853251F476
:1013D000AF014E5F5F4FC456DF4F59834883CC59EE
:1013E000D040C4CFC456DF4FA881B981CC59D0407A
:1013F000C256DF4F1882CE59D040C357DF4F1882F4
:10140000CD58D040CF56DF4F1882C159D040CE566C
:10141000DF4F1882C259D040FD018D918B3209F403
:101420005EC060F48032E9F0833209F05FC031E0E1
:10143000C357DF4F3883CD58D040EECF8D3251F0B7
:10144000803309F053C041E0C256DF4F4883CE5984
:10145000D040E2CF21E0CF56DF4F2883C159D040A2
:10146000DBCF392D3C7F932ECE56DF4F4881C259BA
:10147000D040942ACD56DF4F5881C359D04050FBFD
:1014800092F8CF56DF4F8881C159D04080FB93F846
:10149000C057DF4F9881C059D04090FB94F8CC568C
:1014A000DF4FE881C459D040E0FB95F8C357DF4FC8
:1014B000F881CD58D040F0FB96F8CB56DF4F28810D
:1014C000C559D04020FB97F8892D837009F0A4CF2F
:1014D00081E0CE56DF4F8883C259D0409DCF51E086
:1014E000CE56DF4F5883C259D04096CFC357DF4FF7
:1014F0009881CD58D040C056DF4F9883C05AD04015
:101500008A3229F0DF01212C312C2AE013C0C501D9
:101510000296D5012D903C9037FE09C0319421945C
:101520003108B1E0CF56DF4FB883C159D040319672
:101530005C0112C0FD018D9190ED980F9A3060F41E
:10154000F1012E9F10012F9F300C1124F0E32F1A70
:101550003108280E311CEECFCF56DF4F2881C159FC
:10156000D040222329F0C256DF4F1882CE59D040F6
:1015700080818E3221F581818A3231F0DF0111962E
:10158000612C712C2AE009C0D5016D907C903296B7
:1015900095012E5F3F4F590115C0FD018D9190EDD2
:1015A000980F9A3078F4A301249F3001259F700C86
:1015B000112450E3651A7108680E711CEECF662481
:1015C0006A94762CDF018D918836D9F018F48C342A
:1015D00059F01FC08C3641F08A37D9F4C057DF4F1D
:1015E0001882C059D04006C081E0C057DF4F8883C1
:1015F000C059D040FD01CC56DF4F1882C459D040AD
:1016000012C0FD0191E0CC56DF4F9883C459D04001
:1016100005C0CC56DF4F1882C459D040C057DF4FA9
:101620001882C059D040DF011196C456DF4FB983EC
:10163000A883CC59D0408080B5E68B1609F408C247
:10164000B815ECF023E5821609F453C0281564F0B0
:1016500035E4831609F4FCC147E4841609F4F0C1AB
:10166000882009F465C42AC053E6851671F158151F
:101670000CF4CBC088E5881609F48DC01FC090E734
:10168000891609F471C0981564F0A7E68A1609F462
:10169000D7C18A160CF4DBC1B9E68B1609F4B5C0C4
:1016A0000DC0E5E78E1609F476C0F8E78F1609F449
:1016B0006DC023E7821202C0D12C1DC0C557DF4F79
:1016C000B982A882CB58D0403FC4A5014E5F5F4F7E
:1016D000C557DF4F59834883CB58D040D5018C91F3
:1016E0008983D12C8E010E5F1F4FFE0131965F0161
:1016F00039C4DD24D39495012E5F3F4FC557DF4F8A
:1017000039832883CB58D040D501AD90BC90A1142B
:10171000B10421F4A0E2AA2EA1E0BA2E77FE04C003
:10172000F0E16F2EF7E27F2E8501DD20C1F0F80198
:101730008491882309F416C4C8018A199B09861567
:1017400097050CF00FC40F5F1F4FF1CFC8018A1926
:101750009B09861597050CF005C40F5F1F4FD80134
:101760008C918111F3CFFEC3F5013296C557DF4F3F
:10177000F983E883CB58D040D5016D917C9180E00E
:1017800090E0E6E6EE2EE1E0FE2E2BC076E7E72EB7
:1017900071E0F72E04C066E6E62E61E0F62EC05733
:1017A000DF4FB881C059D040BB2371F0F5013496AA
:1017B000C557DF4FF983E883CB58D040D5016D91F1
:1017C0007D918D919C910DC0C5010296F5016081BE
:1017D0007181C557DF4F99838883CB58D04080E013
:1017E00090E021E0CD56DF4F2883C359D04035E744
:1017F000831205C0CD56DF4F1882C359D040CE5654
:10180000DF4F1882C259D04042C0C057DF4F4881D5
:10181000C059D040442371F0C5010496C557DF4F2D
:1018200099838883CB58D040D5016D917D918D915E
:101830009C910FC0F5013296C557DF4FF983E883BD
:10184000CB58D040D5016D917C91882777FD80954C
:10185000982F97FF13C090958095709561957F4F55
:101860008F4F9F4FCD56DF4F1882C359D040B2E003
:10187000CE56DF4FB883C259D04005C0CD56DF4F9A
:101880001882C359D04056E6E52E51E0F52EE1E02E
:10189000CB56DF4FE883C559D040611571058105EE
:1018A000910529F4CB56DF4F1882C559D0406114F9
:1018B000710441F4CB56DF4FF881C559D040FF2366
:1018C00009F47CC0CD56DF4F2881C359D0408E012A
:1018D0000A571F4F2130A9F02AE030E040E050E0E5
:1018E0000E940326F701E60FF71F8081D8018E932F
:1018F0008D01B901CA01611571058105910561F775
:1019000015C0FB01EF70FF27EE0DFF1D2081F801D0
:1019100022938F0144E096958795779567954A9530
:10192000D1F7611571058105910559F777FE49C019
:10193000C256DF4FF881CE59D040FF2309F441C091
:10194000292D2C7F922ECE56DF4F3881C259D040A0
:10195000932ACD56DF4F4881C359D04040FB92F8BF
:10196000CF56DF4F5881C159D04050FB93F8C05734
:10197000DF4F8881C059D04080FB94F8CC56DF4FB0
:101980009881C459D04090FB95F8C357DF4FA88188
:10199000CD58D040A0FB96F8CB56DF4FB881C55943
:1019A000D040B0FB97F8292D237081E090E011F42E
:1019B00080E090E03101681A790A03C08E010A576D
:1019C0001F4FC757DF4F88819981C958D040801B6E
:1019D000910BF80120E35F01861597051CF4229313
:1019E0000196F9CFC357DF4FE881CD58D040EE23A1
:1019F000A1F0CB56DF4FF881C559D040FF2369F0E5
:101A0000882D8F7D883549F4F5013197808222E059
:101A1000A21AB10880E3D5018C93C957DF4FE88142
:101A2000F981C758D040AE16BF0608F095C247EB03
:101A300052E065E372E082E292E00E9475238CC27C
:101A40008A948A9411E06114710449F002C0812CD7
:101A500010E077FE07C026E0622E712C03C06624DA
:101A60006394712C95012C5F3F4FC557DF4F39832D
:101A70002883CB58D040D501CD90DD90ED90FC90DF
:101A800020E030E0A901C701B6010E94152487FFBC
:101A90000AC0F7FAF094F7F8F094B2E0CE56DF4FB0
:101AA000B883C259D040C156DF4F1883CF59D040B8
:101AB000AA24A394B12CAC0EBD1EA20CB31C20E032
:101AC00030E040E85FE3C701B6010E94642587FD6E
:101AD00032C0412C512C27EB33E44AEB51E5C701CE
:101AE000B6010E94642587FD0EC029EF32E045E172
:101AF00050E5C701B6010E9419246B017C01EAE0A0
:101B00004E0E511CE8CF20E030E040E251E4C70126
:101B1000B6010E94642587FD49C020E030E040E224
:101B200051E4C701B6010E9419246B017C01FFEF4B
:101B30004F1A5F0AE8CF20E030E0A901C701B601E3
:101B40000E941524412C512C882381F12FEF36EE71
:101B50004BED5EE2C701B6010E941524181674F021
:101B600029EF32E045E150E5C701B6010E94682542
:101B70006B017C012AE0421A5108E8CF20E030E0F6
:101B800040E85FE3C701B6010E94152487FF0EC03D
:101B900020E030E040E251E4C701B6010E94682530
:101BA0006B017C0131E0431A5108E8CF112301F1A8
:101BB0004614570444F44CEF44164FEF54061CF0FF
:101BC00064187508812C51E0651A710881E0C357CB
:101BD000DF4F9881CD58D0409827C156DF4F98836A
:101BE000CF59D040A1E0C357DF4FA883CD58D04094
:101BF00081104BC057FE3DC080E3E1E0F0E0EC0F08
:101C0000FD1FE20DF31D8083F5016114710459F489
:101C1000C357DF4FB881CD58D040B11104C03196C1
:101C200080E090E006C032968EE2D50111968C934A
:101C3000C30192012F5F3F4F280F391F40E38F01EF
:101C40008217930729F0009719F041930197F7CF76
:101C5000930120953095421653060CF4D1C03C01F7
:101C6000E1E0F0E0CA56DF4FF983E883C659D0407F
:101C70005CC02227332724193509CA56DF4F398320
:101C80002883C659D040850150C08501CA56DF4F10
:101C900019821882C659D04048C0C701B6010E94B7
:101CA0008124CF55DF4F688379838A839B83C15A10
:101CB000D040CF55DF4F48815981C15AD040BA0139
:101CC000882777FD8095982F0E94B4249B01AC0152
:101CD000C701B6010E94B02320E030E040E251E4A9
:101CE0000E9468256B017C0198012F5F3F4FCF5503
:101CF000DF4F8881C15AD040805DD8018C93CA568D
:101D0000DF4F88819981C659D0400196CA56DF4F6E
:101D1000E881F981C659D040EF2B91F0CA56DF4FC8
:101D200099838883C659D0408901CA56DF4F2881DC
:101D30003981C659D040621673060CF0AECF14C07C
:101D40006114710439F4C357DF4FF881CD58D04086
:101D5000FF2339F098012E5F3F4FEEE2D801119634
:101D6000EC9381E090E0DACF20E030E040EA50E40C
:101D7000C701B6010E94642587FD42C0F80181E0D9
:101D800090E030E322912E3251F0820F8A3321F01D
:101D9000808380E090E003C0308381E090E0AE1665
:101DA000BF0680F3892B61F18820B9F0F801AE16E7
:101DB000BF0678F4DF018E919D018E3239F4CF0198
:101DC0000297DC018C918083F90101C080833197F7
:101DD000EECFBFEF4B1A5B0A0BC00F5F1F4FF8012E
:101DE000AE16BF0628F4DF018E918083FD01F8CF87
:101DF00081E3E1E0F0E0EC0FFD1FE20DF31D8083D5
:101E0000C156DF4FE881CF59D040EE2349F0F801A9
:101E10008291803311F48F01FACF8E3209F48F0151
:101E20008820B1F1D8018C92C801029657FE07C0F4
:101E30002DE211962C9351944194510803C02BE24A
:101E4000F80121838C01065F1F4F20E030E02F5FF7
:101E50003F4FF8013196C2016AE070E00E94EF2521
:101E6000805DD8018C932B016115710511F08F01F4
:101E7000EECF22303105DCF3E21BF30B1997819191
:101E80008E932150310912161306CCF30950110913
:101E9000C256DF4FB881CE59D040BB2309F461C090
:101EA000E92DEC7F9E2ECE56DF4FF881C259D040EF
:101EB0009F2ACD56DF4F2881C359D04020FB92F88E
:101EC000CF56DF4F3881C159D04030FB93F8C0570F
:101ED000DF4F4881C059D04040FB94F8CC56DF4FCB
:101EE0005881C459D04050FB95F8C056DF4F8881C7
:101EF000C05AD04080FB96F8CB56DF4F9881C55929
:101F0000D04090FB97F8292D237081E090E011F4E8
:101F100080E090E09101281B390BF50140E35F015F
:101F2000C8018E1B9F0B82179307DCF44293F7CFF7
:101F3000C557DF4FB982A882CB58D040C456DF4F77
:101F4000F983E883CC59D040D12C0FE111E08CE12A
:101F5000A82E81E0B82E06C0D12C8E010A571F4F43
:101F600001C0D12C0A191B09201631060CF440C0FF
:101F7000A92DAC7F9A2ECE56DF4FB881C259D040E2
:101F80009B2ACD56DF4FE881C359D040E0FB92F841
:101F9000CF56DF4FF881C159D040F0FB93F8C057BE
:101FA000DF4F2881C059D04020FB94F8CC56DF4F3A
:101FB0003881C459D04030FB95F8C056DF4F488176
:101FC000C05AD04040FB96F8CB56DF4F5881C559D8
:101FD000D04050FB97F87101E01AF10A292D2370C7
:101FE00081E090E011F480E090E0E81AF90A02C084
:101FF000E12CF12CCF56DF4F8881C159D04081119F
:1020000022C031E0E31AF108F7FC1DC0C656DF4FCD
:1020100068817981CA59D04080E2C856DF4FE88193
:10202000F981C859D0400995C257DF4F28813981BD
:10203000CE58D0402F5F3F4FC257DF4F39832883A0
:10204000CE58D040DECF492D4C7F942ECE56DF4F58
:102050005881C259D040952ACD56DF4F8881C35947
:10206000D04080FB92F8CF56DF4F9881C159D040C5
:1020700090FB93F8C057DF4FA881C059D040A0FB18
:1020800094F8CC56DF4FB881C459D040B0FB95F8D6
:10209000C056DF4FE881C05AD040E0FB96F8CB56DF
:1020A000DF4FF881C559D040F0FB97F8892D837038
:1020B00001F1813011F48BE201C08DE2C656DF4F91
:1020C00068817981CA59D040C856DF4FE881F981CB
:1020D000C859D0400995C257DF4F28813981CE5861
:1020E000D0402F5F3F4FC257DF4F39832883CE58F0
:1020F000D040D1100AC03501C257DF4FA880B98047
:10210000CE58D040A618B70821C0C257DF4FC880AC
:10211000D980CE58D040AC18BD080150110917FD28
:102120002DC0F501EC0DFD1D8491C656DF4F688171
:102130007981CA59D040C856DF4FE881F981C85922
:10214000D0400995FFEFCF1ADF0AE7CF6501C60C33
:10215000D71C0150110917FD11C0C656DF4F688109
:102160007981CA59D040D3018D913D01C856DF4FC6
:10217000E881F981C859D0400995E8CFCF56DF4FA3
:10218000F881C159D040FF2309F40CC921E0E21ABB
:10219000F108F7FC07C9C656DF4F68817981CA5933
:1021A000D04080E2C856DF4FE881F981C859D0405D
:1021B0000995FFEFCF1ADF0AE9CFC257DF4F8881B9
:1021C0009981CE58D040CC55DF4F0FB6F894DEBF82
:1021D0000FBECDBFDF91CF911F910F91FF90EF9078
:1021E000DF90CF90BF90AF909F908F907F906F9037
:1021F0005F904F903F902F900895CF92DF92EF9293
:10220000FF920F931F93CF93DF931F92CDB7DEB74B
:102210007C01462F82E8860F9701265B3E4F6901BD
:10222000823010F06B3149F4F601608171818BE1ED
:1022300090E049830E94F2084981D701A05BBE4F1C
:102240002C9111965C911197842F90E0FC01E2276C
:10225000EE0FFF1FEE52FC4F25913491052F10E039
:10226000202731272D933C93F601608171810F90D7
:10227000DF91CF911F910F91FF90EF90DF90CF9062
:102280000C94F2082F923F924F925F926F927F923E
:102290008F929F92AF92BF92CF92DF92EF92FF9276
:1022A0000F931F93CF93DF93CDB7DEB7C455D109FA
:1022B0000FB6F894DEBF0FBECDBF8C015C0126EBDC
:1022C000A21A2EEFB20A4C014BEA841A4EEF940A7E
:1022D0007C0184EBE81A8EEFF80AD5018D919C9170
:1022E0000E9428098F3FBFEF9B0709F441C1F40109
:1022F000208121110CC18E37910509F0FAC0D70158
:102300004D915C91F801E25BFE4F1F014231510596
:1023100008F4E1C080819181883B904F09F0DBC0D7
:10232000D801FE013896CE010E962D9126952032C9
:1023300009F420E02193E817F907B9F7D8011696B8
:102340008C91169786958F708E871796FE01319621
:10235000CF0106962D912695203209F420E0219395
:10236000E817F907B9F7F8013D96D8011D968C9149
:1023700086958F708F8329964FAC2997512C61E0F9
:1023800070E0808180FF19C028965FAE289729965B
:102390004FAE29972181822F90E02B969FAF8EAF71
:1023A0002B97039709F463C01F922F938FE891E056
:1023B0009F938F938CE893E068C0B7E0B51520F346
:1023C00066246394712C6C0E7D1E27E0529E600C77
:1023D000711C1124CF01019663969FAF8EAF639756
:1023E00080E090E0252D30E06396AEADBFAD639701
:1023F000DD906396BFAFAEAF6397D694B0E2DB12C9
:1024000002C0C12C01C0CD2CD301A80FB91F1E964C
:10241000CC9201968630910539F737969081B7E0D6
:10242000CB2EC29ED001C39EB00D1124CC24C394E8
:10243000D12CCC0EDD1EAC0DBD1D892F86958F7065
:1024400054968C9397FF08C0CB0102C0880F991F48
:102450002A95E2F7482A09C0DB0102C0AA0FBB1F78
:102460002A95E2F79D012095422253948ACF8281DA
:102470002C968FAF2C97803F99F01F928F938FE807
:1024800091E09F938F938BE493E09F938F930E94AF
:10249000F3220F900F900F900F900F900F901BC092
:1024A000339642505109C8018E1B9F0B480F591F8C
:1024B00060965FAF4EAF60972E96FFAFEEAF2E9750
:1024C000F801EE5AFE4F0190F081E02D309719F09F
:1024D000CE010196099581E0F801EC5AFE4F808308
:1024E0008FEF9FEFD1018D939C93F70111821082A2
:1024F000F4CE8F37910529F4F801EC5AFE4F108283
:10250000ECCE8B31910519F481E08083E6CEF801A1
:10251000EC5AFE4F2081222341F1D7012D913C91AD
:102520002A34B1E03B0700F5A9014F5F5F4FF70187
:1025300051834083F801E20FF31F8083D801A25B2F
:10254000BE4F2D913C911197F901E827FF27EE0F1F
:10255000FF1FEE52FC4F85919491232F3327822742
:1025600093278D939C9301C01082D4011C92B5CE09
:10257000F50100811181D8011C968D919C911D97C8
:10258000892B41F449E451E069E373E08FE293E081
:102590000E947523D8011C96ED91FC911D97C801EE
:1025A0000995892B09F444C0F50100811181D801F6
:1025B0001C968D919C911D97892B41F449E451E023
:1025C00069E373E08FE293E00E947523D8011C96C3
:1025D000ED91FC911D97C80109959F938F9384E914
:1025E00091E09F938F9388EB93E09F938F930E944A
:1025F000F322F501008111810F900F900F900F9041
:102600000F900F90D8011E968D919C911F97892B4A
:1026100041F442E551E06DE173E080E193E00E9416
:102620007523D8011E96ED91FC911F97C80109955D
:10263000CC5ADF4F0FB6F894DEBF0FBECDBFDF918F
:10264000CF911F910F91FF90EF90DF90CF90BF90AF
:10265000AF909F908F907F906F905F904F903F9042
:102660002F9008952F923F924F925F926F927F9298
:102670008F929F92AF92BF92CF92DF92EF92FF9292
:102680000F931F93CF93DF93CDB7DEB72C970FB681
:10269000F894DEBF0FBECDBF9C878B877B015A01AC
:1026A000288739871D830C836115710541F448EF34
:1026B00050E06EEF72E089EF92E00E94752322E015
:1026C000A216B10440F449EF50E067EE72E089EDE4
:1026D00092E00E9475234B845C8480EB481A8EEF55
:1026E000580A8FEF9FEFF201918380836B847C8483
:1026F000F6EB6F1AFEEF7F0AF301608171818EE7BE
:1027000090E00E94F208C12CD12CC50101979F8353
:102710008E83CA14DB0409F468C021E029838E810A
:102720009F81C816D90609F01982F701019000208F
:10273000E9F78F01015011090E191F090730110522
:1027400010F006E010E0C8018E0D9F1D9B838A8368
:1027500017018A819B812816390601F1F101219127
:102760001F01822E912CC4012A870E943F262A85B0
:10277000892B51F4203241F04BED50E064E972E0D6
:102780008DE792E00E947523C4010E945326682FB2
:10279000660F8B859C850E94FD10DBCF06301105EE
:1027A00099F0812C912CE6E0F0E0E01BF10B8F0119
:1027B0008016910648F460E48B859C850E94FD108C
:1027C000FFEF8F1A9F0AF4CF89818066F701668137
:1027D000660F682B8B859C850E94FD10FFEFCF1A3A
:1027E000DF0A27E0E20EF11C94CF63E08B859C8525
:1027F0000E94FD1060EF8B859C850E94FD1008856E
:102800001985EC80FD80E00EF11E0E151F0541F0CC
:10281000F80161918F018B859C850E94FD10F5CF99
:10282000F2016081118160958B859C850E94FD106D
:10283000612F60958B859C850E94FD10F20180813F
:102840009181883B904F41F042E151E067EC72E0AA
:1028500086EA92E00E947523F301608171818EE720
:1028600090E02C960FB6F894DEBF0FBECDBFDF917F
:10287000CF911F910F91FF90EF90DF90CF90BF907D
:10288000AF909F908F907F906F905F904F903F9010
:102890002F900C94F208EF92FF920F931F93CF9317
:1028A000DF93EC018B017A01009741F442E451E09F
:1028B0006BE672E087E692E00E9475230115110530
:1028C00041F443E451E065E572E08DE492E00E945A
:1028D000752386E591E0FE019C0111922150304064
:1028E000E1F7FE01E65BFE4F11830083FE01EE5A25
:1028F000FE4FF182E082FE01E05BFE4F8FEF9FEF23
:1029000091838083C25BDE4F99838883DF91CF916F
:102910001F910F91FF90EF9008958F929F92AF9229
:10292000BF92CF92DF92EF92FF920F931F93CF93BC
:10293000DF93EC018D851F928F93CE0107969F93B5
:102940008F938E811F928F93DF93CF938FE991E0C6
:102950009F938F9386E392E09F938F930E945409F5
:102960008E01025F1F4FEDB7FEB73C960FB6F8948D
:10297000FEBF0FBEEDBFE12CF12C4E01F6E48F0E31
:10298000911C8EEBC82E81E0D82E96E3A92E92E002
:10299000B92EF401808190E0E816F906D4F4F8012C
:1029A00086811F928F931F930F93DF92CF92BF92D6
:1029B000AF920E945409FFEFEF1AFF0A095F1F4F01
:1029C0008DB79EB708960FB6F8949EBF0FBE8DBF09
:1029D000E0CFFE01E55BFF4F81818F9380818F9374
:1029E000C35BDF4F89818F9388818F938FEC91E058
:1029F0009F938F9386E392E09F938F930E94540955
:102A00008DB79EB708960FB6F8949EBF0FBE8DBFC8
:102A1000DF91CF911F910F91FF90EF90DF90CF90BA
:102A2000BF90AF909F908F90089578940E94C408B3
:102A300060E070E086E392E00E94140840E855E20E
:102A400060E070E086E392E00E94960786E0809363
:102A5000C20060E070E08EEB93E00E945A1A4DE8ED
:102A600054E16EEB73E088E692E00E944B148FB75E
:102A7000F894C0909E04D0909F04E090A004F09041
:102A8000A1048FBF88E692E00E9442112FB7F8940C
:102A900080919E0490919F04A091A004B091A10404
:102AA0002FBF8C199D09AE09BF0989399A43A10529
:102AB000B10544F38FB7F894C0909E04D0909F0462
:102AC000E090A004F090A1048FBF01E110E02CED94
:102AD00031E044E050E067E271E088E692E00E9475
:102AE0003213D0CFCF93DF93EC01709399046093AE
:102AF00098048630910544F041E250E06AED75E0BB
:102B000082ED95E00E9475231092800089E1809308
:102B1000810082E896E090938700809386008C2F56
:102B2000806480937C0087B121E030E001C0220FF7
:102B3000CA95EAF7922F9095892387B988B189239E
:102B400088B980917E00822B80937E0087E08093FD
:102B50007B008CEE80937A00DF91CF9108951F92D5
:102B60000F920FB60F9211242F933F934F935F93C1
:102B70006F937F938F939F93AF93BF93EF93FF9345
:102B800080E286BB609178007091790076956795B8
:102B900076956795605880919804909199040E9469
:102BA00071178091A404882349F080919804909132
:102BB00099040E944119807F886007C08091A30416
:102BC000882311F088E801C080E88BB9FF91EF916C
:102BD000BF91AF919F918F917F916F915F914F9135
:102BE0003F912F910F900FBE0F901F901895AF92AD
:102BF000BF92CF92DF92EF92FF920F931F93CF93EA
:102C0000DF936C01EB017A01DC0150960D911D916F
:102C10002D913C9153970D341B442345364441F08C
:102C20004EE650E061E076E08BEE95E00E94752381
:102C30005E01CE018E0D9F1DF601EB57FF4FA816CA
:102C4000B90671F4C5018C1B9D0BDF91CF911F91CB
:102C50000F91FF90EF90DF90CF90BF90AF900895CD
:102C60006FB7F89440815181228133816FBF421741
:102C7000530741F32FB7F894C0909E04D0909F045F
:102C8000E090A004F090A1042FBF6FB7F8944081AA
:102C90005181228133816FBF42175307A9F44FB787
:102CA000F89400919E0410919F042091A00430910B
:102CB000A1044FBF0C191D092E093F09101611065A
:102CC0001206130614F7BECF6FB7F8942081318136
:102CD000468157812417350719F44481558105C071
:102CE00020813181A9014F5F5F4F51834083D9011A
:102CF0002C916FBFD5012D935D01A1CF6F927F9273
:102D00008F929F92AF92BF92CF92DF92EF92FF92FB
:102D10000F931F93CF93DF93EC018B017A01888986
:102D20009989AA89BB898D349B44A345B64441F057
:102D30004EE650E061E076E08BEE95E00E94752370
:102D4000F801A8014E0D5F1D99249394BB24B39400
:102D50003E0187E7680E711C20E430E065E370E017
:102D600088E0E82EF12CE417F50709F44EC0AFB661
:102D7000F894CFA4D8A88BA99CA9C816D90639F471
:102D8000C9A8DAA88DA99EA9C816D90669F0C9A84C
:102D9000DAA88FA598A9019788248394C816D90624
:102DA00009F0812C882D01C081E0AFBE80FDDFCF0E
:102DB000D190AFB6F89489A99AA9DC01DC92C9A890
:102DC000DAA88DA99EA9C816D90619F48BA99CA9C1
:102DD00003C089A99AA901969AAB89ABAFBED3016A
:102DE0008C9181110CC03EA72DA71CA61BA61AA66C
:102DF0009C92299A7BA36AA35B9AB092A4048FB792
:102E0000F894FDA2ECA28FBFAECFCF01801B910B37
:102E1000DF91CF911F910F91FF90EF90DF90CF90B6
:102E2000BF90AF909F908F907F906F900895CF93B9
:102E3000DF93EC01488959896A897B894D345B4469
:102E40006345764441F04EE650E061E076E08BEE7B
:102E500095E00E947523C958DF4F88818111FDCF0D
:102E600080E090E0DF91CF910895CF93DF93EC0164
:102E7000488959896A897B894D345B446345764426
:102E800041F04EE650E061E076E08BEE95E00E9486
:102E900075232FB7F894C852DF4F888199812FBFCF
:102EA000DF91CF910895CF93DF93EC014889598941
:102EB0006A897B894D345B446345764441F04EE634
:102EC00050E061E076E08BEE95E00E9475238FB7CD
:102ED000F894C852DF4F198218828FBFDF91CF91CB
:102EE0000895EF92FF920F931F93CF93DF93FC010E
:102EF0008C0101531F4FD8014D915C91DC01A3530C
:102F0000BF4F4D935C93DC01A858BF4F8D919C91AE
:102F1000119716962D913C9117978217930729F4D4
:102F200014962D913C91159706C08D919C91119707
:102F30009C012F5F3F4F11963C932E93EC0128810B
:102F40002602900111243595279535952795E8019E
:102F5000398328837F01D3EDED0EF11CE7018881D1
:102F600099818F010F521F4FE801998388839595AE
:102F70008795840F951F820F931FE701998388839C
:102F8000AF014B525F4F21E0181619060CF020E0FC
:102F9000EA018881880F822B888312968D919C91FB
:102FA0001397EC01688312962D913C911397169616
:102FB0008D919C9117972817390729F414968D91B4
:102FC0009C91159705C012968D919C91139701962F
:102FD00013969C938E931297DA019C91892F869574
:102FE000869589278370DF01AA52BF4F833039F459
:102FF0008C91803214F48F5F01C081508C938C913E
:10300000885F8C9380340CF435C18F738C93DF010F
:10301000A952BF4F8C91880F97702BEF290F233047
:1030200010F0933009F481608C939C91892F8695E0
:10303000892780958170968D990F892B868F8E3781
:1030400009F04EC0DF01AB57BF4F2D913C91119756
:1030500014968D919C9115972817390759F412965B
:103060002D913C91139716968D919C911797281747
:10307000390779F012962D913C9113978D919C917F
:103080001197019741E02817390709F040E0842F94
:1030900001C081E080FDDDC01296CD91DC911397D7
:1030A0008EE7888312962D913C91139716968D91F9
:1030B0009C9117972817390729F414968D919C91A4
:1030C000159705C012968D919C91139701961396B2
:1030D0009C938E93129781E081A32A9A41E0BCC011
:1030E000982F9F779F3719F411A22A98C3C091A1F6
:1030F000992309F4BFC0982F9F739E3309F4BAC077
:1031000080FF03C080A1806880A3878D8F5F878F39
:1031100090A1883008F4ACC0DF01AB57BF4F82E804
:10312000890F823018F09B3109F04BC02D913C91F2
:10313000119714968D919C9115972817390759F47A
:1031400012962D913C91139716968D919C911797FD
:103150002817390779F012962D913C9113978D918C
:103160009C911197019741E02817390709F040E039
:10317000842F01C081E080FD20C01296CD91DC91AA
:1031800013978BE1888312962D913C911397169695
:103190008D919C9117972817390729F414968D91D2
:1031A0009C91159705C012968D919C91139701964D
:1031B00013969C938E93129704C011A22A9840E014
:1031C00001C041E02D913C91119714968D919C91F5
:1031D00015972817390759F412962D913C9113979A
:1031E00016968D919C9117972817390779F01296AA
:1031F0002D913C9113978D919C911197019751E0DE
:103200002817390709F050E0852F01C081E080FDC3
:1032100020C080A11296CD91DC91139788831296DD
:103220002D913C91139716968D919C911797281785
:10323000390729F414968D919C91159705C0129623
:103240008D919C911397019613969C938E93129750
:1032500003C011A22A9840E010A2178E41110AC0A3
:10326000E852FF4F8081918181609183808302C009
:10327000969590A3DF91CF911F910F91FF90EF90C2
:103280000895DC0196968C9196978111EAC09896E4
:103290008C9198978111A0C09F962D913C91D097C9
:1032A000D1968D919C91D2972817390739F494962D
:1032B0008D919C919597892B09F45CC099968C917E
:1032C0009997811103C09A961C929A9781E09996DA
:1032D0008C93999792968D919C919397009789F5ED
:1032E0009F962D913C91D097D1968D919C91D2979C
:1032F0002817390751F494968D919C9195970197D1
:1033000095969C938E93949721C09F96ED91FC91F6
:10331000D097D5968D919C91D697E817F90729F407
:10332000D3968D919C91D49706C09F96ED91FC9178
:10333000D097CF010196D0969C938E939F978081D2
:1033400006C0019793969C938E9392978EE79796DB
:103350008C93979797968C9197978B3199F59F9629
:103360002D913C91D097D1968D919C91D297281711
:10337000390749F45B981092A404A958BF4F1C92D6
:10338000299880E008959F96ED91FC91D097D5966D
:103390008D919C91D697E817F90729F4D3968D91D2
:1033A0009C91D49706C09F96ED91FC91D097CF0148
:1033B0000196D0969C938E939F97808197968C933D
:1033C000979706C08E57823018F499961C92999759
:1033D00081E098968C93989799962C9199979D96C1
:1033E0008D919C919E972223A9F09A962C919A9761
:1033F000253080F09A961C929A978034910519F4A2
:1034000085E790E002C080E490E09E969C938E93C6
:103410009D9723C098963C91989797962C91979753
:10342000232341F09A968C919A978F5F9A968C936A
:103430009A970FC09A961C929A978034910519F426
:1034400085E790E002C080E490E09E969C938E9386
:103450009D97330F98963C93989788E096968C9317
:1034600096979D96ED91FC919E979B968D919C9140
:103470009C97E80FF91F9F0131709C963C932E9307
:103480009B9796968C919697815096968C93FF2752
:10349000E038F10530F08FEF90E0AC014E1B5F0B90
:1034A000FA01E25FF94F84912F3F310511F008F0E6
:1034B00080950895CF93DF93EC01CB012AEDFE01B7
:1034C00011922A95E9F77D8F6C8F20E430E03EA7BA
:1034D0002DA79E0120583F4FFE01E858FF4F35832E
:1034E000248333832283318320839E012C573F4FD3
:1034F000378326839E0123573F4FDE01AB57BF4FD3
:1035000015963C932E93149713963C932E931297F3
:1035100011963C932E939E0124533F4F17963C9354
:103520002E9316979E01295C3F4F3CAB2BAB3AABD9
:1035300029AB38AB2FA79E012A583F4F3EAB2DAB8E
:1035400024E030E0A281B3811C92628173814681C4
:1035500057816417750719F44481558104C042816D
:1035600053814F5F5F4F53834283215031092115AF
:10357000310541F7BE010E9472158AB1886F8AB980
:10358000219A229A4DE45BE463E576E4488B598BFB
:103590006A8B7B8B8EE796E19B838A8387EF95E12D
:1035A0009983888387E197E19B878A8785E397E101
:1035B0009D878C8783E597E19F878E87DF91CF91E9
:1035C00008952F923F924F925F926F927F928F92C7
:1035D0009F92AF92BF92CF92DF92EF92FF920F93A2
:1035E0001F93CF93DF93CDB7DEB7C45AD1090FB67F
:1035F000F894DEBF0FBECDBFC856DF4F99838883D6
:10360000C859D040C656DF4F79836883CA59D04025
:10361000C456DF4F59834883CC59D0405901C25713
:10362000DF4F19821882CE58D0409E012F5F3F4F46
:10363000C957DF4F39832883C758D040AE014A5756
:103640005F4FC757DF4F59834883C958D040C8568A
:10365000DF4F08811981C859D0400F5F1F4FC856EE
:10366000DF4FE881F981C859D0408491853291F1CA
:10367000882309F448C7C456DF4F68817981CC5943
:10368000D040C656DF4FE881F981CA59D04009952C
:10369000C257DF4FE880F980CE58D040FFEFEF1AD5
:1036A000FF0AC557DF4FB982A882CB58D040C85611
:1036B000DF4F19830883C859D040C257DF4FF982C2
:1036C000E882CE58D040C557DF4FA880B980CB588C
:1036D000D040BDCFF8018491853259F5C856DF4FEF
:1036E00028813981C859D0402E5F3F4FC856DF4FDF
:1036F00039832883C859D040C456DF4F6881798107
:10370000CC59D040C656DF4FE881F981CA59D04024
:103710000995C257DF4FE880F980CE58D040FFEFBF
:10372000EF1AFF0AC557DF4FB982A882CB58D040A5
:10373000C4CFC256DF4F1882CE59D040C357DF4F97
:103740001882CD58D040C057DF4F1882C059D040A2
:10375000CF56DF4F1882C159D040F8012491C801DB
:1037600001962B3209F458C060F42032E9F023327C
:1037700009F05AC0F1E0C357DF4FF883CD58D0406D
:1037800051C02D3251F0203309F04EC021E0C25615
:10379000DF4F2883CE59D04045C0F1E0C057DF4FFE
:1037A000F883C059D0403EC0232D2C7F322ECF56F7
:1037B000DF4F3881C159D040332ACE56DF4F488180
:1037C000C259D04040FB32F8C057DF4F5881C05932
:1037D000D04050FB33F820FA34F8CD56DF4FA881A3
:1037E000C359D040A0FB35F8C357DF4FB881CD583F
:1037F000D040B0FB36F8CC56DF4FE881C459D040FA
:10380000E0FB37F8232D237069F441E0CF56DF4FFA
:103810004883C159D04006C031E0CF56DF4F3883CE
:10382000C159D0408C0199CFC357DF4F5881CD5833
:10383000D040C056DF4F5883C05AD040F801249181
:103840002A3221F0612C712C3AE025C095012E5FBF
:103850003F4FD5016D907C9077FE09C071946194C3
:103860007108B1E0C057DF4FB883C059D0408C0118
:10387000590116C02A33A0F40F5F1F4FFC01849139
:10388000A301349F3001359F700C112450E3651A59
:103890007108680E711CC801F8012491203350F79B
:1038A000C057DF4FF881C059D040FF2329F0C256DE
:1038B000DF4F1882CE59D040F80184918E3249F5FD
:1038C000319684918A3229F08F01412C512C3AE0B3
:1038D0001AC0D5014D905C900E5F1F4FF5013296D6
:1038E0005F011AC02A33C0F40F5F1F4FFC0184919F
:1038F000A201349F2001359F500C112450E3451A3A
:103900005108480E511CC801F8012491203350F78A
:1039100003C044244A94542CF8012491C801019610
:10392000283699F018F42C3439F017C02C3621F0D1
:103930002A3799F4212C02C0222423948C01CD56DD
:10394000DF4F1882C359D0400EC08C01F1E0CD5634
:10395000DF4FF883C359D04005C0CD56DF4F1882E2
:10396000C359D040212C98012F5F3F4FC856DF4FDD
:1039700039832883C859D040F801D490C956DF4F05
:10398000D882C759D040F5E6DF1609F402C2FD150A
:10399000ECF023E5D21609F453C02D1564F035E49C
:1039A000D31609F4F6C147E4D41609F4E1C1DD20C9
:1039B00009F46FC42AC053E6D51671F15D150CF4F5
:1039C000C6C088E5D81609F48DC01FC090E7D91687
:1039D00009F471C09D1564F0A7E6DA1609F4C8C1B0
:1039E000DA160CF4D1C1B9E6DB1609F4B0C00DC08B
:1039F000E5E7DE1609F476C0F8E7DF1609F46DC0D6
:103A000023E7D21202C0F12C1DC0C557DF4FB98287
:103A1000A882CB58D04049C4A5014E5F5F4FC5571F
:103A2000DF4F59834883CB58D040D5018C9189838F
:103A3000F12C8E010E5F1F4FFE0131964F0143C4E2
:103A4000FF24F39495012E5F3F4FC557DF4F398315
:103A50002883CB58D040D5018D909C90811491043F
:103A600021F4A7E48A2EA1E09A2E57FE04C0F0E1CB
:103A70004F2EF7E25F2E8401FF20C1F0F801849100
:103A8000882309F420C4C80188199909841595056B
:103A90000CF019C40F5F1F4FF1CFC80188199909A5
:103AA000841595050CF00FC40F5F1F4FD8018C9142
:103AB0008111F3CF08C4F5013296C557DF4FF98362
:103AC000E883CB58D040D5016D917C9180E090E0A7
:103AD000E6E6EE2EE1E0FE2E26C076E7E72E71E068
:103AE000F72E04C066E6E62E61E0F62E222071F085
:103AF000F5013496C557DF4FF983E883CB58D040A2
:103B0000D5016D917D918D919C910DC0C50102965D
:103B1000F50160817181C557DF4F99838883CB5848
:103B2000D04080E090E021E0CE56DF4F2883C2599C
:103B3000D04035E7D31205C0CE56DF4F1882C259A8
:103B4000D040CF56DF4F1882C159D0403EC022200E
:103B500079F0A5014C5F5F4FC557DF4F598348830C
:103B6000CB58D040D5016D917D918D919C910FC026
:103B7000F5013296C557DF4FF983E883CB58D04023
:103B8000D5016D917C91882777FD8095982F97FFBF
:103B900013C090958095709561957F4F8F4F9F4F83
:103BA000CE56DF4F1882C259D040B2E0CF56DF4F19
:103BB000B883C159D04005C0CE56DF4F1882C259D4
:103BC000D04056E6E52E51E0F52EE1E0CC56DF4F31
:103BD000E883C459D040611571058105910529F428
:103BE000CC56DF4F1882C459D0404114510441F4DF
:103BF000CC56DF4FF881C459D040FF2309F476C07A
:103C0000CE56DF4F2881C259D0408E010A571F4F30
:103C10002130A9F02AE030E040E050E00E94032685
:103C2000F701E60FF71F8081D8018E938D01B9014E
:103C3000CA01611571058105910561F715C0FB0188
:103C4000EF70FF27EE0DFF1D2081F80122938F01F9
:103C500044E096958795779567954A95D1F76115D4
:103C600071058105910559F757FE43C0C256DF4FD4
:103C7000F881CE59D040FF23E1F1232D2C7F322E45
:103C8000CF56DF4F3881C159D040332ACE56DF4F4F
:103C90004881C259D04040FB32F8C057DF4F5881AD
:103CA000C059D04050FB33F820FA34F8CD56DF4FDE
:103CB0008881C359D04080FB35F8C357DF4F9881C6
:103CC000CD58D04090FB36F8CC56DF4FA881C45970
:103CD000D040A0FB37F8232D237081E090E011F451
:103CE00080E090E02301481A590A03C08E010A5768
:103CF0001F4FC757DF4F88819981C958D040801B1B
:103D0000910BF80120E34F01841595051CF42293D3
:103D10000196F9CFC357DF4FB881CD58D040BB23B0
:103D2000A1F0CC56DF4FE881C459D040EE2369F0B2
:103D30008D2D8F7D883549F4F4013197D082F2E0E2
:103D40008F1A910880E3D4018C93C957DF4FE88123
:103D5000F981C758D0408E169F0608F0AEC247EBD7
:103D600052E061EA76E08EE896E00E947523A5C2F3
:103D7000DA94DA94C956DF4FD882C759D04011E09F
:103D80004114510469F006C0C956DF4F1882C75963
:103D9000D04010E057FE07C026E0422E512C03C051
:103DA00044244394512C95012C5F3F4FC557DF4F5E
:103DB00039832883CB58D040D501CD90DD90ED904C
:103DC000FC9020E030E0A901C701B6010E94152453
:103DD00087FF0AC0F7FAF094F7F8F094B2E0CF56F4
:103DE000DF4FB883C159D040C156DF4F1883CF5938
:103DF000D04088248394912C8C0E9D1E860C971C99
:103E000020E030E040E85FE3C701B6010E9464258E
:103E100087FD32C0A12CB12C27EB33E44AEB51E5EE
:103E2000C701B6010E94642587FD0EC029EF32E06C
:103E300045E150E5C701B6010E9419246B017C01E0
:103E4000EAE0AE0EB11CE8CF20E030E040E251E401
:103E5000C701B6010E94642587FD49C020E030E01B
:103E600040E251E4C701B6010E9419246B017C01B4
:103E7000FFEFAF1ABF0AE8CF20E030E0A901C70189
:103E8000B6010E941524A12CB12C882381F12FEFBB
:103E900036EE4BED5EE2C701B6010E9415241816FE
:103EA00074F029EF32E045E150E5C701B6010E9408
:103EB00068256B017C012AE0A21AB108E8CF20E056
:103EC00030E040E85FE3C701B6010E94152487FF98
:103ED0000EC020E030E040E251E4C701B6010E948C
:103EE00068256B017C0131E0A31AB108E8CF1123EA
:103EF00021F1A414B50464F44CEFA4164FEFB406FA
:103F00003CF04A185B08C956DF4F1882C759D040A9
:103F100051E0451A510881E0C357DF4F9881CD58D1
:103F2000D0409827C156DF4F9883CF59D040A1E0A9
:103F3000C357DF4FA883CD58D040C956DF4FB88153
:103F4000C759D040B1114CC0B7FE3EC080E3E1E09C
:103F5000F0E0EC0FFD1FE60DF71D808341145104C6
:103F600061F4C357DF4FE881CD58D040E11105C05F
:103F7000F401319680E090E007C0F40132968EE2C1
:103F8000D40111968C93C20195012F5F3F4F280FEA
:103F9000391F40E38F018217930729F0009719F02A
:103FA00041930197F7CF920120953095A216B30661
:103FB0000CF4D6C02C01E1E0F0E0CB56DF4FF983E2
:103FC000E883C559D0405CC0222733272A193B0912
:103FD000CB56DF4F39832883C559D040840150C068
:103FE0008401CB56DF4F19821882C559D04048C092
:103FF000C701B6010E948124CF55DF4F68837983C2
:104000008A839B83C15AD040CF55DF4F4881598165
:10401000C15AD040BA01882777FD8095982F0E9419
:10402000B4249B01AC01C701B6010E94B02320E07B
:1040300030E040E251E40E9468256B017C01980168
:104040002F5F3F4FCF55DF4F8881C15AD040805DF1
:10405000D8018C93CB56DF4F88819981C559D040C8
:104060000196CB56DF4FE881F981C559D040EF2B3F
:1040700091F0CB56DF4F99838883C559D040890191
:10408000CB56DF4F28813981C559D040421653069F
:104090000CF0AECF14C04114510439F4C357DF4FB4
:1040A000F881CD58D040FF2339F098012E5F3F4F63
:1040B000EEE2D8011196EC9381E090E0DACF20E0B7
:1040C00030E040EA50E4C701B6010E94642587FD54
:1040D00047C0F80181E090E030E322912E3251F0A8
:1040E000820F8A3321F0808380E090E003C0308328
:1040F00081E090E08E169F0680F3892B89F1C956E6
:10410000DF4F3881C759D0403323B9F0F8018E16FC
:104110009F0678F4DF018E919D018E3239F4CF0134
:104120000297DC018C918083F90101C08083319773
:10413000EECFBFEFAB1ABB0A0BC00F5F1F4FF801EA
:104140008E169F0628F4DF018E918083FD01F8CF43
:1041500081E3E1E0F0E0EC0FFD1FE60DF71D808349
:10416000C156DF4FE881CF59D040EE2349F0F80126
:104170008291803311F48F01FACF8E3209F48F01CE
:10418000C956DF4FF881C759D040FF23B9F1D80194
:10419000FC93C8010296B7FE07C02DE211962C933E
:1041A000B194A194B10804C02BE2D80111962C93CC
:1041B0008C01065F1F4F20E030E02F5F3F4FF8017A
:1041C0003196C5016AE070E00E94EF25805DD8015C
:1041D0008C935B016115710511F08F01EECF2230D8
:1041E0003105DCF3E21BF30B199781918E9321507B
:1041F000310912161306CCF309501109C256DF4FCC
:10420000B881CE59D040BB2309F45CC0E32DEC7FCC
:104210003E2ECF56DF4FF881C159D0403F2ACE56AF
:10422000DF4F2881C259D04020FB32F8C057DF4F02
:104230003881C059D04030FB33F820FA34F8CD56DD
:10424000DF4F4881C359D04040FB35F8C056DF4F9F
:104250005881C05AD04050FB36F8CC56DF4F888189
:10426000C459D04080FB37F8232D237081E090E0C3
:1042700011F480E090E09301281B390BF40140E336
:104280004F01C8018E1B9F0B82179307DCF44293EA
:10429000F7CFC557DF4FB982A882CB58D040C85658
:1042A000DF4F19830883C859D040F12C06E411E090
:1042B00083E4882E81E0982E06C0F12C8E010A57E7
:1042C0001F4F01C0F12C0819190960167106DCF1A5
:1042D000932D9C7F392ECF56DF4FA881C159D040F6
:1042E0003A2ACE56DF4FB881C259D040B0FB32F8DF
:1042F000C057DF4FE881C059D040E0FB33F820FAC7
:1043000034F8CD56DF4FF881C359D040F0FB35F873
:10431000C056DF4F2881C05AD04020FB36F8CC561B
:10432000DF4F3881C459D04030FB37F86301C01AE1
:10433000D10A232D237081E090E011F480E090E019
:10434000C81AD90A02C0C12CD12CC057DF4F4881EE
:10435000C059D040411122C031E0C31AD108D7FC66
:104360001DC0C456DF4F68817981CC59D04080E2AE
:10437000C656DF4FE881F981CA59D0400995C25726
:10438000DF4F28813981CE58D0402F5F3F4FC25731
:10439000DF4F39832883CE58D040DECF432D4C7F6A
:1043A000342ECF56DF4F5881C159D040352ACE56D2
:1043B000DF4F8881C259D04080FB32F8C057DF4FB1
:1043C0009881C059D04090FB33F820FA34F8CD568C
:1043D000DF4FA881C359D040A0FB35F8C056DF4F4E
:1043E000B881C05AD040B0FB36F8CC56DF4FE881D8
:1043F000C459D040E0FB37F8832D837001F1813040
:1044000011F48BE201C08DE2C456DF4F68817981DF
:10441000CC59D040C656DF4FE881F981CA59D04007
:104420000995C257DF4F28813981CE58D0402F5F80
:104430003F4FC257DF4F39832883CE58D040F11009
:1044400009C0C257DF4FA880B980CE58D040A81805
:10445000B90822C0C257DF4FE880F980CE58D0405B
:104460005401AE18BF080150110917FD2DC0F50108
:10447000EE0DFF1D8491C456DF4F68817981CC59C0
:10448000D040C656DF4FE881F981CA59D04009951E
:10449000FFEFEF1AFF0AE7CF7501E80CF91C015096
:1044A000110917FD11C0C456DF4F68817981CC59BD
:1044B000D040D4018D914D01C656DF4FE881F9817E
:1044C000CA59D0400995E8CFC057DF4FF881C0598D
:1044D000D040FF2309F4F1C821E0C21AD108D7FC6B
:1044E000ECC8C456DF4F68817981CC59D04080E256
:1044F000C656DF4FE881F981CA59D0400995FFEFD0
:10450000EF1AFF0AE9CFC257DF4F88819981CE5851
:10451000D040CC55DF4F0FB6F894DEBF0FBECDBFF5
:10452000DF91CF911F910F91FF90EF90DF90CF908F
:10453000BF90AF909F908F907F906F905F904F90C3
:104540003F902F9008959091C00095FFFCCF8A3046
:1045500041F09091C00090649093C0008093C60099
:1045600008959091C00090649093C0009DE0909356
:10457000C6009091C00095FFFCCFEBCFCF939B017D
:10458000C091C1004091C10048604093C10040917A
:10459000C1004F794093C10040E050E063EA72E20D
:1045A0000E94E11A8091C00086FFFCCFC093C10039
:1045B000CF910895CF93C091C1009091C1009860B0
:1045C0009093C1009091C1009F799093C10060E0E9
:1045D00070E00E94A3228091C00086FFFCCFC093B0
:1045E000C100CF910895CF93DF93CDB7DEB7FE0121
:1045F000359681919191BF010E94BE22DF91CF91AA
:1046000008951F93CF93DF931091C1002091C100B3
:1046100028602093C1002091C1002F792093C10010
:10462000FC018491EF012196882331F060E070E075
:104630000E94A322FE01F5CF8091C00086FFFCCF2F
:104640001093C100DF91CF911F910895AF92BF9257
:10465000CF92DF92EF92FF920F931F93CF93DF934E
:104660006C0185E0E82EF12C00E117E2C0E0D0E01B
:104670009AE0A92EB12CC601B8010E94EF256C0169
:104680006115710529F4209719F40130110529F4F9
:1046900080E3860F0E94DA222196C801B5010E94AC
:1046A000EF258B0181E0E81AF108E114F10419F714
:1046B000CE01DF91CF911F910F91FF90EF90DF908E
:1046C000CF90BF90AF900895CF93DF93EB010E94FE
:1046D00001238AE30E94DA22CE010E94262380ED84
:1046E00096E0DF91CF910C940123CF93DF93EC01FF
:1046F000CB01BA010E94642383ED96E00E9401235E
:10470000CE010E9401238AE00E94DA2281E090E03B
:10471000DF91CF9108950F931F93CF93DF93182FBD
:10472000092FEB01B901CA010E94642382EC96E0D3
:104730000E940123CE010E9401230F931F9389EB56
:1047400096E09F938F930E94F3220F900F900F900B
:104750000F9081E090E0DF91CF911F910F9108952C
:104760005058BB27AA270ED075C166D130F06BD147
:1047700020F031F49F3F11F41EF45BC10EF4E0957C
:10478000E7FB51C1E92F77D180F3BA1762077307AE
:104790008407950718F071F49EF58FC10EF4E0952B
:1047A0000B2EBA2FA02D0B01B90190010C01CA01EB
:1047B000A0011124FF27591B99F0593F50F4503E96
:1047C00068F11A16F040A22F232F342F4427585F88
:1047D000F3CF469537952795A795F0405395C9F7A0
:1047E0007EF41F16BA0B620B730B840BBAF0915058
:1047F000A1F0FF0FBB1F661F771F881FC2F70EC0F7
:10480000BA0F621F731F841F48F4879577956795C9
:10481000B795F7959E3F08F0B3CF9395880F08F0B2
:104820009927EE0F979587950895D9D008F481E0E0
:1048300008950CD00FC107D140F0FED030F021F424
:104840005F3F19F0F0C0511139C1F3C014D198F392
:104850009923C9F35523B1F3951B550BBB27AA2701
:1048600062177307840738F09F5F5F4F220F331F73
:10487000441FAA1FA9F333D00E2E3AF0E0E830D03F
:1048800091505040E695001CCAF729D0FE2F27D042
:10489000660F771F881FBB1F261737074807AB0710
:1048A000B0E809F0BB0B802DBF01FF2793585F4F85
:1048B0002AF09E3F510568F0B6C000C15F3FECF39F
:1048C000983EDCF3869577956795B795F7959F5F4A
:1048D000C9F7880F911D9695879597F90895E1E09E
:1048E000660F771F881FBB1F621773078407BA07FD
:1048F00020F0621B730B840BBA0BEE1F88F7E09558
:10490000089504D06894B111D9C00895BCD088F03E
:104910009F5790F0B92F9927B751A0F0D1F0660FAB
:10492000771F881F991F1AF0BA95C9F712C0B130C6
:1049300081F0C3D0B1E00895C0C0672F782F8827D9
:10494000B85F39F0B93FCCF3869577956795B39505
:10495000D9F73EF490958095709561957F4F8F4F74
:104960009F4F0895E89409C097FB3EF49095809579
:10497000709561957F4F8F4F9F4F9923A9F0F92F25
:1049800096E9BB279395F695879577956795B795A3
:10499000F111F8CFFAF4BB0F11F460FF1BC06F5F89
:1049A0007F4F8F4F9F4F16C0882311F096E911C09B
:1049B000772321F09EE8872F762F05C0662371F0BC
:1049C00096E8862F70E060E02AF09A95660F771FD0
:1049D000881FDAF7880F9695879597F90895990FAC
:1049E0000008550FAA0BE0E8FEEF16161706E807B9
:1049F000F907C0F012161306E407F50798F0621BDA
:104A0000730B840B950B39F40A2661F0232B242BAE
:104A1000252B21F408950A2609F4A140A6958FEFCD
:104A2000811D811D089597F99F6780E870E060E01F
:104A300008959FEF80EC089500240A941616170637
:104A400018060906089500240A941216130614067F
:104A500005060895092E0394000C11F4882352F0E2
:104A6000BB0F40F4BF2B11F460FF04C06F5F7F4F9A
:104A70008F4F9F4F089557FD9058440F551F59F081
:104A80005F3F71F04795880F97FB991F61F09F3F3B
:104A900079F087950895121613061406551FF2CF64
:104AA0004695F1DF08C0161617061806991FF1CFB4
:104AB00086957105610508940895E894BB276627DB
:104AC0007727CB0197F908958ADF08F48FEF0895CF
:104AD0000BD0C0CFB1DF28F0B6DF18F0952309F076
:104AE000A2CFA7CF1124EACFC6DFA0F3959FD1F3C1
:104AF000950F50E0551F629FF001729FBB27F00D8C
:104B0000B11D639FAA27F00DB11DAA1F649F6627E0
:104B1000B00DA11D661F829F2227B00DA11D621F2F
:104B2000739FB00DA11D621F839FA00D611D221FE9
:104B3000749F3327A00D611D231F849F600D211DCD
:104B4000822F762F6A2F11249F5750408AF0E1F070
:104B500088234AF0EE0FFF1FBB1F661F771F881FB9
:104B600091505040A9F79E3F510570F05CCFA6CF01
:104B70005F3FECF3983EDCF3869577956795B795A4
:104B8000F795E7959F5FC1F7FE2B880F911D9695CE
:104B9000879597F90895DB018F939F930E942526AF
:104BA000BF91AF91A29F800D911DA39F900DB29FC9
:104BB000900D11240895AA1BBB1B51E107C0AA1F29
:104BC000BB1FA617B70710F0A61BB70B881F991FAE
:104BD0005A95A9F780959095BC01CD01089597FB52
:104BE000072E16F4009407D077FD09D00E94DB252C
:104BF00007FC05D03EF4909581959F4F08957095E0
:104C000061957F4F0895A1E21A2EAA1BBB1BFD01DF
:104C10000DC0AA1FBB1FEE1FFF1FA217B307E4079B
:104C2000F50720F0A21BB30BE40BF50B661F771FF3
:104C3000881F991F1A9469F76095709580959095D3
:104C40009B01AC01BD01CF0108950E943026A59FB4
:104C5000900DB49F900DA49F800D911D1124089577
:104C6000A29FB001B39FC001A39F700D811D1124AD
:104C7000911DB29F700D811D1124911D08959111F8
:104C800006C080538A5010F0865C06C008959927AC
:104C90008827089585FDFBCF80629111F8CF81565A
:104CA0008A51E0F708959111089581568A5108F4C8
:0A4CB000805285580895F894FFCF54
:104CBA000000A50420005A010E02EE012000200087
:104CCA00004E01EE01EE0100000000003F3F3F00F0
:104CDA003C4E554C4C3E0061707A6D646D006E6FAF
:104CEA0063616C6C0077696465310001776964659A
:104CFA003200023F3F3F003C4E554C4C3E00B10350
:104D0A00C803D003D103D503D20392039803FF0348
:104D1A00A5039B03D2033031323334353637383961
:104D2A0041424344454630313233343536373839D7
:104D3A00616263646566252E3673002D256400570B
:104D4A0041524E00455252003A252E2A730A000A51
:104D5A000A5352435B252E36732D25645D2C20445D
:104D6A0053545B252E36732D25645D0D0A00766932
:104D7A00613A205B252E36732D25645D0D0A0044A9
:104D8A004154413A20252E2A730D0A005465737442
:0E4D9A002041505253207061636B657400001D
:00000001FF
